:020000040800F2
:10000000E8040020ED0100085B290008CD1F00086E
:10001000592900087F0800081B3300080000000071
:10002000000000000000000000000000732C000829
:1000300081080008000000005D290008752C0008F8
:10004000070200080702000807020008070200086C
:10005000070200080702000807020008070200085C
:10006000070200080702000807020008070200084C
:10007000070200080702000807020008070200083C
:10008000070200080000000007020008070200083D
:10009000070200080702000807020008070200081C
:1000A000070200080702000807020008070200080C
:1000B0007D2D00080702000807020008070200085B
:1000C00007020008070200080702000807020008EC
:1000D00007020008070200080702000807020008DC
:1000E00007020008070200080702000807020008CC
:1000F00007020008070200080702000800000000CD
:1001000000000000070200080000000007020008CD
:1001100007020008000000000702000807020008AC
:10012000070200080702000807020008070200088B
:10013000070200080000000000000000070200089D
:10014000070200080702000800000000000000008D
:10015000000000000000000000000000000000009F
:10016000000000000000000000000000070200087E
:10017000070200080000000000000000000000006E
:10018000000000000702000800000000000000005E
:10019000000000000000000000000000000000005F
:1001A000000000000000000007020008070200082D
:1001B000070200080702000807020008000000000C
:1001C000000000000702000800000000000000001E
:1001D0000702000807020008DFF80CD000F00CFB53
:1001E00000480047413C0008E804002006488047DA
:1001F00006480047FEE7FEE7FEE7FEE7FEE7FEE70C
:10020000FEE7FEE7FEE7FEE7612D0008D9010008E2
:1002100040EA01039B0703D009E008C9121F08C088
:10022000042AFAD203E011F8013B00F8013B521E08
:10023000F9D27047D2B201E000F8012B491EFBD27F
:1002400070470022F6E710B513460A4604461946E1
:10025000FFF7F0FF204610BD2DE9FE4F81EA0304B1
:1002600004F0004421F0004100944FF0000B23F013
:10027000004350EA01045ED052EA03045BD0C3F3AA
:100280000A54C1F30A552C44A4F2F3340194A0FBA0
:100290000254C1F3130141F48011C3F3130343F477
:1002A000801301FB024400FB034E840A970A44EAD0
:1002B000815447EA8357A4FB076802958D0A05FB22
:1002C00007854FEA932C04FB0C542705029D4FEA47
:1002D000065847EA1637B5EB08056EEB070C870E94
:1002E000920E47EA811742EA8312A7FB0201B6EB9E
:1002F0000B0164EB00042B0D43EA0C335E1844EB56
:100300001C50DA465146E7FB0201C5F313044FEADD
:100310000B3343EA14534FEA0432019C43EA0603C9
:10032000A4F10C040294009CCDE900B400F03EF965
:1003300003B0BDE8F08F00200146F9E72DE9F04D4C
:1003400081EA030404F0004B21F0004514464FF00D
:10035000000A23F0004150EA050220D054EA0102CD
:100360001DD0C5F30A570246C5F31303C1F31300AA
:10037000C1F30A5640F4801543F48013A7EB060836
:10038000101BD64608F2FD3873EB050002D308F1C6
:10039000010801E092185B41B8F1000F03DA002078
:1003A0000146BDE8F08D00204FF4801106468446DA
:1003B0000EE0171B73EB050705D3121B63EB050358
:1003C00006434CEA010C49084FEA300092185B41A1
:1003D00050EA0107EDD152EA030012D082EA04008C
:1003E00083EA0501084305D0101BAB4106D2012268
:1003F000002306E000224FF0004302E06FF001020C
:1004000053101AEB06004CEB085110EB0A0041EBBD
:100410000B01BDE8F04D00F0BAB80EB540F2334123
:1004200002910021CDE900110A460B4600F0BEF80A
:1004300003B000BD00F0004230F000400AD0C10D12
:1004400001F56071C0F3160042EA0151C20840078D
:100450001143704700200146704701F0004330B45B
:1004600021F0004150EA010206D00A0DA2F56072A7
:10047000C1F31301002A02DC30BC00207047440F96
:1004800044EAC104C100E01830BC00EBC25000F0E7
:1004900047B830B50B46014600202022012409E070
:1004A00021FA02F59D4205D303FA02F5491B04FA2D
:1004B00002F52844151EA2F10102F1DC30BD2DE940
:1004C000F05F0546002092469B46884606468146D8
:1004D00040241BE0284641464746224600F0ADF93D
:1004E00053465A46C01A914110D311461846224627
:1004F00000F094F92D1A67EB01084F4622460120BF
:10050000002100F08BF917EB00094E41201EA4F1E9
:100510000104DFDC484631462A464346BDE8F09FE9
:100520000029A8BF7047401C490008BF20F0010007
:10053000704710B4B0FA80FC00FA0CF050EA0104E5
:1005400004BF10BC704749B1CCF1200421FA04F477
:1005500011FA0CF118BF012121430843A3EB0C0150
:10056000CB1D4FEA00614FEA102042BF002010BCB3
:10057000704700EBC35010440029A4BF10BC704763
:10058000401C490008BF20F0010010BC704710B5A6
:10059000141E73F1000408DA401C41F100019218A6
:1005A0005B411A4301D120F0010010BD2DE9F04D4F
:1005B00092469B4611B1B1FA81F202E0B0FA80F2A4
:1005C0002032904600F02AF904460F4640EA0A001D
:1005D00041EA0B0153465A46084313D0114653EAE9
:1005E000010019D0C8F14002504600F026F9054636
:1005F0000E4650465946424600F010F9084305D0D1
:10060000012004E020463946BDE8F08D0020054376
:1006100046EAE0762C4337430A986305E40AA0EBE8
:1006200008000022FD0A44EA47540A3002D500209F
:100630000146E9E7010510196941DDE9084500199E
:100640006941BDE8F04DA2E72DE9FE4F804681EA01
:100650000300C00F0C46009021F0004123F000453C
:10066000B8EB0200A94105D24046214690461C46FF
:100670000B46024623F00040104347D0270DC7F336
:100680000A00C3F30A510290401A019040286BDA25
:10069000C3F3130040F4801B0098924620B100235E
:1006A000D2EB030A63EB0B0B01985946C0F14002F1
:1006B000504600F0B3F806460D4650465946019A9A
:1006C00000F0CBF810EB08006141002487EA1152DA
:1006D00084EAE7731A4340D0009A62B3019A012A70
:1006E0004FEA075215DC001B61EB02014FF000429C
:1006F00002EA0752CDE90042001C41F58011324662
:100700002B46FFF753FF03B0BDE8F08F404621466C
:10071000F9E7001B61EB0201001C41F58013001892
:100720005B412018A2F5001747EB030140EAD570A2
:10073000B6196D4111E06D084FEA360645EAC075FD
:100740004FEA0752001B61EB0201001C41F58011CA
:1007500049084FEA30000019514132462B4603B098
:10076000BDE8F04FFFF713BF0098012240000023BF
:10077000D0EB020263EBE073009821464FEAE0748D
:10078000B8EB000061EB0401E9E783F000435BE7AD
:1007900081F0004158E7C1F30A52C1F3130140F25E
:1007A000FF3341F480119A4202DA0020014670477B
:1007B00040F233439A42A2F2334202DC524200F04A
:1007C0003CB800F02BB8000030B5041E71F10004F5
:1007D00004DB4FF00044404264EB0101141E73F14E
:1007E000000405DB1C464FF00043524263EB040358
:1007F000994208BF904230BD064C074D06E0E068C4
:1008000040F0010394E8070098471034AC42F6D357
:10081000FFF7E6FCC84E0008E84E0008202A04DB7B
:10082000203A00FA02F1002070479140C2F1200303
:1008300020FA03F3194390407047202A04DB203A42
:1008400021FA02F00021704721FA02F3D040C2F1F0
:1008500020029140084319467047202A06DBCB1737
:10086000203A41FA02F043EAE07306E041FA02F36B
:10087000D040C2F120029140084319467047FEE77C
:100880007047002240F6B83306E00021491C89B2C7
:100890009942FBD3521C92B28242F6D370470000B9
:1008A0002DE9F05F5E4C0125204694F800804178E8
:1008B000436AA1F1010A8946817805FA0AFCC07AE7
:1008C000584E0CEA01024FF0040B40F2F31741F2CC
:1008D000707E21EA0C0120EA0C00B8F1060F08D264
:1008E000DFE808F003092F3A4A8601F0B3FB00283D
:1008F0007DD1BDE8F09FD4F818C0ACEB030CF445F3
:10090000F7D3C2B1A170E0720021464801F0C6FAE7
:10091000E570002220214FF0904000F082F930680D
:10092000C76231684FF49670886304213D4801F036
:100930004BFA032059E009F101006070A069606280
:10094000D7E7D4F818C0ACEB030CF445D1D3002A98
:10095000D8D184F801A0F1E7A069C01AB0F57A6F88
:10096000C7D304212F4801F099FAA07810B1A069EB
:10097000606205202070BCE7A069C01AB0F57A6FEC
:10098000B7D30421274801F089FA6078A27805FAE4
:1009900000F1491E8A4340F2E73713D0401C6070D3
:1009A000012210214FF0904000F03BF93068C762FF
:1009B00031684FF44870486300211A4801F004FA86
:1009C0002570BBE7401E6070002210214FF0904060
:1009D00000F027F93068C76231684FF41670486339
:1009E0000021104801F0F0F902202070A6E704E091
:1009F000A069C01AB0F5FA6FA2D3002220214FF0EF
:100A0000904000F00EF93068C7623168FA208863C0
:100A10000421044801F0D8F984F800B08EE7000002
:100A200008000020980000207047000070B50446C0
:100A300000F0FCF80546601C02D0044840680444FD
:100A400000F0F4F8401BA042FAD370BD3C00002037
:100A50002DE9FC4FDFF8A0A1002301250AF1040BCA
:100A600003244FF00F0C0BF1040EBDE005FA03F662
:100A700032406FD04F68012F05D0022F03D0112FC5
:100A800001D0122F17D1D0F808905F0004FA07F8B0
:100A900029EA08090097D1F80C8008FA07F848EA13
:100AA0000908C0F808804768B7430E79C6F30016F6
:100AB0009E403E434660C6684FEA430804FA08F782
:100AC000BE4301978F6807FA08F73743C7604E683F
:100AD000022E01D0122E13D1DE0800EB86060096FE
:100AE000366A5F07FF0E0CFA07F926EA0906D1F805
:100AF000109009FA07F949EA0609009EC6F8209005
:100B00000668019FBE430F7907F0030707FA08F74D
:100B1000374307604E68F60065D5384E376E47F0AC
:100B200001073766366E23F0030706F001060096CC
:100B3000334E3E44B146B6689F074FEA17780CFA29
:100B400008F7BE43B0F1904F05D02E4FB84204D104
:100B5000012717E047E0002714E02B4FB84201D1EE
:100B600002270FE0294FB84201D103270AE0284F9E
:100B7000B84201D1042705E0264FB84201D105272C
:100B800000E0062707FA08F73743C9F80870DAF8D3
:100B900000605746D1F8048096435FEAC83800D514
:100BA00016433E60DBF800605F46D1F80480964350
:100BB0005FEA883800D516433E60DEF8006077466D
:100BC000D1F8048096435FEAC82800D516433E60FA
:100BD000094F0C373E68D1F8048096435FEA8828B5
:100BE00000D516433E605B1C0A6832FA03F67FF4B8
:100BF0003DAFBDE8FC8F0000000401400010024042
:100C0000000001400004004800080048000C0048B3
:100C100000100048001400480069084000D001207E
:100C200070470AB1816170478162704701488068EE
:100C3000704700003C00002002488168426811446F
:100C4000816070473C00002010B50024032000F0B4
:100C500077F8002000F008F808B1012401E000F066
:100C600025F8204610BD000070B50E4E0546002444
:100C7000706898B14FF47A71B1FBF0F00A490968D5
:100C8000B1FBF0F000F0F8FB40B9102D06D20022C5
:100C90002946501E00F034F8356000E0012420465B
:100CA00070BD00003C000020480000200B4808B543
:100CB000016E41F001010166016E01F00101009138
:100CC000816D41F080518165806D00F08050009011
:100CD0000348816841F48041816008BD00100240F2
:100CE00000700040002809DB00F01F020121914044
:100CF0004009800000F1E020C0F8001170470000BA
:100D0000F0B40E4B1B680C46C3F30223C3F1070576
:100D1000042D00D90425191D072901D2002300E064
:100D2000DB1E012606FA05F1491E214099409E402E
:100D3000761E16403143F0BC02F004BB0CED00E01F
:100D4000064900F0070208684FF6FF03184040EA22
:100D50000220034A10430860704700000CED00E0D9
:100D60000000FA052B492C4B0A6832214A432B49D3
:100D700040B1B0F5007F086829D020F4C06040F48D
:100D800080602CE00868C0F34120022804D051F8AC
:100D9000800F20F4807022E0D1F8800020F4807071
:100DA000C1F88000086820F4C06040F4007008605A
:100DB000B2FBF3F0401C00E0401E4A69520501D529
:100DC0000028F9D1486940050AD503207047C0F3CF
:100DD0004120022806D051F8800F40F4807008604E
:100DE00000207047D1F8800040F48070C1F8800086
:100DF000086820F4C06040F400700860B2FBF3F0B3
:100E0000401C00E0401E4A695205DBD50028F9D19C
:100E1000D8E700004800002040420F00007000406A
:100E20002DE9F0470E4605004FF0000725D0DFF80A
:100E3000AC81D8F8000000F00F00B0420CD2D8F816
:100E4000001021F00F013143C8F80010D8F800005D
:100E500000F00F00B04210D12968614CC80741F280
:100E6000883A5AD06868DFF87C91032808D00228B5
:100E700020682DD0400500282CDB0120BDE8F0873C
:100E800020688001F9D5E06800F00302E068C0F353
:100E90000310401C032A19D0534A00BFB2FBF0F0E4
:100EA000E268C2F306225043E268C2F34162521C78
:100EB0005200B0FBF2F0484517D9A06810F0F00FCF
:100EC0000CD0880711D5A86840B10EE0474AE5E785
:100ED0008003D0E700F092F8484506D9A06820F0DA
:100EE000F00040F08000A0608027A068696820F0D2
:100EF00003000843A060FFF799FE814606E000BFAB
:100F0000FFF794FEA0EB090151453AD8A068696843
:100F100000F00C00B0EB810FF2D12868810714D5E6
:100F2000400703D5A06840F4E060A060287800077F
:100F300005D5A06820F4605040F4E060A060A0688F
:100F4000A96820F0F000084304E0802F03D1A068D6
:100F500020F0F000A060D8F80010404601F00F012A
:100F6000B14216D9016821F00F0131430160FFF74A
:100F70005DFE074607E000BFFFF758FEC11B514565
:100F800001D903207AE7D8F8000000F00F00B04242
:100F9000F2D12878400705D5A068E96820F4E06020
:100FA0000843A0602878000706D5A068296920F4C6
:100FB000605040EAC100A06000F020F8A1680C4A2F
:100FC000C1F30311515C01F01F01C84009490860D9
:100FD00009480068BDE8F047FFF746BE0020024020
:100FE0000010024000B4C4040024F40000366E0176
:100FF000784E0008480000203C000020184910B539
:101000008868C0F381021748012A0BD08A68164B02
:10101000C2F38102022A06D08A68C2F38102032A3F
:1010200003D0002010BD184610BDCA6802F00304AA
:10103000CA68C2F30312521C032C02D0B0FBF2F0B8
:1010400001E0B3FBF2F0CA68C968C2F3062250435C
:10105000C1F34161491C4900B0FBF1F010BD000033
:10106000001002400024F40000366E012DE9F84320
:1010700004007AD02078FA4DC00747D0A868E96804
:1010800000F00C0001F003010C2802D0082817D052
:1010900001E0032914D06068B0F5803F17D0B0F5A7
:1010A000A02F286817D020F480302860286820F40A
:1010B000802028606068E0B1FFF7B8FD064614E0C4
:1010C0002868800322D560680028D2D01EE02868F6
:1010D00040F48030EDE740F480202860F7E700BF5F
:1010E000FFF7A4FD801B642870D828688003F7D51B
:1010F0000CE0FFF79BFD064605E000BFFFF796FDFD
:10110000801B6428F0D828688003F7D420788007F3
:101110004CD5A868E96800F00C0001F003010C2828
:1011200002D004280DD001E002290AD0E06800288E
:1011300028682BD040F480702860FFF777FD0646C2
:1011400019E02868400502D5E068002891D0686859
:10115000217C20F0FE4040EA01606860C1480068E0
:10116000FFF782FD002800D120E076E1FFF75EFD69
:10117000801B0228B8D828684005F7D56868217C0C
:1011800020F0FE4040EA016068600FE020F48070CB
:101190002860FFF74BFD064605E000BFFFF746FD60
:1011A000801B0228A0D828684005F7D420780007C3
:1011B00029D560690028D5F8940013D040F00100CB
:1011C000C5F89400FFF732FD064606E090E000BF48
:1011D000FFF72CFD801B022886D8D5F894008007E5
:1011E000F6D510E020F00100C5F89400FFF71EFDD1
:1011F000064604E0FFF71AFD801B022878D8D5F8D0
:1012000094008007F6D42078400761D5A86D0026A9
:10121000C00008D4A86D40F08050A865A86D0126D4
:1012200000F08050009090480168C90511D4016811
:10123000804641F480710160FFF7F8FC074604E046
:10124000FFF7F4FCC01B022852D8D8F80000C005F4
:10125000F6D5A068012815D00528D5F8900016D03D
:1012600020F00100C5F89000D5F8900020F00400AF
:10127000C5F89000A06841F28838B8B1FFF7D6FCF5
:1012800007460EE0D5F8900040F00100F0E740F08E
:101290000400C5F89000F5E7FFF7C8FCC11B414505
:1012A00026D8D5F890008007F6D50CE0FFF7BEFCF5
:1012B000074604E0FFF7BAFCC11B414518D8D5F832
:1012C00090008007F6D41EB1A86D20F08050A8656C
:1012D0002078800629D5A0690028D5F8980013D079
:1012E00040F00100C5F89800FFF7A0FC064606E0B4
:1012F00077E000BFFFF79AFC801B022877D8D5F86B
:1013000098008007F6D510E020F00100C5F898009D
:10131000FFF78CFC064604E0FFF788FC801B0228E0
:1013200065D8D5F898008007F6D4E069F0B3A968CD
:10133000C1F38101032961D00228286820F0807060
:1013400028600BD0E86820F00300E860E8684749AF
:101350000840E860FFF76AFC04464BE0FFF766FCD4
:10136000064604E0FFF762FC801B02283FD828688D
:101370008001F7D4F4E908016FF00F0202EB0111CC
:101380000843218A5204490802EB4151A26841EA0C
:1013900002210843217D4FF07E42490802EB416162
:1013A0000843217B40EAC160E96800E062E0304A1E
:1013B00011400843E860286840F080702860E868C1
:1013C00040F08070E860FFF731FC044605E000BFA4
:1013D000FFF72CFC001B022809D828688001F7D5EC
:1013E00048E004E0FFF722FC001B022802D903209A
:1013F000BDE8F88328688001F4D43BE00128F7D0E9
:10140000E868226A00F00301914226D1616A00F087
:10141000F0020901103991421FD1A26A00F4FE4185
:10142000B1EB022F19D194F82C2000F07841B1EBE8
:10143000C26F12D1218E00F4C00249084905A1F5FE
:101440000011914209D194F8341000F0C0604908AD
:101450004906A1F1007181420CD00120C8E70000CB
:10146000001002403C00002000700040FFFFEEFE34
:101470000C809F010020BBE710B5401EB0F1807FBB
:1014800001D3012010BD4FF0E02460610F216017EF
:1014900001F058FF0020A06107202061002010BD4E
:1014A000704770477047704770477047F0B590F8C5
:1014B0003C20012A3AD0012580F83C50022280F8D5
:1014C0003D2003685A689C68194E1A4FB34201D0F8
:1014D000BB4204D122F4700C4A6842EA0C02DFF8E5
:1014E00058C002EA0C02D1F800C04CEA020CC3F862
:1014F00004C00268B2420DD0B2F1804F0AD00F4B47
:101500009A4207D00E4B9A4204D0BA4202D00D4BF9
:101510009A4204D1896824F080031943916080F8CD
:101520003D50002180F83C100846F0BD0220F0BD7F
:10153000002C0140003401408FFFFFFD00040040FB
:101540000008004000400140704710B5040003D07F
:1015500094F83D0010B107E0012010BD002084F890
:101560003C00204600F022F8022084F83D00211DB6
:10157000206801F009FC012084F8480084F83E004E
:1015800084F83F0084F8400084F8410084F8420069
:1015900084F8430084F8440084F8450084F8460049
:1015A00084F8470084F83D00002010BD10B586B0D7
:1015B000044614216846FEF744FE2068B0F1804FCF
:1015C00027D11548816D41F001018165816D01F0E0
:1015D00001010591C16C41F00101C164C06C694613
:1015E00000F0010005904FF40040009002200190AF
:1015F000002002900390012004904FF09040FFF7EC
:1016000027FA002211461C20FFF77AFB1C20FFF767
:1016100069FB06B010BD00000010024070B5054621
:101620002DED028B0068B0F1804F2DD1287F01286D
:101630002AD10021284600F088FC154C401CE060AF
:10164000E068D8B1E068FEF7E8FE41EC180BFFF760
:10165000D5FCFEF7E2FE9FED0F1B53EC112BFEF7BE
:101660006DFE53EC182BFEF769FEFEF7F6FE606187
:101670000421284600F069FC401C04E09FED070AA5
:10168000002084ED050A2061BDEC028B70BD0000D6
:10169000080000200000000000005440000000008E
:1016A0002DE9F041054690F83C000C46012836D063
:1016B000012085F83C008AB3042A42D02868082A11
:1016C00051D0D4E90023E168066A26F48056066208
:1016D000C669076A26F4407646EA03234FF6FF768A
:1016E00006EA013123F4704319434FF4204627F4EE
:1016F000204306EA02321A43C16102622868C169C6
:1017000021F44061C1612868C169A26841EA0221EF
:10171000C161002085F83C00BDE8F08101E00220B5
:10172000FAE7D4E90012E368286801F093FD28681D
:10173000816921F00C01816128688169A2681143E7
:101740000FE0D4E90012E368286801F0CBFD2868B7
:10175000816921F44061816128688169A26841EA58
:1017600002218161D5E7D4E90027267B016A21F4B3
:1017700080710162C169036A21F00301394321F0DC
:10178000F00731074FF4206647EA116123F4206324
:1017900006EA02221A43C16102622868C16921F087
:1017A0000C01C1612868C169A2681143B0E710B596
:1017B000040003D094F83D0010B107E0012010BDF3
:1017C000002084F83C00204600F022F8022084F833
:1017D0003D00211D206801F0D7FA012084F848005F
:1017E00084F83E0084F83F0084F8400084F841000B
:1017F00084F8420084F8430084F8440084F84500EB
:1018000084F8460084F8470084F83D00002010BDAD
:101810007047000010B5044679B1042912D0082998
:1018200015D00C2918D0102919D094F8430000BF06
:1018300094F84720012817D114E094F83E0094F85A
:101840004420F7E794F83F0094F84520F2E794F835
:10185000400094F84620EDE794F84100E8E794F85A
:101860004200E5E7012A01D0012010BD0220F1B1BC
:10187000042921D0082924D00C2927D0102928D0C8
:1018800084F8430084F847000122206801F0D4FA6C
:1018900020688168104A1140062906D0B1F5803FC2
:1018A00003D0016841F001010160002010BD84F8FF
:1018B0003E0084F84400E7E784F83F0084F84500E0
:1018C000E2E784F8400084F84600DDE784F8410050
:1018D000D8E784F84200D5E70700010010B50446B8
:1018E00079B1042912D0082915D00C2918D0102953
:1018F00019D094F8430000BF94F84720012817D16D
:1019000014E094F83E0094F84420F7E794F83F0080
:1019100094F84520F2E794F8400094F84620EDE76B
:1019200094F84100E8E794F84200E5E7012A01D085
:10193000012010BD022071B1042915D008291CD046
:101940000C2936D0102937D084F8430084F847009A
:101950000C291BD133E084F83E0084F84400206851
:10196000C26842F0020210E084F83F0084F84500AB
:101970002068C26842F0040207E084F8400084F85E
:1019800046002068C26842F00802C2600122206856
:1019900001F052FA206881680B4A1140062906D0EE
:1019A000B1F5803F03D0016841F0010101600020E2
:1019B00010BD84F84100C9E784F84200C6E72068FA
:1019C000C26842F01002E0E70700010070B504466B
:1019D000006801694FF00005C943890715D4C16843
:1019E000C943890711D4E91E0161012020772068CD
:1019F00080698007204602D0FFF710FE04E000F067
:101A00000BF9204600F0DEF9257720680169C9430B
:101A1000490717D4C168C943490713D46FF00401BB
:101A20000161022020772068806910F4407F204601
:101A300002D0FFF7F3FD04E000F0EEF8204600F0DE
:101A4000C1F9257720680169C943090716D4C1681F
:101A5000C943090712D46FF00801016104202077FF
:101A60002068C0698007204602D0FFF7D7FD04E058
:101A700000F0D2F8204600F0A5F92577206801692A
:101A8000C943C90617D4C168C943C90613D46FF046
:101A900010010161082020772068C06910F4407FA0
:101AA000204602D0FFF7BAFD04E000F0B5F820466A
:101AB00000F088F9257720680169C943C90708D172
:101AC000C168C943C90704D1891E0161204600F0DD
:101AD0003BFA20680169C943090609D4C168C943B2
:101AE000090605D46FF0800101612046FFF7D9FC9B
:101AF00020680169C943C90509D4C168C9430906F9
:101B000005D46FF4807101612046FFF7C9FC20689D
:101B10000169C943490609D4C168C943490605D4C6
:101B20006FF040010161204600F04FFA2068016922
:101B3000C943890609D4C168C943890605D46FF031
:101B4000200101612046FFF7ADFC20680169C9430F
:101B5000C90209D4C168C943C90205D46FF4801110
:101B600001612046FFF7A0FC20680169C943890292
:101B700009D4C168C943890205D46FF40011016119
:101B80002046FFF790FC20680169C943490209D447
:101B9000C168C943490205D46FF480010161204640
:101BA000FFF783FC20680169C94309020BD4C168AF
:101BB000C943090207D46FF4000101612046BDE862
:101BC0007040FFF7C1BC70BD10B586B0044614214B
:101BD0006846FEF736FB0E492068884215D10D484D
:101BE000C16C41F00101C164C06C002100F0010032
:101BF0000590C02000900220CDE90101CDE903103D
:101C000069464FF09040FEF723FF06B010BD00007C
:101C10000004004000100240704770B5044690F880
:101C20003C000D4601280BD0012084F83C000C2A12
:101C300045D007DC5AB1042A1BD0082A78D12CE001
:101C4000022070BD102A4ED0142A71D15DE02068A8
:101C500001F00AF92068816941F00801816120687A
:101C6000816921F004018161206881692A69114339
:101C700011E0206801F046F92068816941F40061B3
:101C800081612068816921F48061816120688169B6
:101C90002A6941EA022181614AE0206801F07AF96B
:101CA0002068C16941F00801C1612068C16921F063
:101CB0000401C1612068C1692A69114311E02068EB
:101CC00001F0B0F92068C16941F40061C161206888
:101CD000C16921F48061C1612068C1692A6941EA52
:101CE0000221C16124E0206801F0E4F92068016D5F
:101CF00041F0080101652068016D21F004010165D2
:101D00002068016D2A69114311E0206801F00AFA88
:101D10002068016D41F4006101652068016D21F4C6
:101D2000806101652068016D2A6941EA022101652F
:101D3000002084F83C0070BD10B5040003D094F876
:101D40003D0010B107E0012010BD002084F83C00E8
:101D5000204600F023F8022084F83D00211D206871
:101D600001F012F8012084F8480084F83E0084F85D
:101D70003F0084F8400084F8410084F8420084F871
:101D8000430084F8440084F8450084F8460084F851
:101D9000470084F83D00002010BD000008B5006831
:101DA0000649884208D10648816D41F002018165EB
:101DB000806D00F00200009008BD000000040040AB
:101DC000001002407047000010B50446022269B1BD
:101DD000042912D0082917D00C291CD0102921D091
:101DE00094F84300012824D0012010BD94F83E004F
:101DF0000128F9D184F83E201DE094F83F00012825
:101E0000F2D184F83F2016E094F840000128EBD18D
:101E100084F840200FE094F841000128E4D184F8D0
:101E2000412008E094F842000128DDD184F84220E6
:101E300001E084F843200122206800F0FDFF1149F1
:101E4000206888420BD01049884208D00F49884248
:101E500005D00F49884202D00E49884203D1416C17
:101E600041F400414164206881680B4A1140062911
:101E700006D0B1F5803F03D0016841F00101016057
:101E8000002010BD002C0140003401400040014002
:101E900000440140004801400700010030B50446FD
:101EA0000D460068002200F0C7FF224B41F21111DD
:101EB00020688A0098420BD01F4B984208D01F4BD5
:101EC000984205D01E4B984202D01E4B984209D131
:101ED000036A0B4206D1036A134203D1436C23F415
:101EE000004343642068036A0B4206D1016A114231
:101EF00003D1016821F00101016001205DB1042DD1
:101F00000CD0082D0DD00C2D0ED0102D0FD084F834
:101F10004300002030BD84F83E00FAE784F83F001B
:101F2000F7E784F84000F4E784F84100F1E784F82B
:101F30004200EEE7002C0140003401400040014027
:101F4000004401400048014070470246002041B172
:101F5000042909D008290AD00C2901D11068006C85
:101F600070471068406B70471068806B704710684E
:101F7000C06B704770B5044690F83C00012812D041
:101F8000012584F83C50022084F83D00204601F0F1
:101F900001F901004FF0000007D084F83D5084F8AB
:101FA0003C00012070BD022070BD2168CA6822F08B
:101FB0004002CA602168CA6822F48042CA6084F87C
:101FC0003D5084F83C00002070BD7047FEE70000E3
:101FD00070B51F4D002401212846FEF71DFE40B9B3
:101FE0000A20FEF723FD01212846FEF715FE00B961
:101FF000012402212846FEF70FFE40B90A20FEF711
:1020000015FD02212846FEF707FE00B9022404212F
:102010002846FEF701FE40B90A20FEF707FD04211D
:102020002846FEF7F9FD00B903244FF09045012141
:102030002846FEF7F1FD40B90A20FEF7F7FC012122
:102040002846FEF7E9FD00B90424204670BD0000D3
:102050000004004810B5FFF7BBFF224C617A8842AC
:1020600021D06072A1692163617888421BD0012868
:1020700006D002280CD0032818D0042810D11DE067
:10208000A07840F00100A070E07A40F0010006E086
:10209000A07840F00200A070E07A40F00200E07208
:1020A000E07A00F0FDF9607A80B119E0A07840F0A4
:1020B0000400A070E07A40F00400F0E7A07840F05F
:1020C0000800A070E07A40F00800E8E7A069216B02
:1020D000401AB0F57A7F03D3A07808B1012010BD73
:1020E000002010BD0800002000B585B0142168460E
:1020F000FEF7A7F84FF6FF70009000200321CDE90E
:102100000201019069460248FEF7A2FC05B000BD3D
:102110000008004800B585B014216846FEF791F824
:102120004FF6FF70009001200190032003900020E3
:10213000029069460248FEF78BFC05B000BD000026
:102140000008004870B5002406462146204600F0ED
:1021500003F900F041F94FF49635304600F010F9DC
:10216000641CAC42F9D370BD30B587B01421684609
:10217000FEF767F81E48C16C41F00401C164C16CF0
:1021800001F004010591C16C41F00101C164C16C11
:1021900001F001010591C16C41F00201C164C06C04
:1021A000012500F0020005904FF44870CDE90005CC
:1021B00000240394694602940E48FEF749FC280265
:1021C00003940090CDE901544FF0904469462046B5
:1021D000FEF73EFCFFF79EFFA06940F48070A0610F
:1021E00004481830016841F40871016007B030BD3F
:1021F0000010024000040048203AD2B2034B02EB28
:10220000420203EB021200F019B80000903C0008F3
:10221000F0B50E460746002540F23F1407E0214680
:102220003846FFF7E9FF103C6D1CA4B2761C3278EB
:10223000002A01D0142DF2D3F0BD00002DE9F047A3
:1022400091468A460026044600F086F8DFF8408072
:10225000012700BF00F0C0F85FF0000539F8160054
:1022600007FA05F10842404601D1408800E00088A5
:1022700000F086F86D1C102DF0D3641CE4B25146BA
:10228000204600F069F8761C182EE3D3BDE8F087ED
:102290000000002010B5FFF767FF002000F014F8E1
:1022A000084CA080A088A0F50241303906D000F08B
:1022B000DFFB002000F008F8A08010BD00F04FFB0D
:1022C000F7E700000000002070B51D490A6842F4DD
:1022D00000720A600A6842F480720A60184C103C6E
:1022E000226842F020022260164A1060086840F01E
:1022F0002000086000BF00BF00BF206840F0200041
:102300002060206840F480702060FFF7EDFE4FF001
:102310009041886A40F48070886200BF00BF00BFAF
:102320000848001F006885B2886940F480708861A1
:10233000FFF7F0FE206840F400702060284670BD72
:10234000280400481408004801B5BDF80000014900
:10235000488008BD0000002010B50C460146202032
:1023600000F068F82146BDE81040212000F062B876
:1023700001B5BDF800000149088008BD000000203B
:10238000134A116841F400711160114910390B684A
:1023900043F480730B600B6843F020030B600D4B1C
:1023A0001860106840F02000106000BF00BF00BF40
:1023B000086840F020000860086840F480700860F9
:1023C00000BF00BF00BF086840F40070086070479D
:1023D00028040048140800481449086840F40070B4
:1023E0000860086840F4807008601048103802687F
:1023F00042F0200202600E4B22221A600A6842F06C
:1024000020020A6000BF00BF00BF016841F0200148
:102410000160016841F48071016000BF00BF00BF2E
:10242000016841F400710160704700002804004811
:1024300014080048184B10B51A6842F400721A606C
:102440001A6842F480721A60134A103A146844F011
:1024500020041460114C2060186840F020001860BF
:1024600000BF00BF00BF106840F02000106010687F
:1024700040F4807010602160186840F020001860FF
:1024800000BF00BF00BF106840F02000106010685F
:1024900040F48070106010BD280400481408004803
:1024A000084910B5C04300020860074C012204210E
:1024B0002046FEF7B6FB20460022BDE8104004216E
:1024C000FEF7AFBB14080048000C004810B52DED16
:1024D000028B8EB01C2101A8FDF7B3FE18224549DE
:1024E00008A8FDF795FE44A10020FFF791FE484C97
:1024F000E078E8B1216AE06A88420FD0206AE062A1
:10250000A07A10F0010F00F10100A0720AD06078EB
:102510003030C2B2A0211820FFF76EFEA07A042846
:1025200002D00CE02022F5E70020E070A07206E067
:102530006078A0213030C2B21820FFF75DFEA0798C
:1025400000906379227933A101A800F0E7FE01A988
:102550003020FFF75DFE217808A850F8212033A134
:1025600001A800F0DBFE01A94820FFF751FE6069D9
:10257000FDF760FF41EC100B30A153EC102B01A8CC
:1025800000F0CCFE01A99020FFF742FEE068FDF7C5
:1025900044FF41EC180B2069FDF73FFF9FED2D1B19
:1025A00053EC112BFDF758FE53EC182BFDF7C6FE2C
:1025B00041EC100B29A153EC102B01A800F0AEFE4A
:1025C00001A9A820FFF724FEE2682AA101A800F0D3
:1025D000A5FE01A9C020FFF71BFE22692AA101A8C0
:1025E00000F09CFE01A9D820FFF712FE0EB0BDEC52
:1025F000028B10BD604E0008202043757272656E1C
:102600007420506C6174666F726D202000000000B1
:1026100008000020202020202020253032643A2588
:102620003032643A2530326400000000202020203F
:10263000202025732020202000000000202046724A
:1026400065713A25342E3166485A202020202020FA
:1026500000000000000000000000594020204475E8
:1026600074793A25342E316625252020202020201B
:1026700000000000202043617074313A256420205E
:102680002020202000000000202044757479313A79
:102690002564202020202020000000001648C26968
:1026A000816A91420BD0C169816201460278C97A80
:1026B000012A01F00F0105D0022A10D0C172C07AA0
:1026C000FFF7EEBE027A8023D3400B43521CD1B2F7
:1026D000C37201720429F2D100210172EFE7C379BC
:1026E00001229A400A435B1CD9B2C272C171082907
:1026F000E5D10421C171E2E7080000202DE9F04F87
:1027000087B014216846FDF79CFD4048C16C41F03C
:102710000401C164C16C01F004010591C16C41F078
:102720002001C164C16C01F020010591C16C41F030
:102730000101C164C16C01F001010591C16C41F05E
:102740000201C164C16C01F002010591C16C41F04C
:102750000801C164C06CDFF8B88000F008004FF6D3
:10276000FF740590002221464046FEF75AFA4FF4C6
:1027700098764FF09049002231464846FEF751FACC
:10278000DFF890A0002204215046FEF74AFADFF855
:1027900088B04FF44877002239465846FEF741FA90
:1027A0000125CDE900450024029469464046039482
:1027B000FEF74EF9CDE90054694648460294FEF70B
:1027C00047F90096CDE90154694648460394FEF75F
:1027D0003FF90720CDE90004694658460294FEF708
:1027E00037F904200090CDE901546946504603941E
:1027F000FEF72EF90097CDE9015469465846039437
:10280000FEF726F907B0BDE8F08F00000010024087
:1028100000080048000C00480004004810B58CB0C7
:10282000142104A8FDF70DFD002427480A940B94F9
:1028300009940094019402944FF080410394016044
:102840004F21C0E90114611EC0E903148461FEF741
:102850007CFE08B1FEF7E8F81B48FEF7A8FF08B1B8
:10286000FEF7E2F8042004905020CDE9050404A905
:1028700015480894FFF77EFB08B1FEF7D5F80994D8
:1028800009A911480B94FEF711FE08B1FEF7CCF828
:102890000120CDE900400294002269460A480394D1
:1028A000FEF7FEFE08B1FEF7BFF80220009001908F
:1028B000042269460448FEF7F3FE002801D0FEF723
:1028C000B3F80CB010BD00004C00002010B58AB069
:1028D0000024079408941C2168460994FDF7B1FC74
:1028E0001C481B4901604F21C0E9011440F2E73147
:1028F000C0E903148461FFF71FFA08B1FEF794F8EA
:10290000079407A913480994FEF7D0FD08B1FEF714
:102910008BF8602000904FF44870CDE9010400224C
:1029200069460C480494FFF778F908B1FEF77CF883
:102930004FF496700190042269460648FFF76DF93E
:1029400008B1FEF771F80348FFF73EF90AB010BD71
:102950000004004098000020FEE77047704730B543
:1029600001210020FFF766FD4FF47A70FDF789FF23
:1029700000210120FFF75EFD41F290711020FFF76A
:1029800059FD4FF41C516020FFF754FD01216120D7
:10299000FFF750FD02214620FFF74CFD48F21001E1
:1029A0001320FFF747FD48F2FE011220FFF742FD1A
:1029B0004FF4A0610220FFF73DFD41F230010320FA
:1029C000FFF738FD40F2033421463020FFF732FD97
:1029D00021463120FFF72EFD21463220FFF72AFD48
:1029E000E51E29463320FFF725FD03213420FFF79C
:1029F00021FD21463520FFF71DFD14213620FFF76C
:102A000019FD21463720FFF715FD21463820FFF735
:102A100011FD21463920FFF70DFD29463A20FFF729
:102A200009FD03213B20FFF705FD21463C20FFF770
:102A300001FD4FF4A0513D20FFF7FCFC4FF4007165
:102A40009220FFF7F7FC21469320FFF7F3FC40F6B6
:102A50000D019020FFF7EEFC41F218010320FFF773
:102A6000E9FCBDE8304040F273110720FFF7E2BCFB
:102A700010B543F20801E320FFF7DCFC1221E72048
:102A8000FFF7D8FC41F23121EF20FFF7D3FC002102
:102A90000120FFF7CFFC4FF4E0610220FFF7CAFCF2
:102AA00041F230010320FFF7C5FC00210420FFF7AD
:102AB000C1FC40F207210820FFF7BCFC00210920DF
:102AC000FFF7B8FC00210A20FFF7B4FC00210C201E
:102AD000FFF7B0FC00210D20FFF7ACFC00210F2018
:102AE000FFF7A8FC00211020FFF7A4FC072111200C
:102AF000FFF7A0FC00211220FFF79CFC002113200F
:102B0000FFF798FCC820FDF791FF41F2906110207B
:102B1000FFF790FC40F227211120FFF78BFC3220B9
:102B2000FDF784FF1D211220FFF784FC3220FDF702
:102B30007DFF4FF400611320FFF77CFC1421292056
:102B4000FFF778FC0B212B20FFF774FC3220FDF7F8
:102B50006DFF00212020FFF76DFC00212120FFF7F1
:102B600069FC07213020FFF765FC40F20771312036
:102B7000FFF760FC06213220FFF75CFC40F2047195
:102B80003520FFF757FC41F604713620FFF752FC61
:102B900004213720FFF74EFC00213820FFF74AFCC4
:102BA00040F206713920FFF745FC40F201713C20EC
:102BB000FFF740FC0F213D20FFF73CFC0021502097
:102BC000FFF738FCEF215120FFF734FC00215220A1
:102BD000FFF730FC40F23F115320FFF72BFC4FF47E
:102BE0001C516020FFF726FC01216120FFF722FC29
:102BF00000216A20FFF71EFC00218020FFF71AFC4D
:102C000000218120FFF716FC00218220FFF712FC33
:102C100000218320FFF70EFC00218420FFF70AFC2F
:102C200000218520FFF706FC10219020FFF702FC11
:102C300000219220FFF7FEFB03219320FFF7FAFB10
:102C40004FF488719520FFF7F5FB00219720FFF7DF
:102C5000F1FB00219820FFF7EDFB41F21801032062
:102C6000FFF7E8FBBDE8104040F273110720FFF7C3
:102C7000E1BB704710B5FDF7DFFF1C480168491C38
:102C800001600168FA22B1FBF2F302FB131119B9DA
:102C900017490A68521C0A6000684FF47A71B0FB49
:102CA000F1F201FB120000281FD112480168491CF3
:102CB000016002684FF46161B2FBF1F20E4B1A70D1
:102CC00002680E4CB2FBF1F301FB13233C22B3FB71
:102CD000F2F323700068B0FBF1F301FB1300B0FBCB
:102CE000F2F102FB11000649087010BD200000201F
:102CF00028000020240000200C0000200D000020EF
:102D00000E00002000B593B038216846FDF799FA0F
:102D100014210EA8FDF795FA4FF40070FEF722F883
:102D20000220C10103914021049100900790089076
:102D30001421CDE909010B900C900D906846FEF727
:102D400095F90F200E9003200F9000201090119005
:102D5000129003210EA8FEF763F813B000BD000027
:102D60000548016841F47001016003494FF00060BB
:102D7000803908607047000088ED00E00148FEF7E8
:102D800025BE00004C0000202DE9F0430268234BD3
:102D9000234D244E244C4FF08049984207D048459B
:102DA00005D0A84203D0B04201D0A04203D122F006
:102DB00070074A683A431D4FDFF874C0DFF874802B
:102DC00098420DD048450BD0A84209D0B04207D058
:102DD000A04205D0B84203D0604501D0404503D1A0
:102DE00022F44075CA682A434D6922F080022A43C2
:102DF00002608A68C2620A688262984207D0A04272
:102E000005D0B84203D0604501D0404501D10969E1
:102E1000016301214161BDE8F0830000002C014005
:102E20000004004000080040003401400040014020
:102E3000004401400048014010B501F01F0301218A
:102E4000046A99408C430462016A9A40114301620A
:102E500010BD10B5846842EA032224F47F440A437B
:102E60002243826010BD00002DE9F043026A22F087
:102E700001020262056A436882691C4C25F0020562
:102E800022400C6822F0030214438A68194E2A4338
:102E9000174D194FDFF864C0DFF86490A84207D0DF
:102EA000B04205D0B84203D0604501D0484506D1B4
:102EB00022F00808CA6842EA080222F00402A84286
:102EC00007D0B04205D0B84203D0604501D0484594
:102ED00005D14D6923F440731D438B692B43436037
:102EE0008461496841630262BDE8F0838FFFFEFFA1
:102EF000002C0140003401400040014000440140EA
:102F000000480140F0B5026A22F010020262056A30
:102F100042688369194C1B4E23400C6823F44073AC
:102F200043EA042425F020038D6843EA0513144D79
:102F3000A84201D0B04206D1CF6823F0800343EA13
:102F4000071323F04003A8420AD0B04208D00E4D28
:102F5000A84205D00D4DA84202D00D4DA84207D180
:102F60004D6922F4406242EA85028D6942EA850297
:102F700042608461496881630362F0BDFF8FFFFE98
:102F8000002C014000340140004001400044014059
:102F900000480140F0B5026A22F480720262056ABC
:102FA0004368C269194C1B4E22400C6822F0030290
:102FB000144325F400728D6842EA0522144DA8429C
:102FC00001D0B04206D1CF6822F4006242EA072263
:102FD00022F48062A8420AD0B04208D00E4DA84226
:102FE00005D00E4DA84202D00D4DA84207D14D6923
:102FF00023F4405343EA05138D6943EA0513436004
:10300000C4614968C1630262F0BD00008FFFFEFF2A
:10301000002C0140003401400040014000440140C8
:1030200000480140F0B5026A22F480520262056A4B
:103030004268C369194C1B4E23400C6823F440734B
:1030400043EA042425F400538D6843EA0533144D04
:10305000A84201D0B04206D1CF6823F4004343EA2E
:10306000073323F48043A8420AD0B04208D00E4D63
:10307000A84205D00D4DA84202D00D4DA84207D15F
:103080004D6922F4404242EA85128D6942EA851276
:103090004260C461496801640362F0BDFF8FFFFEB6
:1030A000002C014000340140004001400044014038
:1030B0000048014030B5026A22F480320262046A9C
:1030C0004268036D114D2B400D681D4324F40033FD
:1030D0000C8943EA04430E4CA0420BD00D4CA04295
:1030E00008D00D4CA04205D00C4CA04202D00C4C94
:1030F000A04204D14C6922F4803242EA04224260A8
:10310000056549688164036230BD00008FFFFEFFE2
:10311000002C0140003401400040014000440140C7
:103120000048014030B5026A22F480120262046A4B
:103130004268036D114D24F400142B400D6843EADE
:1031400005230D8944EA05540D4DA8420BD00D4DC1
:10315000A84208D00C4DA84205D00C4DA84202D080
:103160000B4DA84204D14D6922F4802242EA852207
:10317000426003654968C164046230BDFF8FFFFE91
:10318000002C014000340140004001400044014057
:103190000048014010B50468A268234B1A404B68F0
:1031A0001343224A13400A681A43A2604A68702AED
:1031B0000DD037DC12F00F0F34D14FEA2212072A5C
:1031C00030D2DFE802F02F2F2F2F0B242A000B69BB
:1031D000D1E902210068FFF73CFE23E00A68052AD6
:1031E00013D0B2F1011F10D00268136A146A24F0E0
:1031F0000104146202689469096924F0F00444EA45
:1032000001119161006803620CE0012010BD0A69A0
:103210008968006800F00CF804E00A6989680068B1
:1032200000F04EF8002010BD8FFFCFFFF8FFFEFF2B
:1032300010B5036A046A24F001040462846924F06E
:10324000F00444EA021423F00A020A438461026291
:1032500010BD000070B5046A24F0010404628469A2
:10326000056A124EB0420ED0B0F1804F0BD0104E16
:10327000B04208D00F4EB04205D00F4EB04202D03F
:103280000E4EB04203D124F00304144301E044F095
:1032900001041A0724F0F00444EA126225F00A033C
:1032A00001F00A0119438261016270BD002C0140E6
:1032B000000400400008004000340140004001408C
:1032C00010B5036A23F0100303628369046A23F4D0
:1032D000704343EA023224F0A00343EA0111826101
:1032E000016210BD30B5046A24F0100404628469E0
:1032F000056A24F4407444EA022222F470444FF632
:10330000FF7202EA03322243A02425F0A00304EA5C
:10331000011119438261016230BDFEE70FB4084B11
:1033200010B504A902AA039800F0EEF8044602A919
:10333000002000F080FC204610BC5DF814FB00006B
:10334000373C00080907090E002804DB00F1E020E3
:1033500080F80014704700F00F0000F1E02080F8C2
:10336000141D704702E008C8121F08C1002AFAD1D4
:1033700070477047002001E001C1121F002AFBD1F5
:10338000704700002DE9FF5F82B00021DDE90430C5
:10339000020DDDF840B0034318D044F61050A2F2FD
:1033A000FF3242431514119801281FD0A5EB0B00E2
:1033B000401C5FEA000A4FF000064E4FDFF83891DC
:1033C000B046504615D5CAF1000413E01198012407
:1033D0004AA3012801D16FEA0B010298119AC0E9B2
:1033E0000031C0E9024206B0BDE8F09FCBF1000019
:1033F000DFE704460021404A491842EB0450CDE97A
:10340000001012E0E00707D032463B4640464946EE
:10341000FCF722FF8046894632463B461046194655
:10342000FCF71AFF06460F466410002CEAD1DDE9CE
:103430000401DDE90023BAF1000F06DAFCF70CFF06
:1034400042464B46FCF708FF05E0FCF777FF424693
:103450004B46FCF773FF04460E460022284BFDF74F
:10346000B3F903D84FF0FF30014607E00022254BA7
:1034700020463146FDF7E8F8FDF78DF9102409E004
:10348000002C0ADB0A220023FDF719F8039B3032D7
:103490001A55641E50EA0102F2D1641C039AC4F169
:1034A00011031444119A012A03D0012208430DD1BB
:1034B0000AE0084304D000204FF0110B119072E78E
:1034C000A3EB0B056D1E0DE05B4504DD4FF0000224
:1034D00005F1010504E003DA4FF00002A5F1010552
:1034E000002AECD002981199C0E90231C0E90045E8
:1034F00079E70000000014400000F03F30000000B9
:103500000000F0430000E03F2DE9FF4F95B09B46DF
:103510008946064600250FE2252877D10024274654
:10352000F84A0121059400E0044316F8013F203BCE
:1035300001FA03F01042F7D130782A2811D06FF049
:103540002F033078A0F13002092A16D8059A44F0EA
:10355000020402EB820203EB42021044761C059047
:10356000EFE759F8042B0592002A03DA504244F49D
:103570000054059044F00204761C30782E2816D1B1
:1035800016F8010F44F004042A280DD06FF02F0222
:103590003078A0F13003092B09D807EB870302EB41
:1035A0004303C718761CF3E759F8047B761C307880
:1035B0006C280FD006DC4C2817D068280DD06A285C
:1035C00014D104E0742810D07A280FD10DE044F40F
:1035D00000140AE044F4801401E044F440147278CA
:1035E000824202D104F58014761C761C307866285D
:1035F0000BD013DC582877D009DC002875D045287B
:10360000F6D04628F4D047281AD19DE118E0632867
:1036100035D0642879D0652812D195E1702873D00F
:1036200008DC6728F1D069286FD06E280DD06F288C
:1036300006D1B5E073282CD0752875D0782874D0C1
:103640005A46179990476D1C75E1C4F30250022841
:1036500009D003280DD0D9F8001004280DD00D6032
:1036600009F1040967E1D9F80010EA17C1E900522D
:10367000F6E7D9F800100D80F2E70D70F0E719F8C1
:10368000041B8DF8001000208DF80100EA4601208F
:1036900003E059F804AB4FF0FF3061074FF0000131
:1036A00002D40DE008F101018846B9420FDA8045E5
:1036B000F8DB1AF808100029F4D108E008F101013C
:1036C00088468142FADB1AF808100029F6D10598DD
:1036D0005B46A0EB080721463846179A00F094FA9B
:1036E000284400EB080507E04DE029E10DE01AF859
:1036F000010B5A4617999047B8F10108F7D25B467B
:1037000021463846179A13E142E00A220092C4F398
:1037100002524FF0000A022A08D059F804CB032ABB
:103720004FEAEC710AD00DE029E02AE009F1070127
:1037300021F00702F2E802C1914609E00FFA8CFC81
:103740004FEAEC71042A03D14FFA8CFC4FEAEC717A
:10375000002907DA0A460021DCF1000C61EB0201C6
:103760002D2202E0220504D52B228DF8042001220F
:1037700003E0E20701D02022F7E7904659E00A2152
:1037800002E010220DE010214FF0000A00910BE042
:1037900010224FF0000A44F004040827009203E0CE
:1037A00008224FF0000A0092C4F30252022A05D008
:1037B00059F804CB0021032A08D009E009F10701D8
:1037C00021F00702F2E802C1914605E01FFA8CFCE5
:1037D000042A01D10CF0FF0C4FF00008220728D575
:1037E000702806D0009B83F0100353EA0A0305D02B
:1037F0000EE040228DF80420012208E05CEA01027C
:1038000006D030228DF804208DF805000222904663
:10381000009B83F0080353EA0A030AD15CEA010221
:1038200001D1620705D530228DF804204FF0010840
:103830007F1E582804D034A003900EA802900DE0FB
:1038400036A0F9E753466046009AFCF738FE8446F6
:103850000398825C0298401E029002705CEA0100AC
:10386000F0D1029806A9081A00F1200A600702D5D3
:1038700024F4803400E00127574502DDA7EB0A005D
:1038800000E0002000EB0A01009005984144401A36
:103890000590E00306D45B462146179A059800F090
:1038A000B3F90544002706E001A85A46C05D179900
:1038B00090476D1C7F1C4745F6DBE0030CD55B464B
:1038C0002146179A059800F09FF9054404E030203E
:1038D0005A46179990476D1C0099481E0090002980
:1038E000F5DC08E0029802995A460078491C0291DA
:1038F000179990476D1CBAF10001AAF1010AF1DC99
:1039000065E10000092801003031323334353637A3
:10391000383961626364656600000000303132331B
:1039200034353637383941424344454600000000BB
:1039300000F058F90544761C307800287FF4ECAD8F
:1039400019B02846BDE8F08F620700D4062709F1B8
:10395000070222F0070CFCE80223E14603F00048CE
:103960005FEA080C02D00FF2702C0DE05FEA045CF5
:1039700002D50FF2682C07E05FEAC47C02D00FF298
:10398000602C01E0AFF2700C4FF0FF3823F00043E1
:10399000CDF850C065280CD006DC452809D0462853
:1039A0001DD047283DD13DE0662818D067287ED13C
:1039B00038E00021112F01DB112000E0781CCDE957
:1039C000000106A90EA8FFF7DDFCDDE90F010E9A44
:1039D00003910021009207F1010A04914DE04FF09C
:1039E00000400097CDE9011006A90EA8FFF7CAFC18
:1039F000DDE90F0203920E9B11990022DDF80CA065
:103A00000093049211B9791C00EB010AB7EB0A008C
:103A100004D4C0F1FF3007F1010A0490AAEB0700BB
:103A2000019044E0012F00DA01270021112F01DD70
:103A3000112000E03846CDE9000106A90EA8FFF7E5
:103A4000A1FCDDE90F010E9A03910021049100927F
:103A5000BA4621070CD40399514500DA8A46BAF1D7
:103A6000010F05DD009AAAF10101515C302908D04F
:103A7000B84202DA10F1040F06DA0121CDE9011093
:103A800015E0AAF10101E9E7002805DC04990144E9
:103A90000491AAEB000102E0411C514500DD8A4679
:103AA0000499401A401C01904FF0004002902007FA
:103AB00004D40198504501DBCDF8048000208DF836
:103AC0004F0002980DF14F07B0F1004F25D02B2089
:103AD0000E9002984FF0020800280CDA4042029043
:103AE0002D200E9007E00A210298FCF7D2FC30311D
:103AF000029007F8011DB8F10001A8F10108F2DCFD
:103B000002980028EFD1791E0E980870307800F0E6
:103B1000200040F0450007F8020D12A8C01B00F17C
:103B200007081498007800B1012000EB0A01019801
:103B300001EBE07105984144401A401E0590E003F6
:103B400006D45B462146179A059800F05DF80544B7
:103B50001498007818B15A46179990476D1CE003E5
:103B600024D55B462146179A059800F04DF8054488
:103B70001CE00498002807DBDDE90301884203DD2F
:103B80000098405C179901E0179930205A469047F9
:103B9000049805F10105401C04900198401E019015
:103BA00004D12E205A46179990476D1CBAF1000196
:103BB000AAF1010ADDDC05E017F8010B5A46179956
:103BC00090476D1CB8F10001A8F10108F4DC5B46D8
:103BD0002146179A0598ABE62D0000002B00000047
:103BE000200000002DE9F041044600251E4617463E
:103BF000880404D405E039462020B0476D1C641EBB
:103C0000F9D52846BDE8F0812DE9F04104460025AC
:103C10001E469046C80301D5302700E020278804BF
:103C200004D505E041463846B0476D1C641EF9D501
:103C30002846BDE8F0810A68531C0B60107070477D
:103C4000FDF702F8FFF75EF8FEF758FDFEF7E6FD18
:103C5000FEF73CFEFEF71EFB1F20FEF773FA1F2047
:103C6000FEF772FB4FF6FF70FEF782FB002107485C
:103C7000FDF734FE04210548FDF7CCFDFCF710FEEE
:103C8000FEF724FCFEF70AFDF8E700004C000020D8
:103C90000000000000000000000000000000000024
:103CA0000000000000000000000000000000000014
:103CB0000000000000000000000000000000000004
:103CC000000080018001800180018001800180016D
:103CD00080018001800180018001800100000000DE
:103CE00080018001000000000000000000000000D2
:103CF00000000000CC00CC00CC00CC00CC00CC00FC
:103D000000000000000000000000000000000000B3
:103D100000000000000000000000000000000000A3
:103D2000000000000000000000000000600C600CBB
:103D3000600C30063006FE1FFE1F300638071803E1
:103D4000FE1FFE1F180318038C018C018C0100005C
:103D500000008000E003F80F9C0E8C1C8C188C0077
:103D60009800F801E007800E801C8C188C189C18B5
:103D7000B80CF00FE003800080000000000000009D
:103D80000000000000000E181B0C110C110611069B
:103D9000110311039B018E01C038C06C6044604464
:103DA000304430441844186C0C3800000000000007
:103DB0000000E001F0033807180618063003F00190
:103DC000F000F8009C310E33061E061C061C063F50
:103DD000FC73F02100000000000000000000000063
:103DE000000000000C000C000C000C000C000C008B
:103DF00000000000000000000000000000000000C3
:103E000000000000000000000000000000000000B2
:103E10000000000200038001C000C00060006000DC
:103E20003000300030003000300030003000300012
:103E300060006000C000C0008001000300020000BC
:103E4000000020006000C00080018001000300032A
:103E50000006000600060006000600060006000632
:103E60000003000380018001C0006000200000000A
:103E7000000000000000000000000000C000C000C2
:103E8000D806F807E0013003380700000000000002
:103E90000000000000000000000000000000000022
:103EA0000000000000000000000000008001800110
:103EB000800180018001FC3FFC3F80018001800186
:103EC00080018001000000000000000000000000F0
:103ED00000000000000000000000000000000000E2
:103EE00000000000000000000000000000000000D2
:103EF000000080018001000100018000000000003E
:103F000000000000000000000000000000000000B1
:103F10000000000000000000E007E00700000000D3
:103F20000000000000000000000000000000000091
:103F30000000000000000000000000000000000081
:103F40000000000000000000000000000000000071
:103F50000000C000C00000000000000000000000E1
:103F60000000000C000C0006000600060003000321
:103F700000038003800180018001C000C000C000F8
:103F80006000600000000000000000000000000071
:103F90000000E003F007380E180C0C180C180C1871
:103FA0000C180C180C180C180C180C18180C380ECF
:103FB000F007E00300000000000000000000000027
:103FC000000000018001C001F0019801880180011A
:103FD00080018001800180018001800180018001D9
:103FE00080018001000000000000000000000000CF
:103FF0000000E003F80F180C0C180C18001800183B
:10400000000C000600038001C000600030001800B2
:10401000FC1FFC1F0000000000000000000000006A
:104020000000E001F807180E0C0C0C0C000C000648
:10403000C003C007000C001800180C180C18180C4E
:10404000F807E0030000000000000000000000008E
:104050000000000C000E000F000F800DC00C600C63
:10406000600C300C180C0C0CFC3FFC3F000C000CDE
:10407000000C000C00000000000000000000000028
:104080000000F80FF80F180018000C00EC03FC07F4
:104090001C0E001C0018001800180C181C0C180E20
:1040A000F807E0030000000000000000000000002E
:1040B0000000C007F00F381C181818000C00CC03C3
:1040C000EC0F3C0E1C1C0C180C180C18181C380E8D
:1040D000F007E00300000000000000000000000006
:1040E0000000FC1FFC1F000C0006000600038003FC
:1040F0008001C001C000E00060006000700030007E
:10410000300030000000000000000000000000004F
:104110000000E003F007380E180C180C180C3806D5
:10412000F007F007180C0C180C180C180C18380CA9
:10413000F80FE00300000000000000000000000095
:104140000000E003F007380E1C0C0C180C180C18BB
:104150001C1C381EF81BE0190018000C000C1C0E6B
:10416000F807F0010000000000000000000000005F
:10417000000000000000000000000000800180013D
:10418000000000000000000000000000000000002F
:10419000800180010000000000000000000000001D
:1041A000000000000000000000000000800180010D
:1041B00000000000000000000000000000000000FF
:1041C000800180010001000180000000000000006B
:1041D00000000000000000000000000000000000DF
:1041E0000010001C800FE003F8001800F800E00346
:1041F000800F001C00100000000000000000000004
:1042000000000000000000000000000000000000AE
:10421000F81F000000000000F81F00000000000070
:10422000000000000000000000000000000000008E
:10423000000000000000000000000000000000007E
:1042400008003800F001C007001F0018001FC00759
:10425000F00138000800000000000000000000002D
:104260000000E003F80F180C0C180C180018000CD4
:10427000000600038001C000C000C0000000000074
:10428000C000C000000000000000000000000000AE
:1042900000000000E00718180420C229224A114437
:1042A00009440944094409221113E20C0240042084
:1042B0001818E007000000000000000000000000E7
:1042C000000080038003C006C006C006600C600CBE
:1042D000301830183018F83FF83F1C700C600C6034
:1042E00006C006C000000000000000000000000042
:1042F0000000FC03FC0F0C0C0C180C180C180C0C18
:10430000FC07FC0F0C180C300C300C300C300C1867
:10431000FC1FFC070000000000000000000000007F
:104320000000C007F01F38381C300C700660060013
:104330000600060006000600060006600C701C3031
:10434000F01FE00700000000000000000000000077
:104350000000FE03FE0F060E061806180630063093
:104360000630063006300630063006180618060EEF
:10437000FE0FFE030000000000000000000000002F
:104380000000FC3FFC3F0C000C000C000C000C007B
:10439000FC1FFC1F0C000C000C000C000C000C009F
:1043A000FC3FFC3F00000000000000000000000097
:1043B0000000F83FF83F1800180018001800180017
:1043C000F81FF81F1800180018001800180018002F
:1043D00018001800000000000000000000000000AD
:1043E0000000E00FF83F3C780E6006E007C00300D5
:1043F000030003FE03FE03C007C006C00EC03CF06E
:10440000F83FE00F00000000000000000000000086
:1044100000000C300C300C300C300C300C300C30F8
:10442000FC3FFC3F0C300C300C300C300C300C30AE
:104430000C300C3000000000000000000000000004
:1044400000008001800180018001800180018001E5
:104450008001800180018001800180018001800154
:10446000800180010000000000000000000000004A
:104470000000000600060006000600060006000612
:104480000006000600060006000618061806380793
:10449000F003E00100000000000000000000000048
:1044A000000006300618060C060606038601C60044
:1044B00066007600DE008E0106030606060C06186E
:1044C0000630066000000000000000000000000050
:1044D0000000180018001800180018001800180034
:1044E000180018001800180018001800180018000C
:1044F000F81FF81F0000000000000000000000008E
:1045000000000EE01EF01EF01EF036D836D836D869
:1045100036D866CC66CC66CCC6C6C6C6C6C6C6C6C7
:1045200086C386C3000000000000000000000000F9
:1045300000000C301C303C303C306C306C30CC30E7
:10454000CC308C310C330C330C360C360C3C0C3C20
:104550000C380C30000000000000000000000000DB
:104560000000E007F81F1C380E70066003C003C08F
:1045700003C003C003C003C003C006600E701C3834
:10458000F81FE0070000000000000000000000002D
:104590000000FC0FFC1F0C380C300C300C300C30C1
:1045A0000C18FC1FFC070C000C000C000C000C008D
:1045B0000C000C00000000000000000000000000E3
:1045C0000000E007F81F1C380E70066003E003C00F
:1045D00003C003C003C003C007E006630E3F1C3CDA
:1045E000F83FE0F700C000000000000000000000FD
:1045F0000000FE0FFE1F0638063006300630063873
:10460000FE1FFE0706030606060C061806180630EF
:1046100006300660000000000000000000000000FE
:104620000000E003F80F1C0C0C180C180C001C0008
:10463000F803E00F001E0038063006300E301C1C58
:10464000F80FE0070000000000000000000000007C
:104650000000FE7FFE7F80018001800180018001DB
:104660008001800180018001800180018001800142
:104670008001800100000000000000000000000038
:1046800000000C300C300C300C300C300C300C3086
:104690000C300C300C300C300C300C300C30181846
:1046A000F81FE0070000000000000000000000000C
:1046B000000003600630063006300C180C180C1889
:1046C000180C180C380E30063006700760036003B3
:1046D000C001C00100000000000000000000000058
:1046E00000000360C361C361C36166336633663330
:1046F0006633663366336C1B6C1B6C1B2C1A3C1EBA
:10470000380E380E0000000000000000000000001D
:1047100000000FE00C7018303018700C600EC007ED
:1047200080038003C003E006700C301C18180C30A6
:104730000E6007E000000000000000000000000024
:10474000000003C006600C301C383818300C6006BE
:10475000E007C003800180018001800180018001A9
:104760008001800100000000000000000000000047
:104770000000FC7FFC7F006000300018000C000689
:1047800000038001C0006000300018000C0006002B
:10479000FE7FFE7F0000000000000000000000001F
:1047A0000000E003E0036000600060006000600063
:1047B00060006000600060006000600060006000F9
:1047C00060006000600060006000E003E003000043
:1047D000000030003000600060006000C000C000D9
:1047E000C000C001800180018001000300030003BC
:1047F00000060006000000000000000000000000AD
:104800000000E003E00300030003000300030003D3
:104810000003000300030003000300030003000380
:1048200000030003000300030003E003E0030000B3
:1048300000000000C001C001600360036003300697
:104840003006180C180C00000000000000000000EA
:104850000000000000000000000000000000000058
:104860000000000000000000000000000000000048
:104870000000000000000000000000000000000038
:104880000000FFFFFFFF000000000000000000002C
:1048900000000C000C000C000C000C000C000000D0
:1048A0000000000000000000000000000000000008
:1048B00000000000000000000000000000000000F8
:1048C000000000000000000000000000F003F807F6
:1048D0001C0C0C0C000FF00FF80C0C0C0C0C1C0F2B
:1048E000F80FF018000000000000000000000000B9
:1048F000000018001800180018001800D803F80F5E
:10490000380C181818181818181818181818380CFF
:10491000F80FD803000000000000000000000000B5
:10492000000000000000000000000000C003F007CD
:10493000300E180C1800180018001800180C300E53
:10494000F007C003000000000000000000000000AD
:10495000000000180018001800180018C01BF01FF5
:10496000301C181818181818181818181818301C8F
:10497000F01FC01B0000000000000000000000004D
:10498000000000000000000000000000C003F00F65
:10499000300C1818F81FF81F180018003818301CB1
:1049A000F00FC00700000000000000000000000041
:1049B0000000800FC00FC000C000C000F007F0076B
:1049C000C000C000C000C000C000C000C000C000E7
:1049D000C000C00000000000000000000000000057
:1049E000000000000000000000000000E00DF80FD3
:1049F000180E0C0C0C0C0C0C0C0C0C0C0C0C180EDB
:104A0000F80FE00D000C0C0C1C06F807F00100007C
:104A1000000018001800180018001800D807F80F38
:104A2000381C1818181818181818181818181818E2
:104A30001818181800000000000000000000000016
:104A40000000C000C000000000000000C000C00066
:104A5000C000C000C000C000C000C000C000C00056
:104A6000C000C000000000000000000000000000C6
:104A70000000C000C000000000000000C000C00036
:104A8000C000C000C000C000C000C000C000C00026
:104A9000C000C000C000C000C000F80078000000E6
:104AA00000000C000C000C000C000C000C0C0C06A0
:104AB0000C038C01CC006C00FC009C018C030C03EB
:104AC0000C060C0C000000000000000000000000BC
:104AD0000000C000C000C000C000C000C000C00096
:104AE000C000C000C000C000C000C000C000C000C6
:104AF000C000C00000000000000000000000000036
:104B00000000000000000000000000007C3CFF7E70
:104B1000C7E383C183C183C183C183C183C183C10F
:104B200083C183C1000000000000000000000000FD
:104B30000000000000000000000000009807F80FCF
:104B4000381C1818181818181818181818181818C1
:104B500018181818000000000000000000000000F5
:104B6000000000000000000000000000C003F00F83
:104B7000300C181818181818181818181818300C9D
:104B8000F00FC00300000000000000000000000063
:104B9000000000000000000000000000D803F80F33
:104BA000380C181818181818181818181818380C5D
:104BB000F80FD8031800180018001800180000009B
:104BC000000000000000000000000000C01BF01FFB
:104BD000301C181818181818181818181818301C1D
:104BE000F01FC01B00180018001800180018000063
:104BF000000000000000000000000000B007F0030B
:104C000070003000300030003000300030003000E4
:104C10003000300000000000000000000000000034
:104C2000000000000000000000000000E003F003AE
:104C3000380E180C3800F003C007000C180C380EA2
:104C4000F007E0030000000000000000000000008A
:104C5000000000008000C000C000C000F007F007A6
:104C6000C000C000C000C000C000C000C000C00044
:104C7000C0078007000000000000000000000000E6
:104C800000000000000000000000000018181818C4
:104C90001818181818181818181818181818381C70
:104CA000F01FE019000000000000000000000000FC
:104CB0000000000000000000000000000C18180CAC
:104CC000180C180C300630063006600360036003D1
:104CD000C001C00100000000000000000000000052
:104CE000000000000000000000000000C141C141C0
:104CF000C3616363636363633636363636361C1CC2
:104D00001C1C1C1C00000000000000000000000033
:104D10000000000000000000000000001C38381CEB
:104D2000300C600660036003600360036006300CB3
:104D3000381C1C38000000000000000000000000CB
:104D400000000000000000000000000018303018D3
:104D500030187018600C600CE00CC006C0068003B0
:104D60008003800380018001C001F000700000001A
:104D7000000000000000000000000000FC1FFC1FFD
:104D8000000C000600038001C00060003000180025
:104D9000FC1FFC1F000000000000000000000000DD
:104DA000000000038001C000C000C000C000C000BF
:104DB000C00060006000300060004000C000C00023
:104DC000C000C000C000C00080010003000000005F
:104DD000000080018001800180018001800180014C
:104DE00080018001800180018001800180018001BB
:104DF000800180018001800180018001800100002C
:104E000000006000C000C0018001800180018001BD
:104E100080010003000300060003000180018001FF
:104E20008001800180018001C0006000000000005E
:104E30000000000000000000000000000000000072
:104E4000F010F81F080F0000000000000000000034
:104E50000000000000000000000000000000000052
:104E6000944E0008B84E0008AC4E0008A04E000852
:104E7000884E0008C04E000800000000000000003E
:104E80000102030406070809446F6F7220436C6F28
:104E90007365000053746F7070696E6700000000E6
:104EA000446F6F72204F70656E000000456C657630
:104EB00020446F776E000000456C657620557000C9
:104EC0005761697420327300E84E0008000000202A
:104ED0004C00000064330008344F00084C000020F0
:104EE0009C040000743300080000FFFF0000000075
:104EF00000010000000000040000000000000000AD
:104F000000000000000000000000000000000000A1
:104F10000000000000000000000000000000000091
:104F20000000000010000000010000000000000070
:044F30000024F40065
:04000005080001D915
:00000001FF
