:020000040800F2
:10000000D8060020ED010008CD3100083F28000887
:1000100099310008790F0008B1460008000000007F
:10002000000000000000000000000000E5340008AF
:10003000CD0F000800000000CF310008E9340008AF
:10004000070200080702000807020008070200086C
:10005000070200080702000807020008070200085C
:10006000070200080702000807020008070200084C
:10007000070200080702000807020008070200083C
:10008000070200080000000007020008070200083D
:10009000070200080702000807020008070200081C
:1000A000070200080702000807020008070200080C
:1000B00007020008070200080702000807020008FC
:1000C00007020008070200080702000807020008EC
:1000D00007020008A54600080702000807020008FA
:1000E00007020008070200080702000807020008CC
:1000F00007020008070200080702000800000000CD
:1001000000000000070200080000000007020008CD
:1001100007020008000000000702000807020008AC
:10012000070200080702000807020008070200088B
:10013000070200080000000000000000070200089D
:10014000070200080702000800000000000000008D
:10015000000000000000000000000000000000009F
:10016000000000000000000000000000070200087E
:10017000070200080000000000000000000000006E
:10018000000000000702000800000000000000005E
:10019000000000000000000000000000000000005F
:1001A000000000000000000007020008070200082D
:1001B000070200080702000807020008000000000C
:1001C000000000000702000800000000000000001E
:1001D0000702000807020008DFF80CD000F09AFCC4
:1001E00000480047D94F0008D8060020064880473D
:1001F00006480047FEE7FEE7FEE7FEE7FEE7FEE70C
:10020000FEE7FEE7FEE7FEE769350008D9010008D2
:100210002DE9F05F0546002092469B46884606463B
:10022000814640241BE0284641464746224600F0CE
:1002300021FA53465A46C01A914110D31146184626
:10024000224600F008FA2D1A67EB01084F462246B5
:100250000120002100F0FFF917EB00094E41201E9C
:10026000A4F10104DFDC484631462A464346BDE896
:10027000F09F000038B5D0E90221491E01EB410191
:1002800002EBC1014268C1EB011102EB810102687E
:10029000C1EB011102EB8102D0E9043101EB410114
:1002A00003EB81013023A1F5527191FBF3F4174D5B
:1002B0006C4302EBC41291FBF3F403FB14110092A4
:1002C0001A2902DB124B1A4400920C2291FBF2F322
:1002D000104C6343009C04EBC313009391FBF2F3B7
:1002E00002FB13110C4A08E0491E40F2A324535CA0
:1002F0006343009C04EBC31300930029F4DC014624
:10030000684600F0C7F9009838BD00003F0C0F00A8
:100310008051010067C203001462000840EA010333
:100320009B0703D009E008C9121F08C0042AFAD2AB
:1003300003E011F8013B00F8013B521EF9D270476F
:10034000D2B201E000F8012B491EFBD27047002217
:10035000F6E710B513460A4604461946FFF7F0FFC4
:10036000204610BD421C10F8011B0029FBD1801A49
:10037000704710B5002200E0521C835C8C5CA342E5
:1003800001D1002BF8D1D8B2E1B2401A10BD03461A
:1003900011F8012B00F8012B002AF9D118467047FB
:1003A0000FB400B58DB010A909900B9000914FF0DB
:1003B000FF300A9000200C900548069005480790F1
:1003C0006A4609A80F9900F0BFF90DB05DF814FB5B
:1003D00065070008830700082DE9FF5F1D464FF001
:1003E000FF3BD5E9014691465F464FF00008A969F9
:1003F0007F1C01988847296A824688470028F6D1E1
:10040000BAF1FF3F0CD024F4C064002E19DD600661
:1004100014D5BAF12B0F09D0BAF12D0F0ED103E08C
:10042000584604B0BDE8F09F44F48064A9697F1C7D
:1004300001988847761E8246002E02DDBAF1300F01
:1004400003D0B9F1000F26D032E0A969761E44F43A
:1004500000747F1C019888478246002E05DDBAF1A2
:10046000780F06D0BAF1580F03D0B9F1000F10D0B1
:100470001EE0B9F1000F02D0B9F1100F18D1A9692F
:10048000761E24F400747F1C019888478246102051
:1004900002E0082000E00A20814609E008FB090884
:1004A000A969761E44F400747F1C0198884782462F
:1004B000002E05DD4946504600F032F90028EDDAFD
:1004C000E96901988847A00502D46FF00100A8E708
:1004D000E00725D1600613D5600502D5C8F10000FC
:1004E00000E0404629680A1D2A600968220501D5F6
:1004F000087015E0220701D5088011E008600FE0C0
:100500002868011D29600068210502D580F8008057
:1005100006E0210702D5A0F8008001E0C0F80080C5
:1005200038467EE72DE9FF5FD2E901A74FF00008CA
:10053000916999461446DDF838B0464601988847D7
:10054000054659EA0B0005D009E0A169761C01981F
:1005500088470546216A284688470028F5D1681C47
:1005600003D05FEACA7005D015E04FF0FF3004B049
:10057000BDE8F09F2068011D2160D0F800800AE0EE
:100580005FEACA7001D108F8015BA169761C7F1E81
:10059000019888470546002F1ADD681C18D0B9F16C
:1005A000000F0DD0E81705EBD060421120F01F00BE
:1005B00059F822102A1A012090400142E0D107E0A8
:1005C000BBF1000FDCD1216A284688470028D7D02C
:1005D000E16901988847BBF1000F07D1002E05DDC6
:1005E0005FEACA7002D1002188F80010A068B84202
:1005F00003DDBBF1000F03D017B16FF00100B6E7C8
:100600003046B4E700F0004230F000400AD0C10D9F
:1006100001F56071C0F3160042EA0151C2084007BB
:100620001143704700200146704730B50B46014624
:1006300000202022012409E021FA02F59D4205D381
:1006400003FA02F5491B04FA02F52844151EA2F12B
:100650000102F1DC30BD202A04DB203A00FA02F16D
:10066000002070479140C2F1200320FA03F31943A0
:1006700090407047202A04DB203A21FA02F0002142
:10068000704721FA02F3D040C2F1200291400843A2
:100690001946704710B500683C22B0FBF2F302FB2C
:1006A0001303B0FBF2F00B60B0FBF2F302FB130399
:1006B000B0FBF2F018224B60B0FBF2F302FB130325
:1006C000B0FBF2F0021D8B600723B2FBF3F403FBD7
:1006D0001422800040F2B55300F66C308A61B0FB02
:1006E000F3F2B0FBF3F403FB1400443280084A61D8
:1006F000C8613B2802D3920700D0401C0022074C5F
:1007000013460A61E25C824203D8801A5B1C0B61CB
:10071000F8E7401CC860084610BD000020620008D1
:100720003A2800D2303820F02002412A01D3A2F129
:100730003700884201D34FF0FF3070470268114400
:100740001378016018467047D1600449516104492B
:10075000116200211161114600F006BA3D07000840
:100760005D0B0008426842B1016811F8013B23B1FA
:10077000521EC0E90012184670470121C160881E50
:10078000704742685AB1C368016843B983688B42B5
:1007900005D0491E521CC0E90012002070474FF0DE
:1007A000FF3070472DE9FE4F804681EA0300C00FFD
:1007B0000C46009021F0004123F00045B8EB020008
:1007C000A94105D24046214690461C460B460246AA
:1007D00023F00040104347D0270DC7F30A00C3F3AE
:1007E0000A510290401A019040286BDAC3F31300BB
:1007F00040F4801B0098924620B10023D2EB030AFC
:1008000063EB0B0B01985946C0F140025046FFF7CD
:1008100022FF06460D4650465946019A00F08CF9D3
:1008200010EB08006141002487EA115284EAE77363
:100830001A4340D0009A62B3019A012A4FEA075244
:1008400015DC001B61EB02014FF0004202EA075287
:10085000CDE90042001C41F5801132462B4600F0E4
:1008600028FB03B0BDE8F08F40462146F9E7001BA6
:1008700061EB0201001C41F5801300185B41201858
:10088000A2F5001747EB030140EAD570B6196D4198
:1008900011E06D084FEA360645EAC0754FEA075287
:1008A000001B61EB0201001C41F5801149084FEA71
:1008B00030000019514132462B4603B0BDE8F04FDD
:1008C00000F0E8BA0098012240000023D0EB0202B9
:1008D00063EBE073009821464FEAE074B8EB000048
:1008E00061EB0401E9E783F000435BE781F000413D
:1008F00058E72DE9FE4F81EA030404F0004421F09B
:10090000004100944FF0000B23F0004350EA010433
:100910005ED052EA03045BD0C3F30A54C1F30A5514
:100920002C44A4F2F3340194A0FB0254C1F313014C
:1009300041F48011C3F3130343F4801301FB024419
:1009400000FB034E840A970A44EA815447EA83571E
:10095000A4FB076802958D0A05FB07854FEA932CD7
:1009600004FB0C542705029D4FEA065847EA163748
:10097000B5EB08056EEB070C870E920E47EA811760
:1009800042EA8312A7FB0201B6EB0B0164EB000401
:100990002B0D43EA0C335E1844EB1C50DA465146EB
:1009A000E7FB0201C5F313044FEA0B3343EA145388
:1009B0004FEA0432019C43EA0603A4F10C040294BA
:1009C000009CCDE900B400F074FA03B0BDE8F08FEC
:1009D00000200146F9E72DE9F04D81EA030404F017
:1009E000004B21F0004514464FF0000A23F000416F
:1009F00050EA050220D054EA01021DD0C5F30A577F
:100A00000246C5F31303C1F31300C1F30A5640F4C1
:100A1000801543F48013A7EB0608101BD64608F296
:100A2000FD3873EB050002D308F1010801E09218CC
:100A30005B41B8F1000F03DA00200146BDE8F08DFC
:100A400000204FF48011064684460EE0171B73EB1E
:100A5000050705D3121B63EB050306434CEA010CA3
:100A600049084FEA300092185B4150EA0107EDD186
:100A700052EA030012D082EA040083EA0501084327
:100A800005D0101BAB4106D20122002306E0002254
:100A90004FF0004302E06FF0010253101AEB060022
:100AA0004CEB085110EB0A0041EB0B01BDE8F04D97
:100AB00000F0F0B9C1F30A52C1F3130140F2FF3361
:100AC00041F480119A4202DA00200146704740F258
:100AD00033439A42A2F2334202DC5242FFF7CABDCC
:100AE000FFF7B9BD30B5041E71F1000404DB4FF00F
:100AF0000044404264EB0101141E73F1000405DB65
:100B00001C464FF00043524263EB0403994208BF76
:100B1000904230BD064C074D06E0E06840F001030E
:100B200094E8070098471034AC42F6D3FFF758FB1F
:100B30006C6200088C620008202A06DBCB17203A82
:100B400041FA02F043EAE07306E041FA02F3D040D2
:100B5000C2F120029140084319467047C0B24FF4D9
:100B6000F05100F0F5B900002DE9F34F8BB04FF0D4
:100B7000000801F10C000C464FF0010B46460DF148
:100B8000080A01906269012101989047051E2DD045
:100B9000252D2CD0216A8847C0B1626901210198B6
:100BA0009047216A88470028F7D1411E6269019861
:100BB000904700E0761CA1690B988847216A884716
:100BC0000028F7D1E1690B988847DBE7A1690B980A
:100BD00088470746A84201D1761CD3E7E1690B9804
:100BE00088477F1C02D1B8F1000F6FD046E1002783
:100BF00062693D463946019890472A2804D16269C6
:100C00000121019890470125DFF884926269012152
:100C100001989047A0F130010A290AD24F45E5DC3E
:100C200007EB870100EB4107303FDFD445F01005AB
:100C3000ECE7E90601D46FF000476C280AD04C2895
:100C400014D0682815D06A280DD074281CD07A28B2
:100C50001AD01DE062690121019890476C2802D0EA
:100C600045F0040514E045F002050DE045F02005CF
:100C70000AE06269012101989047682802D045F096
:100C8000080505E045F40065626901210198904777
:100C9000C4E9015765283DD019DC58287AD00CDC0E
:100CA000452837D004DC252826D0412831D131E031
:100CB00046282FD047282CD12CE05B2877D06128FC
:100CC00028D063287CD0642823D15AE0D0E06F2854
:100CD00048D008DC66281DD067281BD0692821D0A1
:100CE0006E2816D127E0702845D0732868D0752863
:100CF00047D078280DD14DE0A1690B98884705466B
:100D000025283FF469AFE1690B9888476D1C3FF4D3
:100D10006AAFB3E023466A466FF001000B99AFF368
:100D200000809EE045F040006060A80723464FF039
:100D3000000236D43EE0E8077FF447AF2068011D8B
:100D400021600068290501D506701BE7290701D538
:100D5000068017E7A90703D5F117C0E9006111E77D
:100D600006600FE745F040006060A80723464FF09B
:100D7000080216D41EE040F60E0125EA010060606C
:100D800016E045F040006060A80723464FF00A02D5
:100D900007D40FE045F040006060A80708D523465F
:100DA00010226FF001000B99AFF3008059E007E0CB
:100DB000234610226FF001000B99FFF70DFB50E066
:100DC0004FF000094F464B46632802D05B2806D0FF
:100DD00040E0E80601D40120A06001273AE0626902
:100DE0000121019890475E2805D14FF00109626901
:100DF000494601989047216939B900210A4653466E
:100E000043F82120491C0829FADBB0B3216969B9EC
:100E1000C11700EBD16253110AEB830122F01F02CC
:100E2000821A01200B68904003430B606269012124
:100E3000019890475D28E8D1B9F1000F09D0002052
:100E4000514651F82020D24341F82020401C082868
:100E5000F7DB02AB224600976FF001000B99FFF71A
:100E600061FB00280CDA401C08D1BBF1000F05D053
:100E70004FF0FF300DB0BDE8F08FFFE74046F9E7D7
:100E8000E90701D108F1010806444FF0000B79E6AB
:100E9000CCCCCC0C10B5141E73F1000408DA401C45
:100EA00041F1000192185B411A4301D120F0010089
:100EB00010BD2DE9F04D92469B4611B1B1FA81F279
:100EC00002E0B0FA80F220329046FFF7C4FB0446FD
:100ED0000F4640EA0A0041EA0B0153465A460843CE
:100EE00013D0114653EA010019D0C8F14002504610
:100EF000FFF7C0FB05460E46504659464246FFF7EF
:100F0000AAFB084305D0012004E020463946BDE88D
:100F1000F08D0020054346EAE0762C4337430A98DB
:100F20006305E40AA0EB08000022FD0A44EA4754E6
:100F30000A3002D500200146E9E701051019694190
:100F4000DDE9084500196941BDE8F04DA2E7000060
:100F50007F2801D9002208E0064A02EB5002C007B0
:100F6000127800D1120902F00F02012090400840CF
:100F7000704700002C620008FEE7000030B5002238
:100F8000104C13461146104600EB800505EBC005DA
:100F900014F8255025B1012D05D0022D08D105E00A
:100FA000491CC9B204E0521CD2B201E05B1CDBB2A6
:100FB000401CC0B20828E7D3034802714371817115
:100FC00030BD0000300000200800002070470022E3
:100FD00040F6B83306E00021491C89B29942FBD3A0
:100FE000521C92B28242F6D37047704770B590F8A7
:100FF0002520002401212346022A07D00422C263AF
:1010000080F8251080F82430012429E00268156852
:1010100025F00E0515600268156825F001051560BC
:10102000826C156825F48075156090F84420056C75
:1010300002F01F0201FA02F26A60D0E9132555603E
:10104000426D32B1156825F480751560D0E916251A
:10105000556080F8251080F82430816B01B18847F5
:10106000204670BD70B5044600F0FCF80546601CD3
:1010700002D004484068044400F0F4F8401BA04249
:10108000FAD370BD200000202DE9FC4FDFF8A0A1AD
:10109000002301250AF1040B03244FF00F0C0BF180
:1010A000040EBDE005FA03F632406FD04F68012F01
:1010B00005D0022F03D0112F01D0122F17D1D0F855
:1010C00008905F0004FA07F829EA08090097D1F8A8
:1010D0000C8008FA07F848EA0908C0F80880476851
:1010E000B7430E79C6F300169E403E434660C6687D
:1010F0004FEA430804FA08F7BE4301978F6807FADE
:1011000008F73743C7604E68022E01D0122E13D164
:10111000DE0800EB86060096366A5F07FF0E0CFAC3
:1011200007F926EA0906D1F8109009FA07F949EA01
:101130000609009EC6F820900668019FBE430F79FD
:1011400007F0030707FA08F7374307604E68F60011
:1011500065D5384E376E47F001073766366E23F097
:10116000030706F001060096334E3E44B146B668CA
:101170009F074FEA17780CFA08F7BE43B0F1904F7B
:1011800005D02E4FB84204D1012717E047E00027D1
:1011900014E02B4FB84201D102270FE0294FB8428B
:1011A00001D103270AE0284FB84201D1042705E006
:1011B000264FB84201D1052700E0062707FA08F7B5
:1011C0003743C9F80870DAF800605746D1F8048050
:1011D00096435FEAC83800D516433E60DBF80060EE
:1011E0005F46D1F8048096435FEA883800D51643FD
:1011F0003E60DEF800607746D1F8048096435FEAEF
:10120000C82800D516433E60094F0C373E68D1F818
:10121000048096435FEA882800D516433E605B1C35
:101220000A6832FA03F67FF43DAFBDE8FC8F000098
:10123000000401400010024000000140000400488A
:1012400000080048000C0048001000480014004846
:101250000069084000D0012070470AB181617047E1
:1012600081627047014880687047000020000020BC
:101270000248816842681144816070472000002064
:1012800010B50024032000F077F8002000F008F8E3
:1012900008B1012401E000F025F8204610BD00004F
:1012A00070B50E4E05460024706898B14FF47A71FF
:1012B000B1FBF0F00A490968B1FBF0F000F060FD05
:1012C00040B9102D06D200222946501E00F034F8F5
:1012D000356000E00124204670BD000020000020A1
:1012E0002C0000200B4808B5016E41F00101016699
:1012F000016E01F001010091816D41F08051816525
:10130000806D00F0805000900348816841F4804176
:10131000816008BD0010024000700040002809DB19
:1013200000F01F02012191404009800000F1E020FF
:10133000C0F8001170470000F0B40E4B1B680C465B
:10134000C3F30223C3F10705042D00D90425191D99
:10135000072901D2002300E0DB1E012606FA05F171
:10136000491E214099409E40761E16403143F0BCF4
:1013700003F0B4B90CED00E0064900F0070208687C
:101380004FF6FF03184040EA0220034A104308606A
:10139000704700000CED00E00000FA052B492C4BD3
:1013A0000A6832214A432B4940B1B0F5007F0868F2
:1013B00029D020F4C06040F480602CE00868C0F3BD
:1013C0004120022804D051F8800F20F4807022E0E0
:1013D000D1F8800020F48070C1F88000086820F403
:1013E000C06040F400700860B2FBF3F0401C00E005
:1013F000401E4A69520501D50028F9D148694005C7
:101400000AD503207047C0F34120022806D051F8C6
:10141000800F40F48070086000207047D1F8800091
:1014200040F48070C1F88000086820F4C06040F487
:1014300000700860B2FBF3F0401C00E0401E4A69F7
:101440005205DBD50028F9D1D8E700002C00002098
:1014500040420F00007000402DE9F8430446006848
:1014600000269D4D00035ED5A86D0027C00008D45E
:10147000A86D40F08050A865A86D012700F080504D
:101480000090DFF85892D9F8001041F48071C9F843
:101490000010FFF7E7FE804606E000BFFFF7E2FE20
:1014A000A0EB080002282BD8D9F80000C005F5D51C
:1014B000D5F8900010F4407014D0216C814211D006
:1014C000D5F89000D5F8901020F4407041F48031A8
:1014D000C5F89010D5F8901021F48031C5F890101F
:1014E000C5F89000C00711D0FFF7BCFE804641F25E
:1014F000883907E0FFF7B6FEA0EB0801494501D99E
:1015000003260BE0D5F890008007F3D5D5F89000BE
:10151000216C20F440700843C5F890001FB1A86DFD
:1015200020F08050A8652078C00707D0D5F8880043
:10153000616820F003000843C5F888002078800720
:1015400007D5D5F88800A16820F00C000843C5F83D
:1015500088002078400707D5D5F88800E16820F09A
:1015600030000843C5F888002078000707D5D5F873
:101570008800216920F0C0000843C5F88800207861
:10158000800607D5D5F88800616920F440600843DB
:10159000C5F888002078400607D5D5F88800A169ED
:1015A00020F440500843C5F888002078000607D58D
:1015B000D5F88800E16920F440400843C5F8880068
:1015C0002088C00507D5D5F88800216A20F440306E
:1015D0000843C5F888002088800507D5D5F888001D
:1015E000616A20F440200843C5F88800208840053F
:1015F0000FD5D5F88800A16A20F440100843C5F83B
:101600008800A06AB0F5801F03D1E86840F480101C
:10161000E860208800050FD5D5F88800E16A20F43D
:1016200040000843C5F88800E06AB0F5800F03D198
:10163000E86840F48010E8602088C0040FD5D5F831
:101640008800216B20F040700843C5F88800206BAB
:10165000B0F1807F03D1E86840F48010E860208812
:101660004FF0006180040ED5D5F88800626B20F041
:1016700040601043C5F88800606B884203D1E86879
:1016800040F48010E860208840040ED5D5F888002A
:10169000A26B20F040601043C5F88800A06B884220
:1016A00003D1E86840F48010E860208800040FD57A
:1016B000D5F88800E16B20F040500843C5F8880059
:1016C000E06BB0F1805F03D1E86840F48030E860FF
:1016D0003046BDE8F8830000001002400070004072
:1016E0002DE9F0470E4605004FF0000725D0DFF842
:1016F000AC81D8F8000000F00F00B0420CD2D8F84E
:10170000001021F00F013143C8F80010D8F8000094
:1017100000F00F00B04210D12968614CC80741F2B7
:10172000883A5AD06868DFF87C91032808D00228EC
:1017300020682DD0400500282CDB0120BDE8F08773
:1017400020688001F9D5E06800F00302E068C0F38A
:101750000310401C032A19D0534A00BFB2FBF0F01B
:10176000E268C2F306225043E268C2F34162521CAF
:101770005200B0FBF2F0484517D9A06810F0F00F06
:101780000CD0880711D5A86840B10EE0474AE5E7BC
:101790008003D0E700F0B6F8484506D9A06820F0ED
:1017A000F00040F08000A0608027A068696820F009
:1017B00003000843A060FFF755FD814606E000BF27
:1017C000FFF750FDA0EB090151453AD8A0686968C0
:1017D00000F00C00B0EB810FF2D12868810714D51E
:1017E000400703D5A06840F4E060A06028780007B7
:1017F00005D5A06820F4605040F4E060A060A068C7
:10180000A96820F0F000084304E0802F03D1A0680D
:1018100020F0F000A060D8F80010404601F00F0161
:10182000B14216D9016821F00F0131430160FFF781
:1018300019FD074607E000BFFFF714FDC11B514526
:1018400001D903207AE7D8F8000000F00F00B04279
:10185000F2D12878400705D5A068E96820F4E06057
:101860000843A0602878000706D5A068296920F4FD
:10187000605040EAC100A06000F044F8A1680C4A42
:10188000C1F30311515C01F01F01C8400949086010
:1018900009480068BDE8F047FFF702BD002002409C
:1018A0000010024000B4C4040024F40000366E01AD
:1018B000FC6100082C00002020000020054806499B
:1018C00000688968054AC1F30221515C01F01F01DB
:1018D000C84070472C000020001002400C62000835
:1018E0000548064900688968054AC1F3C221515C70
:1018F00001F01F01C84070472C000020001002407A
:101900000C620008184910B58868C0F381021748B6
:10191000012A0BD08A68164BC2F38102022A06D034
:101920008A68C2F38102032A03D0002010BD184642
:1019300010BDCA6802F00304CA68C2F30312521C45
:10194000032C02D0B0FBF2F001E0B3FBF2F0CA6866
:10195000C968C2F306225043C1F34161491C4900E2
:10196000B0FBF1F010BD0000001002400024F400B4
:1019700000366E012DE9F84304007AD02078FA4D44
:10198000C00747D0A868E96800F00C0001F0030127
:101990000C2802D0082817D001E0032914D0606871
:1019A000B0F5803F17D0B0F5A02F286817D020F4ED
:1019B00080302860286820F4802028606068E0B1CA
:1019C000FFF750FC064614E02868800322D56068C3
:1019D0000028D2D01EE0286840F48030EDE740F4C3
:1019E00080202860F7E700BFFFF73CFC801B6428DD
:1019F00070D828688003F7D50CE0FFF733FC064663
:101A000005E000BFFFF72EFC801B6428F0D8286893
:101A10008003F7D4207880074CD5A868E96800F0E7
:101A20000C0001F003010C2802D004280DD001E0C5
:101A300002290AD0E068002828682BD040F4807082
:101A40002860FFF70FFC064619E02868400502D51C
:101A5000E068002891D06868217C20F0FE4040EAD0
:101A600001606860C1480068FFF71AFC002800D1D7
:101A700020E076E1FFF7F6FB801B0228B8D8286843
:101A80004005F7D56868217C20F0FE4040EA0160FF
:101A900068600FE020F480702860FFF7E3FB0646E3
:101AA00005E000BFFFF7DEFB801B0228A0D82868F6
:101AB0004005F7D42078000729D560690028D5F8BB
:101AC000940013D040F00100C5F89400FFF7CAFB62
:101AD000064606E090E000BFFFF7C4FB801B02282B
:101AE00086D8D5F894008007F6D510E020F00100E4
:101AF000C5F89400FFF7B6FB064604E0FFF7B2FB1B
:101B0000801B022878D8D5F894008007F6D4207876
:101B1000400761D5A86D0026C00008D4A86D40F02C
:101B20008050A865A86D012600F080500090904874
:101B30000168C90511D40168804641F480710160D3
:101B4000FFF790FB074604E0FFF78CFBC01B022861
:101B500052D8D8F80000C005F6D5A068012815D0E5
:101B60000528D5F8900016D020F00100C5F89000A7
:101B7000D5F8900020F00400C5F89000A06841F26C
:101B80008838B8B1FFF76EFB07460EE0D5F8900035
:101B900040F00100F0E740F00400C5F89000F5E7E0
:101BA000FFF760FBC11B414526D8D5F890008007A0
:101BB000F6D50CE0FFF756FB074604E0FFF752FBB3
:101BC000C11B414518D8D5F890008007F6D41EB146
:101BD000A86D20F08050A8652078800629D5A069DE
:101BE0000028D5F8980013D040F00100C5F89800FF
:101BF000FFF738FB064606E077E000BFFFF732FB51
:101C0000801B022877D8D5F898008007F6D510E019
:101C100020F00100C5F89800FFF724FB064604E019
:101C2000FFF720FB801B022865D8D5F898008007B5
:101C3000F6D4E069F0B3A968C1F38101032961D04A
:101C40000228286820F0807028600BD0E86820F017
:101C50000300E860E86847490840E860FFF702FBD6
:101C600004464BE0FFF7FEFA064604E0FFF7FAFAF7
:101C7000801B02283FD828688001F7D4F4E90801C6
:101C80006FF00F0202EB01110843218A5204490848
:101C900002EB4151A26841EA02210843217D4FF045
:101CA0007E42490802EB41610843217B40EAC16062
:101CB000E96800E062E0304A11400843E8602868C3
:101CC00040F080702860E86840F08070E860FFF7BE
:101CD000C9FA044605E000BFFFF7C4FA001B02285A
:101CE00009D828688001F7D548E004E0FFF7BAFA80
:101CF000001B022802D90320BDE8F8832868800170
:101D0000F4D43BE00128F7D0E868226A00F0030130
:101D1000914226D1616A00F0F00209011039914226
:101D20001FD1A26A00F4FE41B1EB022F19D194F841
:101D30002C2000F07841B1EBC26F12D1218E00F45B
:101D4000C00249084905A1F50011914209D194F852
:101D5000341000F0C06049084906A1F100718142C9
:101D60000CD00120C8E70000001002402000002035
:101D700000700040FFFFEEFE0C809F010020BBE7DB
:101D800010B5401EB0F1807F01D3012010BD4FF08F
:101D9000E02460610F21601702F0A0FC0020A06128
:101DA00007202061002010BDF0B590F83C20012AEA
:101DB0003AD0012580F83C50022280F83D2003688B
:101DC0005A689C68194E1A4FB34201D0BB4204D1E5
:101DD00022F4700C4A6842EA0C02DFF858C002EAAA
:101DE0000C02D1F800C04CEA020CC3F804C002682F
:101DF000B2420DD0B2F1804F0AD00F4B9A4207D0B9
:101E00000E4B9A4204D0BA4202D00D4B9A4204D1F2
:101E1000896824F080031943916080F83D500021C7
:101E200080F83C100846F0BD0220F0BD002C0140B7
:101E3000003401408FFFFFFD000400400008004017
:101E40000040014010B586B0044614216846FEF7F4
:101E50007EFA0E492068884215D10D48C16C41F0C8
:101E60000101C164C06C002100F0010005908020D8
:101E700000900220CDE90101CDE9031069464FF041
:101E80009040FFF701F906B010BD000000040040CB
:101E90000010024070B5044690F83C000D46012841
:101EA0000BD0012084F83C000C2A45D007DC5AB145
:101EB000042A1BD0082A78D12CE0022070BD102AF9
:101EC0004ED0142A71D15DE0206801F0C1FB20687A
:101ED000816941F0080181612068816921F0040174
:101EE0008161206881692A69114311E0206801F04D
:101EF000FDFB2068816941F400618161206881698E
:101F000021F480618161206881692A6941EA0221A6
:101F100081614AE0206801F031FC2068C16941F02C
:101F20000801C1612068C16921F00401C161206814
:101F3000C1692A69114311E0206801F067FC20683B
:101F4000C16941F40061C1612068C16921F4806107
:101F5000C1612068C1692A6941EA0221C16124E0A6
:101F6000206801F09BFC2068016D41F008010165CB
:101F70002068016D21F0040101652068016D2A6966
:101F8000114311E0206801F0C1FC2068016D41F4AB
:101F9000006101652068016D21F4806101652068A0
:101FA000016D2A6941EA02210165002084F83C00A4
:101FB00070BD10B5040003D094F83D0010B107E0E7
:101FC000012010BD002084F83C00204600F022F8DB
:101FD000022084F83D00211D206801F0D3FA012081
:101FE00084F8480084F83E0084F83F0084F84000FC
:101FF00084F8410084F8420084F8430084F84400E7
:1020000084F8450084F8460084F8470084F83D00D1
:10201000002010BD08B500680649884208D106486E
:10202000816D41F002018165806D00F00200009039
:1020300008BD0000000400400010024010B5044636
:10204000022269B1042912D0082917D00C291CD00A
:10205000102921D094F84300012824D0012010BD7C
:1020600094F83E000128F9D184F83E201DE094F850
:102070003F000128F2D184F83F2016E094F8400098
:102080000128EBD184F840200FE094F841000128AA
:10209000E4D184F8412008E094F842000128DDD121
:1020A00084F8422001E084F843200122206801F0F6
:1020B000C1FA1149206888420BD01049884208D0E3
:1020C0000F49884205D00F49884202D00E49884204
:1020D00003D1416C41F400414164206881680B4A9E
:1020E0001140062906D0B1F5803F03D0016841F0C8
:1020F00001010160002010BD002C014000340140AE
:102100000040014000440140004801400700010038
:1021100030B504460D460068002201F08BFA224BD0
:1021200041F2111120688A0098420BD01F4B98424F
:1021300008D01F4B984205D01E4B984202D01E4B30
:10214000984209D1036A0B4206D1036A134203D1B4
:10215000436C23F4004343642068036A0B4206D1B6
:10216000016A114203D1016821F0010101600120DF
:102170005DB1042D0CD0082D0DD00C2D0ED0102DDE
:102180000FD084F84300002030BD84F83E00FAE709
:1021900084F83F00F7E784F84000F4E784F8410052
:1021A000F1E784F84200EEE7002C014000340140E2
:1021B00000400140004401400048014090F87C107C
:1021C000012918D0012180F87C102421C0F880104A
:1021D00050F8601B0A680B6823F001030B6022F0C3
:1021E00000510022426050F8603C196020210162D9
:1021F00002771046704702207047704770B504465A
:1022000090F87C0001281DD0012084F87C00242057
:10221000C4F8800020680568026822F001020260AC
:102220002068826822F060620A438260204601F0E2
:10223000BBFB206805602020C4F88000002084F8E3
:102240007C0070BD022070BD70B5044690F87C0023
:1022500001281DD0012084F87C002420C4F88000CF
:1022600020680568026822F0010202602068826826
:1022700022F060420A438260204601F095FB20680C
:1022800005602020C4F88000002084F87C0070BD28
:10229000022070BD70477047704700002DE9F04183
:1022A00003680446D8691A68996810F00F0F4FF058
:1022B000000569D05E4E02F490770E4037437DD022
:1022C000C70709D0D70507D501271F62D4F8883082
:1022D00043F00103C4F8883083070AD5CB0708D040
:1022E000276802233B62D4F8883043F00403C4F823
:1022F000883043070AD5CB0708D0276804233B6200
:10230000D4F8883043F00203C4F8883003070CD5B2
:1023100002F02003334308D0266808233362D4F840
:10232000883043F00803C4F88830D4F88830002B94
:102330003CD0800609D502F0200001F0805108430E
:1023400003D0E16E09B120468847D4F8880021689F
:102350008968490601D400072AD5204601F0F4FB1C
:102360002068816849061ED5816821F0400181609E
:10237000A06FC0B12F498163A06FFEF737FE002820
:1023800014D0A06F816B0AE0860617D502F02006F4
:1023900001F080573E4311D0E16E24E02046BDE8B5
:1023A000F04108470AE02046FFF776FFBDE8F081DC
:1023B0002046FFF771FFC4F88850F7E7C60209D539
:1023C0004E0207D54FF4801018622046BDE8F04158
:1023D000FFF761BF060609D502F0800601F400018F
:1023E0000E4303D0216F0029D8D1DFE741060DD578
:1023F00051060BD51968204621F0400119602021B3
:10240000C4F88010256700F019FACFE7010206D55D
:10241000510004D52046BDE8F041FFF73BBFC001A5
:10242000C4D5002AC2DA2046BDE8F041FFF7E5BE78
:1024300001000010333B000810B5040003D0D4F8AD
:10244000800010B107E0012010BD002084F87C005E
:10245000204600F027F82420C4F880002068016896
:1024600021F001010160204601F080FC0128EBD041
:10247000A06A10B1204601F0C9FA2068416821F431
:10248000904141602068816821F02A0181602068C4
:10249000016841F0010101602046BDE8104001F0F3
:1024A00019BB000010B586B0044614216846FDF73C
:1024B0004EFF17492068884227D11648016E41F423
:1024C00080410166016E01F480410591C16C41F0CB
:1024D0000101C164C06C694600F0010005904FF431
:1024E000C06000900220019000200290039007201D
:1024F00004904FF09040FEF7C7FD002211462520C2
:10250000FEF71AFF2520FEF709FF06B010BD0000F8
:10251000003801400010024070B5D0F88430202B04
:102520006DD1B9B1B2B190F87C30012B67D00123E5
:1025300080F87C308165A0F85C20A0F85E20002146
:10254000C16683684FF48056FF24B34207D1036904
:1025500013B11CE0012070BD40F2FF131DE07F2588
:102560009BB1B3F1805F15D0A0F86010C0F888105F
:102570002223C0F8843003689C6844F001049C6006
:10258000436EB3F1005F0ED027E0036943B9A0F8B2
:102590006040EBE703691BB13F23A0F86030E5E73B
:1025A000A0F86050E2E7B0F86830934215D882682E
:1025B000B24201D1026972B1124AC26680F87C103F
:1025C00001680A6842F480720A600068816841F01C
:1025D000805181600FE00C4AEFE78268B24201D17E
:1025E000026952B1094AC26680F87C10006801682D
:1025F00041F490710160002070BD054AF3E70220AC
:1026000070BD0000CD3C0008CD3B00086D3C0008CB
:102610006D3B000830B59FB002AC0DAB0EAA0CA903
:102620000BA884E80F000AA909A8CDE900011DAB99
:102630001BAA42A14848FDF7B3FE082802D0052294
:1026400046A168E047A11BA8FDF793FE20B147A172
:102650001BA8FDF78EFE88B99DF834109DF8380050
:10266000CDE900019DF830309DF82C209DF8281010
:102670009DF8240001F082F9012802D006223DA134
:1026800049E038A11BA8FDF774FEE8B35FF002052E
:102690009DF824002422643014909DF8280011A98C
:1026A000401E13909DF82C0012909DF83000119060
:1026B0009DF8380010909DF834000F906846FDF7A3
:1026C0002DFEDDE90F231DA9284600F0B9F8041EF0
:1026D0002DDD2A4800EE104A00EB8500B8EEC00A56
:1026E00050ED010A20EE800A10EE100AFDF78AFF75
:1026F000CDE9020118481DAB1BAA009420A1173098
:1027000001F0D8FF144800E00FE01730FDF72AFE73
:10271000114982B217311E4800F042F816220E49C4
:102720001B48FFF7F9FE1FB030BD0125B0E702DA04
:10273000062218A1EFE7022218A1ECE72534733A2C
:102740002534733A25326425326425326425326497
:102750002532642532640000D00100204572726F7A
:1027600072000000434E425200000000564E42529A
:10277000000000004572726F7231000018000020E6
:1027800025733A25733A25643A252D342E32660096
:102790004C0200204572726F72320000496E0000D8
:1027A000D0F88030202B3ED149B342B390F87C3032
:1027B000012B38D0012380F87C300165A0F854202B
:1027C000A0F8562000210167C0F888102122C0F827
:1027D0008020436E4FF48052B3F1005F836810D0C5
:1027E000934201D10269E2B1104A026780F87C107D
:1027F0000068016841F080010160002070470120FD
:102800007047934201D102694AB1094A026780F8D0
:102810007C100068816841F400018160EDE7054AA1
:10282000F4E7054AE1E7022070470000AD450008E3
:10283000ED45000855450008134500087047FEE7C0
:102840000FB42DE9F04700268946804634462D4DC9
:1028500014E09EB104EB840000EBC40015F82000E6
:10286000B0B100BF04EB840000EBC40005EB8001B5
:102870004846491CFDF77DFDB0B109E004EB84003A
:1028800000EBC40015F820000028EBD101262746F4
:10289000641CE4B2082CDCD3012E1FD04FF0FF30B3
:1028A000BDE8F0075DF814FB0AA8FDF7E3FC064657
:1028B00004EB840000EBC40405EB840707F1080077
:1028C000FDF7D8FC301A4FF46161B0FBF1F1002242
:1028D00005F82420491C7A7008B2E1E707EB87006D
:1028E00000EBC70005EB800405F82080601C49461A
:1028F000FDF74DFD04F108002C220AA9FDF70EFD9D
:102900000020CDE73000002010B500F05FF82D4C1E
:10291000E17888424DD0E070A16800220123E16097
:1029200001280AD004F11001B6EE000A02280DD0E9
:10293000032819D004283CD134E0607820B16270BB
:10294000002000F0B3F834E06370F9E76078012804
:102950002FD1D1ED000A70EE800AC1ED000AD1ED51
:10296000010A30EE800A1AE06078012821D1D1ED09
:10297000000A70EEC00AC1ED000AF5EEC00AF1EEE1
:1029800010FA01D881ED000AD1ED010A70EEC00AFB
:10299000C1ED010AF5EEC00AF1EE10FA09D881ED99
:1029A000010A06E0A07830B1A27004210648FFF7C2
:1029B000AFFBA06810BDA37004210348FFF73EFBE6
:1029C000F7E70000080000200002002070B51F4D4E
:1029D000002401212846FEF73BFC40B90A20FEF7FF
:1029E00041FB01212846FEF733FC00B901240221F6
:1029F0002846FEF72DFC40B90A20FEF733FB0221E2
:102A00002846FEF725FC00B9022404212846FEF7DB
:102A10001FFC40B90A20FEF725FB04212846FEF7DB
:102A200017FC00B903244FF0904501212846FEF71A
:102A30000FFC40B90A20FEF715FB01212846FEF7DE
:102A400007FC00B90424204670BD000000040048C3
:102A500000B585B014216846FDF779FC4FF6FF708C
:102A6000009000200321CDE902010190694602484F
:102A7000FEF70AFB05B000BD0008004800B585B0B0
:102A800014216846FDF763FC4FF6FF7000900120AB
:102A90000190032003900020029069460248FEF74F
:102AA000F3FA05B000BD00000008004870B500242E
:102AB00006462146204600F089F900F0C7F94FF498
:102AC0009635304600F096F9641CAC42F9D370BDDF
:102AD00030B587B014216846FDF739FC1E48C16C3B
:102AE00041F00401C164C16C01F004010591C16CA5
:102AF00041F00101C164C16C01F001010591C16C9B
:102B000041F00201C164C06C012500F00200059093
:102B10004FF44870CDE900050024039469460294FF
:102B20000E48FEF7B1FA280203940090CDE9015453
:102B30004FF0904469462046FEF7A6FAFFF79EFF45
:102B4000A06940F48070A06104481830016841F425
:102B50000871016007B030BD001002400004004859
:102B6000203AD2B2034B02EB420203EB021200F016
:102B700019B800002C500008F0B50E460746002595
:102B800040F23F1407E021463846FFF7E9FF103CCA
:102B90006D1CA4B2761C3278002A01D0142DF2D319
:102BA000F0BD00002DE9F04791468A460026044614
:102BB00000F00CF9DFF84080012700BF00F046F973
:102BC0005FF0000539F8160007FA05F108424046A3
:102BD00001D1408800E0008800F00CF96D1C102D38
:102BE000F0D3641CE4B25146204600F0EFF8761CA6
:102BF000182EE3D3BDE8F0870000002010B5FFF7E2
:102C000067FF002000F09AF8084CA080A088A0F58B
:102C10000241303906D000F064FB002000F08EF84D
:102C2000A08010BD00F0D4FAF7E7000000000020FB
:102C300010B588B01C216846FDF789FB224C6078EE
:102C400020B322A11820FFF797FF10342068FDF76A
:102C5000D9FC41EC100B22A153EC102B684601F07B
:102C600029FD69464820FFF787FF6068FDF7CAFC29
:102C700041EC100B1EA153EC102B684601F01AFD1D
:102C800069467820FFF778FF08B010BD1CA1182016
:102C9000FFF772FF227920A1684601F00BFD69461B
:102CA0004820FFF769FF62791EA1684601F002FD26
:102CB00069467820FFF760FFA2791DA1684601F000
:102CC000F9FC6946A820DDE708000020202020202C
:102CD0002020205061726120202020202020200010
:102CE0002020434E42523A252D332E3266000000FA
:102CF0002020564E42523A252D332E3266000000D7
:102D000020202020202020204461746120202020C9
:102D100020202020000000002020434E42523A256F
:102D2000640000002020564E42523A256400000004
:102D3000202049444C453A256400000070B51D49E7
:102D40000A6842F400720A600A6842F480720A60FB
:102D5000184C103C226842F020022260164A106093
:102D6000086840F02000086000BF00BF00BF206876
:102D700040F020002060206840F480702060FFF761
:102D800067FE4FF09041886A40F48070886200BF0F
:102D900000BF00BF0848001F006885B2886940F482
:102DA00080708861FFF76AFE206840F40070206040
:102DB000284670BD280400481408004801B5BDF835
:102DC00000000149488008BD0000002010B50C46F5
:102DD0000146202000F068F82146BDE8104021207F
:102DE00000F062B801B5BDF800000149088008BDD7
:102DF00000000020134A116841F40071116011496C
:102E000010390B6843F480730B600B6843F02003A8
:102E10000B600D4B1860106840F02000106000BF80
:102E200000BF00BF086840F020000860086840F458
:102E30008070086000BF00BF00BF086840F40070E9
:102E400008607047280400481408004814490868BE
:102E500040F400700860086840F480700860104812
:102E60001038026842F0200202600E4B22221A60E3
:102E70000A6842F020020A6000BF00BF00BF01687C
:102E800041F020010160016841F48071016000BFE0
:102E900000BF00BF016841F400710160704700008D
:102EA0002804004814080048184B10B51A6842F46A
:102EB00000721A601A6842F480721A60134A103A5B
:102EC000146844F020041460114C2060186840F02D
:102ED0002000186000BF00BF00BF106840F0200055
:102EE0001060106840F4807010602160186840F035
:102EF0002000186000BF00BF00BF106840F0200035
:102F00001060106840F48070106010BD2804004804
:102F100014080048084910B5C04300020860074C77
:102F2000012204212046FEF798F920460022BDE840
:102F300010400421FEF791B914080048000C004825
:102F40000B4881780029017809D041F00201017015
:102F500081790029017805D041F0010104E021F0D8
:102F60000201F4E721F0010101700078FFF7D2BF00
:102F7000080000204FF4C871B0FBF1F201FB120110
:102F800039B1810707D16421B0FBF1F201FB1200D6
:102F900008B1012070470020704700002DE9F04F74
:102FA00087B014216846FDF7D2F94048C16C41F062
:102FB0000401C164C16C01F004010591C16C41F0D0
:102FC0002001C164C16C01F020010591C16C41F088
:102FD0000101C164C16C01F001010591C16C41F0B6
:102FE0000201C164C16C01F002010591C16C41F0A4
:102FF0000801C164C06CDFF8B88000F008004FF62B
:10300000FF740590002221464046FEF726F94FF452
:1030100080764FF09049002231464846FEF71DF970
:10302000DFF890A0002204215046FEF716F9DFF8E1
:1030300088B04FF44877002239465846FEF70DF91C
:103040000125CDE9004500240294694640460394D9
:10305000FEF71AF8CDE90054694648460294FEF797
:1030600013F80720CDE90004694658460294FEF79C
:103070000BF80096CDE90154694648460394FEF7E3
:1030800003F804200090CDE90154694650460394AA
:10309000FDF7FAFF0097CDE90154694658460394BD
:1030A000FDF7F2FF07B0BDE8F08F0000001002400E
:1030B00000080048000C00480004004810B58AB021
:1030C0000024079408941C2168460994FDF73FF9F1
:1030D0001648154901604F21C0E9011440F2F3116F
:1030E000C0E903148461FEF764FF08B1FDF77DFFBA
:1030F000079407A90D480994FEF756FE08B1FDF79D
:1031000074FF602000906420CDE901040422694628
:1031100006480494FEF7BEFE08B1FDF766FF0348BB
:10312000FEF790FE0AB010BD00040040000200202F
:10313000184810B5164901604FF41651416000213E
:1031400081600C22C160C0E904128161C161016229
:1031500041628162FFF770F908B1FDF746FF002177
:103160000C48FFF771F808B1FDF73FFF002109484F
:10317000FFF744F808B1FDF738FF0648FFF71EF8DF
:10318000002803D0BDE81040FDF72FBF10BD0000A0
:10319000003801404C020020FEE700001EB508A4E4
:1031A0000B4616CC8DE81600FFF7E4FE10B11D208B
:1031B0008DF801000DEB030010F8010C1EBD00009E
:1031C0001F1C1F1E1F1E1F1F1E1F1E1F7047704724
:1031D00030B501210020FFF767FE4FF47A70FDF74C
:1031E000F6FE00210120FFF75FFE41F290711020F2
:1031F000FFF75AFE4FF41C516020FFF755FE0121E6
:103200006120FFF751FE02214620FFF74DFE48F2F4
:1032100010011320FFF748FE48F2FE011220FFF7CD
:1032200043FE4FF4A0610220FFF73EFE41F2300161
:103230000320FFF739FE40F2033421463020FFF728
:1032400033FE21463120FFF72FFE21463220FFF7C3
:103250002BFEE51E29463320FFF726FE03213420EE
:10326000FFF722FE21463520FFF71EFE14213620EF
:10327000FFF71AFE21463720FFF716FE21463820B9
:10328000FFF712FE21463920FFF70EFE29463A20AD
:10329000FFF70AFE03213B20FFF706FE21463C20F4
:1032A000FFF702FE4FF4A0513D20FFF7FDFD4FF464
:1032B00000719220FFF7F8FD21469320FFF7F4FDFF
:1032C00040F60D019020FFF7EFFD41F218010320B9
:1032D000FFF7EAFDBDE8304040F273110720FFF729
:1032E000E3BD10B543F20801E320FFF7DDFD122135
:1032F000E720FFF7D9FD41F23121EF20FFF7D4FDA0
:1033000000210120FFF7D0FD4FF4E0610220FFF71C
:10331000CBFD41F230010320FFF7C6FD0021042060
:10332000FFF7C2FD40F207210820FFF7BDFD002195
:103330000920FFF7B9FD00210A20FFF7B5FD0021A4
:103340000C20FFF7B1FD00210D20FFF7ADFD00219E
:103350000F20FFF7A9FD00211020FFF7A5FD072191
:103360001120FFF7A1FD00211220FFF79DFD002194
:103370001320FFF799FDC820FDF774FE41F290611C
:103380001020FFF791FD40F227211120FFF78CFD5F
:103390003220FDF767FE1D211220FFF785FD322048
:1033A000FDF760FE4FF400611320FFF77DFD14214F
:1033B0002920FFF779FD0B212B20FFF775FD322027
:1033C000FDF750FE00212020FFF76EFD0021212097
:1033D000FFF76AFD07213020FFF766FD40F2077115
:1033E0003120FFF761FD06213220FFF75DFD40F23D
:1033F00004713520FFF758FD41F604713620FFF7C0
:1034000053FD04213720FFF74FFD00213820FFF73F
:103410004BFD40F206713920FFF746FD40F2017185
:103420003C20FFF741FD0F213D20FFF73DFD00212E
:103430005020FFF739FDEF215120FFF735FD002126
:103440005220FFF731FD40F23F115320FFF72CFDD2
:103450004FF41C516020FFF727FD01216120FFF789
:1034600023FD00216A20FFF71FFD00218020FFF7C8
:103470001BFD00218120FFF717FD00218220FFF7AF
:1034800013FD00218320FFF70FFD00218420FFF7AB
:103490000BFD00218520FFF707FD10219020FFF78D
:1034A00003FD00219220FFF7FFFC03219320FFF78B
:1034B000FBFC4FF488719520FFF7F6FC0021972064
:1034C000FFF7F2FC00219820FFF7EEFC41F2180113
:1034D0000320FFF7E9FCBDE8104040F2731107201C
:1034E000FFF7E2BC7047000010B5FDF7C1FE0248CF
:1034F0000168491C016010BD1000002030B5A5B066
:1035000038216846FCF723FF14211FA8FCF71FFF92
:1035100044210EA8FCF71BFF4FF40070FDF73EFF9F
:1035200001252804CDE9005002200324CDE9070439
:103530002321CDE90A100C900D9009946846FEF7FE
:1035400019FA0F20CDE91F0480200024CDE92104C1
:1035500003211FA82394FEF7C3F8CDE90E540EA84B
:10356000FDF77AFF25B030BD0548016841F47001D0
:10357000016003494FF00060803908607047000027
:1035800088ED00E02DE9F0430268234B234D244EE3
:10359000244C4FF08049984207D0484505D0A842B6
:1035A00003D0B04201D0A04203D122F070074A6894
:1035B0003A431D4FDFF874C0DFF8748098420DD095
:1035C00048450BD0A84209D0B04207D0A04205D050
:1035D000B84203D0604501D0404503D122F4407584
:1035E000CA682A434D6922F080022A4302608A6831
:1035F000C2620A688262984207D0A04205D0B842EF
:1036000003D0604501D0404501D109690163012122
:103610004161BDE8F0830000002C0140000400403F
:1036200000080040003401400040014000440140D7
:103630000048014010B501F01F030121046A9940C0
:103640008C430462016A9A401143016210BD00007C
:103650002DE9F043026A22F001020262056A436822
:1036600082691C4C25F0020522400C6822F00302FE
:1036700014438A68194E2A43174D194FDFF864C066
:10368000DFF86490A84207D0B04205D0B84203D01A
:10369000604501D0484506D122F00808CA6842EAD0
:1036A000080222F00402A84207D0B04205D0B84276
:1036B00003D0604501D0484505D14D6923F44073DE
:1036C0001D438B692B4343608461496841630262F7
:1036D000BDE8F0838FFFFEFF002C01400034014065
:1036E000004001400044014000480140F0B5026A3A
:1036F00022F010020262056A42688369194C1B4E6F
:1037000023400C6823F4407343EA042425F020038B
:103710008D6843EA0513144DA84201D0B04206D18A
:10372000CF6823F0800343EA071323F04003A84245
:103730000AD0B04208D00E4DA84205D00D4DA84287
:1037400002D00D4DA84207D14D6922F4406242EAF1
:1037500085028D6942EA850242608461496881631D
:103760000362F0BDFF8FFFFE002C014000340140DA
:10377000004001400044014000480140F0B5026AA9
:1037800022F480720262056A4368C269194C1B4EBA
:1037900022400C6822F00302144325F400728D6865
:1037A00042EA0522144DA84201D0B04206D1CF68AA
:1037B00022F4006242EA072222F48062A8420AD080
:1037C000B04208D00E4DA84205D00E4DA84202D0FE
:1037D0000D4DA84207D14D6923F4405343EA051328
:1037E0008D6943EA05134360C4614968C16302629D
:1037F000F0BD00008FFFFEFF002C014000340140AF
:10380000004001400044014000480140F0B5026A18
:1038100022F480520262056A4268C369194C1B4E49
:1038200023400C6823F4407343EA042425F4005336
:103830008D6843EA0533144DA84201D0B04206D149
:10384000CF6823F4004343EA073323F48043A842BC
:103850000AD0B04208D00E4DA84205D00D4DA84266
:1038600002D00D4DA84207D14D6922F4404242EAF0
:1038700085128D6942EA85124260C461496801641B
:103880000362F0BDFF8FFFFE002C014000340140B9
:1038900000400140004401400048014030B5026A48
:1038A00022F480320262046A4268036D114D2B409B
:1038B0000D681D4324F400330C8943EA04430E4C85
:1038C000A0420BD00D4CA04208D00D4CA04205D018
:1038D0000C4CA04202D00C4CA04204D14C6922F402
:1038E000803242EA042242600565496881640362CD
:1038F00030BD00008FFFFEFF002C0140003401406E
:1039000000400140004401400048014030B5026AD7
:1039100022F480120262046A4268036D114D24F49D
:1039200000142B400D6843EA05230D8944EA055431
:103930000D4DA8420BD00D4DA84208D00C4DA84209
:1039400005D00C4DA84202D00B4DA84204D14D69C0
:1039500022F4802242EA8522426003654968C164FC
:10396000046230BDFF8FFFFE002C01400034014097
:1039700000400140004401400048014070B5144639
:103980004A1E059E1D460C2A0AD24CB100F5FA606B
:10399000FFF704FCA04203D3172D01D83B2E01D919
:1039A000002070BD012070BD3FB514A1D1E90021F8
:1039B000CDE9002113A2D2E90012CDE90212416E35
:1039C000B9B1026891689268C1F34261520F1DF863
:1039D0000240E50002ACA25CB5FBF2F2A0F86A205E
:1039E0001DF80120615CD200B2FBF1F1A0F8681073
:1039F0003FBD0121A0F86A10F8E7000001010103B2
:103A000007010000080402040801010190F82810D1
:103A1000C90706D001684A68C36A22F400321A4313
:103A20004A6090F82810890706D501684A68036B38
:103A300022F480321A434A6090F82810490706D5CC
:103A400001684A68436B22F480221A434A6090F866
:103A50002810090706D501684A68836B22F40042E2
:103A60001A434A6090F82810C90606D501688A688A
:103A7000C36B22F480521A438A6090F8281089069A
:103A800006D501688A68036C22F400521A438A60E2
:103A900090F82810490611D501684A68436C22F451
:103AA00080121A434A60416CB1F5801F06D101684B
:103AB0004A68836C22F4C0021A434A6090F82810C6
:103AC000090606D501684A68C06C22F40022024348
:103AD0004A607047F8B500260446C0F88860FDF7D4
:103AE000C1FB0546206800686FF07E47000708D5D7
:103AF0002B4600224FF400112046009700F0A0FD55
:103B000060B92068006840070AD52B4600224FF4B0
:103B100080012046009700F093FD08B10320F8BD16
:103B20002020C4F88000C4F8840084F87C60002061
:103B3000F8BD10B5806A0021A0F85E10A0F85610FC
:103B4000FEF7AAFB10BD000001680A6822F490721B
:103B50000A6001688A68044B1A408A602021C0F814
:103B600084100021C1667047FEFFFFEF10B5B0F86A
:103B70006020D0F884300168222B04D0886940F09E
:103B80000800886110BD496A836D11401980816DFC
:103B9000891C8165B0F85E10491EA0F85E10B0F86F
:103BA0005E100029EED101680A6822F490720A6062
:103BB00001688A6822F001028A602021C0F884101E
:103BC0000021C166FEF726FD10BD000070B5044659
:103BD000B0F86060D0F88400222805D020688169A0
:103BE00041F00801816170BDB4F8685023E020689D
:103BF000406AA16D30400880A06D801CA065B4F8BB
:103C00005E00401EA4F85E00B4F85E0088B920682B
:103C1000016821F48071016020688168114A1140B7
:103C200081602020C4F884000020E0662046FEF772
:103C3000F1FC6D1EADB2002DD9D1B4F85E000028A4
:103C4000D1D0B4F868108142CDD92068816821F0C4
:103C5000805181600448E0662068016841F02001DD
:103C6000016070BDFEFFFFEF6D3B000810B5B0F8BE
:103C70006020D0F884300168222B04D0886940F09D
:103C80000800886110BD496A1140826D1170816D14
:103C9000491C8165B0F85E10491EA0F85E10B0F8AE
:103CA0005E100029EED101680A6822F490720A6061
:103CB00001688A6822F001028A602021C0F884101D
:103CC0000021C166FEF7A6FC10BD000070B50446D9
:103CD000B0F86060D0F88400222805D0206881699F
:103CE00041F00801816170BDB4F8685023E020689C
:103CF000406AA16D30400870A06D401CA065B4F80A
:103D00005E00401EA4F85E00B4F85E0088B920682A
:103D1000016821F48071016020688168114A1140B6
:103D200081602020C4F884000020E0662046FEF771
:103D300071FC6D1EADB2002DD9D1B4F85E00002823
:103D4000D1D0B4F868108142CDD92068816821F0C3
:103D5000805181600448E0662068016841F02001DC
:103D6000016070BDFEFFFFEF6D3C00082DE9F05FC4
:103D70000446016880682369E56918436369002780
:103D80002B431843636EFA4A03430868F94D2840F1
:103D90001843086020684168E36821F440511943E2
:103DA00041602168A069914201D0236A18438B6861
:103DB000F14D2B4003438B602068C16A636A21F098
:103DC0000F011943C162ED4B2068ED4998420DD1B6
:103DD000D1F8881011F0030106D001295AD0022928
:103DE00056D003293FD157E001253DE0E54B9842ED
:103DF0000BD1D1F8881011F00C0147D0042949D01B
:103E0000082945D00C292ED146E0DF4B98420BD132
:103E1000D1F8881011F0300138D010293AD020297B
:103E200036D030291FD137E0D84B98420BD1D1F88A
:103E3000881011F0C00129D040292BD0802927D02B
:103E4000C02910D128E090420DD1D1F8881011F48A
:103E500040611BD0B1F5806F1CD0B1F5006F17D059
:103E6000B1F5406F18D01025DFF824A34FF4807609
:103E70004FF000094FF4004B90426ED175B1022D06
:103E800029D0042D59D0082D68D176E00025EBE724
:103E90000225E9E70425E7E70825E5E7FDF70EFD3C
:103EA0004DE0012851D0022851D0032851D00428D8
:103EB00051D0052853D0062853D0072853D00828BE
:103EC00053D0092853D00A2853D00B2853D03AE0B6
:103ED000B1FBF0F06CE0606AA8B1012817D00228AD
:103EE00017D0032817D0042817D0052817D0062884
:103EF00017D0072817D0082817D0092817D00A2864
:103F000017D00B2817D00120BAFBF0F050E00220A8
:103F1000FAE70420F8E70620F6E70820F4E70A208D
:103F2000F2E70C20F0E71020EEE72020ECE740203D
:103F3000EAE78020E8E73046E6E7FDF7E3FC0146E4
:103F4000606A0028ADD10120C2E70220C0E704204A
:103F5000BEE70620BCE70820BAE761E14AE00A2094
:103F6000B6E70C20B4E71020B2E72020B0E74020ED
:103F7000AEE78020ACE73046AAE7606AA8B1012826
:103F800022D0022822D0032822D0042822D00528BB
:103F900022D0062822D0072822D0082822D009289B
:103FA00022D00A2822D00B2822D00120BBFBF0F01F
:103FB000002820D06168884601EB4101814219D870
:103FC000B0EB083F16D817E00220EFE70420EDE73A
:103FD0000620EBE70820E9E70A20E7E70C20E5E701
:103FE0001020E3E72020E1E74020DFE78020DDE745
:103FF0003046DBE7012739E27DB3022D61D0042D85
:104000007DD0082DF6D1606AA8B1012878D00228A9
:1040100077D0032876D0042875D0052874D00628D8
:1040200073D0072872D0082871D0092870D00A28C8
:104030006FD00B2800D0012632464D46002358464B
:104040000021FCF7E5F8090241EA106102024FEA9B
:10405000580010186941424670E0FFE7FDF72EFC5A
:104060000146606AA8B1012817D0022817D003289A
:1040700017D0042817D0052817D0062817D00728EE
:1040800017D0082817D0092817D00A2817D00B28CE
:1040900000D0012632464D468CE00226FAE704267F
:1040A000F8E70626F6E70826F4E70A26F2E70C26E4
:1040B000F0E71026EEE72026ECE74026EAE7802628
:1040C000E8E7606AA8B1012824D0022824D0032898
:1040D00024D0042824D0052824D0062824D007285A
:1040E00024D0082824D0092824D00A2824D00B283A
:1040F00000D0012632464D4600235046A0E726E078
:104100007AE07BE07CE07DE07EE07FE080E081E0C3
:1041100082E083E00226EDE70426EBE70626E9E7E6
:104120000826E7E70A26E5E70C26E3E71026E1E79D
:104130002026DFE74026DDE78026DBE70023FCF7CB
:1041400067F8144AA0F54071914271D952E7FDF722
:10415000D9FB0146606A50B3012839D0022839D012
:10416000032839D0042839D0052839D0062813E08F
:1041700000800040F369FFCFFFF4FF1100380140D9
:10418000001002400044004000480040004C004045
:104190000024F400FFFC0F0024D0072824D00828B6
:1041A00024D0092824D00A2824D00B2800D00126A6
:1041B0004D463246002308461946FCF729F8090205
:1041C000626841EA10610302500818186941B5E7B6
:1041D0000226EDE70426EBE70626E9E70826E7E7EF
:1041E0000A26E5E70C26E3E71026E1E72026DFE7CD
:1041F0004026DDE78026DBE702261DE704261BE7D5
:10420000062619E7082617E70A2615E70C2613E7FE
:10421000102611E720260FE740260DE780260BE742
:10422000E0694FF6EF78584570D1092D8ED200E045
:104230001AE1DFE805F006093C0580050505830065
:10424000D8E6FDF73BFB01E0FDF74AFB0146606A5B
:10425000A8B1012815D0022815D0032815D00428AC
:1042600015D0052815D0062815D0072815D0082800
:1042700015D0092815D00A2815D00B2814D00126EE
:1042800012E0022610E004260EE006260CE00826C6
:104290000AE00A2608E00C2606E0102604E02026A4
:1042A00002E0402600E08026B1FBF6F01AE0606AEA
:1042B000A8B101282BD002282BD003282BD004280A
:1042C0002BD005282BD006282BD007282BD0082848
:1042D0002BD009282BD00A282BD00B2800D0012660
:1042E000BAFBF6F04100606801EB5001B1FBF0F061
:1042F00080B2A0F110014145A2D84FF6F071014003
:10430000C0F3420001432068C160AFE046E00226EE
:10431000E6E70426E4E70626E2E70826E0E70A26C1
:10432000DEE70C26DCE71026DAE72026D8E7402671
:10433000D6E78026D4E7FDF7E5FA87E7606AA8B1FB
:10434000012817D0022817D0032817D0042817D027
:10435000052817D0062817D0072817D0082817D007
:10436000092817D00A2817D00B2800D00126BBFB3C
:10437000F6F0B7E70226FAE70426F8E70626F6E79E
:104380000826F4E70A26F2E70C26F0E71026EEE707
:104390002026ECE74026EAE78026E8E7092DBFF46F
:1043A000D5AEDFE805F006093C0583050505860066
:1043B00020E6FDF783FA01E0FDF792FA0146606A14
:1043C000A8B1012815D0022815D0032815D004283B
:1043D00015D0052815D0062815D0072815D008288F
:1043E00015D0092815D00A2815D00B2814D001267D
:1043F00012E0022610E004260EE006260CE0082655
:104400000AE00A2608E00C2606E0102604E0202632
:1044100002E0402600E08026B1FBF6F11AE0606A77
:10442000A8B101282ED002282ED003282ED004288F
:104430002ED005282ED006282ED007282ED00828CA
:104440002ED009282ED00A282ED00B2800D00126E5
:10445000BAFBF6F1606801EB5001B1FBF0F080B2FD
:10446000A0F110014145A3D82168C8600120A4F83B
:104470006A0024F8680F3846C4F80490C4F808901D
:10448000BDE8F09F0226E3E70426E1E70626DFE722
:104490000826DDE70A26DBE70C26D9E71026D7E752
:1044A0002026D5E74026D3E78026D1E7FDF72AFA74
:1044B00084E7606AA8B1012817D0022817D0032822
:1044C00017D0042817D0052817D0062817D007289A
:1044D00017D0082817D0092817D00A2817D00B287A
:1044E00000D00126BBFBF6F1B4E70226FAE704266A
:1044F000F8E70626F6E70826F4E70A26F2E70C2690
:10450000F0E71026EEE72026ECE74026EAE78026D3
:10451000E8E7D0F88010212910D1B0F8561071B119
:10452000016D02680988C1F308019162016D891C5F
:104530000165B0F85610491EA0F856107047016882
:104540000A6822F080020A600068016841F04001B8
:1045500001607047D0F8801021291BD1B0F86A1093
:1045600016E000BFB0F85620AAB10268D3691B0656
:104570000CD5036D1B88C3F308039362026D921C74
:104580000265B0F85620521EA0F85620491E89B286
:104590000029E7D1704701688A6822F400028A6026
:1045A0000068016841F0400101607047D0F8801058
:1045B00021290ED1B0F8561061B1016D0268097859
:1045C0009162016D491C0165B0F85610491EA0F8B2
:1045D0005610704701680A6822F080020A6000687D
:1045E000016841F04001016070470000D0F8801080
:1045F000212919D1B0F86A1014E000BFB0F8562094
:104600009AB10268D3691B060AD5036D1B789362C1
:10461000026D521C0265B0F85620521EA0F85620BA
:10462000491E89B20029E9D1704701688A6822F4DD
:1046300000028A600068016841F040010160704733
:104640002DE9F041984617460E460446069D08E0BF
:10465000681C06D0FCF706FEA0EB0800A8420BD8A9
:1046600055B12068C06936EA000019D00020B84270
:10467000EED00020BDE8F0812068016821F4D071FF
:1046800001602068816821F0010181602020C4F868
:104690008000C4F88400002084F87C000320E9E74F
:1046A0000120E4E70148FDF7F9BD00004C020020BD
:1046B000FEE700000FB4084B10B504A902AA039846
:1046C00000F0EEF8044602A9002000F080FC20462D
:1046D00010BC5DF814FB0000CF4F00080907090E5D
:1046E000002804DB00F1E02080F80014704700F09F
:1046F0000F0000F1E02080F8141D704702E008C8A8
:10470000121F08C1002AFAD170477047002001E04B
:1047100001C1121F002AFBD1704700002DE9FF5F85
:1047200082B00021DDE90430020DDDF840B0034322
:1047300018D044F61050A2F2FF32424315141198DB
:1047400001281FD0A5EB0B00401C5FEA000A4FF0C8
:1047500000064E4FDFF83891B046504615D5CAF1E5
:10476000000413E0119801244AA3012801D16FEA43
:104770000B010298119AC0E90031C0E9024206B06B
:10478000BDE8F09FCBF10000DFE704460021404A7E
:10479000491842EB0450CDE9001012E0E00707D0C1
:1047A00032463B4640464946FCF7A3F880468946D8
:1047B00032463B4610461946FCF79BF806460F4624
:1047C0006410002CEAD1DDE90401DDE90023BAF12F
:1047D000000F06DAFCF78DF842464B46FCF789F8E5
:1047E00005E0FCF7F8F842464B46FCF7F4F80446BF
:1047F0000E460022284BFCF775F903D84FF0FF3026
:10480000014607E00022254B20463146FBF7CAFF50
:10481000FCF750F9102409E0002C0ADB0A220023DF
:10482000FBF7F6FC039B30321A55641E50EA010276
:10483000F2D1641C039AC4F111031444119A012AA1
:1048400003D0012208430DD10AE0084304D0002020
:104850004FF0110B119072E7A3EB0B056D1E0DE0ED
:104860005B4504DD4FF0000205F1010504E003DAC9
:104870004FF00002A5F10105002AECD00298119931
:10488000C0E90231C0E9004579E7000000001440AA
:104890000000F03F300000000000F0430000E03F67
:1048A0002DE9FF4F95B09B468946064600250FE24D
:1048B000252877D100242746F84A0121059400E0F5
:1048C000044316F8013F203B01FA03F01042F7D1F0
:1048D00030782A2811D06FF02F033078A0F1300201
:1048E000092A16D8059A44F0020402EB820203EB6F
:1048F00042021044761C0590EFE759F8042B05920C
:10490000002A03DA504244F40054059044F00204B3
:10491000761C30782E2816D116F8010F44F00404C6
:104920002A280DD06FF02F023078A0F13003092B28
:1049300009D807EB870302EB4303C718761CF3E79C
:1049400059F8047B761C30786C280FD006DC4C2894
:1049500017D068280DD06A2814D104E0742810D02C
:104960007A280FD10DE044F400140AE044F48014D6
:1049700001E044F440147278824202D104F58014BC
:10498000761C761C307866280BD013DC582877D03C
:1049900009DC002875D04528F6D04628F4D04728F1
:1049A0001AD19DE118E0632835D0642879D06528B4
:1049B00012D195E1702873D008DC6728F1D06928FE
:1049C0006FD06E280DD06F2806D1B5E073282CD09B
:1049D000752875D0782874D05A46179990476D1C61
:1049E00075E1C4F30250022809D003280DD0D9F88C
:1049F000001004280DD00D6009F1040967E1D9F811
:104A00000010EA17C1E90052F6E7D9F800100D804E
:104A1000F2E70D70F0E719F8041B8DF80010002084
:104A20008DF80100EA46012003E059F804AB4FF08D
:104A3000FF3061074FF0000102D40DE008F10101E1
:104A40008846B9420FDA8045F8DB1AF808100029C9
:104A5000F4D108E008F1010188468142FADB1AF836
:104A600008100029F6D105985B46A0EB08072146FF
:104A70003846179A00F094FA284400EB080507E03E
:104A80004DE029E10DE01AF8010B5A4617999047BD
:104A9000B8F10108F7D25B4621463846179A13E170
:104AA00042E00A220092C4F302524FF0000A022AA6
:104AB00008D059F804CB032A4FEAEC710AD00DE074
:104AC00029E02AE009F1070121F00702F2E802C11A
:104AD000914609E00FFA8CFC4FEAEC71042A03D1ED
:104AE0004FFA8CFC4FEAEC71002907DA0A460021E4
:104AF000DCF1000C61EB02012D2202E0220504D55D
:104B00002B228DF80420012203E0E20701D02022AD
:104B1000F7E7904659E00A2102E010220DE010214B
:104B20004FF0000A00910BE010224FF0000A44F011
:104B300004040827009203E008224FF0000A0092C4
:104B4000C4F30252022A05D059F804CB0021032AEB
:104B500008D009E009F1070121F00702F2E802C1DB
:104B6000914605E01FFA8CFC042A01D10CF0FF0CE1
:104B70004FF00008220728D5702806D0009B83F04C
:104B8000100353EA0A0305D00EE040228DF80420FA
:104B9000012208E05CEA010206D030228DF80420F0
:104BA0008DF8050002229046009B83F0080353EA2B
:104BB0000A030AD15CEA010201D1620705D530225D
:104BC0008DF804204FF001087F1E582804D034A02F
:104BD00003900EA802900DE036A0F9E75346604618
:104BE000009AFBF715FB84460398825C0298401EEE
:104BF000029002705CEA0100F0D1029806A9081A3E
:104C000000F1200A600702D524F4803400E0012777
:104C1000574502DDA7EB0A0000E0002000EB0A0187
:104C2000009005984144401A0590E00306D45B4685
:104C30002146179A059800F0B3F90544002706E0CD
:104C400001A85A46C05D179990476D1C7F1C4745C7
:104C5000F6DBE0030CD55B462146179A059800F079
:104C60009FF9054404E030205A46179990476D1C7F
:104C70000099481E00900029F5DC08E0029802998E
:104C80005A460078491C0291179990476D1CBAF159
:104C90000001AAF1010AF1DC65E100000928010028
:104CA00030313233343536373839616263646566A2
:104CB0000000000030313233343536373839414264
:104CC000434445460000000000F058F90544761CB6
:104CD000307800287FF4ECAD19B02846BDE8F08F9D
:104CE000620700D4062709F1070222F0070CFCE84E
:104CF0000223E14603F000485FEA080C02D00FF2FD
:104D0000702C0DE05FEA045C02D50FF2682C07E01E
:104D10005FEAC47C02D00FF2602C01E0AFF2700CAD
:104D20004FF0FF3823F00043CDF850C065280CD079
:104D300006DC452809D046281DD047283DD13DE056
:104D4000662818D067287ED138E00021112F01DBBA
:104D5000112000E0781CCDE9000106A90EA8FFF79C
:104D6000DDFCDDE90F010E9A03910021009207F1AD
:104D7000010A04914DE04FF000400097CDE9011089
:104D800006A90EA8FFF7CAFCDDE90F0203920E9BED
:104D900011990022DDF80CA00093049211B9791C3E
:104DA00000EB010AB7EB0A0004D4C0F1FF3007F1B1
:104DB000010A0490AAEB0700019044E0012F00DAF9
:104DC00001270021112F01DD112000E03846CDE937
:104DD000000106A90EA8FFF7A1FCDDE90F010E9A5C
:104DE0000391002104910092BA4621070CD4039943
:104DF000514500DA8A46BAF1010F05DD009AAAF1A1
:104E00000101515C302908D0B84202DA10F1040FD8
:104E100006DA0121CDE9011015E0AAF10101E9E767
:104E2000002805DC049901440491AAEB000102E08A
:104E3000411C514500DD8A460499401A401C0190EE
:104E40004FF000400290200704D40198504501DB48
:104E5000CDF8048000208DF84F0002980DF14F0727
:104E6000B0F1004F25D02B200E9002984FF0020891
:104E700000280CDA404202902D200E9007E00A2113
:104E80000298FBF7D2FB3031029007F8011DB8F110
:104E90000001A8F10108F2DC02980028EFD1791E88
:104EA0000E980870307800F0200040F0450007F8B8
:104EB000020D12A8C01B00F107081498007800B179
:104EC000012000EB0A01019801EBE07105984144D3
:104ED000401A401E0590E00306D45B462146179A0F
:104EE000059800F05DF805441498007818B15A460A
:104EF000179990476D1CE00324D55B462146179A0D
:104F0000059800F04DF805441CE00498002807DBE4
:104F1000DDE90301884203DD0098405C179901E058
:104F2000179930205A469047049805F10105401C16
:104F300004900198401E019004D12E205A461799E2
:104F400090476D1CBAF10001AAF1010ADDDC05E011
:104F500017F8010B5A46179990476D1CB8F10001DC
:104F6000A8F10108F4DC5B462146179A0598ABE6E8
:104F70002D0000002B000000200000002DE9F04172
:104F8000044600251E461746880404D405E0394629
:104F90002020B0476D1C641EF9D52846BDE8F0817D
:104FA0002DE9F041044600251E469046C80301D570
:104FB000302700E02027880404D505E04146384624
:104FC000B0476D1C641EF9D52846BDE8F0810A681B
:104FD000531C0B6010707047FCF752F9FEF78EFA05
:104FE000FDF7DCFFFEF76AF8FEF7A2F8FDF706FE14
:104FF0000020FDF75BFD0020FDF7E0FE4FF6FF709F
:10500000FDF7F0FE162207490748FDF785FA00BFB5
:10501000FDF77AFCFBF7B2FFFDF70AFEFDF790FF04
:10502000F6E70000D00100204C0200200000000044
:105030000000000000000000000000000000000070
:105040000000000000000000000000000000000060
:1050500000000000000000000000000000008001CF
:105060008001800180018001800180018001800138
:10507000800180018001800100000000800180012A
:105080000000000000000000000000000000000020
:10509000CC00CC00CC00CC00CC00CC000000000048
:1050A0000000000000000000000000000000000000
:1050B00000000000000000000000000000000000F0
:1050C0000000000000000000600C600C600C300666
:1050D0003006FE1FFE1F300638071803FE1FFE1F96
:1050E000180318038C018C018C0100000000800063
:1050F000E003F80F9C0E8C1C8C188C009800F801B3
:10510000E007800E801C8C188C189C18B80CF00FCF
:10511000E0038000800000000000000000000000AC
:1051200000000E181B0C110C1106110611031103BF
:105130009B018E01C038C06C6044604430443044F0
:105140001844186C0C380000000000000000E0015A
:10515000F0033807180618063003F001F000F800D5
:105160009C310E33061E061C061C063FFC73F02104
:10517000000000000000000000000000000000002F
:105180000C000C000C000C000C000C0000000000D7
:10519000000000000000000000000000000000000F
:1051A00000000000000000000000000000000002FD
:1051B00000038001C000C0006000600030003000CB
:1051C00030003000300030003000300060006000FF
:1051D000C000C000800100030002000000002000A9
:1051E0006000C0008001800100030003000600068B
:1051F0000006000600060006000600060003000385
:1052000080018001C000600020000000000000005C
:105210000000000000000000C000C000D806F80731
:10522000E00130033807000000000000000000002B
:10523000000000000000000000000000000000006E
:10524000000000000000000080018001800180015A
:105250008001FC3FFC3F80018001800180018001D2
:10526000000000000000000000000000000000003E
:10527000000000000000000000000000000000002E
:10528000000000000000000000000000000080019D
:10529000800100010001800000000000000000000B
:1052A00000000000000000000000000000000000FE
:1052B00000000000E007E007000000000000000020
:1052C00000000000000000000000000000000000DE
:1052D00000000000000000000000000000000000CE
:1052E0000000000000000000000000000000C000FE
:1052F000C000000000000000000000000000000CE2
:10530000000C0006000600060003000300038003F3
:10531000800180018001C000C000C000600060000A
:105320000000000000000000000000000000E0039A
:10533000F007380E180C0C180C180C180C180C1858
:105340000C180C180C180C18180C380EF007E00389
:10535000000000000000000000000000000000014C
:105360008001C001F0019801880180018001800165
:105370008001800180018001800180018001800125
:105380000000000000000000000000000000E0033A
:10539000F80F180C0C180C1800180018000C000658
:1053A00000038001C000600030001800FC1FFC1FDB
:1053B0000000000000000000000000000000E0010C
:1053C000F807180E0C0C0C0C000C0006C003C007EC
:1053D000000C001800180C180C18180CF807E00343
:1053E0000000000000000000000000000000000CB1
:1053F000000E000F000F800DC00C600C600C300C14
:10540000180C0C0CFC3FFC3F000C000C000C000CBA
:105410000000000000000000000000000000F80F85
:10542000F80F180018000C00EC03FC071C0E001C01
:105430000018001800180C181C0C180EF807E003D0
:105440000000000000000000000000000000C00795
:10545000F00F381C181818000C00CC03EC0F3C0E91
:105460001C1C0C180C180C18181C380EF007E00344
:105470000000000000000000000000000000FC1F11
:10548000FC1F000C00060006000380038001C00121
:10549000C000E000600060007000300030003000AC
:1054A0000000000000000000000000000000E00319
:1054B000F007380E180C180C180C3806F007F00717
:1054C000180C0C180C180C180C18380CF80FE003FA
:1054D0000000000000000000000000000000E003E9
:1054E000F007380E1C0C0C180C180C181C1C381E5D
:1054F000F81BE0190018000C000C1C0EF807F00156
:10550000000000000000000000000000000000009B
:105510000000000000000000800180010000000089
:105520000000000000000000000000008001800179
:10553000000000000000000000000000000000006B
:105540000000000000000000800180010000000059
:105550000000000000000000000000008001800149
:1055600000010001800000000000000000000000B9
:105570000000000000000000000000000010001CFF
:10558000800FE003F8001800F800E003800F001C13
:1055900000100000000000000000000000000000FB
:1055A000000000000000000000000000F81F0000E4
:1055B00000000000F81F00000000000000000000D4
:1055C00000000000000000000000000000000000DB
:1055D000000000000000000000000000080038008B
:1055E000F001C007001F0018001FC007F0013800BD
:1055F0000800000000000000000000000000E003C0
:10560000F80F180C0C180C180018000C00060003FA
:105610008001C000C000C00000000000C000C00049
:10562000000000000000000000000000000000007A
:10563000E00718180420C229224A114409440944E9
:10564000094409221113E20C024004201818E00753
:1056500000000000000000000000000000008003C7
:105660008003C006C006C006600C600C30183018FD
:105670003018F83FF83F1C700C600C6006C006C084
:105680000000000000000000000000000000FC031B
:10569000FC0F0C0C0C180C180C180C0CFC07FC0F55
:1056A0000C180C300C300C300C300C18FC1FFC07A4
:1056B0000000000000000000000000000000C00723
:1056C000F01F38381C300C7006600600060006001B
:1056D00006000600060006600C701C30F01FE00794
:1056E0000000000000000000000000000000FE03B9
:1056F000FE0F060E06180618063006300630063075
:1057000006300630063006180618060EFE0FFE0399
:105710000000000000000000000000000000FC3F4E
:10572000FC3F0C000C000C000C000C00FC1FFC1FCC
:105730000C000C000C000C000C000C00FC3FFC3FAB
:105740000000000000000000000000000000F83F22
:10575000F83F18001800180018001800F81FF81F6C
:105760001800180018001800180018001800180079
:105770000000000000000000000000000000E00F3A
:10578000F83F3C780E6006E007C00300030003FE0C
:1057900003FE03C007C006C00EC03CF0F83FE00F98
:1057A00000000000000000000000000000000C30BD
:1057B0000C300C300C300C300C300C30FC3FFC3F0B
:1057C0000C300C300C300C300C300C300C300C30F9
:1057D0000000000000000000000000000000800148
:1057E00080018001800180018001800180018001B1
:1057F00080018001800180018001800180018001A1
:105800000000000000000000000000000000000692
:105810000006000600060006000600060006000658
:10582000000600060006180618063807F003E00117
:105830000000000000000000000000000000063032
:105840000618060C060606038601C60066007600EA
:10585000DE008E0106030606060C061806300660FA
:105860000000000000000000000000000000180020
:105870001800180018001800180018001800180068
:10588000180018001800180018001800F81FF81F5A
:1058900000000000000000000000000000000EE01A
:1058A0001EF01EF01EF036D836D836D836D866CC64
:1058B00066CC66CCC6C6C6C6C6C6C6C686C386C3C2
:1058C00000000000000000000000000000000C309C
:1058D0001C303C303C306C306C30CC30CC308C31B7
:1058E0000C330C330C360C360C3C0C3C0C380C30A6
:1058F0000000000000000000000000000000E007C1
:10590000F81F1C380E70066003C003C003C003C03C
:1059100003C003C003C006600E701C38F81FE00708
:105920000000000000000000000000000000FC0F6C
:10593000FC1F0C380C300C300C300C300C18FC1FD9
:10594000FC070C000C000C000C000C000C000C0000
:105950000000000000000000000000000000E00760
:10596000F81F1C380E70066003E003C003C003C0BC
:1059700003C003C007E006630E3F1C3CF83FE0F79E
:1059800000C0000000000000000000000000FE0F4A
:10599000FE1F06380630063006300638FE1FFE07AA
:1059A00006030606060C06180618063006300660C2
:1059B0000000000000000000000000000000E00304
:1059C000F80F1C0C0C180C180C001C00F803E00F4E
:1059D000001E0038063006300E301C1CF80FE007A1
:1059E0000000000000000000000000000000FE7F3A
:1059F000FE7F8001800180018001800180018001A3
:105A0000800180018001800180018001800180018E
:105A100000000000000000000000000000000C304A
:105A20000C300C300C300C300C300C300C300C3096
:105A30000C300C300C300C300C301818F81FE0070C
:105A400000000000000000000000000000000360F3
:105A50000630063006300C180C180C18180C180CF0
:105A6000380E30063006700760036003C001C001C5
:105A700000000000000000000000000000000360C3
:105A8000C361C361C36166336633663366336633AD
:105A900066336C1B6C1B6C1B2C1A3C1E380E380EAC
:105AA00000000000000000000000000000000FE007
:105AB0000C7018303018700C600EC0078003800323
:105AC000C003E006700C301C18180C300E6007E0A4
:105AD000000000000000000000000000000003C003
