:020000040800F2
:1000000028050020ED010008932B00083F1F000881
:10001000912B000869080008094100080000000051
:100020000000000000000000000000004D2F00084C
:100030006B08000800000000952B0008512F0008F5
:10004000070200080702000807020008070200086C
:10005000070200080702000807020008070200085C
:10006000070200080702000807020008070200084C
:10007000070200080702000807020008070200083C
:10008000070200080000000007020008070200083D
:10009000070200080702000807020008070200081C
:1000A000070200080702000807020008070200080C
:1000B00007020008070200080702000807020008FC
:1000C00007020008070200080702000807020008EC
:1000D00007020008FD4000080702000807020008A8
:1000E00007020008070200080702000807020008CC
:1000F00007020008070200080702000800000000CD
:1001000000000000070200080000000007020008CD
:1001100007020008000000000702000807020008AC
:10012000070200080702000807020008070200088B
:10013000070200080000000000000000070200089D
:10014000070200080702000800000000000000008D
:10015000000000000000000000000000000000009F
:10016000000000000000000000000000070200087E
:10017000070200080000000000000000000000006E
:10018000000000000702000800000000000000005E
:10019000000000000000000000000000000000005F
:1001A000000000000000000007020008070200082D
:1001B000070200080702000807020008000000000C
:1001C000000000000702000800000000000000001E
:1001D0000702000807020008DFF80CD000F032FB2D
:1001E000004800473D4A000828050020064880478F
:1001F00006480047FEE7FEE7FEE7FEE7FEE7FEE70C
:10020000FEE7FEE7FEE7FEE7ED2F0008D901000854
:100210002DE9F05F0546002092469B46884606463B
:10022000814640241BE0284641464746224600F0CE
:10023000B0F953465A46C01A914110D31146184698
:10024000224600F097F92D1A67EB01084F46224627
:100250000120002100F08EF917EB00094E41201E0D
:10026000A4F10104DFDC484631462A464346BDE896
:10027000F09FD2B201E000F8012B491EFBD270477B
:100280000022F6E710B513460A4604461946FFF762
:10029000F0FF204610BD421C10F8011B0029FBD1C5
:1002A000801A70472DE9FE4F804681EA0300C00F97
:1002B0000C46009021F0004123F00045B8EB02000D
:1002C000A94105D24046214690461C460B460246AF
:1002D00023F00040104347D0270DC7F30A00C3F3B3
:1002E0000A510290401A019040286BDAC3F31300C0
:1002F00040F4801B0098924620B10023D2EB030A01
:1003000063EB0B0B01985946C0F14002504600F0D8
:1003100031F906460D4650465946019A00F049F912
:1003200010EB08006141002487EA115284EAE77368
:100330001A4340D0009A62B3019A012A4FEA075249
:1003400015DC001B61EB02014FF0004202EA07528C
:10035000CDE90042001C41F5801132462B4600F0E9
:1003600080F903B0BDE8F08F40462146F9E7001B55
:1003700061EB0201001C41F5801300185B4120185D
:10038000A2F5001747EB030140EAD570B6196D419D
:1003900011E06D084FEA360645EAC0754FEA07528C
:1003A000001B61EB0201001C41F5801149084FEA76
:1003B00030000019514132462B4603B0BDE8F04FE2
:1003C00000F040B90098012240000023D0EB020267
:1003D00063EBE073009821464FEAE074B8EB00004D
:1003E00061EB0401E9E783F000435BE781F0004142
:1003F00058E72DE9F04D81EA030404F0004B21F0A9
:10040000004514464FF0000A23F0004150EA05026F
:1004100020D054EA01021DD0C5F30A570246C5F3A5
:100420001303C1F31300C1F30A5640F4801543F4DB
:100430008013A7EB0608101BD64608F2FD3873EBB5
:10044000050002D308F1010801E092185B41B8F100
:10045000000F03DA00200146BDE8F08D00204FF4C4
:100460008011064684460EE0171B73EB050705D383
:10047000121B63EB050306434CEA010C49084FEAE3
:10048000300092185B4150EA0107EDD152EA0300B7
:1004900012D082EA040083EA0501084305D0101B4C
:1004A000AB4106D20122002306E000224FF00043B8
:1004B00002E06FF0010253101AEB06004CEB0851FA
:1004C00010EB0A0041EB0B01BDE8F04D00F0BAB8AB
:1004D0000EB540F2334102910021CDE900110A46E8
:1004E0000B4600F0BEF803B000BD00F0004230F053
:1004F00000400AD0C10D01F56071C0F3160042EA58
:100500000151C2084007114370470020014670475F
:1005100001F0004330B421F0004150EA010206D05E
:100520000A0DA2F56072C1F31301002A02DC30BC8F
:1005300000207047440F44EAC104C100E01830BCF9
:1005400000EBC25000F047B830B50B460146002022
:100550002022012409E021FA02F59D4205D303FA85
:1005600002F5491B04FA02F52844151EA2F1010206
:10057000F1DC30BD202A04DB203A00FA02F1002031
:1005800070479140C2F1200320FA03F319439040D1
:100590007047202A04DB203A21FA02F0002170473C
:1005A00021FA02F3D040C2F12002914008431946DB
:1005B0007047202A06DBCB17203A41FA02F043EAC3
:1005C000E07306E041FA02F3D040C2F1200291400C
:1005D0000843194670470029A8BF7047401C4900CE
:1005E00008BF20F00100704710B4B0FA80FC00FA98
:1005F0000CF050EA010404BF10BC704749B1CCF1C3
:10060000200421FA04F411FA0CF118BF012121434E
:100610000843A3EB0C01CB1D4FEA00614FEA102009
:1006200042BF002010BC704700EBC35010440029AB
:10063000A4BF10BC7047401C490008BF20F0010057
:1006400010BC704710B5141E73F1000408DA401C8A
:1006500041F1000192185B411A4301D120F00100E1
:1006600010BD2DE9F04D92469B4611B1B1FA81F2D1
:1006700002E0B0FA80F220329046FFF77BFF04469A
:100680000F4640EA0A0041EA0B0153465A46084326
:1006900013D0114653EA010019D0C8F14002504668
:1006A000FFF777FF05460E46504659464246FFF78C
:1006B00061FF084305D0012004E020463946BDE82B
:1006C000F08D0020054346EAE0762C4337430A9834
:1006D0006305E40AA0EB08000022FD0A44EA47543F
:1006E0000A3002D500200146E9E7010510196941E9
:1006F000DDE9084500196941BDE8F04DA2E72DE9A3
:10070000FE4F81EA030404F0004421F0004100940C
:100710004FF0000B23F0004350EA01045ED052EA90
:1007200003045BD0C3F30A54C1F30A552C44A4F26A
:10073000F3340194A0FB0254C1F3130141F480117E
:10074000C3F3130343F4801301FB024400FB034E85
:10075000840A970A44EA815447EA8357A4FB07684E
:1007600002958D0A05FB07854FEA932C04FB0C5478
:100770002705029D4FEA065847EA1637B5EB0805EC
:100780006EEB070C870E920E47EA811742EA83123E
:10079000A7FB0201B6EB0B0164EB00042B0D43EA4F
:1007A0000C335E1844EB1C50DA465146E7FB02015D
:1007B000C5F313044FEA0B3343EA14534FEA0432F0
:1007C000019C43EA0603A4F10C040294009CCDE9C9
:1007D00000B4FFF746FF03B0BDE8F08F00200146EC
:1007E000F9E7C1F30A52C1F3130140F2FF3341F4B8
:1007F00080119A4202DA00200146704740F23343EA
:100800009A42A2F2334202DC5242FFF7C2BEFFF725
:10081000B1BE000030B5041E71F1000404DB4FF0DE
:100820000044404264EB0101141E73F1000405DB37
:100830001C464FF00043524263EB0403994208BF49
:10084000904230BD064C074D06E0E06840F00103E1
:1008500094E8070098471034AC42F6D3FFF7C0FC89
:10086000EC5C00080C5D0008FEE77047002240F6D3
:10087000B83306E00021491C89B29942FBD3521CCF
:1008800092B28242F6D37047704770B590F8252037
:10089000002401212346022A07D00422C26380F8E3
:1008A000251080F82430012429E00268156825F01D
:1008B0000E0515600268156825F001051560826C4B
:1008C000156825F48075156090F84420056C02F0D9
:1008D0001F0201FA02F26A60D0E913255560426DE9
:1008E00032B1156825F480751560D0E9162555607C
:1008F00080F8251080F82430816B01B188472046AC
:1009000070BD000070B5044600F0FCF80546601CA0
:1009100002D004484068044400F0F4F8401BA042B0
:10092000FAD370BD240000202DE9FC4FDFF8A0A110
:10093000002301250AF1040B03244FF00F0C0BF1E7
:10094000040EBDE005FA03F632406FD04F68012F68
:1009500005D0022F03D0112F01D0122F17D1D0F8BC
:1009600008905F0004FA07F829EA08090097D1F80F
:100970000C8008FA07F848EA0908C0F808804768B8
:10098000B7430E79C6F300169E403E434660C668E4
:100990004FEA430804FA08F7BE4301978F6807FA45
:1009A00008F73743C7604E68022E01D0122E13D1CC
:1009B000DE0800EB86060096366A5F07FF0E0CFA2B
:1009C00007F926EA0906D1F8109009FA07F949EA69
:1009D0000609009EC6F820900668019FBE430F7965
:1009E00007F0030707FA08F7374307604E68F60079
:1009F00065D5384E376E47F001073766366E23F0FF
:100A0000030706F001060096334E3E44B146B66831
:100A10009F074FEA17780CFA08F7BE43B0F1904FE2
:100A200005D02E4FB84204D1012717E047E0002738
:100A300014E02B4FB84201D102270FE0294FB842F2
:100A400001D103270AE0284FB84201D1042705E06D
:100A5000264FB84201D1052700E0062707FA08F71C
:100A60003743C9F80870DAF800605746D1F80480B7
:100A700096435FEAC83800D516433E60DBF8006055
:100A80005F46D1F8048096435FEA883800D5164364
:100A90003E60DEF800607746D1F8048096435FEA56
:100AA000C82800D516433E60094F0C373E68D1F880
:100AB000048096435FEA882800D516433E605B1C9D
:100AC0000A6832FA03F67FF43DAFBDE8FC8F000000
:100AD00000040140001002400000014000040048F2
:100AE00000080048000C00480010004800140048AE
:100AF0000069084000D0012070470AB18161704749
:100B0000816270470148806870470000240000201F
:100B100002488168426811448160704724000020C7
:100B200010B50024032000F077F8002000F008F84A
:100B300008B1012401E000F025F8204610BD0000B6
:100B400070B50E4E05460024706898B14FF47A7166
:100B5000B1FBF0F00A490968B1FBF0F000F060FD6C
:100B600040B9102D06D200222946501E00F034F85C
:100B7000356000E00124204670BD00002400002004
:100B8000300000200B4808B5016E41F001010166FC
:100B9000016E01F001010091816D41F0805181658C
:100BA000806D00F0805000900348816841F48041DE
:100BB000816008BD0010024000700040002809DB81
:100BC00000F01F02012191404009800000F1E02067
:100BD000C0F8001170470000F0B40E4B1B680C46C3
:100BE000C3F30223C3F10705042D00D90425191D01
:100BF000072901D2002300E0DB1E012606FA05F1D9
:100C0000491E214099409E40761E16403143F0BC5B
:100C100003F090BA0CED00E0064900F00702086806
:100C20004FF6FF03184040EA0220034A10430860D1
:100C3000704700000CED00E00000FA052B492C4B3A
:100C40000A6832214A432B4940B1B0F5007F086859
:100C500029D020F4C06040F480602CE00868C0F324
:100C60004120022804D051F8800F20F4807022E047
:100C7000D1F8800020F48070C1F88000086820F46A
:100C8000C06040F400700860B2FBF3F0401C00E06C
:100C9000401E4A69520501D50028F9D1486940052E
:100CA0000AD503207047C0F34120022806D051F82E
:100CB000800F40F48070086000207047D1F88000F9
:100CC00040F48070C1F88000086820F4C06040F4EF
:100CD00000700860B2FBF3F0401C00E0401E4A695F
:100CE0005205DBD50028F9D1D8E7000030000020FC
:100CF00040420F00007000402DE9F84304460068B0
:100D000000269D4D00035ED5A86D0027C00008D4C5
:100D1000A86D40F08050A865A86D012700F08050B4
:100D20000090DFF85892D9F8001041F48071C9F8AA
:100D30000010FFF7E7FE804606E000BFFFF7E2FE87
:100D4000A0EB080002282BD8D9F80000C005F5D583
:100D5000D5F8900010F4407014D0216C814211D06D
:100D6000D5F89000D5F8901020F4407041F480310F
:100D7000C5F89010D5F8901021F48031C5F8901086
:100D8000C5F89000C00711D0FFF7BCFE804641F2C5
:100D9000883907E0FFF7B6FEA0EB0801494501D905
:100DA00003260BE0D5F890008007F3D5D5F8900026
:100DB000216C20F440700843C5F890001FB1A86D65
:100DC00020F08050A8652078C00707D0D5F88800AB
:100DD000616820F003000843C5F888002078800788
:100DE00007D5D5F88800A16820F00C000843C5F8A5
:100DF00088002078400707D5D5F88800E16820F002
:100E000030000843C5F888002078000707D5D5F8DA
:100E10008800216920F0C0000843C5F888002078C8
:100E2000800607D5D5F88800616920F44060084342
:100E3000C5F888002078400607D5D5F88800A16954
:100E400020F440500843C5F888002078000607D5F4
:100E5000D5F88800E16920F440400843C5F88800CF
:100E60002088C00507D5D5F88800216A20F44030D5
:100E70000843C5F888002088800507D5D5F8880084
:100E8000616A20F440200843C5F8880020884005A6
:100E90000FD5D5F88800A16A20F440100843C5F8A2
:100EA0008800A06AB0F5801F03D1E86840F4801084
:100EB000E860208800050FD5D5F88800E16A20F4A5
:100EC00040000843C5F88800E06AB0F5800F03D100
:100ED000E86840F48010E8602088C0040FD5D5F899
:100EE0008800216B20F040700843C5F88800206B13
:100EF000B0F1807F03D1E86840F48010E86020887A
:100F00004FF0006180040ED5D5F88800626B20F0A8
:100F100040601043C5F88800606B884203D1E868E0
:100F200040F48010E860208840040ED5D5F8880091
:100F3000A26B20F040601043C5F88800A06B884287
:100F400003D1E86840F48010E860208800040FD5E1
:100F5000D5F88800E16B20F040500843C5F88800C0
:100F6000E06BB0F1805F03D1E86840F48030E86066
:100F70003046BDE8F88300000010024000700040D9
:100F80002DE9F0470E4605004FF0000725D0DFF8A9
:100F9000AC81D8F8000000F00F00B0420CD2D8F8B5
:100FA000001021F00F013143C8F80010D8F80000FC
:100FB00000F00F00B04210D12968614CC80741F21F
:100FC000883A5AD06868DFF87C91032808D0022854
:100FD00020682DD0400500282CDB0120BDE8F087DB
:100FE00020688001F9D5E06800F00302E068C0F3F2
:100FF0000310401C032A19D0534A00BFB2FBF0F083
:10100000E268C2F306225043E268C2F34162521C16
:101010005200B0FBF2F0484517D9A06810F0F00F6D
:101020000CD0880711D5A86840B10EE0474AE5E723
:101030008003D0E700F0B6F8484506D9A06820F054
:10104000F00040F08000A0608027A068696820F070
:1010500003000843A060FFF755FD814606E000BF8E
:10106000FFF750FDA0EB090151453AD8A068696827
:1010700000F00C00B0EB810FF2D12868810714D585
:10108000400703D5A06840F4E060A060287800071E
:1010900005D5A06820F4605040F4E060A060A0682E
:1010A000A96820F0F000084304E0802F03D1A06875
:1010B00020F0F000A060D8F80010404601F00F01C9
:1010C000B14216D9016821F00F0131430160FFF7E9
:1010D00019FD074607E000BFFFF714FDC11B51458E
:1010E00001D903207AE7D8F8000000F00F00B042E1
:1010F000F2D12878400705D5A068E96820F4E060BF
:101100000843A0602878000706D5A068296920F464
:10111000605040EAC100A06000F044F8A1680C4AA9
:10112000C1F30311515C01F01F01C8400949086077
:1011300009480068BDE8F047FFF702BD0020024003
:101140000010024000B4C4040024F40000366E0114
:10115000D45C000830000020240000200548064927
:1011600000688968054AC1F30221515C01F01F0142
:10117000C84070473000002000100240E45C0008C6
:101180000548064900688968054AC1F3C221515CD7
:1011900001F01F01C84070473000002000100240DD
:1011A000E45C0008184910B58868C0F3810217484C
:1011B000012A0BD08A68164BC2F38102022A06D09C
:1011C0008A68C2F38102032A03D0002010BD1846AA
:1011D00010BDCA6802F00304CA68C2F30312521CAD
:1011E000032C02D0B0FBF2F001E0B3FBF2F0CA68CE
:1011F000C968C2F306225043C1F34161491C49004A
:10120000B0FBF1F010BD0000001002400024F4001B
:1012100000366E012DE9F84304007AD02078FA4DAB
:10122000C00747D0A868E96800F00C0001F003018E
:101230000C2802D0082817D001E0032914D06068D8
:10124000B0F5803F17D0B0F5A02F286817D020F454
:1012500080302860286820F4802028606068E0B131
:10126000FFF750FC064614E02868800322D560682A
:101270000028D2D01EE0286840F48030EDE740F42A
:1012800080202860F7E700BFFFF73CFC801B642844
:1012900070D828688003F7D50CE0FFF733FC0646CA
:1012A00005E000BFFFF72EFC801B6428F0D82868FB
:1012B0008003F7D4207880074CD5A868E96800F04F
:1012C0000C0001F003010C2802D004280DD001E02D
:1012D00002290AD0E068002828682BD040F48070EA
:1012E0002860FFF70FFC064619E02868400502D584
:1012F000E068002891D06868217C20F0FE4040EA38
:1013000001606860C1480068FFF71AFC002800D13E
:1013100020E076E1FFF7F6FB801B0228B8D82868AA
:101320004005F7D56868217C20F0FE4040EA016066
:1013300068600FE020F480702860FFF7E3FB06464A
:1013400005E000BFFFF7DEFB801B0228A0D828685D
:101350004005F7D42078000729D560690028D5F822
:10136000940013D040F00100C5F89400FFF7CAFBC9
:10137000064606E090E000BFFFF7C4FB801B022892
:1013800086D8D5F894008007F6D510E020F001004B
:10139000C5F89400FFF7B6FB064604E0FFF7B2FB82
:1013A000801B022878D8D5F894008007F6D42078DE
:1013B000400761D5A86D0026C00008D4A86D40F094
:1013C0008050A865A86D012600F0805000909048DC
:1013D0000168C90511D40168804641F4807101603B
:1013E000FFF790FB074604E0FFF78CFBC01B0228C9
:1013F00052D8D8F80000C005F6D5A068012815D04D
:101400000528D5F8900016D020F00100C5F890000E
:10141000D5F8900020F00400C5F89000A06841F2D3
:101420008838B8B1FFF76EFB07460EE0D5F890009C
:1014300040F00100F0E740F00400C5F89000F5E747
:10144000FFF760FBC11B414526D8D5F89000800707
:10145000F6D50CE0FFF756FB074604E0FFF752FB1A
:10146000C11B414518D8D5F890008007F6D41EB1AD
:10147000A86D20F08050A8652078800629D5A06945
:101480000028D5F8980013D040F00100C5F8980066
:10149000FFF738FB064606E077E000BFFFF732FBB8
:1014A000801B022877D8D5F898008007F6D510E081
:1014B00020F00100C5F89800FFF724FB064604E081
:1014C000FFF720FB801B022865D8D5F8980080071D
:1014D000F6D4E069F0B3A968C1F38101032961D0B2
:1014E0000228286820F0807028600BD0E86820F07F
:1014F0000300E860E86847490840E860FFF702FB3E
:1015000004464BE0FFF7FEFA064604E0FFF7FAFA5E
:10151000801B02283FD828688001F7D4F4E908012D
:101520006FF00F0202EB01110843218A52044908AF
:1015300002EB4151A26841EA02210843217D4FF0AC
:101540007E42490802EB41610843217B40EAC160C9
:10155000E96800E062E0304A11400843E86028682A
:1015600040F080702860E86840F08070E860FFF725
:10157000C9FA044605E000BFFFF7C4FA001B0228C1
:1015800009D828688001F7D548E004E0FFF7BAFAE7
:10159000001B022802D90320BDE8F88328688001D7
:1015A000F4D43BE00128F7D0E868226A00F0030198
:1015B000914226D1616A00F0F0020901103991428E
:1015C0001FD1A26A00F4FE41B1EB022F19D194F8A9
:1015D0002C2000F07841B1EBC26F12D1218E00F4C3
:1015E000C00249084905A1F50011914209D194F8BA
:1015F000341000F0C06049084906A1F10071814231
:101600000CD00120C8E70000001002402400002098
:1016100000700040FFFFEEFE0C809F010020BBE742
:1016200010B5401EB0F1807F01D3012010BD4FF0F6
:10163000E02460610F21601702F07CFD0020A061B2
:1016400007202061002010BDF0B590F83C20012A51
:101650003AD0012580F83C50022280F83D200368F2
:101660005A689C68194E1A4FB34201D0BB4204D14C
:1016700022F4700C4A6842EA0C02DFF858C002EA11
:101680000C02D1F800C04CEA020CC3F804C0026896
:10169000B2420DD0B2F1804F0AD00F4B9A4207D020
:1016A0000E4B9A4204D0BA4202D00D4B9A4204D15A
:1016B000896824F080031943916080F83D5000212F
:1016C00080F83C100846F0BD0220F0BD002C01401F
:1016D000003401408FFFFFFD00040040000800407F
:1016E0000040014010B586B0044614216846FEF75C
:1016F000C7FD2068B0F1804F15D10C48C16C41F096
:101700000101C164C06C694600F00100059002202F
:1017100000900190002002900390012004904FF06F
:101720009040FFF701F906B010BD00000010024024
:1017300070B5044690F83C000D4601280BD00120FE
:1017400084F83C000C2A45D007DC5AB1042A1BD08F
:10175000082A78D12CE0022070BD102A4ED0142A1D
:1017600071D15DE0206801F0B5FC2068816941F02D
:10177000080181612068816921F00401816120688C
:1017800081692A69114311E0206801F0F1FC2068A9
:10179000816941F4006181612068816921F480617F
:1017A0008161206881692A6941EA022181614AE0F8
:1017B000206801F025FD2068C16941F00801C16180
:1017C0002068C16921F00401C1612068C1692A69EA
:1017D000114311E0206801F05BFD2068C16941F40C
:1017E0000061C1612068C16921F48061C161206824
:1017F000C1692A6941EA0221C16124E0206801F03F
:101800008FFD2068016D41F0080101652068016DC0
:1018100021F0040101652068016D2A69114311E07E
:10182000206801F0B5FD2068016D41F4006101659B
:101830002068016D21F4806101652068016D2A69CD
:1018400041EA02210165002084F83C0070BD10B51A
:10185000040003D094F83D0010B107E0012010BD52
:10186000002084F83C00204600F022F8022084F892
:101870003D00211D206801F0C7FB012084F84800CD
:1018800084F83E0084F83F0084F8400084F841006A
:1018900084F8420084F8430084F8440084F845004A
:1018A00084F8460084F8470084F83D00002010BD0D
:1018B00008B50068B0F1804F08D10548816D41F04E
:1018C00001018165806D00F00100009008BD0000FD
:1018D0000010024010B50446022269B1042912D05A
:1018E000082917D00C291CD0102921D094F84300C6
:1018F000012824D0012010BD94F83E000128F9D120
:1019000084F83E201DE094F83F000128F2D184F8CD
:101910003F2016E094F840000128EBD184F84020E5
:101920000FE094F841000128E4D184F8412008E058
:1019300094F842000128DDD184F8422001E084F8C7
:1019400043200122206801F0B7FB1149206888423A
:101950000BD01049884208D00F49884205D00F4962
:10196000884202D00E49884203D1416C41F40041C3
:101970004164206881680B4A1140062906D0B1F500
:10198000803F03D0016841F001010160002010BDDB
:10199000002C01400034014000400140004401405F
:1019A000004801400700010090F87C10012918D080
:1019B000012180F87C102421C0F8801050F8601BB1
:1019C0000A680B6823F001030B6022F0005100222B
:1019D000426050F8603C1960202101620277104695
:1019E000704702207047704770B5044690F87C003D
:1019F00001281DD0012084F87C002420C4F8800038
:101A000020680568026822F001020260206882688E
:101A100022F060620A438260204601F0F1FC2068F7
:101A200005602020C4F88000002084F87C0070BD90
:101A3000022070BD70B5044690F87C0001281DD0CE
:101A4000012084F87C002420C4F880002068056808
:101A5000026822F0010202602068826822F060427F
:101A60000A438260204601F0CBFC206805602020FC
:101A7000C4F88000002084F87C0070BD022070BD96
:101A800070477047704700002DE9F0410368044635
:101A9000D8691A68996810F00F0F4FF0000569D0E7
:101AA0005E4E02F490770E4037437DD0C70709D0D1
:101AB000D70507D501271F62D4F8883043F001030A
:101AC000C4F8883083070AD5CB0708D027680223DB
:101AD0003B62D4F8883043F00403C4F888304307ED
:101AE0000AD5CB0708D0276804233B62D4F8883096
:101AF00043F00203C4F8883003070CD502F020033A
:101B0000334308D0266808233362D4F8883043F082
:101B10000803C4F88830D4F88830002B3CD0800605
:101B200009D502F0200001F08051084303D0E16E96
:101B300009B120468847D4F8880021688968490699
:101B400001D400072AD5204601F02AFD20688168CB
:101B500049061ED5816821F040018160A06FC0B1A7
:101B60002F498163A06FFEF790FE002814D0A06F6C
:101B7000816B0AE0860617D502F0200601F0805737
:101B80003E4311D0E16E24E02046BDE8F041084715
:101B90000AE02046FFF776FFBDE8F0812046FFF718
:101BA00071FFC4F88850F7E7C60209D54E0207D581
:101BB0004FF4801018622046BDE8F041FFF761BF86
:101BC000060609D502F0800601F400010E4303D099
:101BD000216F0029D8D1DFE741060DD551060BD57D
:101BE0001968204621F0400119602021C4F88010B6
:101BF000256700F0A3F9CFE7010206D5510004D50F
:101C00002046BDE8F041FFF73BBFC001C4D5002A24
:101C1000C2DA2046BDE8F041FFF7E5BE0100001042
:101C20008B35000810B5040003D0D4F8800010B143
:101C300007E0012010BD002084F87C00204600F061
:101C400027F82420C4F880002068016821F00101F1
:101C50000160204601F0B6FD0128EBD0A06A10B16A
:101C6000204601F0FFFB2068416821F4904141606B
:101C70002068816821F02A0181602068016841F0B4
:101C8000010101602046BDE8104001F04FBC00009A
:101C900010B586B0044614216846FEF7F1FA1749DC
:101CA0002068884227D11648016E41F480410166C0
:101CB000016E01F480410591C16C41F00101C164E4
:101CC000C06C694600F0010005904FF4C0600090C0
:101CD00002200190002002900390072004904FF012
:101CE0009040FEF721FE002211462520FEF774FFEA
:101CF0002520FEF763FF06B010BD0000003801404C
:101D00000010024070B5D0F88430202B6DD1B9B1ED
:101D1000B2B190F87C30012B67D0012380F87C3081
:101D20008165A0F85C20A0F85E200021C166836870
:101D30004FF48056FF24B34207D1036913B11CE06E
:101D4000012070BD40F2FF131DE07F259BB1B3F170
:101D5000805F15D0A0F86010C0F888102223C0F86A
:101D6000843003689C6844F001049C60436EB3F1C6
:101D7000005F0ED027E0036943B9A0F86040EBE7AD
:101D800003691BB13F23A0F86030E5E7A0F860507D
:101D9000E2E7B0F86830934215D88268B24201D1C8
:101DA000026972B1124AC26680F87C1001680A6842
:101DB00042F480720A600068816841F0805181605D
:101DC0000FE00C4AEFE78268B24201D1026952B1DA
:101DD000094AC26680F87C100068016841F490717D
:101DE0000160002070BD054AF3E7022070BD0000CD
:101DF0002537000825360008C5360008C535000817
:101E000070B51D482DED028B82B000793F280FD0B0
:101E100003221AA11A4800F043F802B01649012221
:101E2000BDEC028B091DBDE870401548FFF76ABF85
:101E3000114CE41D6078FEF74BFB9FED128B53ECC9
:101E4000182BFEF7D6FA05460E462078FEF740FB23
:101E500053EC182BFEF7CDFA41EC100BCDE90056F0
:101E600053EC102B09A10D4802F050F90B48FEF776
:101E700012FA82B20949CDE70800002045727200CB
:101E80009C0000200000000000002440583A253348
:101E90002E31662C593A25332E316600340000204D
:101EA000D0F88030202B3ED149B342B390F87C303B
:101EB000012B38D0012380F87C300165A0F8542034
:101EC000A0F8562000210167C0F888102122C0F830
:101ED0008020436E4FF48052B3F1005F836810D0CE
:101EE000934201D10269E2B1104A026780F87C1086
:101EF0000068016841F08001016000207047012006
:101F00007047934201D102694AB1094A026780F8D9
:101F10007C100068816841F400018160EDE7054AAA
:101F2000F4E7054AE1E70220704700000540000899
:101F300045400008AD3F00086B3F00087047FEE7D2
:101F400070B50824002500F0C9FF13E06806050EEF
:101F5000002000F0ABFF142002F06AFD142002F014
:101F600067FD012000F0A2FF142002F061FD00F0E7
:101F7000A9FF0543641EE4B2E8D2002000F096FFFA
:101F8000142002F055FD00F0CBFF284670BD10B5BF
:101F9000002000F0B9FF142002F04AFD142002F0E6
:101FA00047FD012000F082FF142002F041FD0020D7
:101FB00000F07CFFBDE81040142002F039BD70B580
:101FC0000446082516E000F071FF142002F030FDF1
:101FD00004F0800000F098FF142002F029FD600654
:101FE000040E142002F024FD012000F05FFF1420F5
:101FF00002F01EFD6D1EEDB24FF00000E3D200F0C6
:1020000055FFBDE87040142002F012BD10B501204C
:1020100000F07AFF142002F00BFD142002F008FDFE
:10202000012000F043FF142002F002FD002000F028
:102030003DFFBDE81040142002F0FABC10B50120AD
:1020400000F062FF142002F0F3FC012000F02EFFEC
:10205000142002F0EDFC002000F056FF142002F0E6
:10206000E7FC002000F022FFBDE81040142002F041
:10207000DFBC10B5002000F019FF142002F0D8FCDE
:10208000002000F041FF142002F0D2FC012000F0FB
:102090000DFF142002F0CCFC012000F035FFBDE85C
:1020A0001040142002F0C4BC10B5052400F016FF47
:1020B000142002F0BDFC012000F0F8FE142002F014
:1020C000B7FC05E0641EA4B2142002F0B1FC64B1B8
:1020D00000F0F8FE0028F5D100F0E8FE142002F030
:1020E000A7FC00F01DFF002010BD00F019FFFFF756
:1020F000C0FF012010BD000070B51F4D002401215C
:102100002846FEF7F5FC40B90A20FEF7FBFB01214B
:102110002846FEF7EDFC00B9012402212846FEF70F
:10212000E7FC40B90A20FEF7EDFB02212846FEF746
:10213000DFFC00B9022404212846FEF7D9FC40B98F
:102140000A20FEF7DFFB04212846FEF7D1FC00B988
:1021500003244FF0904501212846FEF7C9FC40B901
:102160000A20FEF7CFFB01212846FEF7C1FC00B98B
:102170000424204670BD0000000400482DE9F0470B
:102180002DED048B8AB0FFF7B7FF06461C2102A88D
:10219000FEF776F8604DE878864258D0EE70012E52
:1021A0004AD005F10904A11E0A22881E4FF0000939
:1021B000022E51D0032E77D0042E48D18046467887
:1021C00048788A4616FB00F0FEF782F99FED539B94
:1021D00053EC192BFEF70DF941EC180B98F8007031
:1021E0009AF8000017FB00F0FEF772F953EC192B78
:1021F000FEF7FFF853EC182BFEF754F8FEF788F9BA
:102200002178C91B21706178891B6170FEF76DF917
:10221000CDE9000133463A4642A1474801F076FF36
:102220004548FEF738F882B243494448FFF738FE84
:1022300098F80000B0BB59E068780321401CB0FB5F
:10224000F1F201FB12006870002000F0A9F80AB05A
:10225000BDEC048BBDE8F0876B785BB1012B13D02C
:10226000022BF4D120782C49401C20700122093126
:10227000002014E00178491CC9B201702278914213
:10228000E5D980F80090E2E70878401CC0B20870F9
:10229000142800D90A7020490122C91D022000F02B
:1022A0004FFBD4E725E0FFE76B7853B1012B12D049
:1022B000022BCCD160780122401C6070611C10465A
:1022C000EDE74178491CC9B2417062789142BED9AC
:1022D00080F80190BBE74878401CC0B248701428D1
:1022E00000D94A7001220320491CD8E798F8010060
:1022F00028B1094902220931002000F021FB88F8A9
:10230000009088F801900120A870E8680C49686185
:102310009620096888639AE7080000200000000002
:1023200000002440583A25642C593A25642C5A3A26
:1023300025332E3166000000340000209C00002070
:102340005000002000B585B014216846FDF798FFC5
:102350004FF6FF70009000200321CDE902010190AB
:1023600069460248FEF7E0FA05B000BD00080048E3
:1023700000B585B014216846FDF782FF4FF6FF7067
:1023800000900120019003200390002002906946F4
:102390000248FEF7C9FA05B000BD00000008004879
:1023A00070B5002406462146204600F0BBF900F037
:1023B000F9F94FF49635304600F0C8F9641CAC4288
:1023C000F9D370BD30B587B014216846FDF758FFCA
:1023D0001E48C16C41F00401C164C16C01F00401EC
:1023E0000591C16C41F00101C164C16C01F00101B2
:1023F0000591C16C41F00201C164C06C012500F07F
:10240000020005904FF44870CDE9000500240394C4
:10241000694602940E48FEF787FA2802039400905A
:10242000CDE901544FF0904469462046FEF77CFA0E
:10243000FFF79EFFA06940F48070A0610448183047
:10244000016841F40871016007B030BD001002401E
:1024500000040048203AD2B2034B02EB420203EBE5
:10246000021200F019B80000044B0008F0B50E4647
:102470000746002540F23F1407E021463846FFF7A3
:10248000E9FF103C6D1CA4B2761C3278002A01D002
:10249000142DF2D3F0BD00002DE9F04791468A4695
:1024A0000026044600F03EF9DFF84080012700BF17
:1024B00000F078F95FF0000539F8160007FA05F129
:1024C0000842404601D1408800E0008800F03EF913
:1024D0006D1C102DF0D3641CE4B25146204600F070
:1024E00021F9761C182EE3D3BDE8F0870000002008
:1024F00010B5FFF767FF002000F0CCF8084CA08073
:10250000A088A0F50241303906D000F0CDFB0020B4
:1025100000F0C0F8A08010BD00F03DFBF7E7000020
:102520000000002010B52DED028B88B01C216846FC
:10253000FDF7A6FE2E484078E8B101282DD02DA148
:102540001820FFF793FF2A4C2FA109346846227800
:1025500001F0DCFD69463020FFF788FF62782EA18C
:10256000684601F0D3FD69464820FFF77FFF08B0B9
:10257000BDEC028B10BD2CA11820FFF777FF1C4C7F
:1025800021A1641D6846227801F0C0FD6946302013
:10259000FFF76CFF62782AA1E2E72EA11820FFF76F
:1025A00065FF134CE41D2078FDF792FF9FED2F8B04
:1025B00053EC182BFDF71DFF41EC100B2DA153EC34
:1025C000102B684601F0A2FD69463020FFF74EFF50
:1025D0006078FDF77DFF53EC182BFDF70AFF41EC07
:1025E000100B28A153EC102B684601F08FFDBAE7C1
:1025F00008000020202020202020202052455020AC
:1026000020202020202020002020202020583A2593
:1026100064202020200000002020202020593A257E
:1026200064202020202000002020202020202020A6
:1026300053484F5020202020202020200000000060
:102640002020202020593A256420202020202020EE
:10265000200000002020202020202020505249432C
:102660004520202020202020200000000000000025
:10267000000024402020202020583A25332E3166A7
:10268000000000002020202020593A25332E3166FA
:102690000000000070B51D490A6842F400720A602B
:1026A0000A6842F480720A60184C103C226842F0BA
:1026B00020022260164A1060086840F0200008607E
:1026C00000BF00BF00BF206840F0200020602068ED
:1026D00040F480702060FFF735FE4FF09041886A2B
:1026E00040F48070886200BF00BF00BF0848001F30
:1026F000006885B2886940F480708861FFF738FE11
:10270000206840F400702060284670BD280400480E
:102710001408004801B5BDF800000149488008BD13
:102720000000002010B50C460146202000F068F89B
:102730002146BDE81040212000F062B801B5BDF887
:1027400000000149088008BD00000020134A1168FC
:1027500041F400711160114910390B6843F4807322
:102760000B600B6843F020030B600D4B1860106882
:1027700040F02000106000BF00BF00BF086840F0BC
:1027800020000860086840F48070086000BF00BF47
:1027900000BF086840F400700860704728040048D3
:1027A000140800481449086840F40070086008687C
:1027B00040F48070086010481038026842F020022F
:1027C00002600E4B22221A600A6842F020020A6060
:1027D00000BF00BF00BF016841F020010160016837
:1027E00041F48071016000BF00BF00BF016841F487
:1027F0000071016070470000280400481408004878
:10280000184B10B51A6842F400721A601A6842F444
:1028100080721A60134A103A146844F0200414605D
:10282000114C2060186840F02000186000BF00BF05
:1028300000BF106840F020001060106840F4807005
:1028400010602160186840F02000186000BF00BFD1
:1028500000BF106840F020001060106840F48070E5
:10286000106010BD2804004814080048084910B53D
:10287000C04300020860074C012204212046FEF7F5
:102880003CF920460022BDE810400421FEF735B98E
:1028900014080048000C0048134801468278097863
:1028A00062B141F001010170C1684269891A41F2C7
:1028B0008832914205D30021817002E001F00101CC
:1028C0000170094909310A785AB9497849B9026948
:1028D0008169914205D001698161017881F002012D
:1028E00001700078FFF7C2BF0800002070B51546E0
:1028F0000C460646FFF7A2FBA020FFF760FBFFF7A0
:10290000D3FB3046FFF75BFBFFF7CEFBFFF796FBF1
:10291000A120FFF754FBFFF7C7FB09E0FFF710FB0F
:1029200004F8010B15B1FFF732FB01E0FFF76EFB76
:102930006D1EEDB2F2D2BDE87040FFF79ABB000009
:1029400070B515460C460646FFF778FBA020FFF74A
:1029500036FBFFF7A9FB304602E000BF14F8010B7D
:10296000FFF72DFBFFF7A0FB6D1EEDB2F6D2FFF7D0
:1029700080FBBDE870404FF4FA7002F059B80000D7
:102980002DE9F04786B014216846FDF779FC4548EB
:10299000C16C41F00401C164C16C01F004010591F6
:1029A000C16C41F02001C164C16C01F020010591AE
:1029B000C16C41F00101C164C16C01F001010591DC
:1029C000C16C41F00201C164C16C01F002010591CA
:1029D000C16C41F00801C164C06C334F00F00800C5
:1029E0004FF6FF740590002221463846FEF785F821
:1029F0004FF480764FF09048002231464046FEF773
:102A00007CF8DFF8A890002204214846FEF775F80C
:102A1000DFF89CA000224FF478715046FEF76DF865
:102A20000125CDE900450024029469463846039407
:102A3000FDF77AFFCDE90054694640460294FDF760
:102A400073FF0720CDE90004694650460294FDF764
:102A50006BFF0096CDE90154694640460394FDF7AB
:102A600063FF04200090CDE9015469464846039471
:102A7000FDF75AFF4FF448700090CDE901546946C4
:102A800050460394FDF750FFC02000901120CDE97F
:102A90000104694650460394FDF746FF06B0BDE8C1
:102AA000F08700000010024000080048000C0048B9
:102AB0000004004810B58AB00024079408941C2133
:102AC00068460994FDF7DCFB16484FF08041016031
:102AD0004F21C0E9011440F2F311C0E903148461ED
:102AE000FEF7B5FE08B1FDF7CFFE079407A90D4824
:102AF0000994FEF7A9FD08B1FDF7C6FE602000901D
:102B00001920CDE901040422694606480494FEF721
:102B10000FFE08B1FDF7B8FE0248FEF7E3FD0AB06C
:102B200010BD000050000020184810B51649016083
:102B30004FF416514160002181600C22C160C0E950
:102B400004128161C161016241628162FFF76AF82A
:102B500008B1FDF799FE00210C48FEF76BFF08B1A4
:102B6000FDF792FE00210948FEF73EFF08B1FDF790
:102B70008BFE0648FEF718FF002803D0BDE8104082
:102B8000FDF782BE10BD0000003801409C0000200F
:102B9000FEE77047704730B501210020FFF730FE97
:102BA0004FF47A70FDF762FE00210120FFF728FE46
:102BB00041F290711020FFF723FE4FF41C5160206A
:102BC000FFF71EFE01216120FFF71AFE02214620B9
:102BD000FFF716FE48F210011320FFF711FE48F22E
:102BE000FE011220FFF70CFE4FF4A0610220FFF758
:102BF00007FE41F230010320FFF702FE40F20334EA
:102C000021463020FFF7FCFD21463120FFF7F8FD7B
:102C100021463220FFF7F4FDE51E29463320FFF759
:102C2000EFFD03213420FFF7EBFD21463520FFF7B0
:102C3000E7FD14213620FFF7E3FD21463720FFF79B
:102C4000DFFD21463820FFF7DBFD21463920FFF765
:102C5000D7FD29463A20FFF7D3FD03213B20FFF79C
:102C6000CFFD21463C20FFF7CBFD4FF4A0513D2086
:102C7000FFF7C6FD4FF400719220FFF7C1FD21461A
:102C80009320FFF7BDFD40F60D019020FFF7B8FD42
:102C900041F218010320FFF7B3FDBDE8304040F2D8
:102CA00073110720FFF7ACBD10B543F20801E32014
:102CB000FFF7A6FD1221E720FFF7A2FD41F2312127
:102CC000EF20FFF79DFD00210120FFF799FD4FF454
:102CD000E0610220FFF794FD41F230010320FFF78D
:102CE0008FFD00210420FFF78BFD40F20721082013
:102CF000FFF786FD00210920FFF782FD00210A2051
:102D0000FFF77EFD00210C20FFF77AFD00210D204A
:102D1000FFF776FD00210F20FFF772FD0021102044
:102D2000FFF76EFD07211120FFF76AFD0021122039
:102D3000FFF766FD00211320FFF762FDC820FDF7B5
:102D4000E1FD41F290611020FFF75AFD40F227218A
:102D50001120FFF755FD3220FDF7D4FD1D21122073
:102D6000FFF74EFD3220FDF7CDFD4FF4006113203B
:102D7000FFF746FD14212920FFF742FD0B212B20F0
:102D8000FFF73EFD3220FDF7BDFD00212020FFF7BB
:102D900037FD00212120FFF733FD07213020FFF709
:102DA0002FFD40F207713120FFF72AFD0621322066
:102DB000FFF726FD40F204713520FFF721FD41F6B3
:102DC00004713620FFF71CFD04213720FFF718FDA2
:102DD00000213820FFF714FD40F206713920FFF77B
:102DE0000FFD40F201713C20FFF70AFD0F213D204D
:102DF000FFF706FD00215020FFF702FDEF215120D3
:102E0000FFF7FEFC00215220FFF7FAFC40F23F11D1
:102E10005320FFF7F5FC4FF41C516020FFF7F0FC46
:102E200001216120FFF7ECFC00216A20FFF7E8FC9C
:102E300000218020FFF7E4FC00218120FFF7E0FC67
:102E400000218220FFF7DCFC00218320FFF7D8FC63
:102E500000218420FFF7D4FC00218520FFF7D0FC5F
:102E600010219020FFF7CCFC00219220FFF7C8FC36
:102E700003219320FFF7C4FC4FF488719520FFF7DE
:102E8000BFFC00219720FFF7BBFC00219820FFF733
:102E9000B7FC41F218010320FFF7B2FCBDE8104077
:102EA00040F273110720FFF7ABBC000008B10448E3
:102EB00001E003481030016841F0400101607047B3
:102EC0001804004810B580210348FDF711FE0128C1
:102ED00000D0002010BD00000004004800B585B0FF
:102EE00014216846FDF7CCF9802000900020019065
:102EF000012002900220039069460248FDF714FD6C
:102F000005B000BD0004004808B1044801E00348D2
:102F10001030016841F080010160704718040048DA
:102F200000B585B014216846FDF7AAF9802000900D
:102F3000112001900020029002200390694602486F
:102F4000FDF7F2FC05B000BD00040048704700002A
:102F500010B5FDF7DDFD08480168491C01600068F7
:102F60006421B0FBF1F201FB1200002803D10348F9
:102F70000168491C016010BD1400002018000020E9
:102F800030B5A5B038216846FDF77AF914211FA89D
:102F9000FDF776F944210EA8FDF772F94FF40070A1
:102FA000FDF74CFE01252804CDE900500220032442
:102FB000CDE907041421CDE90A100C900D90099475
:102FC0006846FEF727F90F20CDE91F04002421945D
:102FD000229403211FA82394FDF7D2FFCDE90E54BC
:102FE0000EA8FDF789FE25B030BD00000548016838
:102FF00041F47001016003494FF0006080390860BE
:103000007047000088ED00E02DE9F0430268234B93
:10301000234D244E244C4FF08049984207D0484518
:1030200005D0A84203D0B04201D0A04203D122F083
:1030300070074A683A431D4FDFF874C0DFF87480A8
:1030400098420DD048450BD0A84209D0B04207D0D5
:10305000A04205D0B84203D0604501D0404503D11D
:1030600022F44075CA682A434D6922F080022A433F
:1030700002608A68C2620A688262984207D0A042EF
:1030800005D0B84203D0604501D0404501D109695F
:10309000016301214161BDE8F0830000002C014083
:1030A000000400400008004000340140004001409E
:1030B000004401400048014010B501F01F03012108
:1030C000046A99408C430462016A9A401143016288
:1030D00010BD00002DE9F043026A22F001020262F5
:1030E000056A436882691C4C25F0020522400C6881
:1030F00022F0030214438A68194E2A43174D194FD0
:10310000DFF864C0DFF86490A84207D0B04205D071
:10311000B84203D0604501D0484506D122F00808E6
:10312000CA6842EA080222F00402A84207D0B0426C
:1031300005D0B84203D0604501D0484505D14D695E
:1031400023F440731D438B692B43436084614968BA
:1031500041630262BDE8F0838FFFFEFF002C014057
:10316000003401400040014000440140004801405B
:10317000F0B5026A22F010020262056A42688369B1
:10318000194C1B4E23400C6823F4407343EA04247B
:1031900025F020038D6843EA0513144DA84201D0A1
:1031A000B04206D1CF6823F0800343EA071323F02F
:1031B0004003A8420AD0B04208D00E4DA84205D024
:1031C0000D4DA84202D00D4DA84207D14D6922F401
:1031D000406242EA85028D6942EA8502426084616A
:1031E000496881630362F0BDFF8FFFFE002C014040
:1031F00000340140004001400044014000480140CB
:10320000F0B5026A22F480720262056A4368C269FC
:10321000194C1B4E22400C6822F00302144325F483
:1032200000728D6842EA0522144DA84201D0B042D6
:1032300006D1CF6822F4006242EA072222F48062BB
:10324000A8420AD0B04208D00E4DA84205D00E4D7B
:10325000A84202D00D4DA84207D14D6923F4405336
:1032600043EA05138D6943EA05134360C461496865
:10327000C1630262F0BD00008FFFFEFF002C014021
:10328000003401400040014000440140004801403A
:10329000F0B5026A22F480520262056A4268C3698C
:1032A000194C1B4E23400C6823F4407343EA04245A
:1032B00025F400538D6843EA0533144DA84201D02C
:1032C000B04206D1CF6823F4004343EA073323F426
:1032D0008043A8420AD0B04208D00E4DA84205D083
:1032E0000D4DA84202D00D4DA84207D14D6922F4E0
:1032F000404242EA85128D6942EA85124260C46109
:10330000496801640362F0BDFF8FFFFE002C01409D
:1033100000340140004001400044014000480140A9
:1033200030B5026A22F480320262046A4268036D98
:10333000114D2B400D681D4324F400330C8943EAE2
:1033400004430E4CA0420BD00D4CA04208D00D4CB3
:10335000A04205D00C4CA04202D00C4CA04204D19B
:103360004C6922F4803242EA0422426005654968D1
:103370008164036230BD00008FFFFEFF002C01401E
:103380000034014000400140004401400048014039
:1033900030B5026A22F480120262046A4268036D48
:1033A000114D24F400142B400D6843EA05230D89C8
:1033B00044EA05540D4DA8420BD00D4DA84208D04B
:1033C0000C4DA84205D00C4DA84202D00B4DA8428E
:1033D00004D14D6922F4802242EA852242600365CD
:1033E0004968C164046230BDFF8FFFFE002C0140BC
:1033F00000340140004001400044014000480140C9
:103400003FB514A1D1E90021CDE9002113A2D2E9F1
:103410000012CDE90212416EB9B10268916892685A
:10342000C1F34261520F1DF80240E50002ACA25CFC
:10343000B5FBF2F2A0F86A201DF80120615CD20011
:10344000B2FBF1F1A0F868103FBD0121A0F86A10AD
:10345000F8E700000101010307010000080402046D
:103460000801010190F82810C90706D001684A68D0
:10347000C36A22F400321A434A6090F82810890780
:1034800006D501684A68036B22F480321A434A6009
:1034900090F82810490706D501684A68436B22F462
:1034A00080221A434A6090F82810090706D501685F
:1034B0004A68836B22F400421A434A6090F828104D
:1034C000C90606D501688A68C36B22F480521A4384
:1034D0008A6090F82810890606D501688A68036C0E
:1034E00022F400521A438A6090F82810490611D538
:1034F00001684A68436C22F480121A434A60416CA6
:10350000B1F5801F06D101684A68836C22F4C002BD
:103510001A434A6090F82810090606D501684A68DF
:10352000C06C22F4002202434A607047F8B50026BE
:103530000446C0F88860FDF7E5FA05462068006893
:103540006FF07E47000708D52B4600224FF400118C
:103550002046009700F0A0FD60B920680068400791
:103560000AD52B4600224FF480012046009700F038
:1035700093FD08B10320F8BD2020C4F88000C4F8F2
:10358000840084F87C600020F8BD10B5806A0021BA
:10359000A0F85E10A0F85610FEF774FA10BD0000F7
:1035A00001680A6822F490720A6001688A68044B14
:1035B0001A408A602021C0F884100021C16670473B
:1035C000FEFFFFEF10B5B0F86020D0F8843001683E
:1035D000222B04D0886940F00800886110BD496A38
:1035E000836D11401980816D891C8165B0F85E1072
:1035F000491EA0F85E10B0F85E100029EED10168F7
:103600000A6822F490720A6001688A6822F0010256
:103610008A602021C0F884100021C166FEF7F0FB0B
:1036200010BD000070B50446B0F86060D0F88400AA
:10363000222805D02068816941F00801816170BDB0
:10364000B4F8685023E02068406AA16D30400880DB
:10365000A06D801CA065B4F85E00401EA4F85E005A
:10366000B4F85E0088B92068016821F480710160B7
:1036700020688168114A114081602020C4F88400CC
:103680000020E0662046FEF7BBFB6D1EADB2002DAC
:10369000D9D1B4F85E000028D1D0B4F868108142C6
:1036A000CDD92068816821F0805181600448E066AE
:1036B0002068016841F02001016070BDFEFFFFEF4E
:1036C000C535000810B5B0F86020D0F88430016826
:1036D000222B04D0886940F00800886110BD496A37
:1036E0001140826D1170816D491C8165B0F85E10CA
:1036F000491EA0F85E10B0F85E100029EED10168F6
:103700000A6822F490720A6001688A6822F0010255
:103710008A602021C0F884100021C166FEF770FB8A
:1037200010BD000070B50446B0F86060D0F88400A9
:10373000222805D02068816941F00801816170BDAF
:10374000B4F8685023E02068406AA16D30400870EA
:10375000A06D401CA065B4F85E00401EA4F85E0099
:10376000B4F85E0088B92068016821F480710160B6
:1037700020688168114A114081602020C4F88400CB
:103780000020E0662046FEF73BFB6D1EADB2002D2B
:10379000D9D1B4F85E000028D1D0B4F868108142C5
:1037A000CDD92068816821F0805181600448E066AD
:1037B0002068016841F02001016070BDFEFFFFEF4D
:1037C000C53600082DE9F05F04460168806823696A
:1037D000E5691843636900272B431843636EFA4A6F
:1037E00003430868F94D2840184308602068416881
:1037F000E36821F44051194341602168A069914276
:1038000001D0236A18438B68F14D2B4003438B6032
:103810002068C16A636A21F00F011943C162ED4B50
:103820002068ED4998420DD1D1F8881011F00301BC
:1038300006D001295AD0022956D003293FD157E09A
:1038400001253DE0E54B98420BD1D1F8881011F0ED
:103850000C0147D0042949D0082945D00C292ED184
:1038600046E0DF4B98420BD1D1F8881011F03001BF
:1038700038D010293AD0202936D030291FD137E04E
:10388000D84B98420BD1D1F8881011F0C00129D043
:1038900040292BD0802927D0C02910D128E0904280
:1038A0000DD1D1F8881011F440611BD0B1F5806FB3
:1038B0001CD0B1F5006F17D0B1F5406F18D01025AE
:1038C000DFF824A34FF480764FF000094FF4004B4B
:1038D00090426ED175B1022D29D0042D59D0082DFA
:1038E00068D176E00025EBE70225E9E70425E7E764
:1038F0000825E5E7FDF732FC4DE0012851D002280C
:1039000051D0032851D0042851D0052853D006287F
:1039100053D0072853D0082853D0092853D00A2859
:1039200053D00B2853D03AE0B1FBF0F06CE0606A62
:10393000A8B1012817D0022817D0032817D00428CF
:1039400017D0052817D0062817D0072817D0082821
:1039500017D0092817D00A2817D00B2817D0012014
:10396000BAFBF0F050E00220FAE70420F8E7062066
:10397000F6E70820F4E70A20F2E70C20F0E7102031
:10398000EEE72020ECE74020EAE78020E8E7304639
:10399000E6E7FDF707FC0146606A0028ADD101208B
:1039A000C2E70220C0E70420BEE70620BCE70820EB
:1039B000BAE761E14AE00A20B6E70C20B4E710203C
:1039C000B2E72020B0E74020AEE78020ACE73046E9
:1039D000AAE7606AA8B1012822D0022822D00328D1
:1039E00022D0042822D0052822D0062822D0072859
:1039F00022D0082822D0092822D00A2822D00B2839
:103A000022D00120BBFBF0F0002820D0616888465E
:103A100001EB4101814219D8B0EB083F16D817E0FD
:103A20000220EFE70420EDE70620EBE70820E9E7B6
:103A30000A20E7E70C20E5E71020E3E72020E1E794
:103A40004020DFE78020DDE73046DBE7012739E271
:103A50007DB3022D61D0042D7DD0082DF6D1606A92
:103A6000A8B1012878D0022877D0032876D004287E
:103A700075D0052874D0062873D0072872D008287E
:103A800071D0092870D00A286FD00B2800D00126E9
:103A900032464D46002358460021FCF7B9FB090287
:103AA00041EA106102024FEA58001018694142468B
:103AB00070E0FFE7FDF752FB0146606AA8B10128FC
:103AC00017D0022817D0032817D0042817D00528AC
:103AD00017D0062817D0072817D0082817D009288C
:103AE00017D00A2817D00B2800D0012632464D46A1
:103AF0008CE00226FAE70426F8E70626F6E7082611
:103B0000F4E70A26F2E70C26F0E71026EEE7202677
:103B1000ECE74026EAE78026E8E7606AA8B10128DA
:103B200024D0022824D0032824D0042824D0052817
:103B300024D0062824D0072824D0082824D00928F7
:103B400024D00A2824D00B2800D0012632464D4626
:103B500000235046A0E726E07AE07BE07CE07DE0B1
:103B60007EE07FE080E081E082E083E00226EDE716
:103B70000426EBE70626E9E70826E7E70A26E5E755
:103B80000C26E3E71026E1E72026DFE74026DDE705
:103B90008026DBE70023FCF73BFB144AA0F54071CD
:103BA000914271D952E7FDF7FDFA0146606A50B3C0
:103BB000012839D0022839D0032839D0042839D037
:103BC000052839D0062813E000800040F369FFCFB4
:103BD000FFF4FF1100380140001002400044004093
:103BE00000480040004C00400024F400FFFC0F009F
:103BF00024D0072824D0082824D0092824D00A2833
:103C000024D00B2800D001264D463246002308461A
:103C10001946FCF7FDFA0902626841EA10610302E5
:103C2000500818186941B5E70226EDE70426EBE7CE
:103C30000626E9E70826E7E70A26E5E70C26E3E794
:103C40001026E1E72026DFE74026DDE78026DBE7D8
:103C500002261DE704261BE7062619E7082617E7B4
:103C60000A2615E70C2613E7102611E720260FE792
:103C700040260DE780260BE7E0694FF6EF785845C0
:103C800070D1092D8ED200E01AE1DFE805F00609B7
:103C90003C05800505058300D8E6FDF75FFA01E0E5
:103CA000FDF76EFA0146606AA8B1012815D0022816
:103CB00015D0032815D0042815D0052815D00628BE
:103CC00015D0072815D0082815D0092815D00A289E
:103CD00015D00B2814D0012612E0022610E004268D
:103CE0000EE006260CE008260AE00A2608E00C266C
:103CF00006E0102604E0202602E0402600E08026B0
:103D0000B1FBF6F01AE0606AA8B101282BD00228B6
:103D10002BD003282BD004282BD005282BD0062805
:103D20002BD007282BD008282BD009282BD00A28E5
:103D30002BD00B2800D00126BAFBF6F041006068BA
:103D400001EB5001B1FBF0F080B2A0F11001414550
:103D5000A2D84FF6F0710140C0F342000143206841
:103D6000C160AFE046E00226E6E70426E4E7062667
:103D7000E2E70826E0E70A26DEE70C26DCE7102665
:103D8000DAE72026D8E74026D6E78026D4E7FDF7F5
:103D900009FA87E7606AA8B1012817D0022817D06E
:103DA000032817D0042817D0052817D0062817D0C5
:103DB000072817D0082817D0092817D00A2817D0A5
:103DC0000B2800D00126BBFBF6F0B7E70226FAE786
:103DD0000426F8E70626F6E70826F4E70A26F2E7BF
:103DE0000C26F0E71026EEE72026ECE74026EAE76F
:103DF0008026E8E7092DBFF4D5AEDFE805F0060917
:103E00003C0583050505860020E6FDF7A7F901E0DE
:103E1000FDF7B6F90146606AA8B1012815D002285D
:103E200015D0032815D0042815D0052815D006284C
:103E300015D0072815D0082815D0092815D00A282C
:103E400015D00B2814D0012612E0022610E004261B
:103E50000EE006260CE008260AE00A2608E00C26FA
:103E600006E0102604E0202602E0402600E080263E
:103E7000B1FBF6F11AE0606AA8B101282ED0022841
:103E80002ED003282ED004282ED005282ED0062888
:103E90002ED007282ED008282ED009282ED00A2868
:103EA0002ED00B2800D00126BAFBF6F1606801EB9A
:103EB0005001B1FBF0F080B2A0F110014145A3D850
:103EC0002168C8600120A4F86A0024F8680F384609
:103ED000C4F80490C4F80890BDE8F09F0226E3E718
:103EE0000426E1E70626DFE70826DDE70A26DBE70A
:103EF0000C26D9E71026D7E72026D5E74026D3E7BA
:103F00008026D1E7FDF74EF984E7606AA8B1012861
:103F100017D0022817D0032817D0042817D0052857
:103F200017D0062817D0072817D0082817D0092837
:103F300017D00A2817D00B2800D00126BBFBF6F1BA
:103F4000B4E70226FAE70426F8E70626F6E708268D
:103F5000F4E70A26F2E70C26F0E71026EEE7202623
:103F6000ECE74026EAE78026E8E7D0F88010212930
:103F700010D1B0F8561071B1016D02680988C1F313
:103F800008019162016D891C0165B0F85610491E47
:103F9000A0F85610704701680A6822F080020A6093
:103FA0000068016841F0400101607047D0F880105E
:103FB00021291BD1B0F86A1016E000BFB0F85620D6
:103FC000AAB10268D3691B060CD5036D1B88C3F325
:103FD00008039362026D921C0265B0F85620521ECF
:103FE000A0F85620491E89B20029E7D17047016820
:103FF0008A6822F400028A600068016841F040018A
:1040000001607047D0F8801021290ED1B0F8561009
:1040100061B1016D026809789162016D491C016509
:10402000B0F85610491EA0F85610704701680A688B
:1040300022F080020A600068016841F040010160DE
:1040400070470000D0F88010212919D1B0F86A100B
:1040500014E000BFB0F856209AB10268D3691B067D
:104060000AD5036D1B789362026D521C0265B0F88D
:104070005620521EA0F85620491E89B20029E9D1C7
:10408000704701688A6822F400028A60006801684B
:1040900041F04001016070472DE9F0419846174614
:1040A0000E460446069D08E0681C06D0FCF72AFD73
:1040B000A0EB0800A8420BD855B12068C06936EAC9
:1040C000000019D00020B842EED00020BDE8F081F9
:1040D0002068016821F4D07101602068816821F0B6
:1040E000010181602020C4F88000C4F88400002011
:1040F00084F87C000320E9E70120E4E70148FDF7AC
:10410000C3BC00009C000020FEE700000FB4084B79
:1041100010B504A902AA039800F0EEF8044602A91B
:10412000002000F080FC204610BC5DF814FB00006D
:10413000274A00080907090E002804DB00F1E020E7
:1041400080F80014704700F00F0000F1E02080F8C4
:10415000141D704702E008C8121F08C1002AFAD1D6
:1041600070477047002001E001C1121F002AFBD1F7
:10417000704700002DE9FF5F82B00021DDE90430C7
:10418000020DDDF840B0034318D044F61050A2F2FF
:10419000FF3242431514119801281FD0A5EB0B00E4
:1041A000401C5FEA000A4FF000064E4FDFF83891DE
:1041B000B046504615D5CAF1000413E01198012409
:1041C0004AA3012801D16FEA0B010298119AC0E9B4
:1041D0000031C0E9024206B0BDE8F09FCBF100001B
:1041E000DFE704460021404A491842EB0450CDE97C
:1041F000001012E0E00707D032463B4640464946F1
:10420000FCF77DFA8046894632463B461046194601
:10421000FCF775FA06460F466410002CEAD1DDE97A
:104220000401DDE90023BAF1000F06DAFCF767FAB2
:1042300042464B46FCF763FA05E0FCF7DAF84246E3
:104240004B46FCF7D6F804460E460022284BFCF7F6
:10425000E1FA03D84FF0FF30014607E00022254B7A
:1042600020463146FCF71EF8FCF7BBFA102409E0A3
:10427000002C0ADB0A220023FBF7CAFF039B303223
:104280001A55641E50EA0102F2D1641C039AC4F16B
:1042900011031444119A012A03D0012208430DD1BD
:1042A0000AE0084304D000204FF0110B119072E790
:1042B000A3EB0B056D1E0DE05B4504DD4FF0000226
:1042C00005F1010504E003DA4FF00002A5F1010554
:1042D000002AECD002981199C0E90231C0E90045EA
:1042E00079E70000000014400000F03F30000000BB
:1042F0000000F0430000E03F2DE9FF4F95B09B46E2
:104300008946064600250FE2252877D10024274656
:10431000F84A0121059400E0044316F8013F203BD0
:1043200001FA03F01042F7D130782A2811D06FF04B
:104330002F033078A0F13002092A16D8059A44F0EC
:10434000020402EB820203EB42021044761C059049
:10435000EFE759F8042B0592002A03DA504244F49F
:104360000054059044F00204761C30782E2816D1B3
:1043700016F8010F44F004042A280DD06FF02F0224
:104380003078A0F13003092B09D807EB870302EB43
:104390004303C718761CF3E759F8047B761C307882
:1043A0006C280FD006DC4C2817D068280DD06A285E
:1043B00014D104E0742810D07A280FD10DE044F411
:1043C00000140AE044F4801401E044F440147278CC
:1043D000824202D104F58014761C761C307866285F
:1043E0000BD013DC582877D009DC002875D045287D
:1043F000F6D04628F4D047281AD19DE118E063286A
:1044000035D0642879D0652812D195E1702873D011
:1044100008DC6728F1D069286FD06E280DD06F288E
:1044200006D1B5E073282CD0752875D0782874D0C3
:104430005A46179990476D1C75E1C4F30250022843
:1044400009D003280DD0D9F8001004280DD00D6034
:1044500009F1040967E1D9F80010EA17C1E900522F
:10446000F6E7D9F800100D80F2E70D70F0E719F8C3
:10447000041B8DF8001000208DF80100EA46012091
:1044800003E059F804AB4FF0FF3061074FF0000133
:1044900002D40DE008F101018846B9420FDA8045E7
:1044A000F8DB1AF808100029F4D108E008F101013E
:1044B00088468142FADB1AF808100029F6D10598DF
:1044C0005B46A0EB080721463846179A00F094FA9D
:1044D000284400EB080507E04DE029E10DE01AF85B
:1044E000010B5A4617999047B8F10108F7D25B467D
:1044F00021463846179A13E142E00A220092C4F39B
:1045000002524FF0000A022A08D059F804CB032ABD
:104510004FEAEC710AD00DE029E02AE009F1070129
:1045200021F00702F2E802C1914609E00FFA8CFC83
:104530004FEAEC71042A03D14FFA8CFC4FEAEC717C
:10454000002907DA0A460021DCF1000C61EB0201C8
:104550002D2202E0220504D52B228DF80420012211
:1045600003E0E20701D02022F7E7904659E00A2154
:1045700002E010220DE010214FF0000A00910BE044
:1045800010224FF0000A44F004040827009203E0D0
:1045900008224FF0000A0092C4F30252022A05D00A
:1045A00059F804CB0021032A08D009E009F10701DA
:1045B00021F00702F2E802C1914605E01FFA8CFCE7
:1045C000042A01D10CF0FF0C4FF00008220728D577
:1045D000702806D0009B83F0100353EA0A0305D02D
:1045E0000EE040228DF80420012208E05CEA01027E
:1045F00006D030228DF804208DF805000222904666
:10460000009B83F0080353EA0A030AD15CEA010223
:1046100001D1620705D530228DF804204FF0010842
:104620007F1E582804D034A003900EA802900DE0FD
:1046300036A0F9E753466046009AFBF7E9FD844649
:104640000398825C0298401E029002705CEA0100AE
:10465000F0D1029806A9081A00F1200A600702D5D5
:1046600024F4803400E00127574502DDA7EB0A005F
:1046700000E0002000EB0A01009005984144401A38
:104680000590E00306D45B462146179A059800F092
:10469000B3F90544002706E001A85A46C05D179902
:1046A00090476D1C7F1C4745F6DBE0030CD55B464D
:1046B0002146179A059800F09FF9054404E0302040
:1046C0005A46179990476D1C0099481E0090002982
:1046D000F5DC08E0029802995A460078491C0291DC
:1046E000179990476D1CBAF10001AAF1010AF1DC9B
:1046F00065E10000092801003031323334353637A6
:10470000383961626364656600000000303132331D
:1047100034353637383941424344454600000000BD
:1047200000F058F90544761C307800287FF4ECAD91
:1047300019B02846BDE8F08F620700D4062709F1BA
:10474000070222F0070CFCE80223E14603F00048D0
:104750005FEA080C02D00FF2702C0DE05FEA045CF7
:1047600002D50FF2682C07E05FEAC47C02D00FF29A
:10477000602C01E0AFF2700C4FF0FF3823F00043E3
:10478000CDF850C065280CD006DC452809D0462855
:104790001DD047283DD13DE0662818D067287ED13E
:1047A00038E00021112F01DB112000E0781CCDE959
:1047B000000106A90EA8FFF7DDFCDDE90F010E9A46
:1047C00003910021009207F1010A04914DE04FF09E
:1047D00000400097CDE9011006A90EA8FFF7CAFC1A
:1047E000DDE90F0203920E9B11990022DDF80CA067
:1047F0000093049211B9791C00EB010AB7EB0A008F
:1048000004D4C0F1FF3007F1010A0490AAEB0700BD
:10481000019044E0012F00DA01270021112F01DD72
:10482000112000E03846CDE9000106A90EA8FFF7E7
:10483000A1FCDDE90F010E9A039100210491009281
:10484000BA4621070CD40399514500DA8A46BAF1D9
:10485000010F05DD009AAAF10101515C302908D051
:10486000B84202DA10F1040F06DA0121CDE9011095
:1048700015E0AAF10101E9E7002805DC04990144EB
:104880000491AAEB000102E0411C514500DD8A467B
:104890000499401A401C01904FF0004002902007FC
:1048A00004D40198504501DBCDF8048000208DF838
:1048B0004F0002980DF14F07B0F1004F25D02B208B
:1048C0000E9002984FF0020800280CDA4042029045
:1048D0002D200E9007E00A210298FBF735FE3031BB
:1048E000029007F8011DB8F10001A8F10108F2DCFF
:1048F00002980028EFD1791E0E980870307800F0E9
:10490000200040F0450007F8020D12A8C01B00F17E
:1049100007081498007800B1012000EB0A01019803
:1049200001EBE07105984144401A401E0590E003F8
:1049300006D45B462146179A059800F05DF80544B9
:104940001498007818B15A46179990476D1CE003E7
:1049500024D55B462146179A059800F04DF805448A
:104960001CE00498002807DBDDE90301884203DD31
:104970000098405C179901E0179930205A469047FB
:10498000049805F10105401C04900198401E019017
:1049900004D12E205A46179990476D1CBAF1000198
:1049A000AAF1010ADDDC05E017F8010B5A46179958
:1049B00090476D1CB8F10001A8F10108F4DC5B46DA
:1049C0002146179A0598ABE62D0000002B00000049
:1049D000200000002DE9F041044600251E46174640
:1049E000880404D405E039462020B0476D1C641EBD
:1049F000F9D52846BDE8F0812DE9F04104460025AF
:104A00001E469046C80301D5302700E020278804C1
:104A100004D505E041463846B0476D1C641EF9D503
:104A20002846BDE8F0810A68531C0B60107070477F
:104A3000002100E0491C8142FCD3704786B0FCF79E
:104A40006FF8FEF79DFAFDF79BFFFEF733F8FEF7D0
:104A50006BF8FDF74DFD0020FDF7A2FC0020FDF7EF
:104A600059FE4FF6FF70FDF769FE052269460020EA
:104A7000FDF73CFF204B9DF8042001250A20991EDC
:104A8000012A14D19DF80240A4F10A020A2A0ED884
:104A90009DF803200A2A0AD3142A08D89DF800009A
:104AA00018709DF8010058700C704A7012E0187070
:104AB0005870087048708DF808008DF809008DF85E
:104AC0000A008DF80B008DF80C50052202A9002079
:104AD000FDF736FF08490122491F0848FDF712F982
:104AE00004210748FCF7F6FEFDF748FBFDF71AFD29
:104AF000FDF7D2FEF8E70000110000209C00002026
:104B00005000002000000000000000000000000035
:104B10000000000000000000000000000000000095
:104B20000000000000000000000000000000000085
:104B300000000000000080018001800180018001F0
:104B4000800180018001800180018001800180015D
:104B50000000000080018001000000000000000053
:104B60000000000000000000CC00CC00CC00CC0015
:104B7000CC00CC000000000000000000000000009D
:104B80000000000000000000000000000000000025
:104B90000000000000000000000000000000000015
:104BA000600C600C600C30063006FE1FFE1F3006E5
:104BB00038071803FE1FFE1F180318038C018C0111
:104BC0008C01000000008000E003F80F9C0E8C1C9C
:104BD0008C188C009800F801E007800E801C8C185F
:104BE0008C189C18B80CF00FE003800080000000C7
:104BF000000000000000000000000E181B0C110C4B
:104C000011061106110311039B018E01C038C06CFF
:104C100060446044304430441844186C0C38000040
:104C2000000000000000E001F00338071806180635
:104C30003003F001F000F8009C310E33061E061C14
:104C4000061C063FFC73F02100000000000000007D
:104C500000000000000000000C000C000C000C0024
:104C60000C000C000000000000000000000000002C
:104C70000000000000000000000000000000000034
:104C8000000000000000000200038001C000C0001E
:104C90006000600030003000300030003000300034
:104CA0003000300060006000C000C00080010003E0
:104CB00000020000000020006000C00080018001B0
:104CC00000030003000600060006000600060006BA
:104CD000000600060003000380018001C0006000A0
:104CE00020000000000000000000000000000000A4
:104CF000C000C000D806F807E00130033807000004
:104D000000000000000000000000000000000000A3
:104D10000000000000000000000000000000000093
:104D200080018001800180018001FC3FFC3F800107
:104D3000800180018001800100000000000000006F
:104D40000000000000000000000000000000000063
:104D50000000000000000000000000000000000053
:104D600000000000000080018001000100018000BF
:104D70000000000000000000000000000000000033
:104D8000000000000000000000000000E007E00755
:104D90000000000000000000000000000000000013
:104DA0000000000000000000000000000000000003
:104DB00000000000000000000000000000000000F3
:104DC000000000000000C000C00000000000000063
:104DD000000000000000000C000C000600060006A9
:104DE0000003000300038003800180018001C000F4
:104DF000C000C00060006000000000000000000073
:104E0000000000000000E003F007380E180C0C183A
:104E10000C180C180C180C180C180C180C180C1872
:104E2000180C380EF007E00300000000000000003E
:104E300000000000000000018001C001F0019801A5
:104E40008801800180018001800180018001800152
:104E5000800180018001800100000000000000004E
:104E6000000000000000E003F80F180C0C180C18EC
:104E700000180018000C000600038001C00060004C
:104E800030001800FC1FFC1F0000000000000000A4
:104E9000000000000000E001F807180E0C0C0C0CDC
:104EA000000C0006C003C007000C001800180C1806
:104EB0000C18180CF807E0030000000000000000C8
:104EC000000000000000000C000E000F000F800D1D
:104ED000C00C600C600C300C180C0C0CFC3FFC3F40
:104EE000000C000C000C000C000000000000000092
:104EF000000000000000F80FF80F180018000C0068
:104F0000EC03FC071C0E001C0018001800180C18FD
:104F10001C0C180EF807E003000000000000000061
:104F2000000000000000C007F00F381C181818001F
:104F30000C00CC03EC0F3C0E1C1C0C180C180C18AD
:104F4000181C380EF007E00300000000000000000D
:104F5000000000000000FC1FFC1F000C0006000603
:104F6000000380038001C001C000E0006000600019
:104F70007000300030003000000000000000000031
:104F8000000000000000E003F007380E180C180CB9
:104F9000180C3806F007F007180C0C180C180C1831
:104FA0000C18380CF80FE0030000000000000000AF
:104FB000000000000000E003F007380E1C0C0C1885
:104FC0000C180C181C1C381EF81BE0190018000CDB
:104FD000000C1C0EF807F0010000000000000000AB
:104FE00000000000000000000000000000000000C1
:104FF00080018001000000000000000000000000AF
:10500000000000008001800100000000000000009E
:105010000000000000000000000000000000000090
:10502000800180010000000000000000000000007E
:1050300000000000800180010001000180000000EC
:105040000000000000000000000000000000000060
:10505000000000000010001C800FE003F8001800A2
:10506000F800E003800F001C0010000000000000AA
:105070000000000000000000000000000000000030
:1050800000000000F81F000000000000F81F0000F2
:105090000000000000000000000000000000000010
:1050A0000000000000000000000000000000000000
:1050B0000000000008003800F001C007001F0018C1
:1050C000001FC007F00138000800000000000000C9
:1050D000000000000000E003F80F180C0C180C187A
:1050E0000018000C000600038001C000C000C000D2
:1050F00000000000C000C000000000000000000030
:105100000000000000000000E00718180420C22979
:10511000224A114409440944094409221113E20CAA
:10512000024004201818E007000000000000000002
:1051300000000000000080038003C006C006C00617
:10514000600C600C301830183018F83FF83F1C70B5
:105150000C600C6006C006C00000000000000000EB
:10516000000000000000FC03FC0F0C0C0C180C18D5
:105170000C180C0CFC07FC0F0C180C300C300C300D
:105180000C300C18FC1FFC070000000000000000A1
:10519000000000000000C007F01F38381C300C7001
:1051A000066006000600060006000600060006600F
:1051B0000C701C30F01FE007000000000000000031
:1051C000000000000000FE03FE0F060E0618061881
:1051D0000630063006300630063006300630061837
:1051E0000618060EFE0FFE0300000000000000007F
:1051F000000000000000FC3FFC3F0C000C000C0015
:105200000C000C00FC1FFC1F0C000C000C000C0020
:105210000C000C00FC3FFC3F000000000000000000
:10522000000000000000F83FF83F180018001800C8
:1052300018001800F81FF81F1800180018001800B0
:1052400018001800180018000000000000000000FE
:10525000000000000000E00FF83F3C780E6006E020
:1052600007C00300030003FE03FE03C007C006C01F
:105270000EC03CF0F83FE00F00000000000000000E
:105280000000000000000C300C300C300C300C30F2
:105290000C300C30FC3FFC3F0C300C300C300C3030
:1052A0000C300C300C300C3000000000000000000E
:1052B0000000000000008001800180018001800169
:1052C00080018001800180018001800180018001D6
:1052D00080018001800180010000000000000000CA
:1052E00000000000000000060006000600060006A0
:1052F0000006000600060006000600060006180666
:1053000018063807F003E00100000000000000006C
:1053100000000000000006300618060C0606060312
:105320008601C60066007600DE008E0106030606D2
:10533000060C0618063006600000000000000000A1
:1053400000000000000018001800180018001800E5
:10535000180018001800180018001800180018008D
:1053600018001800F81FF81F0000000000000000DF
:105370000000000000000EE01EF01EF01EF036D807
:1053800036D836D836D866CC66CC66CCC6C6C6C645
:10539000C6C6C6C686C386C3000000000000000063
:1053A0000000000000000C301C303C303C306C3001
:1053B0006C30CC30CC308C310C330C330C360C369A
:1053C0000C3C0C3C0C380C300000000000000000CD
:1053D000000000000000E007F81F1C380E70066097
:1053E00003C003C003C003C003C003C003C0066002
:1053F0000E701C38F81FE0070000000000000000DD
:10540000000000000000FC0FFC1F0C380C300C30BA
:105410000C300C300C18FC1FFC070C000C000C00AE
:105420000C000C000C000C0000000000000000004C
:10543000000000000000E007F81F1C380E70066036
:1054400003E003C003C003C003C003C007E006635A
:105450000E3F1C3CF83FE0F700C0000000000000D9
:10546000000000000000FE0FFE1F06380630063068
:1054700006300638FE1FFE0706030606060C061851
:10548000061806300630066000000000000000002C
:10549000000000000000E003F80F1C0C0C180C18B2
:1054A0000C001C00F803E00F001E00380630063028
:1054B0000E301C1CF80FE007000000000000000088
:1054C000000000000000FE7FFE7F8001800180015F
:1054D00080018001800180018001800180018001C4
:1054E00080018001800180010000000000000000B8
:1054F0000000000000000C300C300C300C300C3080
:105500000C300C300C300C300C300C300C300C30BB
:105510000C301818F81FE007000000000000000021
:1055200000000000000003600630063006300C1852
:105530000C180C18180C180C380E300630067007B2
:1055400060036003C001C001000000000000000013
:105550000000000000000360C361C361C3616633E3
:10556000663366336633663366336C1B6C1B6C1BA9
:105570002C1A3C1E380E380E0000000000000000FF
:105580000000000000000FE00C7018303018700CA4
:10559000600EC00780038003C003E006700C301C5F
:1055A00018180C300E6007E000000000000000003A
:1055B00000000000000003C006600C301C383818E2
:1055C000300C6006E007C00380018001800180018B
:1055D00080018001800180010000000000000000C7
:1055E000000000000000FC7FFC7F0060003000181D
:1055F000000C000600038001C000600030001800AD
:105600000C000600FE7FFE7F00000000000000008E
:10561000000000000000E003E003600060006000A4
:10562000600060006000600060006000600060007A
:105630006000600060006000600060006000E003E7
:10564000E0030000000030003000600060006000F7
:10565000C000C000C000C0018001800180010003C3
:105660000003000300060006000000000000000028
:10567000000000000000E003E0030003000300035B
:105680000003000300030003000300030003000302
:105690000003000300030003000300030003E00312
:1056A000E003000000000000C001C00160036003CF
:1056B000600330063006180C180C000000000000D3
:1056C00000000000000000000000000000000000DA
:1056D00000000000000000000000000000000000CA
:1056E00000000000000000000000000000000000BA
:1056F000000000000000FFFFFFFF000000000000AE
:105700000000000000000C000C000C000C000C005D
:105710000C0000000000000000000000000000007D
:105720000000000000000000000000000000000079
:105730000000000000000000000000000000000069
:10574000F003F8071C0C0C0C000FF00FF80C0C0CFD
:105750000C0C1C0FF80FF0180000000000000000F7
:1057600000000000000018001800180018001800C1
:10577000D803F80F380C1818181818181818181813
:105780001818380CF80FD8030000000000000000C3
:105790000000000000000000000000000000000009
:1057A000C003F007300E180C18001800180018007D
:1057B000180C300EF007C0030000000000000000CD
:1057C0000000000000000018001800180018001861
:1057D000C01BF01F301C18181818181818181818A3
:1057E0001818301CF01FC01B000000000000000053
:1057F00000000000000000000000000000000000A9
:10580000C003F00F300C1818F81FF81F180018000C
:105810003818301CF00FC007000000000000000026
:10582000000000000000800FC00FC000C000C000DA
:10583000F007F007C000C000C000C000C000C000FA
:10584000C000C000C000C000000000000000000058
:105850000000000000000000000000000000000048
:10586000E00DF80F180E0C0C0C0C0C0C0C0C0C0CA6
:105870000C0C180EF80FE00D000C0C0C1C06F807B1
:10588000F0010000000018001800180018001800AF
:10589000D807F80F381C18181818181818181818DE
:1058A0001818181818181818000000000000000038
:1058B000000000000000C000C00000000000000068
:1058C000C000C000C000C000C000C000C000C000D8
:1058D000C000C000C000C0000000000000000000C8
:1058E000000000000000C000C00000000000000038
:1058F000C000C000C000C000C000C000C000C000A8
:10590000C000C000C000C000C000C000C000F8005F
:105910007800000000000C000C000C000C000C00D3
:105920000C0C0C060C038C01CC006C00FC009C01E0
:105930008C030C030C060C0C00000000000000009F
:10594000000000000000C000C000C000C000C00097
:10595000C000C000C000C000C000C000C000C00047
:10596000C000C000C000C000000000000000000037
:105970000000000000000000000000000000000027
:105980007C3CFF7EC7E383C183C183C183C183C1E4
:1059900083C183C183C183C10000000000000000F7
:1059A00000000000000000000000000000000000F7
:1059B0009807F80F381C18181818181818181818FD
:1059C0001818181818181818000000000000000017
:1059D00000000000000000000000000000000000C7
:1059E000C003F00F300C18181818181818181818C9
:1059F0001818300CF00FC003000000000000000079
:105A00000000000000000000000000000000000096
:105A1000D803F80F380C1818181818181818181870
:105A20001818380CF80FD8031800180018001800C0
:105A3000180000000000000000000000000000004E
:105A4000C01BF01F301C1818181818181818181830
:105A50001818301CF01FC01B001800180018001880
:105A6000001800000000000000000000000000001E
:105A7000B007F0037000300030003000300030001C
:105A80003000300030003000000000000000000056
:105A90000000000000000000000000000000000006
:105AA000E003F003380E180C3800F003C007000CB8
:105AB000180C380EF007E0030000000000000000A2
:105AC00000000000000000008000C000C000C00016
:105AD000F007F007C000C000C000C000C000C00058
