:020000040800F2
:1000000098040020ED010008FF1C0008A90F00085B
:10001000FD1C0008990200087D2500080000000072
:10002000000000000000000000000000B9200008EF
:100030009B02000800000000011D0008BD20000810
:10004000070200080702000807020008070200086C
:10005000070200080702000807020008070200085C
:10006000070200080702000807020008070200084C
:10007000070200080702000807020008070200083C
:10008000070200080000000007020008070200083D
:10009000070200080702000807020008070200081C
:1000A000070200080702000807020008070200080C
:1000B00007020008070200080702000807020008FC
:1000C00007020008070200080702000807020008EC
:1000D00007020008070200080702000807020008DC
:1000E00007020008070200080702000807020008CC
:1000F00007020008070200080702000800000000CD
:1001000000000000070200080000000007020008CD
:1001100007020008000000000702000807020008AC
:10012000070200080702000807020008070200088B
:10013000070200080000000000000000070200089D
:10014000070200080702000800000000000000008D
:10015000000000000000000000000000000000009F
:10016000000000000000000000000000070200087E
:10017000070200080000000000000000000000006E
:10018000000000000702000800000000000000005E
:10019000000000000000000000000000000000005F
:1001A000000000000000000007020008070200082D
:1001B000070200080702000807020008000000000C
:1001C000000000000702000800000000000000001E
:1001D0000702000807020008DFF80CD000F04AF818
:1001E000004800474129000898040020064880473D
:1001F00006480047FEE7FEE7FEE7FEE7FEE7FEE70C
:10020000FEE7FEE7FEE7FEE785210008D9010008CA
:10021000D2B201E000F8012B491EFBD27047002248
:10022000F6E710B513460A4604461946FFF7F0FFF5
:10023000204610BD034611F8012B00F8012B002ABF
:10024000F9D11846704730B50B46014600202022F0
:10025000012409E021FA02F59D4205D303FA02F5D3
:10026000491B04FA02F52844151EA2F10102F1DC33
:1002700030BD0000064C074D06E0E06840F0010389
:1002800094E8070098471034AC42F6D3FFF7A8FF74
:10029000B03B0008D03B0008FEE77047002240F664
:1002A000B83306E00021491C89B29942FBD3521CA5
:1002B00092B28242F6D370477047000070B5044690
:1002C00000F0FCF80546601C02D004484068044475
:1002D00000F0F4F8401BA042FAD370BD28000020C3
:1002E0002DE9FC4FDFF8A0A1002301250AF1040B42
:1002F00003244FF00F0C0BF1040EBDE005FA03F6DA
:1003000032406FD04F68012F05D0022F03D0112F3C
:1003100001D0122F17D1D0F808905F0004FA07F827
:1003200029EA08090097D1F80C8008FA07F848EA8A
:100330000908C0F808804768B7430E79C6F300166D
:100340009E403E434660C6684FEA430804FA08F7F9
:10035000BE4301978F6807FA08F73743C7604E68B6
:10036000022E01D0122E13D1DE0800EB8606009675
:10037000366A5F07FF0E0CFA07F926EA0906D1F87C
:10038000109009FA07F949EA0609009EC6F820907C
:100390000668019FBE430F7907F0030707FA08F7C5
:1003A000374307604E68F60065D5384E376E47F024
:1003B00001073766366E23F0030706F00106009644
:1003C000334E3E44B146B6689F074FEA17780CFAA1
:1003D00008F7BE43B0F1904F05D02E4FB84204D17C
:1003E000012717E047E0002714E02B4FB84201D166
:1003F00002270FE0294FB84201D103270AE0284F16
:10040000B84201D1042705E0264FB84201D10527A3
:1004100000E0062707FA08F73743C9F80870DAF84A
:1004200000605746D1F8048096435FEAC83800D58B
:1004300016433E60DBF800605F46D1F804809643C7
:100440005FEA883800D516433E60DEF800607746E4
:10045000D1F8048096435FEAC82800D516433E6071
:10046000094F0C373E68D1F8048096435FEA88282C
:1004700000D516433E605B1C0A6832FA03F67FF42F
:100480003DAFBDE8FC8F00000004014000100240B9
:10049000000001400004004800080048000C00482B
:1004A00000100048001400480069084000D00120F6
:1004B00070470AB181617047816270470148806866
:1004C00070470000280000200248816842681144FB
:1004D000816070472800002010B50024032000F040
:1004E00069F8002000F008F808B1012401E000F0EC
:1004F00025F8204610BD000070B50E4E05460024BC
:10050000706898B14FF47A71B1FBF0F00A4909684C
:10051000B1FBF0F000F0EAFB40B9102D06D200224A
:100520002946501E00F026F8356000E001242046E0
:1005300070BD000028000020340000200B4808B5E2
:10054000016E41F001010166016E01F001010091AF
:10055000816D41F080518165806D00F08050009088
:100560000348816841F48041816008BD0010024069
:1005700000700040F0B40E4B1B680C46C3F302231E
:10058000C3F10705042D00D90425191D072901D23F
:10059000002300E0DB1E012606FA05F1491E21407A
:1005A00099409E40761E16403143F0BC01F0FCBFDE
:1005B0000CED00E0064900F0070208684FF6FF0363
:1005C000184040EA0220034A1043086070470000C8
:1005D0000CED00E00000FA052B492C4B0A68322193
:1005E0004A432B4940B1B0F5007F086829D020F478
:1005F000C06040F480602CE00868C0F3412002280D
:1006000004D051F8800F20F4807022E0D1F88000EF
:1006100020F48070C1F88000086820F4C06040F4C5
:1006200000700860B2FBF3F0401C00E0401E4A6915
:10063000520501D50028F9D1486940050AD50320A3
:100640007047C0F34120022806D051F8800F40F4D3
:100650008070086000207047D1F8800040F48070FE
:10066000C1F88000086820F4C06040F400700860A1
:10067000B2FBF3F0401C00E0401E4A695205DBD596
:100680000028F9D1D8E700003400002040420F00D4
:10069000007000402DE9F0470E4605004FF00007BE
:1006A00025D0DFF8AC81D8F8000000F00F00B04290
:1006B0000CD2D8F8001021F00F013143C8F8001017
:1006C000D8F8000000F00F00B04210D12968614C4A
:1006D000C80741F2883A5AD06868DFF87C9103284D
:1006E00008D0022820682DD0400500282CDB0120EE
:1006F000BDE8F08720688001F9D5E06800F00302CA
:10070000E068C0F30310401C032A19D0534A00BF0D
:10071000B2FBF0F0E268C2F306225043E268C2F393
:100720004162521C5200B0FBF2F0484517D9A06854
:1007300010F0F00F0CD0880711D5A86840B10EE07A
:10074000474AE5E78003D0E700F092F8484506D92C
:10075000A06820F0F00040F08000A0608027A06832
:10076000696820F003000843A060FFF7A7FE8146F8
:1007700006E000BFFFF7A2FEA0EB090151453AD801
:10078000A068696800F00C00B0EB810FF2D1286816
:10079000810714D5400703D5A06840F4E060A0604D
:1007A0002878000705D5A06820F4605040F4E06088
:1007B000A060A068A96820F0F000084304E0802F42
:1007C00003D1A06820F0F000A060D8F800104046E7
:1007D00001F00F01B14216D9016821F00F01314338
:1007E0000160FFF76BFE074607E000BFFFF766FEFC
:1007F000C11B514501D903207AE7D8F8000000F069
:100800000F00B042F2D12878400705D5A068E9680A
:1008100020F4E0600843A0602878000706D5A068AF
:10082000296920F4605040EAC100A06000F020F87F
:10083000A1680C4AC1F30311515C01F01F01C840CB
:100840000949086009480068BDE8F047FFF754BE51
:10085000002002400010024000B4C4040024F40050
:1008600000366E01A03B0008340000202800002064
:10087000184910B58868C0F381021748012A0BD0C7
:100880008A68164BC2F38102022A06D08A68C2F334
:100890008102032A03D0002010BD184610BDCA688B
:1008A00002F00304CA68C2F30312521C032C02D0E4
:1008B000B0FBF2F001E0B3FBF2F0CA68C968C2F322
:1008C00006225043C1F34161491C4900B0FBF1F0DD
:1008D00010BD0000001002400024F40000366E013C
:1008E0002DE9F84304007AD02078FA4DC00747D0AC
:1008F000A868E96800F00C0001F003010C2802D0A0
:10090000082817D001E0032914D06068B0F5803FB3
:1009100017D0B0F5A02F286817D020F480302860B9
:10092000286820F4802028606068E0B1FFF7C6FDE9
:10093000064614E02868800322D560680028D2D0DB
:100940001EE0286840F48030EDE740F48020286005
:10095000F7E700BFFFF7B2FD801B642870D8286856
:100960008003F7D50CE0FFF7A9FD064605E000BFC0
:10097000FFF7A4FD801B6428F0D828688003F7D413
:10098000207880074CD5A868E96800F00C0001F0D9
:1009900003010C2802D004280DD001E002290AD05E
:1009A000E068002828682BD040F480702860FFF7AA
:1009B00085FD064619E02868400502D5E068002854
:1009C00091D06868217C20F0FE4040EA01606860B8
:1009D000C1480068FFF790FD002800D120E076E1D3
:1009E000FFF76CFD801B0228B8D828684005F7D5B2
:1009F0006868217C20F0FE4040EA016068600FE0FA
:100A000020F480702860FFF759FD064605E000BF1E
:100A1000FFF754FD801B0228A0D828684005F7D4B2
:100A20002078000729D560690028D5F8940013D0F4
:100A300040F00100C5F89400FFF740FD064606E0CF
:100A400090E000BFFFF73AFD801B022886D8D5F85A
:100A500094008007F6D510E020F00100C5F894005E
:100A6000FFF72CFD064604E0FFF728FD801B022857
:100A700078D8D5F894008007F6D42078400761D55F
:100A8000A86D0026C00008D4A86D40F08050A8656D
:100A9000A86D012600F08050009090480168C905BB
:100AA00011D40168804641F480710160FFF706FDB2
:100AB000074604E0FFF702FDC01B022852D8D8F811
:100AC0000000C005F6D5A068012815D00528D5F886
:100AD000900016D020F00100C5F89000D5F89000E5
:100AE00020F00400C5F89000A06841F28838B8B141
:100AF000FFF7E4FC07460EE0D5F8900040F0010057
:100B0000F0E740F00400C5F89000F5E7FFF7D6FCE9
:100B1000C11B414526D8D5F890008007F6D50CE0DA
:100B2000FFF7CCFC074604E0FFF7C8FCC11B4145BA
:100B300018D8D5F890008007F6D41EB1A86D20F023
:100B40008050A8652078800629D5A0690028D5F8AE
:100B5000980013D040F00100C5F89800FFF7AEFCF4
:100B6000064606E077E000BFFFF7A8FC801B0228DE
:100B700077D8D5F898008007F6D510E020F001006E
:100B8000C5F89800FFF79AFC064604E0FFF796FCCC
:100B9000801B022865D8D5F898008007F6D4E06954
:100BA000F0B3A968C1F38101032961D00228286844
:100BB00020F0807028600BD0E86820F00300E86027
:100BC000E86847490840E860FFF778FC04464BE0D6
:100BD000FFF774FC064604E0FFF770FC801B022858
:100BE0003FD828688001F7D4F4E908016FF00F02BC
:100BF00002EB01110843218A5204490802EB4151DA
:100C0000A26841EA02210843217D4FF07E42490853
:100C100002EB41610843217B40EAC160E96800E0E2
:100C200062E0304A11400843E860286840F0807074
:100C30002860E86840F08070E860FFF73FFC0446F9
:100C400005E000BFFFF73AFC001B022809D828681E
:100C50008001F7D548E004E0FFF730FC001B0228D4
:100C600002D90320BDE8F88328688001F4D43BE072
:100C70000128F7D0E868226A00F00301914226D1EA
:100C8000616A00F0F0020901103991421FD1A26A95
:100C900000F4FE41B1EB022F19D194F82C2000F0A2
:100CA0007841B1EBC26F12D1218E00F4C002490825
:100CB0004905A1F50011914209D194F8341000F0D2
:100CC000C06049084906A1F1007181420CD00120A1
:100CD000C8E700000010024028000020007000401B
:100CE000FFFFEEFE0C809F010020BBE710B5401E09
:100CF000B0F1807F01D3012010BD4FF0E02460618E
:100D00000F21601701F050FC0020A0610720206136
:100D1000002010BDF0B590F83C20012A3AD0012502
:100D200080F83C50022280F83D2003685A689C6895
:100D3000194E1A4FB34201D0BB4204D122F4700CB9
:100D40004A6842EA0C02DFF858C002EA0C02D1F805
:100D500000C04CEA020CC3F804C00268B2420DD0D5
:100D6000B2F1804F0AD00F4B9A4207D00E4B9A42F5
:100D700004D0BA4202D00D4B9A4204D1896824F0C3
:100D800080031943916080F83D50002180F83C10A9
:100D90000846F0BD0220F0BD002C014000340140A7
:100DA0008FFFFFFD000400400008004000400140AC
:100DB00010B586B0044614216846FFF730FA0E4994
:100DC0002068884215D10D48C16C41F00101C16411
:100DD000C06C002100F0010005904020009002202E
:100DE000CDE90101CDE9031069464FF09040FFF7CE
:100DF00077FA06B010BD0000000400400010024069
:100E000070B5044690F83C000D4601280BD0012037
:100E100084F83C000C2A45D007DC5AB1042A1BD0C8
:100E2000082A78D12CE0022070BD102A4ED0142A56
:100E300071D15DE0206801F00BFA2068816941F012
:100E4000080181612068816921F0040181612068C5
:100E500081692A69114311E0206801F047FA20688E
:100E6000816941F4006181612068816921F48061B8
:100E70008161206881692A6941EA022181614AE031
:100E8000206801F07BFA2068C16941F00801C16166
:100E90002068C16921F00401C1612068C1692A6923
:100EA000114311E0206801F0B1FA2068C16941F4F2
:100EB0000061C1612068C16921F48061C16120685D
:100EC000C1692A6941EA0221C16124E0206801F078
:100ED000E5FA2068016D41F0080101652068016DA7
:100EE00021F0040101652068016D2A69114311E0B8
:100EF000206801F00BFB2068016D41F40061016581
:100F00002068016D21F4806101652068016D2A6906
:100F100041EA02210165002084F83C0070BD10B553
:100F2000040003D094F83D0010B107E0012010BD8B
:100F3000002084F83C00204600F022F8022084F8CB
:100F40003D00211D206801F02BF9012084F84800A4
:100F500084F83E0084F83F0084F8400084F84100A3
:100F600084F8420084F8430084F8440084F8450083
:100F700084F8460084F8470084F83D00002010BD46
:100F800008B500680649884208D10648816D41F0DD
:100F900002018165806D00F00200009008BD000034
:100FA0000004004000100240FEE770B50824002550
:100FB00001F04AF813E06806050E002001F02CF855
:100FC000142001F0B7FC142001F0B4FC012001F062
:100FD00023F8142001F0AEFC01F02AF80543641E4A
:100FE000E4B2E8D2002001F017F8142001F0A2FCCE
:100FF00001F04CF8284670BD10B5002001F03AF819
:10100000142001F097FC142001F094FC012001F061
:1010100003F8142001F08EFC002000F0FDFFBDE875
:101020001040142001F086BC70B50446082516E077
:1010300000F0F2FF142001F07DFC04F0800001F0CC
:1010400019F8142001F076FC6006040E142001F05B
:1010500071FC012000F0E0FF142001F06BFC6D1E1C
:10106000EDB24FF00000E3D200F0D6FFBDE87040D3
:10107000142001F05FBC10B5012000F0FBFF14202C
:1010800001F058FC142001F055FC012000F0C4FFD1
:10109000142001F04FFC002000F0BEFFBDE810401E
:1010A000142001F047BC10B5012000F0E3FF14202C
:1010B00001F040FC012000F0AFFF142001F03AFCE9
:1010C000002000F0D7FF142001F034FC002000F0D5
:1010D000A3FFBDE81040142001F02CBC10B5002087
:1010E00000F09AFF142001F025FC002000F0C2FF60
:1010F000142001F01FFC012000F08EFF142001F0ED
:1011000019FC012000F0B6FFBDE81040142001F0EA
:1011100011BC10B5052400F097FF142001F00AFC63
:10112000012000F079FF142001F004FC05E0641EAA
:10113000A4B2142001F0FEFB64B100F079FF002896
:10114000F5D100F069FF142001F0F4FB00F09EFFE0
:10115000002010BD00F09AFFFFF7C0FF012010BD76
:101160002DE9F04700F018F9894C0026DFF824A299
:10117000E1783C254FF461674FF01809884249D067
:10118000E070A168616126714FF00508012806D062
:10119000022820D003283ED004283BD17BE01F202A
:1011A00000F06AF9A0784FF46163401CB0FBF8F2DC
:1011B00008FB1200A07000EB400166701AF80120D5
:1011C00012FB03F201EB0A0041788078C1EB0111B8
:1011D00002EB81015DE0607840B1042863D2032115
:1011E000B0FBF1F201FB1200401C58E001206070DE
:1011F000A069B0FBF7F06071A069B0FBF7F107FBE5
:101200001100B0FBF5F0A071A069B0FBF5F105FB92
:101210001100E07147E06078012804D0022814D062
:10122000032840D124E060794FF46161401CB0FB99
:10123000F9F209FB120060714843A179C1EB011179
:1012400000EB810011E0A0612DE0A0794FF4616214
:10125000401CB0FBF5F105FB1100A071617911FB99
:1012600002F1C0EB001001EB8000E1790844EAE7ED
:10127000E0794FF46162401CB0FBF5F105FB110011
:10128000E071617911FB02F1A279C2EB021201EB6C
:1012900082010844D7E76078042802D004206070F7
:1012A00001E084F80180A0686169401AB0F5487FC8
:1012B0000CD3E078012809D0022809D0032829D0CE
:1012C000042803D16078042800D16670BDE8F08757
:1012D0006078401E0328F9D2A069B0FBF7F2A0782D
:1012E00000EB40010AF80120A26901EB0A00B2FB01
:1012F000F7F307FB1322B2FBF5F24270A169B1FBD1
:10130000F5F205FB121181700F222249002000F036
:10131000FFFBDAE76078012817D0022825D00328E0
:10132000D4D1E0794FF46162401CB0FBF5F105FBCC
:101330001100E071617911FB02F1A279C2EB021296
:1013400001EB82010844A061C0E760794FF461615C
:10135000401CB0FBF9F209FB120060714843A1790F
:10136000C1EB011100EB81000FE0A0794FF4616245
:10137000401CB0FBF5F105FB1100A071617911FB78
:1013800002F1C0EB001001EB8000E1790844DAE7DC
:10139000080000203800002070B51F4D00240121F6
:1013A0002846FFF781F840B90A20FEF787FF0121A0
:1013B0002846FFF779F800B9012402212846FFF7F3
:1013C00073F840B90A20FEF779FF02212846FFF79B
:1013D0006BF800B9022404212846FFF765F840B9EC
:1013E0000A20FEF76BFF04212846FFF75DF800B9DD
:1013F00003244FF0904501212846FFF755F840B9E6
:101400000A20FEF75BFF01212846FFF74DF800B9DF
:101410000424204670BD00000004004800B585B0DB
:1014200014216846FEF7FBFE4FF6FF700090002087
:101430000321CDE90201019069460248FEF750FF01
:1014400005B000BD0008004800B585B0142168460D
:10145000FEF7E5FE4FF6FF7000900120019003209B
:1014600003900020029069460248FEF739FF05B05C
:1014700000BD00000008004870B500240646214663
:10148000204600F049FA00F087FA4FF496353046CE
:1014900000F056FA641CAC42F9D370BD30B587B089
:1014A00014216846FEF7BBFE1E48C16C41F00401E2
:1014B000C164C16C01F004010591C16C41F00101EE
:1014C000C164C16C01F001010591C16C41F00201E0
:1014D000C164C06C012500F0020005904FF4487013
:1014E000CDE9000500240394694602940E48FEF7F6
:1014F000F7FE280203940090CDE901544FF0904488
:1015000069462046FEF7ECFEFFF79EFFA06940F417
:101510008070A06104481830016841F408710160CE
:1015200007B030BD0010024000040048203AD2B29B
:10153000034B02EB420203EB021200F019B8000069
:10154000D0290008F0B50E460746002540F23F14AA
:1015500007E021463846FFF7E9FF103C6D1CA4B2B6
:10156000761C3278002A01D0142DF2D3F0BD000091
:101570002DE9F04791468A460026044600F0CCF952
:10158000DFF84080012700BF00F006FA5FF0000599
:1015900039F8160007FA05F10842404601D14088A3
:1015A00000E0008800F0CCF96D1C102DF0D3641C15
:1015B000E4B25146204600F0AFF9761C182EE3D372
:1015C000BDE8F0870000002010B5FFF767FF00209E
:1015D00000F05AF9084CA080A088A0F502413039EB
:1015E00006D000F017FC002000F04EF9A08010BDDE
:1015F00000F087FBF7E70000000000202DE9F0472E
:1016000088B01C2101A8FEF70AFE864CA1694FF4A0
:101610006160B1FBF0F1CFB2A169B1FBF0F200FB68
:1016200012113C20B1FBF0F1CEB2A169B1FBF0F296
:1016300000FB1215A2787CA101A8521C00F0A0FFAB
:1016400001A93020FFF77EFF607808B103280AD98E
:1016500033463A4677A101A8009500F091FF01A911
:101660004820FFF76FFFA04660780A244FF47849BE
:101670004FF6FF7A012804D0022830D0032873D017
:10168000B5E0484600F054F9B7FBF4F03030C2B290
:10169000EF214820FFF74AFFB7FBF4F004FB10727C
:1016A000DF2148203032FFF741FF504600F040F97B
:1016B0003A22CF214820FFF739FFB6FBF4F0303053
:1016C000C2B2BF214820FFF731FFB6FBF4F004FBA4
:1016D0001062AF2148203032FFF728FF2CE0B7FB23
:1016E000F4F03030C2B2EF214820FFF71FFFB7FB04
:1016F000F4F004FB1072DF2148203032FFF716FFB0
:101700003A22CF214820FFF711FF484600F010F998
:10171000B6FBF4F03030C2B2BF214820FFF706FF1D
:10172000B6FBF4F004FB1062AF2148203032FFF723
:10173000FDFE504600F0FCF83A229F214820FFF7BA
:10174000F5FEB5FBF4F03030C2B28F214820FFF730
:10175000EDFEB5FBF4F004FB10527F21482030323F
:10176000FFF7E4FE43E0FFE7B7FBF4F03030C2B22E
:10177000EF214820FFF7DAFEB7FBF4F004FB10720C
:10178000DF2148203032FFF7D1FE3A22CF21482016
:10179000FFF7CCFEB6FBF4F03030C2B2BF214820D8
:1017A000FFF7C4FEB6FBF4F004FB1062AF21482043
:1017B0003032FFF7BBFE3A229F214820FFF7B6FEEA
:1017C000484600F0B5F8B5FBF4F03030C2B28F21D6
:1017D0004820FFF7ABFEB5FBF4F004FB10527F216D
:1017E00048203032FFF7A2FE504600F0A1F898F8EA
:1017F000010006280AD2DFE800F0030505051012F3
:1018000011A100E014A101A8FEF714FD01A96020B8
:10181000FFF798FE08B0BDE8F08713A1F3E716A123
:10182000F1E700000800002020202020204E6F2E2D
:10183000256400002020202020253032643A253005
:1018400032643A2530326400202020202053746115
:101850006E6462790000000020202020205365740F
:1018600074696E6700000000202020202052756EF1
:101870006E696E67000000002020202020506175F6
:10188000736520200000000070B51D490A6842F40D
:1018900000720A600A6842F480720A60184C103CB8
:1018A000226842F020022260164A1060086840F068
:1018B0002000086000BF00BF00BF206840F020008B
:1018C0002060206840F480702060FFF7A7FD4FF093
:1018D0009041886A40F48070886200BF00BF00BFFA
:1018E0000848001F006885B2886940F480708861EC
:1018F000FFF7AAFD206840F400702060284670BD04
:10190000280400481408004801B5BDF8000001494A
:10191000488008BD0000002010B50C46014620207C
:1019200000F068F82146BDE81040212000F062B8C0
:1019300001B5BDF800000149088008BD0000002085
:10194000134A116841F400711160114910390B6894
:1019500043F480730B600B6843F020030B600D4B66
:101960001860106840F02000106000BF00BF00BF8A
:10197000086840F020000860086840F48070086043
:1019800000BF00BF00BF086840F4007008607047E7
:1019900028040048140800481449086840F40070FE
:1019A0000860086840F480700860104810380268C9
:1019B00042F0200202600E4B22221A600A6842F0B6
:1019C00020020A6000BF00BF00BF016841F0200193
:1019D0000160016841F48071016000BF00BF00BF79
:1019E000016841F40071016070470000280400485C
:1019F00014080048184B10B51A6842F400721A60B7
:101A00001A6842F480721A60134A103A146844F05B
:101A100020041460114C2060186840F02000186009
:101A200000BF00BF00BF106840F0200010601068C9
:101A300040F4807010602160186840F02000186049
:101A400000BF00BF00BF106840F0200010601068A9
:101A500040F48070106010BD28040048140800484D
:101A6000084910B5C04300020860074C0122042158
:101A70002046FEF71EFD20460022BDE8104004214E
:101A8000FEF717BD14080048000C00480A4801463C
:101A900042780978042A02D021F0010107E0D0E958
:101AA00003329A4204D0C26881F0010102610170E0
:101AB0000078FFF7D5BF00000800002070B515467C
:101AC0000C460646FFF7EFFAA020FFF7ADFAFFF746
:101AD00020FB3046FFF7A8FAFFF71BFBFFF7E3FAFE
:101AE000A120FFF7A1FAFFF714FB09E0FFF75DFA69
:101AF00004F8010B15B1FFF77FFA01E0FFF7BBFA1D
:101B00006D1EEDB2F2D2BDE87040FFF7E7BA0000FB
:101B100070B515460C460646FFF7C5FAA020FFF73C
:101B200083FAFFF7F6FA304602E000BF14F8010B23
:101B3000FFF77AFAFFF7EDFA6D1EEDB2F6D2FFF776
:101B4000CDFABDE870404FF4FA7000F0F3BE00002B
:101B50002DE9F04786B014216846FEF760FB454842
:101B6000C16C41F00401C164C16C01F00401059134
:101B7000C16C41F02001C164C16C01F020010591EC
:101B8000C16C41F00101C164C16C01F0010105911A
:101B9000C16C41F00201C164C16C01F00201059108
:101BA000C16C41F00801C164C06C334F00F0080003
:101BB0004FF6FF740590002221463846FEF779FC67
:101BC0004FF480764FF09048002231464046FEF7B1
:101BD00070FCDFF8A890002204214846FEF769FC5B
:101BE000DFF89CA000224FF478715046FEF761FCAC
:101BF0000125CDE900450024029469463846039446
:101C0000FEF76EFBCDE90054694640460294FEF7AC
:101C100067FB0720CDE90004694650460294FEF7B1
:101C20005FFB0096CDE90154694640460394FEF7F8
:101C300057FB04200090CDE90154694648460394BF
:101C4000FEF74EFB4FF448700090CDE90154694611
:101C500050460394FEF744FBC02000901120CDE9CC
:101C60000104694650460394FEF73AFB06B0BDE80E
:101C7000F08700000010024000080048000C0048F7
:101C80000004004810B58AB00024079408941C2171
:101C900068460994FEF7C3FA1748164901604F21B8
:101CA000C0E9011440F2E731C0E903148461FFF791
:101CB00036F908B1FEF700FB079407A90E4809940E
:101CC000FFF728F808B1FEF7F7FA602000904FF40C
:101CD0004870CDE901040022694607480494FFF7E3
:101CE0008FF808B1FEF7E8FA0348FFF761F80AB089
:101CF00010BD00000004004048000020FEE77047CF
:101D0000704730B501210020FFF774FE4FF47A7060
:101D1000FEF7C4FA00210120FFF76CFE41F290713A
:101D20001020FFF767FE4FF41C516020FFF762FEA2
:101D300001216120FFF75EFE02214620FFF75AFED7
:101D400048F210011320FFF755FE48F2FE01122061
:101D5000FFF750FE4FF4A0610220FFF74BFE41F267
:101D600030010320FFF746FE40F2033421463020C5
:101D7000FFF740FE21463120FFF73CFE214632208E
:101D8000FFF738FEE51E29463320FFF733FE032117
:101D90003420FFF72FFE21463520FFF72BFE1421BC
:101DA0003620FFF727FE21463720FFF723FE214686
:101DB0003820FFF71FFE21463920FFF71BFE29467A
:101DC0003A20FFF717FE03213B20FFF713FE2146C1
:101DD0003C20FFF70FFE4FF4A0513D20FFF70AFE15
:101DE0004FF400719220FFF705FE21469320FFF784
:101DF00001FE40F60D019020FFF7FCFD41F21801B5
:101E00000320FFF7F7FDBDE8304040F273110720D3
:101E1000FFF7F0BD10B543F20801E320FFF7EAFD3C
:101E20001221E720FFF7E6FD41F23121EF20FFF715
:101E3000E1FD00210120FFF7DDFD4FF4E06102200C
:101E4000FFF7D8FD41F230010320FFF7D3FD002159
:101E50000420FFF7CFFD40F207210820FFF7CAFD5D
:101E600000210920FFF7C6FD00210A20FFF7C2FD6F
:101E700000210C20FFF7BEFD00210D20FFF7BAFD69
:101E800000210F20FFF7B6FD00211020FFF7B2FD63
:101E900007211120FFF7AEFD00211220FFF7AAFD58
:101EA00000211320FFF7A6FDC820FEF707FA41F234
:101EB00090611020FFF79EFD40F227211120FFF7CF
:101EC00099FD3220FEF7FAF91D211220FFF792FD4D
:101ED0003220FEF7F3F94FF400611320FFF78AFD7B
:101EE00014212920FFF786FD0B212B20FFF782FD0F
:101EF0003220FEF7E3F900212020FFF77BFD0021CF
:101F00002120FFF777FD07213020FFF773FD40F216
:101F100007713120FFF76EFD06213220FFF76AFDC1
:101F200040F204713520FFF765FD41F6047136205B
:101F3000FFF760FD04213720FFF75CFD002138200A
:101F4000FFF758FD40F206713920FFF753FD40F2CC
:101F500001713C20FFF74EFD0F213D20FFF74AFDA8
:101F600000215020FFF746FDEF215120FFF742FDF1
:101F700000215220FFF73EFD40F23F115320FFF7B2
:101F800039FD4FF41C516020FFF734FD0121612021
:101F9000FFF730FD00216A20FFF72CFD0021802093
:101FA000FFF728FD00218120FFF724FD002182207A
:101FB000FFF720FD00218320FFF71CFD0021842076
:101FC000FFF718FD00218520FFF714FD1021902058
:101FD000FFF710FD00219220FFF70CFD0321932055
:101FE000FFF708FD4FF488719520FFF703FD0021EE
:101FF0009720FFF7FFFC00219820FFF7FBFC41F240
:1020000018010320FFF7F6FCBDE8104040F2731101
:102010000720FFF7EFBC000008B1044801E00348C7
:102020001030016841F04001016070471804004819
:1020300010B580210348FEF737FA012800D00020B0
:1020400010BD00000004004800B585B014216846AA
:10205000FEF7E5F88020009000200190012002901A
:102060000220039069460248FEF73AF905B000BD28
:102070000004004808B1044801E00348103001683A
:1020800041F08001016070471804004800B585B038
:1020900014216846FEF7C3F88020009011200190BB
:1020A000002002900220039069460248FEF718F9CA
:1020B00005B000BD000400487047000010B5FEF7F1
:1020C00003FA15480168491C016001684FF4FA726F
:1020D000B1FBF2F302FB131119B910490A68521C43
:1020E0000A6000684FF47A71B0FBF1F201FB120054
:1020F00000280DD10A480168491C01600949087887
:10210000042805D1084802681AB10168491E016017
:1021100010BD0020087010BD100000202400002019
:1021200014000020090000202000002010B594B009
:1021300038216846FEF773F814210EA8FEF76FF8F1
:102140004FF40070FEF748FA01200090000401905F
:1021500002200324CDE907041421CDE90A100C90D4
:102160000D9009946846FEF7BBFB0F20CDE90E04E5
:10217000002010901190129003210EA8FEF78AFA09
:1021800014B010BD0548016841F4700101600349B5
:102190004FF00060803908607047000088ED00E073
:1021A0002DE9F0430268234B234D244E244C4FF07D
:1021B0008049984207D0484505D0A84203D0B04294
:1021C00001D0A04203D122F070074A683A431D4F64
:1021D000DFF874C0DFF8748098420DD048450BD00A
:1021E000A84209D0B04207D0A04205D0B84203D0DF
:1021F000604501D0404503D122F44075CA682A43A6
:102200004D6922F080022A4302608A68C2620A682D
:102210008262984207D0A04205D0B84203D0604500
:1022200001D0404501D10969016301214161BDE847
:10223000F0830000002C0140000400400008004032
:10224000003401400040014000440140004801408A
:102250002DE9F043026A22F001020262056A436836
:1022600082691C4C25F0020522400C6822F0030212
:1022700014438A68194E2A43174D194FDFF864C07A
:10228000DFF86490A84207D0B04205D0B84203D02E
:10229000604501D0484506D122F00808CA6842EAE4
:1022A000080222F00402A84207D0B04205D0B8428A
:1022B00003D0604501D0484505D14D6923F44073F2
:1022C0001D438B692B43436084614968416302620B
:1022D000BDE8F0838FFFFEFF002C01400034014079
:1022E000004001400044014000480140F0B5026A4E
:1022F00022F010020262056A42688369194C1B4E83
:1023000023400C6823F4407343EA042425F020039F
:102310008D6843EA0513144DA84201D0B04206D19E
:10232000CF6823F0800343EA071323F04003A84259
:102330000AD0B04208D00E4DA84205D00D4DA8429B
:1023400002D00D4DA84207D14D6922F4406242EA05
:1023500085028D6942EA8502426084614968816331
:102360000362F0BDFF8FFFFE002C014000340140EE
:10237000004001400044014000480140F0B5026ABD
:1023800022F480720262056A4368C269194C1B4ECE
:1023900022400C6822F00302144325F400728D6879
:1023A00042EA0522144DA84201D0B04206D1CF68BE
:1023B00022F4006242EA072222F48062A8420AD094
:1023C000B04208D00E4DA84205D00E4DA84202D012
:1023D0000D4DA84207D14D6923F4405343EA05133C
:1023E0008D6943EA05134360C4614968C1630262B1
:1023F000F0BD00008FFFFEFF002C014000340140C3
:10240000004001400044014000480140F0B5026A2C
:1024100022F480520262056A4268C369194C1B4E5D
:1024200023400C6823F4407343EA042425F400534A
:102430008D6843EA0533144DA84201D0B04206D15D
:10244000CF6823F4004343EA073323F48043A842D0
:102450000AD0B04208D00E4DA84205D00D4DA8427A
:1024600002D00D4DA84207D14D6922F4404242EA04
:1024700085128D6942EA85124260C461496801642F
:102480000362F0BDFF8FFFFE002C014000340140CD
:1024900000400140004401400048014030B5026A5C
:1024A00022F480320262046A4268036D114D2B40AF
:1024B0000D681D4324F400330C8943EA04430E4C99
:1024C000A0420BD00D4CA04208D00D4CA04205D02C
:1024D0000C4CA04202D00C4CA04204D14C6922F416
:1024E000803242EA042242600565496881640362E1
:1024F00030BD00008FFFFEFF002C01400034014082
:1025000000400140004401400048014030B5026AEB
:1025100022F480120262046A4268036D114D24F4B1
:1025200000142B400D6843EA05230D8944EA055445
:102530000D4DA8420BD00D4DA84208D00C4DA8421D
:1025400005D00C4DA84202D00B4DA84204D14D69D4
:1025500022F4802242EA8522426003654968C16410
:10256000046230BDFF8FFFFE002C014000340140AB
:10257000004001400044014000480140FEE70000E7
:102580000FB4084B10B504A902AA039800F02CF868
:10259000044602A9002000F0C8F9204610BC5DF8EE
:1025A00014FB00002B2900080907090E002804DB92
:1025B00000F1E02080F80014704700F00F0000F1F7
:1025C000E02080F8141D704702E008C8121F08C1FF
:1025D000002AFAD170477047002001E001C1121FA4
:1025E000002AFBD1704700002DE9FF4F8BB08846D1
:1025F0000546002606E025280BD0DDE90D129047A0
:102600006D1C761C28780028F5D10FB03046BDE847
:10261000F08F0024A146A2460122AE4900E0044307
:1026200015F8013F203B02FA03F00842F7D1287861
:102630002A2810D06FF02F022878A0F13001092944
:1026400015D809EB890102EB410144F0020400EBCB
:1026500001096D1CF0E758F8041B5FEA010903D576
:1026600044F40054C9F1000944F002046D1C2878B8
:102670002E2817D115F8010F44F004042A280ED093
:102680006FF02F022878A0F1300109290AD80AEB4F
:102690008A0102EB410100EB010A6D1CF2E758F8D8
:1026A00004AB6D1C28786C280FD006DC4C2817D0A2
:1026B00068280DD06A2814D104E0742810D07A2834
:1026C0000FD10DE044F400140AE044F4801401E05A
:1026D00044F440146978814202D104F580146D1CE1
:1026E0006D1C2878692865D006DC00288DD0632809
:1026F00027D0642806D15DE06E2808D073282AD040
:10270000752877D0DDE90D129047761CE0E0C4F320
:102710000250022809D003280DD0D8F80010042850
:102720000DD00E6008F10408D2E0D8F80010F217BE
:10273000C1E90062F6E7D8F800100E80F2E70E70EB
:10274000F0E718F8041B8DF8001000208DF8010048
:10275000EB46012003E058F804BB4FF0FF3061075F
:102760004FF0000701D40AE07F1C57450DDA87427D
:10277000FADB1BF807100029F6D106E07F1C874220
:10278000FCDB1BF807100029F8D1DDE90D23A9EBCC
:1027900007008146214600F0B1F83044C61904E034
:1027A000DDE90D121BF8010B90477F1EF8D2214680
:1027B000484688E058F8040BC4F302514FF00A0B66
:1027C000032900D100B2042900D140B2002802DA66
:1027D00040422D2102E0210505D52B218DF8241042
:1027E000012104E006E0E10710D02021F6E708AF60
:1027F000089113E058F8040BC4F302514FF00A0B90
:10280000032900D180B2042900D1C0B20021EEE733
:102810005946FDF718FD303107F8011D0028F7D1A2
:10282000ADEB070000F1200B600702D524F48034E3
:1028300001E04FF0010ADA4502DDAAEB0B0000E0EF
:102840000020824600EB0B0108980144A9EB01002F
:102850000A90E00306D4DDE90D2321460A9800F032
:102860004DF806444FF0000908E009A911F80900E5
:10287000DDE90D12904709F10109761C0899894597
:10288000F3DBE0030CD5DDE90D2321460A9800F0C7
:1028900035F8064404E0DDE90D1230209047761C3F
:1028A000BAF10001AAF1010AF5DC05E0DDE90D123B
:1028B00017F8010B9047761CBBF10001ABF1010B3F
:1028C000F4DC0A982146DDE90D2300F005F8064402
:1028D0006D1C97E6092801002DE9F041044600250A
:1028E0001E461746880404D405E039462020B04728
:1028F0006D1C641EF9D52846BDE8F0812DE9F04134
:10290000044600251E469046C80301D5302700E046
:102910002027880404D505E041463846B0476D1CA1
:10292000641EF9D52846BDE8F0810A68531C0B6087
:1029300010707047002100E0491C8142FCD37047B1
:10294000FDF7CAFDFFF7F2FBFFF702F9FFF79AF96F
:10295000FEF73AFE1F20FEF78FFD1F20FEF7D4FF83
:102960004FF6FF70FEF7E4FF0F2217490020FFF734
:10297000A5F8002014490323024600BFB0FBF3F47E
:1029800003FB14041CB90C5C182C00D30A54401C23
:10299000C0B20F28F2D30D484FF4616382704270C9
:1029A0000A7812FB03F24B788978C3EB031302EB2E
:1029B00083021144C0F81810FEF720FEFFF766F8F6
:1029C000FEF7CEFBF8E700003800002008000020EA
:1029D00000000000000000000000000000000000F7
:1029E00000000000000000000000000000000000E7
:1029F00000000000000000000000000000000000D7
:102A0000000080018001800180018001800180013F
:102A100080018001800180018001800100000000B0
:102A200080018001000000000000000000000000A4
:102A300000000000CC00CC00CC00CC00CC00CC00CE
:102A40000000000000000000000000000000000086
:102A50000000000000000000000000000000000076
:102A6000000000000000000000000000600C600C8E
:102A7000600C30063006FE1FFE1F300638071803B4
:102A8000FE1FFE1F180318038C018C018C0100002F
:102A900000008000E003F80F9C0E8C1C8C188C004A
:102AA0009800F801E007800E801C8C188C189C1888
:102AB000B80CF00FE0038000800000000000000070
:102AC0000000000000000E181B0C110C110611066E
:102AD000110311039B018E01C038C06C6044604437
:102AE000304430441844186C0C38000000000000DA
:102AF0000000E001F0033807180618063003F00163
:102B0000F000F8009C310E33061E061C061C063F22
:102B1000FC73F02100000000000000000000000035
:102B2000000000000C000C000C000C000C000C005D
:102B30000000000000000000000000000000000095
:102B40000000000000000000000000000000000085
:102B50000000000200038001C000C00060006000AF
:102B600030003000300030003000300030003000E5
:102B700060006000C000C00080010003000200008F
:102B8000000020006000C0008001800100030003FD
:102B90000006000600060006000600060006000605
:102BA0000003000380018001C000600020000000DD
:102BB000000000000000000000000000C000C00095
:102BC000D806F807E00130033807000000000000D5
:102BD00000000000000000000000000000000000F5
:102BE00000000000000000000000000080018001E3
:102BF000800180018001FC3FFC3F80018001800159
:102C000080018001000000000000000000000000C2
:102C100000000000000000000000000000000000B4
:102C200000000000000000000000000000000000A4
:102C30000000800180010001000180000000000010
:102C40000000000000000000000000000000000084
:102C50000000000000000000E007E00700000000A6
:102C60000000000000000000000000000000000064
:102C70000000000000000000000000000000000054
:102C80000000000000000000000000000000000044
:102C90000000C000C00000000000000000000000B4
:102CA0000000000C000C00060006000600030003F4
:102CB00000038003800180018001C000C000C000CB
:102CC0006000600000000000000000000000000044
:102CD0000000E003F007380E180C0C180C180C1844
:102CE0000C180C180C180C180C180C18180C380EA2
:102CF000F007E003000000000000000000000000FA
:102D0000000000018001C001F001980188018001EC
:102D100080018001800180018001800180018001AB
:102D200080018001000000000000000000000000A1
:102D30000000E003F80F180C0C180C18001800180D
:102D4000000C000600038001C00060003000180085
:102D5000FC1FFC1F0000000000000000000000003D
:102D60000000E001F807180E0C0C0C0C000C00061B
:102D7000C003C007000C001800180C180C18180C21
:102D8000F807E00300000000000000000000000061
:102D90000000000C000E000F000F800DC00C600C36
:102DA000600C300C180C0C0CFC3FFC3F000C000CB1
:102DB000000C000C000000000000000000000000FB
:102DC0000000F80FF80F180018000C00EC03FC07C7
:102DD0001C0E001C0018001800180C181C0C180EF3
:102DE000F807E00300000000000000000000000001
:102DF0000000C007F00F381C181818000C00CC0396
:102E0000EC0F3C0E1C1C0C180C180C18181C380E5F
:102E1000F007E003000000000000000000000000D8
:102E20000000FC1FFC1F000C0006000600038003CE
:102E30008001C001C000E000600060007000300050
:102E40003000300000000000000000000000000022
:102E50000000E003F007380E180C180C180C3806A8
:102E6000F007F007180C0C180C180C180C18380C7C
:102E7000F80FE00300000000000000000000000068
:102E80000000E003F007380E1C0C0C180C180C188E
:102E90001C1C381EF81BE0190018000C000C1C0E3E
:102EA000F807F00100000000000000000000000032
:102EB0000000000000000000000000008001800110
:102EC0000000000000000000000000000000000002
:102ED00080018001000000000000000000000000F0
:102EE00000000000000000000000000080018001E0
:102EF00000000000000000000000000000000000D2
:102F0000800180010001000180000000000000003D
:102F100000000000000000000000000000000000B1
:102F20000010001C800FE003F8001800F800E00318
:102F3000800F001C001000000000000000000000D6
:102F40000000000000000000000000000000000081
:102F5000F81F000000000000F81F00000000000043
:102F60000000000000000000000000000000000061
:102F70000000000000000000000000000000000051
:102F800008003800F001C007001F0018001FC0072C
:102F9000F001380008000000000000000000000000
:102FA0000000E003F80F180C0C180C180018000CA7
:102FB000000600038001C000C000C0000000000047
:102FC000C000C00000000000000000000000000081
:102FD00000000000E00718180420C229224A11440A
:102FE00009440944094409221113E20C0240042057
:102FF0001818E007000000000000000000000000BA
:10300000000080038003C006C006C006600C600C90
:10301000301830183018F83FF83F1C700C600C6006
:1030200006C006C000000000000000000000000014
:103030000000FC03FC0F0C0C0C180C180C180C0CEA
:10304000FC07FC0F0C180C300C300C300C300C183A
:10305000FC1FFC0700000000000000000000000052
:103060000000C007F01F38381C300C7006600600E6
:103070000600060006000600060006600C701C3004
:10308000F01FE0070000000000000000000000004A
:103090000000FE03FE0F060E061806180630063066
:1030A0000630063006300630063006180618060EC2
:1030B000FE0FFE0300000000000000000000000002
:1030C0000000FC3FFC3F0C000C000C000C000C004E
:1030D000FC1FFC1F0C000C000C000C000C000C0072
:1030E000FC3FFC3F0000000000000000000000006A
:1030F0000000F83FF83F18001800180018001800EA
:10310000F81FF81F18001800180018001800180001
:10311000180018000000000000000000000000007F
:103120000000E00FF83F3C780E6006E007C00300A7
:10313000030003FE03FE03C007C006C00EC03CF040
:10314000F83FE00F00000000000000000000000059
:1031500000000C300C300C300C300C300C300C30CB
:10316000FC3FFC3F0C300C300C300C300C300C3081
:103170000C300C30000000000000000000000000D7
:1031800000008001800180018001800180018001B8
:103190008001800180018001800180018001800127
:1031A000800180010000000000000000000000001D
:1031B00000000006000600060006000600060006E5
:1031C0000006000600060006000618061806380766
:1031D000F003E0010000000000000000000000001B
:1031E000000006300618060C060606038601C60017
:1031F00066007600DE008E0106030606060C061841
:103200000630066000000000000000000000000022
:103210000000180018001800180018001800180006
:1032200018001800180018001800180018001800DE
:10323000F81FF81F00000000000000000000000060
:1032400000000EE01EF01EF01EF036D836D836D83C
:1032500036D866CC66CC66CCC6C6C6C6C6C6C6C69A
:1032600086C386C3000000000000000000000000CC
:1032700000000C301C303C303C306C306C30CC30BA
:10328000CC308C310C330C330C360C360C3C0C3CF3
:103290000C380C30000000000000000000000000AE
:1032A0000000E007F81F1C380E70066003C003C062
:1032B00003C003C003C003C003C006600E701C3807
:1032C000F81FE00700000000000000000000000000
:1032D0000000FC0FFC1F0C380C300C300C300C3094
:1032E0000C18FC1FFC070C000C000C000C000C0060
:1032F0000C000C00000000000000000000000000B6
:103300000000E007F81F1C380E70066003E003C0E1
:1033100003C003C003C003C007E006630E3F1C3CAC
:10332000F83FE0F700C000000000000000000000CF
:103330000000FE0FFE1F0638063006300630063845
:10334000FE1FFE0706030606060C061806180630C2
:1033500006300660000000000000000000000000D1
:103360000000E003F80F1C0C0C180C180C001C00DB
:10337000F803E00F001E0038063006300E301C1C2B
:10338000F80FE0070000000000000000000000004F
:103390000000FE7FFE7F80018001800180018001AE
:1033A0008001800180018001800180018001800115
:1033B000800180010000000000000000000000000B
:1033C00000000C300C300C300C300C300C300C3059
:1033D0000C300C300C300C300C300C300C30181819
:1033E000F81FE007000000000000000000000000DF
:1033F000000003600630063006300C180C180C185C
:10340000180C180C380E3006300670076003600385
:10341000C001C0010000000000000000000000002A
:1034200000000360C361C361C36166336633663302
:103430006633663366336C1B6C1B6C1B2C1A3C1E8C
:10344000380E380E000000000000000000000000F0
:1034500000000FE00C7018303018700C600EC007C0
:1034600080038003C003E006700C301C18180C3079
:103470000E6007E0000000000000000000000000F7
:10348000000003C006600C301C383818300C600691
:10349000E007C0038001800180018001800180017C
:1034A000800180010000000000000000000000001A
:1034B0000000FC7FFC7F006000300018000C00065C
:1034C00000038001C0006000300018000C000600FE
:1034D000FE7FFE7F000000000000000000000000F2
:1034E0000000E003E0036000600060006000600036
:1034F00060006000600060006000600060006000CC
:1035000060006000600060006000E003E003000015
:10351000000030003000600060006000C000C000AB
:10352000C000C0018001800180010003000300038E
:10353000000600060000000000000000000000007F
:103540000000E003E00300030003000300030003A6
:103550000003000300030003000300030003000353
:1035600000030003000300030003E003E003000086
:1035700000000000C001C00160036003600330066A
:103580003006180C180C00000000000000000000BD
:10359000000000000000000000000000000000002B
:1035A000000000000000000000000000000000001B
:1035B000000000000000000000000000000000000B
:1035C0000000FFFFFFFF00000000000000000000FF
:1035D00000000C000C000C000C000C000C000000A3
:1035E00000000000000000000000000000000000DB
:1035F00000000000000000000000000000000000CB
:10360000000000000000000000000000F003F807C8
:103610001C0C0C0C000FF00FF80C0C0C0C0C1C0FFD
:10362000F80FF0180000000000000000000000008B
:10363000000018001800180018001800D803F80F30
:10364000380C181818181818181818181818380CD2
:10365000F80FD80300000000000000000000000088
:10366000000000000000000000000000C003F007A0
:10367000300E180C1800180018001800180C300E26
:10368000F007C00300000000000000000000000080
:10369000000000180018001800180018C01BF01FC8
:1036A000301C181818181818181818181818301C62
:1036B000F01FC01B00000000000000000000000020
:1036C000000000000000000000000000C003F00F38
:1036D000300C1818F81FF81F180018003818301C84
:1036E000F00FC00700000000000000000000000014
:1036F0000000800FC00FC000C000C000F007F0073E
:10370000C000C000C000C000C000C000C000C000B9
:10371000C000C00000000000000000000000000029
:10372000000000000000000000000000E00DF80FA5
:10373000180E0C0C0C0C0C0C0C0C0C0C0C0C180EAD
:10374000F80FE00D000C0C0C1C06F807F00100004F
:10375000000018001800180018001800D807F80F0B
:10376000381C1818181818181818181818181818B5
:1037700018181818000000000000000000000000E9
:103780000000C000C000000000000000C000C00039
:10379000C000C000C000C000C000C000C000C00029
:1037A000C000C00000000000000000000000000099
:1037B0000000C000C000000000000000C000C00009
:1037C000C000C000C000C000C000C000C000C000F9
:1037D000C000C000C000C000C000F80078000000B9
:1037E00000000C000C000C000C000C000C0C0C0673
:1037F0000C038C01CC006C00FC009C018C030C03BE
:103800000C060C0C0000000000000000000000008E
:103810000000C000C000C000C000C000C000C00068
:10382000C000C000C000C000C000C000C000C00098
:10383000C000C00000000000000000000000000008
:103840000000000000000000000000007C3CFF7E43
:10385000C7E383C183C183C183C183C183C183C1E2
:1038600083C183C1000000000000000000000000D0
:103870000000000000000000000000009807F80FA2
:10388000381C181818181818181818181818181894
:1038900018181818000000000000000000000000C8
:1038A000000000000000000000000000C003F00F56
:1038B000300C181818181818181818181818300C70
:1038C000F00FC00300000000000000000000000036
:1038D000000000000000000000000000D803F80F06
:1038E000380C181818181818181818181818380C30
:1038F000F80FD8031800180018001800180000006E
:10390000000000000000000000000000C01BF01FCD
:10391000301C181818181818181818181818301CEF
:10392000F01FC01B00180018001800180018000035
:10393000000000000000000000000000B007F003DD
:1039400070003000300030003000300030003000B7
:103950003000300000000000000000000000000007
:10396000000000000000000000000000E003F00381
:10397000380E180C3800F003C007000C180C380E75
:10398000F007E0030000000000000000000000005D
:10399000000000008000C000C000C000F007F00779
:1039A000C000C000C000C000C000C000C000C00017
:1039B000C0078007000000000000000000000000B9
:1039C0000000000000000000000000001818181897
:1039D0001818181818181818181818181818381C43
:1039E000F01FE019000000000000000000000000CF
:1039F0000000000000000000000000000C18180C7F
:103A0000180C180C300630063006600360036003A3
:103A1000C001C00100000000000000000000000024
:103A2000000000000000000000000000C141C14192
:103A3000C3616363636363633636363636361C1C94
:103A40001C1C1C1C00000000000000000000000006
:103A50000000000000000000000000001C38381CBE
:103A6000300C600660036003600360036006300C86
:103A7000381C1C380000000000000000000000009E
:103A800000000000000000000000000018303018A6
:103A900030187018600C600CE00CC006C006800383
:103AA0008003800380018001C001F00070000000ED
:103AB000000000000000000000000000FC1FFC1FD0
:103AC000000C000600038001C000600030001800F8
:103AD000FC1FFC1F000000000000000000000000B0
:103AE000000000038001C000C000C000C000C00092
:103AF000C00060006000300060004000C000C000F6
:103B0000C000C000C000C000800100030000000031
:103B1000000080018001800180018001800180011E
:103B2000800180018001800180018001800180018D
:103B300080018001800180018001800180010000FE
:103B400000006000C000C001800180018001800190
:103B500080010003000300060003000180018001D2
:103B60008001800180018001C00060000000000031
:103B70000000000000000000000000000000000045
:103B8000F010F81F080F0000000000000000000007
:103B90000000000000000000000000000000000025
:103BA00000000000000000000102030406070809ED
:103BB000D03B00080000002038000000C8250008A5
:103BC000083C00083800002060040000D8250008E8
:103BD0000000FFFF000000000000000000000000E7
:103BE00000000000000000000000000000000000D5
:103BF00000000000000000001000000001000000B4
:083C0000000000000024F400A4
:04000005080001D915
:00000001FF
