:020000040800F2
:1000000038060020ED01000877480008673A00082C
:1000100075480008750F0008CD5D0008000000005D
:10002000000000000000000000000000314C00084B
:10003000770F00080000000079480008354C0008E0
:10004000070200080702000807020008070200086C
:10005000070200080702000807020008070200085C
:10006000070200080702000807020008070200084C
:10007000070200080702000807020008070200083C
:10008000070200080000000007020008070200083D
:10009000070200080702000807020008070200081C
:1000A000070200080702000807020008070200080C
:1000B000F54C0008070200080702000807020008C4
:1000C00007020008070200080702000807020008EC
:1000D00007020008C15D00080702000807020008C7
:1000E00007020008070200080702000807020008CC
:1000F00007020008070200080702000800000000CD
:1001000000000000070200080000000007020008CD
:1001100007020008000000000702000807020008AC
:10012000070200080702000807020008070200088B
:10013000070200080000000000000000070200089D
:10014000070200080702000800000000000000008D
:10015000000000000000000000000000000000009F
:10016000000000000000000000000000070200087E
:10017000070200080000000000000000000000006E
:10018000000000000702000800000000000000005E
:10019000000000000000000000000000000000005F
:1001A000000000000000000007020008070200082D
:1001B000070200080702000807020008000000000C
:1001C000000000000702000800000000000000001E
:1001D0000702000807020008DFF80CD000F056FC08
:1001E000004800470167000838060020064880479D
:1001F00006480047FEE7FEE7FEE7FEE7FEE7FEE70C
:10020000FEE7FEE7FEE7FEE7D94C0008D90100084B
:100210002DE9F05F0546002092469B46884606463B
:10022000814640241BE0284641464746224600F0CE
:10023000A7FA53465A46C01A914110D311461846A0
:10024000224600F08EFA2D1A67EB01084F4622462F
:100250000120002100F085FA17EB00094E41201E15
:10026000A4F10104DFDC484631462A464346BDE896
:10027000F09FD2B201E000F8012B491EFBD270477B
:100280000022F6E710B513460A4604461946FFF762
:10029000F0FF204610BD10B5002200E0521C835C28
:1002A0008C5CA34201D1002BF8D1D8B2E1B2401A44
:1002B00010BD034611F8012B00F8012B002AF9D1DB
:1002C000184670470FB400B58DB010A909900B9077
:1002D00000914FF0FF300A9000200C9005480690E6
:1002E000054807906A4609A80F9900F06DFA0DB00D
:1002F0005DF814FBE5070008030800082DE9FF5F1F
:100300001D464FF0FF3BD5E9014691465F464FF051
:100310000008A9697F1C01988847296A8246884796
:100320000028F6D1BAF1FF3F0CD024F4C064002EAF
:1003300019DD600614D5BAF12B0F09D0BAF12D0FD3
:100340000ED103E0584604B0BDE8F09F44F4806449
:10035000A9697F1C01988847761E8246002E02DD1F
:10036000BAF1300F03D0B9F1000F26D032E0A969FD
:10037000761E44F400747F1C019888478246002E44
:1003800005DDBAF1780F06D0BAF1580F03D0B9F1F4
:10039000000F10D01EE0B9F1000F02D0B9F1100F1C
:1003A00018D1A969761E24F400747F1C019888472F
:1003B0008246102002E0082000E00A20814609E081
:1003C00008FB0908A969761E44F400747F1C019893
:1003D00088478246002E05DD4946504600F0E0F988
:1003E0000028EDDAE96901988847A00502D46FF08A
:1003F0000100A8E7E00725D1600613D5600502D506
:10040000C8F1000000E0404629680A1D2A6009681A
:10041000220501D5087015E0220701D5088011E0FA
:1004200008600FE02868011D29600068210502D5D9
:1004300080F8008006E0210702D5A0F8008001E0E6
:10044000C0F8008038467EE72DE9FF5FD2E901A7BA
:100450004FF00008916999461446DDF838B04646D9
:1004600001988847054659EA0B0005D009E0A169C3
:10047000761C019888470546216A28468847002847
:10048000F5D1681C03D05FEACA7005D015E04FF0C3
:10049000FF3004B0BDE8F09F2068011D2160D0F856
:1004A00000800AE05FEACA7001D108F8015BA16927
:1004B000761C7F1E019888470546002F1ADD681CB0
:1004C00018D0B9F1000F0DD0E81705EBD06042113C
:1004D00020F01F0059F822102A1A012090400142F2
:1004E000E0D107E0BBF1000FDCD1216A2846884744
:1004F0000028D7D0E16901988847BBF1000F07D1E8
:10050000002E05DD5FEACA7002D1002188F80010D4
:10051000A068B84203DDBBF1000F03D017B16FF044
:100520000100B6E73046B4E72DE9FE4F81EA030447
:1005300004F0004421F0004100944FF0000B23F040
:10054000004350EA01045ED052EA03045BD0C3F3D7
:100550000A54C1F30A552C44A4F2F3340194A0FBCD
:100560000254C1F3130141F48011C3F3130343F4A4
:10057000801301FB024400FB034E840A970A44EAFD
:10058000815447EA8357A4FB076802958D0A05FB4F
:1005900007854FEA932C04FB0C542705029D4FEA74
:1005A000065847EA1637B5EB08056EEB070C870EC1
:1005B000920E47EA811742EA8312A7FB0201B6EBCB
:1005C0000B0164EB00042B0D43EA0C335E1844EB83
:1005D0001C50DA465146E7FB0201C5F313044FEA0B
:1005E0000B3343EA14534FEA0432019C43EA0603F7
:1005F000A4F10C040294009CCDE900B400F021F9B0
:1006000003B0BDE8F08F00200146F9E72DE9F04D79
:1006100081EA030404F0004B21F0004514464FF03A
:10062000000A23F0004150EA050220D054EA0102FA
:100630001DD0C5F30A570246C5F31303C1F31300D7
:10064000C1F30A5640F4801543F48013A7EB060863
:10065000101BD64608F2FD3873EB050002D308F1F3
:10066000010801E092185B41B8F1000F03DA0020A5
:100670000146BDE8F08D00204FF480110646844607
:100680000EE0171B73EB050705D3121B63EB050385
:1006900006434CEA010C49084FEA300092185B41CE
:1006A00050EA0107EDD152EA030012D082EA0400B9
:1006B00083EA0501084305D0101BAB4106D2012295
:1006C000002306E000224FF0004302E06FF0010239
:1006D00053101AEB06004CEB085110EB0A0041EBEB
:1006E0000B01BDE8F04D00F09DB80EB540F233416E
:1006F00002910021CDE900110A460B4600F0A1F855
:1007000003B000BDC1F30A5210B5C1F3130140F2AA
:10071000FF3341F480119A4201DA002010BD40F20B
:1007200033439A42A2F2334203DC524200F028F8EB
:1007300010BD904010BD30B50B4601460020202270
:10074000012409E021FA02F59D4205D303FA02F5DE
:10075000491B04FA02F52844151EA2F10102F1DC3E
:1007600030BD202A04DB203A00FA02F10020704755
:100770009140C2F1200320FA03F3194390407047DF
:10078000202A04DB203A21FA02F00021704721FAE6
:1007900002F3D040C2F1200291400843194670474D
:1007A0003A2800D2303820F02002412A01D3A2F1A9
:1007B0003700884201D34FF0FF3070470268114480
:1007C0001378016018467047D160044951610449AB
:1007D000116200211161114600F082B9BD070008C5
:1007E000D50A0008426842B1016811F8013B23B103
:1007F000521EC0E90012184670470121C160881ED0
:10080000704742685AB1C368016843B983688B4234
:1008100005D0491E521CC0E90012002070474FF05D
:10082000FF30704710B5141E73F1000408DA401C45
:1008300041F1000192185B411A4301D120F00100FF
:1008400010BD2DE9F04D92469B4611B1B1FA81F2EF
:1008500002E0B0FA80F220329046FFF782FF0446B1
:100860000F4640EA0A0041EA0B0153465A46084344
:1008700013D0114653EA010019D0C8F14002504686
:10088000FFF77EFF05460E46504659464246FFF7A3
:1008900068FF084305D0012004E020463946BDE842
:1008A000F08D0020054346EAE0762C4337430A9852
:1008B0006305E40AA0EB08000022FD0A44EA47545D
:1008C0000A3002D500200146E9E701051019694107
:1008D000DDE9084500196941BDE8F04DA2E72DE9C1
:1008E000FE4F804681EA0300C00F0C46009021F0C5
:1008F000004123F00045B8EB0200A94105D2404673
:10090000214690461C460B46024623F00040104309
:1009100047D0270DC7F30A00C3F30A510290401ACB
:10092000019040286BDAC3F3130040F4801B009859
:10093000924620B10023D2EB030A63EB0B0B019824
:100940005946C0F140025046FFF70BFF06460D46E0
:1009500050465946019A00F0ABF810EB080061418F
:10096000002487EA115284EAE7731A4340D0009AC0
:1009700062B3019A012A4FEA075215DC001B61EBB2
:1009800002014FF0004202EA0752CDE90042001C8A
:1009900041F5801132462B46FFF753FF03B0BDE807
:1009A000F08F40462146F9E7001B61EB0201001C75
:1009B00041F5801300185B412018A2F5001747EBA2
:1009C000030140EAD570B6196D4111E06D084FEA98
:1009D000360645EAC0754FEA0752001B61EB02017B
:1009E000001C41F5801149084FEA300000195141BF
:1009F00032462B4603B0BDE8F04FFFF713BF009817
:100A0000012240000023D0EB020263EBE073009868
:100A100021464FEAE074B8EB000061EB0401E9E71E
:100A200083F000435BE781F0004158E7C1F30A52CD
:100A3000C1F3130140F2FF3341F480119A4202DA0C
:100A400000200146704740F233439A42A2F23342FB
:100A500002DC5242FFF794BEFFF783BE30B5041E9E
:100A600071F1000404DB4FF00044404264EB0101EB
:100A7000141E73F1000405DB1C464FF00043524284
:100A800063EB0403994208BF904230BD064C074D0A
:100A900006E0E06840F0010394E80700984710344E
:100AA000AC42F6D3FFF79CFB747A0008947A0008F6
:100AB000202A06DBCB17203A41FA02F043EAE07322
:100AC00006E041FA02F3D040C2F12002914008430F
:100AD00019467047C0B24FF4F05100F097B90000CA
:100AE0002DE9F34F8BB04FF0000801F10C000C46DC
:100AF0004FF0010B46460DF1080A01906269012191
:100B000001989047051E2DD0252D2CD0216A8847AD
:100B1000C0B16269012101989047216A8847002885
:100B2000F7D1411E62690198904700E0761CA169E7
:100B30000B988847216A88470028F7D1E1690B980C
:100B40008847DBE7A1690B9888470746A84201D18F
:100B5000761CD3E7E1690B9888477F1C02D1B8F176
:100B6000000F6FD046E1002762693D463946019883
:100B700090472A2804D162690121019890470125F4
:100B8000DFF884926269012101989047A0F1300159
:100B90000A290AD24F45E5DC07EB870100EB410744
:100BA000303FDFD445F01005ECE7E90601D46FF0E3
:100BB00000476C280AD04C2814D0682815D06A2821
:100BC0000DD074281CD07A281AD01DE0626901214A
:100BD000019890476C2802D045F0040514E045F0D8
:100BE00002050DE045F020050AE062690121019847
:100BF0009047682802D045F0080505E045F40065F7
:100C00006269012101989047C4E9015765283DD0E8
:100C100019DC58287AD00CDC452837D004DC25288C
:100C200026D0412831D131E046282FD047282CD179
:100C30002CE05B2877D0612828D063287CD06428FA
:100C400023D15AE0D0E06F2848D008DC66281DD0B8
:100C500067281BD0692821D06E2816D127E070287C
:100C600045D0732868D0752847D078280DD14DE03D
:100C7000A1690B988847054625283FF469AFE169CB
:100C80000B9888476D1C3FF46AAFB3E023466A4671
:100C90006FF001000B99AFF300809EE045F040003B
:100CA0006060A80723464FF0000236D43EE0E80714
:100CB0007FF447AF2068011D21600068290501D538
:100CC00006701BE7290701D5068017E7A90703D59A
:100CD000F117C0E9006111E706600FE745F0400039
:100CE0006060A80723464FF0080216D41EE040F6C5
:100CF0000E0125EA0100606016E045F040006060EA
:100D0000A80723464FF00A0207D40FE045F0400041
:100D10006060A80708D5234610226FF001000B99E8
:100D2000AFF3008059E007E0234610226FF0010086
:100D30000B99FFF7E3FA50E04FF000094F464B469E
:100D4000632802D05B2806D040E0E80601D40120E9
:100D5000A06001273AE062690121019890475E286E
:100D600005D14FF001096269494601989047216910
:100D700039B900210A46534643F82120491C082965
:100D8000FADBB0B3216969B9C11700EBD162531125
:100D90000AEB830122F01F02821A01200B689040A7
:100DA00003430B6062690121019890475D28E8D1F7
:100DB000B9F1000F09D00020514651F82020D2434C
:100DC00041F82020401C0828F7DB02AB22460097A0
:100DD0006FF001000B99FFF737FB00280CDA401C7D
:100DE00008D1BBF1000F05D04FF0FF300DB0BDE8CA
:100DF000F08FFFE74046F9E7E90701D108F1010864
:100E000006444FF0000B79E6CCCCCC0C7F2801D9FE
:100E1000002208E0064A02EB5002C007127800D117
:100E2000120902F00F0201209040084070470000B4
:100E3000247A000810B5074800F0BAFC0A210548DA
:100E400000F038FC002803D1024800F001FB80B21A
:100E500010BD00005800002070B50446006881688D
:100E60008268C1F3400112F0010F28D039BB8168BC
:100E700001F00D01012914D18168124A1140891C29
:100E8000816021680320086000F07EFE054612E0C4
:100E900000F07AFE401B02280DD920688068C00748
:100EA00009D0E06D40F01000E065206E40F00100D8
:100EB0002066012070BD20688068C007E8D100204E
:100EC00070BD0000C0FFFF7F70B5044600688168F8
:100ED00011F0010F2DD18168174A11421AD1816892
:100EE000D5432940491C816000F04EFE06461BE0B8
:100EF000816811F0010F03D181682940491C81608C
:100F000000F042FE801B02280ED920680068C04312
:100F1000C00709D0E06D40F01000E065206E40F0A1
:100F200001002066012070BD20680168C943C9071F
:100F3000DED1002070BD00003F00008010B50C4CD9
:100F4000E168A069884212D0E068A061FFF772FFF3
:100F50006081A17800290AD02189814207D02081AF
:100F60006421484340F6FF71B0FBF1F0207110BDE1
:100F700008000020FEE77047002240F6B83306E084
:100F80000021491C89B29942FBD3521C92B2824281
:100F9000F6D3704770470000F8B500260446009667
:100FA00090F858000D4601280BD0012084F8580015
:100FB0002046FFF751FF0100E06D04D040F0100023
:100FC0002AE00220F8BD20F4885040F00200E065DD
:100FD00020688268134B1A4005F080431A4342F0A0
:100FE00000428260104A20680EE0009B5B1C009368
:100FF000934209D3E06D20F0020040F01000E0655C
:1010000084F858600120F8BD8368DB0FEDD1E06DF6
:1010100020F0020040F00100E06584F858600846C6
:10102000F8BD0000C0FFFF3F02DE04002DE9F84FCD
:1010300000270446009790F85800DFF8E0930D462B
:10104000B846012811D0012684F85860206803F0C2
:10105000A5F960B1E06D40F02000E0655FF00107A8
:1010600084F858803846BDE8F88F0220FBE7D5E9C0
:1010700000210C23206803EA91131844036B01F04C
:101080001F014FF01F0C0CFA01FCC2F3846223EA2B
:101090000C038A4013430363206803F07FF9824600
:1010A000206803F077F95AEA00003CD1AA68296861
:1010B0002068B2F1004F37D003F07CF92068416915
:1010C00021F00041416120686969C268C2F3C10230
:1010D000520091402A69042A31D000EB82002B682B
:1010E000026EDFF83CC303F0F84302EA0C020B4344
:1010F0001A4342F00041016620682A69A96900EBA1
:101100008200026E22F080720A430266297F226802
:101110002869012910D0002102EB8000026E22F024
:1011200000720A4302667DE0002203F043F9206862
:10113000416941F00041C5E74FF00071ECE7002143
:1011400003F022F9400320684FF0000172D003F051
:101150001BF990FAA0F0B0FA80F1286842036ED033
:1011600090FAA0F0B0FA80F0814204D1002211463A
:10117000206803F02EF90121206803F005F94003EF
:1011800020684FF001015DD003F0FEF890FAA0F066
:10119000B0FA80F12868420359D090FAA0F0B0FA72
:1011A00080F0814204D100220121206803F011F96E
:1011B0000221206803F0E8F8400320684FF00201A4
:1011C00048D003F0E1F890FAA0F0B0FA80F1286876
:1011D000420344D090FAA0F0B0FA80F0814204D1EA
:1011E00000220221206803F0F4F80321206803F0B4
:1011F000CBF8400320684FF0030133D003F0C4F86C
:1012000090FAA0F0B0FA80F1286842032FD090FA4B
:10121000A0F0B0FA80F0814204D1002203212068BE
:1012200003F0D7F82068816811F0010F22D0ACE0FC
:1012300000E004E003F0A8F8C0F384618DE7C0F398
:10124000846091E703F0A0F8C0F38461A2E7C0F3E3
:101250008460A6E703F098F8C0F38461B7E7C0F3B1
:101260008460BBE703F090F8C0F38461CCE7C0F37F
:101270008460D0E72A7B296850F8B03FC1F3120C94
:1012800023EA0C0302F0180C664A22FA0CF20A4018
:1012900013430360E968494577D1286841031CD0AE
:1012A00090FAA0F1B1FA81F1491C01F01F0109295E
:1012B0004FEA403132D8002912D000BF90FAA0F195
:1012C000B1FA81F101F1010101F01F0106FA01F605
:1012D00009D100BFC0F3846109E0C0F38461E3E792
:1012E000C0F38461EEE790FAA0F1B1FA81F101F167
:1012F000010101F01F0146EA816102D1C0F384605F
:1013000003E090FAA0F0B0FA80F000F1010000F0E4
:101310001F0000EB400041EA005132E000290ED0EE
:1013200090FAA0F1B1FA81F101F1010101F01F0180
:1013300006FA01F606D100BFC0F3846106E0C0F3EF
:101340008461F1E790FAA0F1B1FA81F101F10101B4
:1013500001F01F0146EA816102D1C0F3846003E01D
:1013600090FAA0F0B0FA80F000F1010000F01F0048
:101370002D4A00EB400002EB005041EA000141F031
:101380000071AA68206803F015F828482A6802420C
:101390003FF466AE26488168264B01F0E0719A4220
:1013A00002D0254B9A421CD10B021AD42268B2F10A
:1013B000A04F7FF455AE826841F4000122F0E07244
:1013C0000A4382601D481E490068B0FBF1F0401CD2
:1013D00000EB4000800000E0401E00900028FBD1A0
:1013E0003EE6184D184BAA4207D1CD0105D422681C
:1013F0009A42F5D041F0807109E0144DAA42EFD134
:101400004A02EDD422689A42EAD041F4800182680F
:1014100022F0E0720A43826022E6000000007F4072
:1014200000F0FF03FFFF0700000020FE000008801F
:1014300000030050000021C31000C09034000020C1
:10144000400D0300000052C700010050000084CB93
:101450000068006C70470000F8B54FF0000504000C
:101460002E46009502D0E06D10B107E00120F8BDD6
:10147000204600F0EFF8266684F8586020688168FE
:10148000C1F3407119B181686A4A114081602068D6
:101490008168C1F3007189B98168674A114041F0E0
:1014A00080518160654866490068B0FBF1F04000FA
:1014B000801C00E0401E00900028FBD1206881685D
:1014C000C1F3007141B9E16D41F01001E165216E98
:1014D00041F001012166012502F060FFE16DC906BE
:1014E00000D430B1E06D40F01000E06501252846E1
:1014F000F8BDE06D20F4807040F00200E0652068E7
:10150000806810F0010F11D14FF0A04080684D4964
:1015100000F00100896801F00101084306D14A4842
:101520006168826822F47C120A438260E168E06BA1
:10153000627F0843A16841EA4231084394F82410CD
:1015400040EA0140012904D1218D404A02EB41418A
:101550000843E16A29B101F47871226B014342EA40
:1015600001002168CA683A4B1A400243CA602068E9
:101570000169626B21F0406111430161206802F052
:101580000DFF0646206802F005FF30432ED1207F74
:1015900094F83810800340EA41022068C16844F2A0
:1015A000020399431143C160206900282068016942
:1015B0000AD041F480310161206850F8C01F2269CF
:1015C0006FF30D01114307E021F4803101612068C0
:1015D00050F8C01F6FF30D01016094F8400001281E
:1015E0000CD02068016921F00101016160690128C6
:1015F0002068016B21F00F0111D013E0D4E9110133
:101600000843D4E913121143084321680A6940F2E0
:10161000FC739A43104340F001000861E6E7226A38
:10162000521E11430163E06D20F0020040F0010002
:10163000E0655CE7C0FFFF5FC0FFFF7F3400002074
:10164000400D030000010050000300500000FEFFA9
:101650000740F0FF10B586B0044614216846FEF737
:101660000FFE1149206888421BD11048C16C41F41B
:101670000051C164C16C01F400510591C16C41F08D
:101680000201C164C06C694600F0020005904FF48D
:10169000004000900320019000200290044800F0D8
:1016A00085F906B010BD0000000100500010024096
:1016B000000400482DE9F04104463B480F4681688C
:1016C00001F01F05A16908290FD085B1052D0ED0A5
:1016D000092D0CD0806800F4604060B1E06D40F0EE
:1016E0002000E0650120BDE8F081082604E02068C4
:1016F000C068C007F1E7042600F046FA804615E00E
:10170000781C13D000F040FAA0EB0800B84200D8D3
:1017100067B920680068304208D1E06D40F00400ED
:10172000E065002084F858000320DCE720680068AA
:101730003042E5D0E06D40F40070E065206802F0D2
:1017400031FE80B1607F70B92068006800070AD55B
:10175000E06D20F48070E065E06DC00403D4E06DBE
:1017600040F00100E065114A20684FF0A04190422E
:1017700001D10B4600E00346834210D07DB1052D18
:101780000DD0092D0BD0904200D00146C968082E1B
:1017900007D0490401D40C2101600020A3E7C168EF
:1017A000F5E70821F8E700000003005000010050B1
:1017B0002DE9F04104463848806800F01F05206894
:1017C00002F0ECFD18B102210846BDE8F08194F862
:1017D000580001280CD0012084F858002046FFF75B
:1017E00073FB01004FF0000304D084F85830EBE79E
:1017F0000220EAE7E06D40F60162904340F4807019
:10180000E065264A20684FF0A046904201D1374655
:1018100000E00746874200D01DB9E76D27F4801726
:10182000E765E76DFF0404D5276E27F006072766F6
:1018300000E023661C27076084F858302068904237
:1018400001D1334600E00346834215D0A5B1052DF2
:1018500012D0092D10D0E36D43F48013E36590425C
:1018600000D13046C0688001AED5E06D20F4005054
:1018700040F48050E065A7E7C268920105D5E26DAB
:1018800022F4005242F48052E2658268044B1A400E
:10189000121D826098E70000000300500001005014
:1018A000C0FFFF7F10B590F8253000210122022BE8
:1018B00003D00421C163012122E003681C6824F0E5
:1018C0000E041C60836C1C6824F480741C60036824
:1018D0001C6824F001041C6090F84430046C03F090
:1018E0001F0302FA03F36360D0E913345C60436DB5
:1018F00033B11C6824F480741C60D0E916345C6039
:1019000080F82520002280F82420084610BD70B5FC
:1019100090F82520002401212346022A07D0042222
:10192000C26380F8251080F82430012429E0026881
:10193000156825F00E0515600268156825F001058B
:101940001560826C156825F48075156090F8442048
:10195000056C02F01F0201FA02F26A60D0E9132559
:101960005560426D32B1156825F480751560D0E977
:101970001625556080F8251080F82430816B01B160
:101980008847204670BD000070B5044600F0FCF8A2
:101990000546601C02D004484068044400F0F4F896
:1019A000401BA042FAD370BD280000202DE9FC4F57
:1019B000DFF8A0A1002301250AF1040B03244FF056
:1019C0000F0C0BF1040EBDE005FA03F632406FD0A8
:1019D0004F68012F05D0022F03D0112F01D0122FF5
:1019E00017D1D0F808905F0004FA07F829EA08092F
:1019F0000097D1F80C8008FA07F848EA0908C0F8FF
:101A000008804768B7430E79C6F300169E403E43F0
:101A10004660C6684FEA430804FA08F7BE430197D8
:101A20008F6807FA08F73743C7604E68022E01D067
:101A3000122E13D1DE0800EB86060096366A5F0789
:101A4000FF0E0CFA07F926EA0906D1F8109009FAF8
:101A500007F949EA0609009EC6F820900668019F2A
:101A6000BE430F7907F0030707FA08F7374307600B
:101A70004E68F60065D5384E376E47F00107376679
:101A8000366E23F0030706F001060096334E3E44FF
:101A9000B146B6689F074FEA17780CFA08F7BE43BD
:101AA000B0F1904F05D02E4FB84204D1012717E076
:101AB00047E0002714E02B4FB84201D102270FE086
:101AC000294FB84201D103270AE0284FB84201D17B
:101AD000042705E0264FB84201D1052700E006277C
:101AE00007FA08F73743C9F80870DAF80060574674
:101AF000D1F8048096435FEAC83800D516433E60AB
:101B0000DBF800605F46D1F8048096435FEA8838CE
:101B100000D516433E60DEF800607746D1F80480B9
:101B200096435FEAC82800D516433E60094F0C373C
:101B30003E68D1F8048096435FEA882800D51643B2
:101B40003E605B1C0A6832FA03F67FF43DAFBDE8E5
:101B5000FC8F000000040140001002400000014022
:101B60000004004800080048000C0048001000482D
:101B7000001400480069084000D0012070470AB1F5
:101B8000816170478162704701488068704700003A
:101B90002800002002488168426811448160704733
:101BA0002800002010B50024032000F073F8002066
:101BB00000F008F808B1012401E000F025F8204603
:101BC00010BD000070B50E4E05460024706898B137
:101BD0004FF47A71B1FBF0F00A490968B1FBF0F0FB
:101BE00000F064FD40B9102D06D200222946501E97
:101BF00000F030F8356000E00124204670BD0000A0
:101C000028000020340000200A4882B0016E41F014
:101C100001010166016E01F001010091816D41F049
:101C200080518165806D00F08050009002B000F01E
:101C3000A1B8000000100240002809DB00F01F02DC
:101C4000012191404009800000F1E020C0F800111E
:101C500070470000F0B40E4B1B680C46C3F3022320
:101C6000C3F10705042D00D90425191D072901D248
:101C7000002300E0DB1E012606FA05F1491E214083
:101C800099409E40761E16403143F0BC04F0B4B833
:101C90000CED00E0064900F0070208684FF6FF036C
:101CA000184040EA0220034A1043086070470000D1
:101CB0000CED00E00000FA052B492C4B0A6832219C
:101CC0004A432B4940B1B0F5007F086829D020F481
:101CD000C06040F480602CE00868C0F34120022816
:101CE00004D051F8800F20F4807022E0D1F88000F9
:101CF00020F48070C1F88000086820F4C06040F4CF
:101D000000700860B2FBF3F0401C00E0401E4A691E
:101D1000520501D50028F9D1486940050AD50320AC
:101D20007047C0F34120022806D051F8800F40F4DC
:101D30008070086000207047D1F8800040F4807007
:101D4000C1F88000086820F4C06040F400700860AA
:101D5000B2FBF3F0401C00E0401E4A695205DBD59F
:101D60000028F9D1D8E700003400002040420F00DD
:101D7000007000400248816841F4804181607047F2
:101D8000007000402DE9F8430446006800269D4D90
:101D900000035ED5A86D0027C00008D4A86D40F0F0
:101DA0008050A865A86D012700F080500090DFF8F2
:101DB0005892D9F8001041F48071C9F80010FFF76B
:101DC000E3FE804606E000BFFFF7DEFEA0EB080062
:101DD00002282BD8D9F80000C005F5D5D5F8900019
:101DE00010F4407014D0216C814211D0D5F89000CD
:101DF000D5F8901020F4407041F48031C5F890106F
:101E0000D5F8901021F48031C5F89010C5F89000F5
:101E1000C00711D0FFF7B8FE804641F2883907E0CD
:101E2000FFF7B2FEA0EB0801494501D903260BE0FC
:101E3000D5F890008007F3D5D5F89000216C20F4F8
:101E400040700843C5F890001FB1A86D20F0805085
:101E5000A8652078C00707D0D5F88800616820F011
:101E600003000843C5F888002078800707D5D5F817
:101E70008800A16820F00C000843C5F8880020788D
:101E8000400707D5D5F88800E16820F03000084306
:101E9000C5F888002078000707D5D5F888002169A3
:101EA00020F0C0000843C5F888002078800607D5D8
:101EB000D5F88800616920F440600843C5F88800BF
:101EC0002078400607D5D5F88800A16920F4405055
:101ED0000843C5F888002078000607D5D5F88800A3
:101EE000E16920F440400843C5F888002088C00517
:101EF00007D5D5F88800216A20F440300843C5F89A
:101F000088002088800507D5D5F88800616A20F40C
:101F100040200843C5F88800208840050FD5D5F833
:101F20008800A16A20F440100843C5F88800A06A20
:101F3000B0F5801F03D1E86840F48010E860208885
:101F400000050FD5D5F88800E16A20F44000084369
:101F5000C5F88800E06AB0F5800F03D1E86840F466
:101F60008010E8602088C0040FD5D5F88800216B68
:101F700020F040700843C5F88800206BB0F1807FE6
:101F800003D1E86840F48010E86020884FF00061D9
:101F900080040ED5D5F88800626B20F040601043B5
:101FA000C5F88800606B884203D1E86840F480106F
:101FB000E860208840040ED5D5F88800A26B20F098
:101FC00040601043C5F88800A06B884203D1E868E0
:101FD00040F48010E860208800040FD5D5F8880010
:101FE000E16B20F040500843C5F88800E06BB0F189
:101FF000805F03D1E86840F48030E8603046BDE897
:10200000F883000000100240007000402DE9F04706
:102010000E4605004FF0000725D0DFF8AC81D8F858
:10202000000000F00F00B0420CD2D8F8001021F0F0
:102030000F013143C8F80010D8F8000000F00F007D
:10204000B04210D12968614CC80741F2883A5AD091
:102050006868DFF87C91032808D0022820682DD01A
:10206000400500282CDB0120BDE8F08720688001B6
:10207000F9D5E06800F00302E068C0F30310401CEB
:10208000032A19D0534A00BFB2FBF0F0E268C2F352
:1020900006225043E268C2F34162521C5200B0FB78
:1020A000F2F0484517D9A06810F0F00F0CD088075F
:1020B00011D5A86840B10EE0474AE5E78003D0E7B4
:1020C00000F0B6F8484506D9A06820F0F00040F0CE
:1020D0008000A0608027A068696820F003000843A2
:1020E000A060FFF751FD814606E000BFFFF74CFD01
:1020F000A0EB090151453AD8A068696800F00C00CE
:10210000B0EB810FF2D12868810714D5400703D5C1
:10211000A06840F4E060A0602878000705D5A068BA
:1021200020F4605040F4E060A060A068A96820F04E
:10213000F000084304E0802F03D1A06820F0F000F5
:10214000A060D8F80010404601F00F01B14216D946
:10215000016821F00F0131430160FFF715FD0746CB
:1021600007E000BFFFF710FDC11B514501D9032057
:102170007AE7D8F8000000F00F00B042F2D12878DA
:10218000400705D5A068E96820F4E0600843A06036
:102190002878000706D5A068296920F4605040EA35
:1021A000C100A06000F044F8A1680C4AC1F303111B
:1021B000515C01F01F01C8400949086009480068E6
:1021C000BDE8F047FFF7FEBC0020024000100240CF
:1021D00000B4C4040024F40000366E010C7A000838
:1021E000340000202800002005480649006889685E
:1021F000054AC1F30221515C01F01F01C84070473C
:1022000034000020001002401C7A000805480649EE
:1022100000688968054AC1F3C221515C01F01F01C1
:10222000C840704734000020001002401C7A0008AB
:10223000184910B58868C0F381021748012A0BD0ED
:102240008A68164BC2F38102022A06D08A68C2F35A
:102250008102032A03D0002010BD184610BDCA68B1
:1022600002F00304CA68C2F30312521C032C02D00A
:10227000B0FBF2F001E0B3FBF2F0CA68C968C2F348
:1022800006225043C1F34161491C4900B0FBF1F003
:1022900010BD0000001002400024F40000366E0162
:1022A0002DE9F84304007AD02078FA4DC00747D0D2
:1022B000A868E96800F00C0001F003010C2802D0C6
:1022C000082817D001E0032914D06068B0F5803FDA
:1022D00017D0B0F5A02F286817D020F480302860E0
:1022E000286820F4802028606068E0B1FFF74CFC8B
:1022F000064614E02868800322D560680028D2D002
:102300001EE0286840F48030EDE740F4802028602B
:10231000F7E700BFFFF738FC801B642870D82868F7
:102320008003F7D50CE0FFF72FFC064605E000BF61
:10233000FFF72AFC801B6428F0D828688003F7D4B4
:10234000207880074CD5A868E96800F00C0001F0FF
:1023500003010C2802D004280DD001E002290AD084
:10236000E068002828682BD040F480702860FFF7D0
:102370000BFC064619E02868400502D5E0680028F5
:1023800091D06868217C20F0FE4040EA01606860DE
:10239000C1480068FFF716FC002800D120E076E174
:1023A000FFF7F2FB801B0228B8D828684005F7D554
:1023B0006868217C20F0FE4040EA016068600FE020
:1023C00020F480702860FFF7DFFB064605E000BFC1
:1023D000FFF7DAFB801B0228A0D828684005F7D455
:1023E0002078000729D560690028D5F8940013D01B
:1023F00040F00100C5F89400FFF7C6FB064606E072
:1024000090E000BFFFF7C0FB801B022886D8D5F8FC
:1024100094008007F6D510E020F00100C5F8940084
:10242000FFF7B2FB064604E0FFF7AEFB801B022875
:1024300078D8D5F894008007F6D42078400761D585
:10244000A86D0026C00008D4A86D40F08050A86593
:10245000A86D012600F08050009090480168C905E1
:1024600011D40168804641F480710160FFF78CFB54
:10247000074604E0FFF788FBC01B022852D8D8F8B3
:102480000000C005F6D5A068012815D00528D5F8AC
:10249000900016D020F00100C5F89000D5F890000B
:1024A00020F00400C5F89000A06841F28838B8B167
:1024B000FFF76AFB07460EE0D5F8900040F00100F8
:1024C000F0E740F00400C5F89000F5E7FFF75CFB8B
:1024D000C11B414526D8D5F890008007F6D50CE001
:1024E000FFF752FB074604E0FFF74EFBC11B4145D7
:1024F00018D8D5F890008007F6D41EB1A86D20F04A
:102500008050A8652078800629D5A0690028D5F8D4
:10251000980013D040F00100C5F89800FFF734FB95
:10252000064606E077E000BFFFF72EFB801B02287F
:1025300077D8D5F898008007F6D510E020F0010094
:10254000C5F89800FFF720FB064604E0FFF71CFBE8
:10255000801B022865D8D5F898008007F6D4E0697A
:10256000F0B3A968C1F38101032961D0022828686A
:1025700020F0807028600BD0E86820F00300E8604D
:10258000E86847490840E860FFF7FEFA04464BE078
:10259000FFF7FAFA064604E0FFF7F6FA801B022876
:1025A0003FD828688001F7D4F4E908016FF00F02E2
:1025B00002EB01110843218A5204490802EB415100
:1025C000A26841EA02210843217D4FF07E4249087A
:1025D00002EB41610843217B40EAC160E96800E009
:1025E00062E0304A11400843E860286840F080709B
:1025F0002860E86840F08070E860FFF7C5FA04469C
:1026000005E000BFFFF7C0FA001B022809D82868C0
:102610008001F7D548E004E0FFF7B6FA001B022876
:1026200002D90320BDE8F88328688001F4D43BE098
:102630000128F7D0E868226A00F00301914226D110
:10264000616A00F0F0020901103991421FD1A26ABB
:1026500000F4FE41B1EB022F19D194F82C2000F0C8
:102660007841B1EBC26F12D1218E00F4C00249084B
:102670004905A1F50011914209D194F8341000F0F8
:10268000C06049084906A1F1007181420CD00120C7
:10269000C8E7000000100240280000200070004041
:1026A000FFFFEEFE0C809F010020BBE710B5401E2F
:1026B000B0F1807F01D3012010BD4FF0E0246061B4
:1026C0000F21601703F098FB0020A0610720206114
:1026D000002010BD7047704770470000F0B590F8BB
:1026E0003C20012A4AD0012280F83C20CA688B682D
:1026F00022F440721A434B6822F480621A430B683A
:1027000022F400621A430B6922F480521A434B6987
:1027100022F400521A430B6B22F480421A430B8BB3
:1027200022F4702242EA0342154C03680026154D3C
:10273000A34201D0AB4203D1CF6922F080523A4389
:10274000A34201D0AB4214D10F8D22F4700242EAB1
:1027500007520F6A22F080723A434F6A22F00072E9
:102760003A43A34201D0AB4203D1C96A22F00052DE
:102770000A435A6480F83C600020F0BD0220F0BD9E
:10278000002C014000340140704770477047000042
:10279000F0B590F83C20012A3AD0012580F83C5051
:1027A000022280F83D2003685A689C68194E1A4F2F
:1027B000B34201D0BB4204D122F4700C4A6842EA11
:1027C0000C02DFF858C002EA0C02D1F800C04CEA53
:1027D000020CC3F804C00268B2420DD0B2F1804FBF
:1027E0000AD00F4B9A4207D00E4B9A4204D0BA42FD
:1027F00002D00D4B9A4204D1896824F0800319431A
:10280000916080F83D50002180F83C100846F0BDF2
:102810000220F0BD002C0140003401408FFFFFFD7D
:1028200000040040000800400040014010B504468C
:10283000022249B104290ED0082913D094F8470088
:10284000012816D0012010BD94F844000128F9D1C8
:1028500084F844200FE094F845000128F2D184F870
:10286000452008E094F846000128EBD184F8462082
:1028700001E084F847200422206802F0A6FA2068CC
:10288000416C41F4004141641049206888420ED0F7
:10289000B0F1804F0BD00E49884208D00D498842D4
:1028A00005D00D49884202D00C49884207D1816881
:1028B0000B4A1140062906D0B1F5803F03D00168CC
:1028C00041F001010160002010BD0000002C01401A
:1028D0000004004000080040003401400040014076
:1028E00007000100704710B5040003D094F83D00C4
:1028F00010B107E0012010BD002084F83C00204604
:1029000000F022F8022084F83D00211D206802F02A
:10291000F7F9012084F8480084F83E0084F83F006D
:1029200084F8400084F8410084F8420084F84300B1
:1029300084F8440084F8450084F8460084F8470091
:1029400084F83D00002010BD10B586B00446142167
:102950006846FDF795FC2068B0F1804F27D11548F7
:10296000816D41F001018165816D01F001010591E9
:10297000C16C41F00101C164C06C694600F0010006
:1029800005904FF40040009002200190002002903A
:102990000390012004904FF09040FFF707F80022C9
:1029A00011461C20FFF756F91C20FFF745F906B029
:1029B00010BD00000010024010B50168B1F1804F59
:1029C0000DD1017F01290AD1002100F07AFC0449D0
:1029D000401C086103480068806B401C486110BDC2
:1029E00008000020100100202DE9F041054690F874
:1029F0003C000C46012836D0012085F83C008AB303
:102A0000042A42D02868082A51D0D4E90023E1687A
:102A1000066A26F480560662C669076A26F440767E
:102A200046EA03234FF6FF7606EA013123F47043AA
:102A300019434FF4204627F4204306EA02321A4392
:102A4000C16102622868C16921F44061C1612868DE
:102A5000C169A26841EA0221C161002085F83C00F9
:102A6000BDE8F08101E00220FAE7D4E90012E36852
:102A7000286802F019FC2868816921F00C01816145
:102A800028688169A26811430FE0D4E90012E36865
:102A9000286802F051FC2868816921F44061816155
:102AA00028688169A26841EA02218161D5E7D4E9F9
:102AB0000027267B016A21F480710162C169036AE3
:102AC00021F00301394321F0F00731074FF420666C
:102AD00047EA116123F4206306EA02221A43C16126
:102AE00002622868C16921F00C01C1612868C169CE
:102AF000A2681143B0E710B5040003D094F83D007C
:102B000010B107E0012010BD002084F83C002046F1
:102B100000F022F8022084F83D00211D206802F018
:102B2000EFF8012084F8480084F83E0084F83F0064
:102B300084F8400084F8410084F8420084F843009F
:102B400084F8440084F8450084F8460084F847007F
:102B500084F83D00002010BD7047000010B5044609
:102B600079B1042912D0082915D00C2918D01029C0
:102B700019D094F8430000BF94F84720012817D1DA
:102B800014E094F83E0094F84420F7E794F83F00EE
:102B900094F84520F2E794F8400094F84620EDE7D9
:102BA00094F84100E8E794F84200E5E7012A01D0F3
:102BB000012010BD022081B3042934D0082937D068
:102BC0000C293AD010293BD084F8430084F8470000
:102BD0000122206802F0ECF81B49206888420ED0E0
:102BE000B0F1804F0BD01949884208D0184988426B
:102BF00005D01849884202D01749884207D1816818
:102C0000164A1140062906D0B1F5803F03D001686D
:102C100041F001010160002010BDFFE784F83E0093
:102C200084F84400D4E784F83F0084F84500CFE7F7
:102C300084F8400084F84600CAE784F84100C5E7FC
:102C400084F84200C2E70000002C0140000400406C
:102C5000000800400034014000400140070001002E
:102C600010B5044679B1042912D0082915D00C29D1
:102C700018D0102919D094F8430000BF94F84720C9
:102C8000012817D114E094F83E0094F84420F7E7A7
:102C900094F83F0094F84520F2E794F8400094F847
:102CA0004620EDE794F84100E8E794F84200E5E7B4
:102CB000012A01D0012010BD022071B1042915D0D4
:102CC00008291CD00C2948D0102949D084F8430089
:102CD00084F847000C291BD145E084F83E0084F8B5
:102CE00044002068C26842F0020210E084F83F000D
:102CF00084F845002068C26842F0040207E084F8C6
:102D0000400084F846002068C26842F00802C260B1
:102D10000122206802F04CF81549206888420ED044
:102D2000B0F1804F0BD01349884208D01249884235
:102D300005D01249884202D01149884207D18168E2
:102D4000104A1140062906D0B1F5803F03D0016832
:102D500041F001010160002010BD84F84100B7E797
:102D600084F84200B4E72068C26842F01002CEE75F
:102D7000002C0140000400400008004000340140E5
:102D8000004001400700010070B504460068016979
:102D90004FF00005C943890715D4C168C9438907A5
:102DA00011D4E91E01610120207720688069800725
:102DB000204602D0FFF700FE04E000F01FF9204695
:102DC00000F0FEF9257720680169C943490717D447
:102DD000C168C943490713D46FF00401016102209F
:102DE00020772068806910F4407F204602D0FFF7EA
:102DF000E3FD04E000F002F9204600F0E1F9257758
:102E000020680169C943090716D4C168C943090785
:102E100012D46FF008010161042020772068C06996
:102E20008007204602D0FFF7C7FD04E000F0E6F877
:102E3000204600F0C5F9257720680169C943C90615
:102E400017D4C168C943C90613D46FF010010161DA
:102E5000082020772068C06910F4407F204602D007
:102E6000FFF7AAFD04E000F0C9F8204600F0A8F939
:102E7000257720680169C943C90708D1C168C943DA
:102E8000C90704D1891E0161204600F019FA2068A3
:102E90000169C943090609D4C168C943090605D4B3
:102EA0006FF0800101612046FFF715FC2068016981
:102EB000C943C90509D4C168C943090605D46FF4DB
:102EC000807101612046FFF705FC20680169C94354
:102ED000490609D4C168C943490605D46FF04001C9
:102EE0000161204600F02DFA20680169C943890676
:102EF00009D4C168C943890605D46FF02001016176
:102F00002046FFF7E9FB20680169C943C90209D4DB
:102F1000C168C943C90205D46FF48011016120461C
:102F2000FFF733FC20680169C943890209D4C168ED
:102F3000C943890205D46FF4001101612046FFF7EF
:102F400023FC20680169C943490209D4C168C94307
:102F5000490205D46FF4800101612046FFF716FC99
:102F600020680169C94309020BD4C168C943090239
:102F700007D46FF4000101612046BDE87040FFF7FF
:102F8000B1BC70BD30B587B0044614216846FDF76A
:102F900077F92468164D0023164902224FF090401D
:102FA000AC420FD1CC6C44F00104CC64C96C01F08C
:102FB0000101059180218DE80E000621CDE9033144
:102FC000694610E00C4DAC420FD1CC6C44F00104CA
:102FD000CC64C96C01F00101059140218DE80E001F
:102FE000CDE903326946FEF7E1FC07B030BD0000D1
:102FF000002C01400010024000040040704770B5F2
:10300000044690F83C000D4601280BD0012084F8BE
:103010003C000C2A45D007DC5AB1042A1BD0082AF0
:1030200078D12CE0022070BD102A4ED0142A71D124
:103030005DE0206801F0E0FE2068816941F0080150
:1030400081612068816921F00401816120688169C2
:103050002A69114311E0206801F01CFF2068816992
:1030600041F4006181612068816921F4806181619E
:10307000206881692A6941EA022181614AE0206869
:1030800001F050FF2068C16941F00801C16120686A
:10309000C16921F00401C1612068C1692A69114335
:1030A00011E0206801F086FF2068C16941F40061E9
:1030B000C1612068C16921F48061C1612068C16972
:1030C0002A6941EA0221C16124E0206801F0BAFFC7
:1030D0002068016D41F0080101652068016D21F053
:1030E000040101652068016D2A69114311E020681F
:1030F00001F0E0FF2068016D41F400610165206886
:10310000016D21F4806101652068016D2A6941EA41
:1031100002210165002084F83C0070BD10B5040058
:1031200003D094F83D0010B107E0012010BD00204D
:1031300084F83C00204600F023F8022084F83D008B
:10314000211D206801F0DCFD012084F8480084F88E
:103150003E0084F83F0084F8400084F8410084F881
:10316000420084F8430084F8440084F8450084F861
:10317000460084F8470084F83D00002010BD0000A0
:1031800008B50C4A01680C48914207D1016E41F420
:1031900000610166006E00F4006009E0074A914298
:1031A00007D1816D41F002018165806D00F0020060
:1031B000009008BD002C01400010024000040040B7
:1031C0007047000030B50446022269B1042912D0CC
:1031D000082917D00C291CD0102921D094F84300BD
:1031E000012824D0012030BD94F83E000128F9D1F7
:1031F00084F83E201DE094F83F000128F2D184F8C5
:103200003F2016E094F840000128EBD184F84020DC
:103210000FE094F841000128E4D184F8412008E04F
:1032200094F842000128DDD184F8422001E084F8BE
:1032300043200122206801F0BBFD194B2068194989
:10324000194A984209D0884207D0904205D0174DBC
:10325000A84202D0164DA84203D1456C45F4004562
:103260004564206898420CD0B0F1804F09D0114BD2
:10327000984206D0104B984203D0884201D0904229
:1032800007D181680D4A1140062906D0B1F5803F6B
:1032900003D0016841F001010160002030BD000051
:1032A000002C014000340140004001400044014036
:1032B00000480140000400400008004007000100F1
:1032C00070470246002041B1042909D008290AD0DC
:1032D0000C2901D11068006C70471068406B704772
:1032E0001068806B70471068C06B704770B50446FB
:1032F00090F83C00012812D0012584F83C500220AF
:1033000084F83D00204601F06DFF01004FF0000001
:1033100007D084F83D5084F83C00012070BD0220A5
:1033200070BD2168CA6822F04002CA602168CA687C
:1033300022F48042CA6084F83D5084F83C000020AA
:1033400070BD704790F88010012918D0012180F8D5
:1033500080102421C0F8841050F8641B0A680B68A0
:1033600023F001030B6022F000510022026050F8AC
:10337000643C1960202101620277104670470220E8
:1033800070477047704770B5044690F88000012878
:103390001DD0012084F880002420C4F88400206817
:1033A0000568026822F0010202602068826822F04B
:1033B00060620A438260204601F0DAFF20680560FF
:1033C0002020C4F88400002084F8800070BD022012
:1033D00070BD70B5044690F8800001281DD0012012
:1033E00084F880002420C4F88400206805680268FE
:1033F00022F0010202602068826822F060420A43E3
:103400008260204601F0B4FF206805602020C4F8E7
:103410008400002084F8800070BD022070BD7047D9
:10342000704770472DE9F04103680446D869196870
:103430009A6840F60F0528424FF0000509D186062C
:103440007ED501F0200602F080573E4378D0216FF0
:10345000FFE0924E924F16400F40374370D0C7079F
:1034600009D0CF0507D501271F62D4F88C3043F06F
:103470000103C4F88C3083070AD5D30708D0276826
:1034800002233B62D4F88C3043F00403C4F88C3040
:1034900043070AD5D30708D0276804233B62D4F832
:1034A0008C3043F00203C4F88C3003070CD501F0D4
:1034B0002003334308D0266808233362D4F88C30C5
:1034C00043F00803C4F88C3003050BD54B0109D534
:1034D00026684FF400633362D4F88C3043F0200345
:1034E000C4F88C30D4F88C30002B34D0800609D549
:1034F00001F0200002F08051084303D0216F09B190
:1035000020468847D4F88C0021688968490602D48F
:1035100010F0280F21D0204601F0EAFF20688168D2
:10352000490615D5816821F040018160E06F78B1CE
:103530005C498163E06FFEF7EAF900280BD000E0F8
:1035400011E0E06F816B00E02046BDE8F0410847E4
:103550002046FFF766FFBDE8F0812046FFF761FFD8
:10356000C4F88C50F7E7E76E2026012F5CD1C70620
:103570005AD5CF0658D510201862206881684906B0
:103580002FD5E26F116849680904090CE3D0B4F83B
:103590005C308B42DFD9A4F85E1011680968890697
:1035A00018D4016821F4807101602068816821F0DD
:1035B000010181602068816821F040018160C4F8C8
:1035C0008860E5662068016821F010010160E06F05
:1035D000FEF768F9B4F85C00B4F85E10401A81B2E6
:1035E0001EE0B4F85C10B4F85E20891AB4F85E20CE
:1035F00089B2002AAFD00029ADD0026822F49072BF
:10360000026020688268254BDB431A408260C4F860
:103610008860E56625672068026822F01002026073
:103620002046FFF7AEFE96E7C70209D5570207D539
:103630004FF4801018622046BDE8F041FFF7F0BE5D
:1036400007060AD501F0800702F40002174304D0F0
:10365000616F00297FF478AF7DE742060CD54A06FA
:103660000AD51968204621F040011960C4F8846029
:10367000656700F0F7F96EE7020206D54A0004D547
:103680002046BDE8F041FFF7CABEC001CBD50029F6
:10369000C9DA2046BDE8F041FFF774BE0100001012
:1036A00020010004DD54000810B5040003D0D4F854
:1036B000840010B107E0012010BD002084F88000D4
:1036C000204600F027F82420C4F884002068016810
:1036D00021F001010160204602F0E2F80128EBD060
:1036E000A06A10B1204601F065FE2068416821F40F
:1036F000904141602068816821F02A018160206842
:10370000016841F0010101602046BDE8104001F070
:10371000B5BE000010B586B0044614216846FCF71B
:10372000AFFD17492068884227D11648016E41F441
:1037300080410166016E01F480410591C16C41F048
:103740000101C164C06C694600F0010005904FF4AE
:10375000C06000900220019000200290039007209A
:1037600004904FF09040FEF721F9002211462520E9
:10377000FEF770FA2520FEF75FFA06B010BD0000D4
:10378000003801400010024010B4D0F88830202BDF
:103790001BD1B9B1B2B190F88030012B15D0012303
:1037A00080F880300023C366094C0368A34206D02A
:1037B0005C68240203D51C6844F080641C6010BC63
:1037C00002F0A8B9012010BC70470220FBE70000FE
:1037D0000080004030B587B000243C490194029439
:1037E0000594487900F01BFA00286DD0887900F024
:1037F00016FA002868D0087A00F011FA002863D081
:10380000487A00F00CFA00285ED004A8009003ABC0
:1038100001AA2FA12D48FCF755FD032801D02FA1A7
:103820000AE02FA101A8FCF736FD68B12EA101A87E
:10383000FCF731FD40B12EA124481438FCF739FDC6
:1038400022490322143935E025A101A8FCF723FD04
:10385000284D60B19DF80C10A1F10A0050281AD82B
:103860000A22B1FBF2F002FB101048B113E0012074
:10387000A87021A105A8FCF71CFD032205A919E0E9
:103880009DF810000A2806D35A2804D8B0FBF2F39A
:1038900002FB13020AB119A1CEE7164A521D11709C
:1038A000507014490222491D002000F0C3FDAC7085
:1038B000032213A1134800F087F80A220349114894
:1038C000FFF762FF07B030BD0FA1B5E74C00002045
:1038D0002534733A25642C256400000045723100BC
:1038E0004155544F000000004D414E55000000006E
:1038F00045723200080000204F4B31004572330002
:103900004F4B3200A8010020457230002DE9F843EA
:103910000446D0F884001F4616460D46202851D193
:10392000DDB1D6B194F8800001284BD0012084F895
:1039300080004FF00008C4F88C802120C4F8840077
:103940001834FEF721F9A6878146E68754F8100C53
:10395000183CB0F5805F03D004E00120BDE8F88397
:10396000206920B12E46002584F8808010E00026D2
:10397000FAE78021204602F0D1F9B8B9C6B116F8AD
:10398000010B21688862B4F85600401EA4F8560066
:10399000B4F856004B464FF0000200970028E8D1DB
:1039A0004FF04001204602F0B9F930B10320D5E7CD
:1039B00035F8020BC0F30800E3E72020C4F88400C8
:1039C0000020CBE70220C9E7D0F88430202B3ED17D
:1039D00049B342B390F88030012B38D0012380F8EE
:1039E00080300165A0F85420A0F8562000214167DE
:1039F000C0F88C102122C0F88420436E4FF480520E
:103A0000B3F1005F836810D0934201D10269E2B143
:103A1000104A426780F880100068016841F0800118
:103A200001600020704701207047934201D1026974
:103A30004AB1094A426780F880100068816841F401
:103A400000018160EDE7054AF4E7054AE1E702205D
:103A500070470000895C0008C95C0008315C000800
:103A6000ED5B00087047FEE770B50824002501F003
:103A7000A7F813E06806050E002001F089F814206D
:103A800002F038FE142002F035FE012001F080F82B
:103A9000142002F02FFE01F087F80543641EE4B203
:103AA000E8D2002001F074F8142002F023FE01F0A7
:103AB000A9F8284670BD10B5002001F097F8142031
:103AC00002F018FE142002F015FE012001F060F84B
:103AD000142002F00FFE002001F05AF8BDE810405B
:103AE000142002F007BE70B50446082516E001F068
:103AF0004FF8142002F0FEFD04F0800001F076F88B
:103B0000142002F0F7FD6006040E142002F0F2FD0E
:103B1000012001F03DF8142002F0ECFD6D1EEDB225
:103B20004FF00000E3D201F033F8BDE870401420FC
:103B300002F0E0BD10B5012001F058F8142002F0A9
:103B4000D9FD142002F0D6FD012001F021F8142047
:103B500002F0D0FD002001F01BF8BDE81040142059
:103B600002F0C8BD10B5012001F040F8142002F0A9
:103B7000C1FD012001F00CF8142002F0BBFD002073
:103B800001F034F8142002F0B5FD002001F000F837
:103B9000BDE81040142002F0ADBD10B5002000F0CB
:103BA000F7FF142002F0A6FD002001F01FF81420FA
:103BB00002F0A0FD012000F0EBFF142002F09AFDBE
:103BC000012001F013F8BDE81040142002F092BD6E
:103BD00010B5052400F0F4FF142002F08BFD012045
:103BE00000F0D6FF142002F085FD05E0641EA4B2AB
:103BF000142002F07FFD64B100F0D6FF0028F5D15B
:103C000000F0C6FF142002F075FD00F0FBFF00205D
:103C100010BD00F0F7FFFFF7C0FF012010BD3038E6
:103C2000092801D8012070470020704710B500F026
:103C30003FF81E49CA78904235D00A234A1DC87001
:103C4000052830D2DFE800F02F030E192B0048784A
:103C500030B100204870BDE81040002000F098B856
:103C60000120F7E7487800281DD010780A30C0B24C
:103C700010705A280BD9137009E04878002812D028
:103C800050780A30C0B250705A2800D95370074992
:103C90000222491DBDE81040002000F0CBBB88780F
:103CA00010B10020887010BD0120FBE70800002043
:103CB00070B51F4D002401212846FDF75BFF40B978
:103CC0000A20FDF761FE01212846FDF753FF00B9E8
:103CD000012402212846FDF74DFF40B90A20FDF7D7
:103CE00053FE02212846FDF745FF00B902240421B6
:103CF0002846FDF73FFF40B90A20FDF745FE0421A5
:103D00002846FDF737FF00B903244FF09045012105
:103D10002846FDF72FFF40B90A20FDF735FE0121A7
:103D20002846FDF727FF00B90424204670BD000097
:103D30000004004800B585B014216846FCF7A0FADD
:103D40004FF6FF70009000200321CDE902010190A1
:103D500069460248FDF72AFE05B000BD000800488C
:103D600000B585B014216846FCF78AFA4FF6FF705B
:103D700000900120019003200390002002906946EA
:103D80000248FDF713FE05B000BD00000008004822
:103D900070B5002406462146204600F021FA00F0C6
:103DA0005FFA4FF49635304600F02EFA641CAC42B0
:103DB000F9D370BD30B587B014216846FCF760FABE
:103DC0001E48C16C41F00401C164C16C01F00401E2
:103DD0000591C16C41F00101C164C16C01F00101A8
:103DE0000591C16C41F00201C164C06C012500F075
:103DF000020005904FF44870CDE9000500240394BB
:103E0000694602940E48FDF7D1FD28020394009004
:103E1000CDE901544FF0904469462046FDF7C6FDB8
:103E2000FFF79EFFA06940F48070A061044818303D
:103E3000016841F40871016007B030BD0010024014
:103E400000040048203AD2B2034B02EB420203EBDB
:103E5000021200F019B800000C680008F0B50E4618
:103E60000746002540F23F1407E021463846FFF799
:103E7000E9FF103C6D1CA4B2761C3278002A01D0F8
:103E8000142DF2D3F0BD00002DE9F04791468A468B
:103E90000026044600F0A4F9DFF84080012700BFA7
:103EA00000F0DEF95FF0000539F8160007FA05F1B9
:103EB0000842404601D1408800E0008800F0A4F9A3
:103EC0006D1C102DF0D3641CE4B25146204600F066
:103ED00087F9761C182EE3D3BDE8F0870000002098
:103EE00010B5FFF767FF002000F032F9084CA08002
:103EF000A088A0F50241303906D000F047FD00202F
:103F000000F026F9A08010BD00F0B7FCF7E7000034
:103F10000000002030B52DED028B89B01C216846D1
:103F2000FCF7AEF95149524CD1E90001CDE9070146
:103F3000607800284CD04FA10020FFF78FFF651D4F
:103F400051A12A78684601F043FF69463020FFF707
:103F500085FF6A7850A1684601F03AFF6946602003
:103F6000FFF77CFF2069002857D0FCF7BEFB41EC2F
:103F7000100B53EC102B9FED4C0B51EC100BFCF77E
:103F800045FB41EC100B4AA153EC102B684601F0A5
:103F90001FFF69469020FFF761FF2069FCF7A5FB32
:103FA00041EC180B6069FCF7A0FB9FED471B53EC3D
:103FB000112BFCF7B9FA53EC182BFCF727FB41EC5B
:103FC000100B43A153EC102B684601F001FF32E0C7
:103FD00045A10020FFF742FF6089FCF786FB9FEDBB
:103FE000481B53EC112BFCF79FFA9FED471B53EC3A
:103FF000112BFCF70BFB41EC100B45A153EC102BE4
:10400000684601F0E5FE69463020FFF727FFA178FA
:1040100007A850F8212041A19DE7002224A168466D
:1040200001F0D6FE69469020FFF718FF002228A174
:10403000684601F0CDFE6946A820FFF70FFF3AA1C0
:104040006846226901F0C4FE6946C020FFF706FFFA
:104050003AA16846626901F0BBFE6946D820FFF7C5
:10406000FDFE09B0BDEC028B30BD0000DC7900081C
:104070000800002020202020202020506172612094
:10408000202020202020200020205041363A256486
:10409000252520202020200020205041373A25646B
:1040A00025252020202020000000000080842E41B3
:1040B0002020467265713A25342E3166485A2020F8
:1040C00020202020000000000000000000005940D7
:1040D0002020447574793A25342E31662525202018
:1040E0002020202000000000202020202020202050
:1040F0004461746120202020202020200000000046
:104100006666666666660A400000000000FEAF4014
:104110002020563A25342E326656000020204D6F5E
:1041200064653A2573000000202043617074313AC1
:10413000256420202020202000000000202044753D
:104140007479313A256420202020202000000000CE
:1041500070B51D490A6842F400720A600A6842F4A8
:1041600080720A60184C103C226842F020022260E3
:10417000164A1060086840F02000086000BF00BFC9
:1041800000BF206840F020002060206840F480706C
:104190002060FFF7CFFD4FF09041886A40F48070B7
:1041A000886200BF00BF00BF0848001F006885B2DA
:1041B000886940F480708861FFF7D2FD206840F480
:1041C00000702060284670BD28040048140800488C
:1041D00001B5BDF800000149488008BD000000207D
:1041E00010B50C460146202000F068F82146BDE8D5
:1041F0001040212000F062B801B5BDF8000001496F
:10420000088008BD00000020134A116841F40071C5
:104210001160114910390B6843F480730B600B680F
:1042200043F020030B600D4B1860106840F0200035
:10423000106000BF00BF00BF086840F020000860A9
:10424000086840F48070086000BF00BF00BF0868C5
:1042500040F40070086070472804004814080048C3
:104260001449086840F400700860086840F48070E1
:10427000086010481038026842F0200202600E4BBD
:1042800022221A600A6842F020020A6000BF00BFC2
:1042900000BF016841F020010160016841F48071B4
:1042A000016000BF00BF00BF016841F40071016000
:1042B000704700002804004814080048184B10B547
:1042C0001A6842F400721A601A6842F480721A6026
:1042D000134A103A146844F020041460114C206012
:1042E000186840F02000186000BF00BF00BF1068D1
:1042F00040F020001060106840F480701060216071
:10430000186840F02000186000BF00BF00BF1068B0
:1043100040F020001060106840F48070106010BD04
:104320002804004814080048084910B5C04300029A
:104330000860074C012204212046FDF720FC20469E
:104340000022BDE810400421FDF719BC1408004804
:10435000000C00480B4801468278097812B141F000
:10436000010101E021F0010101704178002901788B
:1043700002D041F0020101E021F002010170C8B257
:10438000FFF7D2BF0800002000EB8100006E00F0B4
:10439000F84070478068C0F3C00070478068C0F381
:1043A00080007047C06810F4406F01D00020704753
:1043B00001207047042303EAD15310B51844436920
:1043C000C1F3045107248C40A3438A401343436143
:1043D00010BD00EB8100016E21F000411143016628
:1043E000704770B515460C460646FFF7BBFBA0208C
:1043F000FFF779FBFFF7ECFB3046FFF774FBFFF7A5
:10440000E7FBFFF7AFFBA120FFF76DFBFFF7E0FB3A
:1044100009E0FFF729FB04F8010B15B1FFF74BFB8F
:1044200001E0FFF787FB6D1EEDB2F2D2BDE87040F0
:10443000FFF7B3BB70B515460C460646FFF792FB77
:10444000A020FFF750FBFFF7C3FB304602E000BFA0
:1044500014F8010BFFF747FBFFF7BAFB6D1EEDB237
:10446000F6D2FFF79AFBBDE870404FF4FA7002F005
:1044700041B9000030B589B020216846FBF700FF44
:104480001B481A49002401604902C0E90114C460B4
:1044900004250461C0E905450477447701210162E0
:1044A00080F82440C462046380F83840C46380F814
:1044B0004040FCF7D1FF08B1FCF76CFD0D480090BF
:1044C00006200190052002907F200594CDE9030588
:1044D00069460748FCF7AAFD08B1FCF75BFD7F21A0
:1044E0000348FCF759FD09B030BD00000001005041
:1044F000580000200080F03E2DE9F04786B01421DE
:104500006846FBF7BDFE4548C16C41F00401C1643B
:10451000C16C01F004010591C16C41F02001C1643E
:10452000C16C01F020010591C16C41F00101C16431
:10453000C16C01F001010591C16C41F00201C1643F
:10454000C16C01F002010591C16C41F00801C16428
:10455000C06C334F00F008004FF6FF740590002246
:1045600021463846FDF70BFB4FF480764FF090481C
:10457000002231464046FDF702FBDFF8A8900022FA
:1045800004214846FDF7FBFADFF89CA000224FF417
:1045900078715046FDF7F3FA0125CDE90045002476
:1045A0000294694638460394FDF700FACDE90054B9
:1045B000694640460294FDF7F9F90720CDE9000469
:1045C000694650460294FDF7F1F90096CDE9015491
:1045D000694640460394FDF7E9F904200090CDE9CF
:1045E0000154694648460394FDF7E0F94FF44870DA
:1045F0000090CDE90154694650460394FDF7D6F981
:10460000C02000901120CDE9010469465046039472
:10461000FDF7CCF906B0BDE8F087000000100240BD
:1046200000080048000C00480004004810B598B08D
:104630000024149415941C210DA81694FBF720FE59
:1046400034216846FBF71CFE2548244901604F21B0
:10465000C0E9011441F28731C0E903144461846167
:10466000FEF75CFD08B1FCF795FC1494159414A9B1
:104670001B481694FEF78CF808B1FCF78BFC602001
:104680000D904FF4FA70CDE90E0410941194129429
:1046900000220DA912481394FEF7B1FC08B1FCF7F3
:1046A00079FC00944FF40050CDE9044003940003DA
:1046B000CDE9084001940294069407940A940B945F
:1046C000694607480C94FEF709F808B1FCF762FC4C
:1046D0000348FEF757FC18B010BD0000002C014045
:1046E000C400002010B58CB0142104A8FBF7C8FD4D
:1046F000002427480A940B9409940094019402948E
:104700004FF08041039401604F21C0E90114611E04
:10471000C0E903148461FEF7E6F808B1FCF73AFC3F
:104720001B48FEF7E8F908B1FCF734FC04200490BC
:104730005020CDE9050404A915480894FEF7D6FDDC
:1047400008B1FCF727FC099409A911480B94FEF75E
:104750001FF808B1FCF71EFC0120CDE900400294CF
:10476000002269460A480394FEF73EF908B1FCF7B7
:1047700011FC022000900190042269460448FEF7D3
:1047800033F9002801D0FCF705FC0CB010BD000087
:104790001001002010B58AB00024079408941C2151
:1047A00068460994FBF76CFD1748164901604F21D4
:1047B000C0E9011442F20F71C0E903148461FEF7ED
:1047C000ADFC08B1FCF7E6FB079407A90E48099475
:1047D000FDF7DEFF08B1FCF7DDFB602000904FF431
:1047E0007A70CDE901040022694607480494FEF777
:1047F00006FC08B1FCF7CEFB0348FEF7C3FB0AB08A
:1048000010BD0000000400405C010020184810B5F5
:10481000164901604FF4E1314160002181600C22B2
:10482000C160C0E904128161C161016241628162BB
:10483000FEF73AFF08B1FCF7ADFB00210C48FEF78C
:10484000C8FD08B1FCF7A6FB00210948FEF79BFD57
:1048500008B1FCF79FFB0648FEF774FD002803D063
:10486000BDE81040FCF796BB10BD000000380140C9
:10487000A8010020FEE77047704730B501210020F5
:10488000FFF71CFD4FF47A70FCF776FB0021012046
:10489000FFF714FD41F290711020FFF70FFD4FF468
:1048A0001C516020FFF70AFD01216120FFF706FD82
:1048B00002214620FFF702FD48F210011320FFF706
:1048C000FDFC48F2FE011220FFF7F8FC4FF4A06156
:1048D0000220FFF7F3FC41F230010320FFF7EEFC6A
:1048E00040F2033421463020FFF7E8FC2146312016
:1048F000FFF7E4FC21463220FFF7E0FCE51E2946E5
:104900003320FFF7DBFC03213420FFF7D7FC2146DF
:104910003520FFF7D3FC14213620FFF7CFFC2146CA
:104920003720FFF7CBFC21463820FFF7C7FC214694
:104930003920FFF7C3FC29463A20FFF7BFFC0321CB
:104940003B20FFF7BBFC21463C20FFF7B7FC4FF4B0
:10495000A0513D20FFF7B2FC4FF400719220FFF709
:10496000ADFC21469320FFF7A9FC40F60D019020F5
:10497000FFF7A4FC41F218010320FFF79FFCBDE8FC
:10498000304040F273110720FFF798BC10B543F296
:104990000801E320FFF792FC1221E720FFF78EFCCD
:1049A00041F23121EF20FFF789FC00210120FFF7C0
:1049B00085FC4FF4E0610220FFF780FC41F23001FA
:1049C0000320FFF77BFC00210420FFF777FC40F277
:1049D00007210820FFF772FC00210920FFF76EFC79
:1049E00000210A20FFF76AFC00210C20FFF766FC7B
:1049F00000210D20FFF762FC00210F20FFF75EFC75
:104A000000211020FFF75AFC07211120FFF756FC68
:104A100000211220FFF752FC00211320FFF74EFC6B
:104A2000C820FCF7B1FF41F290611020FFF746FC6F
:104A300040F227211120FFF741FC3220FCF7A4FFB0
:104A40001D211220FFF73AFC3220FCF79DFF4FF4A6
:104A500000611320FFF732FC14212920FFF72EFC00
:104A60000B212B20FFF72AFC3220FCF78DFF0021C1
:104A70002020FFF723FC00212120FFF71FFC072146
:104A80003020FFF71BFC40F207713120FFF716FCC6
:104A900006213220FFF712FC40F204713520FFF7A7
:104AA0000DFC41F604713620FFF708FC0421372085
:104AB000FFF704FC00213820FFF700FC40F20671EC
:104AC0003920FFF7FBFB40F201713C20FFF7F6FBBA
:104AD0000F213D20FFF7F2FB00215020FFF7EEFBF6
:104AE000EF215120FFF7EAFB00215220FFF7E6FB00
:104AF00040F23F115320FFF7E1FB4FF41C516020BF
:104B0000FFF7DCFB01216120FFF7D8FB00216A20C1
:104B1000FFF7D4FB00218020FFF7D0FB002181208C
:104B2000FFF7CCFB00218220FFF7C8FB0021832088
:104B3000FFF7C4FB00218420FFF7C0FB0021852084
:104B4000FFF7BCFB10219020FFF7B8FB002192205B
:104B5000FFF7B4FB03219320FFF7B0FB4FF48871FC
:104B60009520FFF7ABFB00219720FFF7A7FB002163
:104B70009820FFF7A3FB41F218010320FFF79EFBEB
:104B8000BDE8104040F273110720FFF797BB00000B
:104B900008B1044801E003481030016841F04001C9
:104BA000016070471804004810B580210348FCF7E5
:104BB000E1FF012800D0002010BD000000040048E3
:104BC00000B585B014216846FBF75AFB80200090A1
:104BD00000200190012002900220039069460248C3
:104BE000FCF7E4FE05B000BD0004004808B104482D
:104BF00001E003481030016841F080010160704716
:104C00001804004800B585B014216846FBF738FB4E
:104C1000802000901120019000200290022003903B
:104C200069460248FCF7C2FE05B000BD000400481A
:104C30007047000010B5FCF7ADFF08480168491C3B
:104C4000016000686421B0FBF1F201FB1200002852
:104C500003D103480168491C016010BD24000020F5
:104C60001400002010B5A4B038216846FBF708FBFB
:104C700014211FA8FBF704FB44210EA8FBF700FB3F
:104C80004FF40070FDF718F8012000900004019027
:104C900002200324CDE907041421CDE90A100C9069
:104CA0000D9009946846FDF7FBFA0F20CDE91F042B
:104CB00000242194229402211FA82394FDF7A6F931
:104CC00048F20100CDE90E0440071D900EA8FDF743
:104CD00059F824B010BD00000548016841F4700186
:104CE000016003494FF000608039086070470000A0
:104CF00088ED00E00148FEF747B8000010010020F1
:104D00002DE9F0430268234B234D244E244C4FF0F1
:104D10008049984207D0484505D0A84203D0B04208
:104D200001D0A04203D122F070074A683A431D4FD8
:104D3000DFF874C0DFF8748098420DD048450BD07E
:104D4000A84209D0B04207D0A04205D0B84203D053
:104D5000604501D0404503D122F44075CA682A431A
:104D60004D6922F080022A4302608A68C2620A68A2
:104D70008262984207D0A04205D0B84203D0604575
:104D800001D0404501D10969016301214161BDE8BC
:104D9000F0830000002C01400004004000080040A7
:104DA00000340140004001400044014000480140FF
:104DB00010B501F01F030121046A99408C4304627D
:104DC000016A9A401143016210BD10B501F01F0342
:104DD0000421046A99408C430462016A9A40114399
:104DE000016210BD10B5846842EA032224F47F44B6
:104DF0000A432243826010BD2DE9F043026A22F08B
:104E000001020262056A436882691C4C25F00205B2
:104E100022400C6822F0030214438A68194E2A4388
:104E2000174D194FDFF864C0DFF86490A84207D02F
:104E3000B04205D0B84203D0604501D0484506D104
:104E400022F00808CA6842EA080222F00402A842D6
:104E500007D0B04205D0B84203D0604501D04845E4
:104E600005D14D6923F440731D438B692B43436087
:104E70008461496841630262BDE8F0838FFFFEFFF1
:104E8000002C01400034014000400140004401403A
:104E900000480140F0B5026A22F010020262056A81
:104EA00042688369194C1B4E23400C6823F44073FD
:104EB00043EA042425F020038D6843EA0513144DCA
:104EC000A84201D0B04206D1CF6823F0800343EA64
:104ED000071323F04003A8420AD0B04208D00E4D79
:104EE000A84205D00D4DA84202D00D4DA84207D1D1
:104EF0004D6922F4406242EA85028D6942EA8502E8
:104F000042608461496881630362F0BDFF8FFFFEE8
:104F1000002C0140003401400040014000440140A9
:104F200000480140F0B5026A22F480720262056A0C
:104F30004368C269194C1B4E22400C6822F00302E0
:104F4000144325F400728D6842EA0522144DA842EC
:104F500001D0B04206D1CF6822F4006242EA0722B3
:104F600022F48062A8420AD0B04208D00E4DA84276
:104F700005D00E4DA84202D00D4DA84207D14D6973
:104F800023F4405343EA05138D6943EA0513436054
:104F9000C4614968C1630262F0BD00008FFFFEFF7B
:104FA000002C014000340140004001400044014019
:104FB00000480140F0B5026A22F480520262056A9C
:104FC0004268C369194C1B4E23400C6823F440739C
:104FD00043EA042425F400538D6843EA0533144D55
:104FE000A84201D0B04206D1CF6823F4004343EA7F
:104FF000073323F48043A8420AD0B04208D00E4DB4
:10500000A84205D00D4DA84202D00D4DA84207D1AF
:105010004D6922F4404242EA85128D6942EA8512C6
:105020004260C461496801640362F0BDFF8FFFFE06
:10503000002C014000340140004001400044014088
:105040000048014030B5026A22F480320262046AEC
:105050004268036D114D2B400D681D4324F400334D
:105060000C8943EA04430E4CA0420BD00D4CA042E5
:1050700008D00D4CA04205D00C4CA04202D00C4CE4
:10508000A04204D14C6922F4803242EA04224260F8
:10509000056549688164036230BD00008FFFFEFF33
:1050A000002C014000340140004001400044014018
:1050B0000048014030B5026A22F480120262046A9C
:1050C0004268036D114D24F400142B400D6843EA2F
:1050D00005230D8944EA05540D4DA8420BD00D4D12
:1050E000A84208D00C4DA84205D00C4DA84202D0D1
:1050F0000B4DA84204D14D6922F4802242EA852258
:10510000426003654968C164046230BDFF8FFFFEE1
:10511000002C0140003401400040014000440140A7
:10512000004801402DE9F04125482A492C4F2DED3A
:10513000068B82789FED238B9FED249B9FED26AB02
:105140000E68B2B10079FBF7D0FA0D4645EC100BB2
:10515000044653EC182B51EC100BFBF757FA53ECA9
:10516000192BFBF7E1F9FBF7CDFA706345EC104B17
:1051700014E0134C641D2078FBF7B7FA53EC182B9E
:10518000FBF744FA53EC192BFBF7CEF9FBF7BAFA0D
:1051900070636078FBF7A9FA41EC100B53EC182B05
:1051A00051EC100BFBF732FA53EC1A2BFBF7BCF95E
:1051B000FBF7A8FA39684863BDEC068BBDE8F081BF
:1051C000080000200000000000005940000000001E
:1051D0000088C3405C010020000000000088B3404C
:1051E000C400002010B50468A268234B1A404B6825
:1051F0001343224A13400A681A43A2604A68602A8D
:1052000032D006DC302A34DD402A0ED0502A30D18C
:1052100024E01B4B9A422CDA702A2AD10B69D1E97F
:1052200002210068FFF7DEFD23E00A68052A13D09B
:10523000B2F1011F10D00268136A146A24F001044D
:10524000146202689469096924F0F00444EA0111C7
:105250009161006803620CE0012010BD0A69896851
:10526000006800F00FF804E00A698968006800F03F
:1052700051F8002010BD00008FFFCFFFF8FFFEFFA8
:105280003000100010B5036A046A24F001040462BF
:10529000846924F0F00444EA021423F00A020A4369
:1052A0008461026210BD000070B5046A24F001043C
:1052B00004628469056A124EB0420ED0B0F1804F8C
:1052C0000BD0104EB04208D00F4EB04205D00F4E5A
:1052D000B04202D00E4EB04203D124F00304144376
:1052E00001E044F001041A0724F0F00444EA1262D9
:1052F00025F00A0301F00A0119438261016270BDC1
:10530000002C01400004004000080040003401402F
:105310000040014010B5036A23F010030362836963
:10532000046A23F4704343EA023224F0A00343EA00
:1053300001118261016210BD30B5046A24F01004CD
:1053400004628469056A24F4407444EA022222F467
:1053500070444FF6FF7202EA03322243A02425F084
:10536000A00304EA011119438261016230BD00000B
:1053700030B5416EB9B1026891689268C1F342617B
:105380000B4B520F9C5CE50003F10804A25CB5FBDB
:10539000F2F2A0F86A205A5C615CD200B2FBF1F133
:1053A000A0F8681030BD0121A0F86A10F8E70000ED
:1053B000FC79000890F82810C90706D001684A68EF
:1053C000C36A22F400321A434A6090F82810890711
:1053D00006D501684A68036B22F480321A434A609A
:1053E00090F82810490706D501684A68436B22F4F3
:1053F00080221A434A6090F82810090706D50168F0
:105400004A68836B22F400421A434A6090F82810DD
:10541000C90606D501688A68C36B22F480521A4314
:105420008A6090F82810890606D501688A68036C9E
:1054300022F400521A438A6090F82810490611D5C8
:1054400001684A68436C22F480121A434A60416C36
:10545000B1F5801F06D101684A68836C22F4C0024E
:105460001A434A6090F82810090606D501684A6870
:10547000C06C22F4002202434A607047F8B500264F
:105480000446C0F88C60FCF77FFB05462068006886
:105490006FF07E47000708D52B4600224FF400111D
:1054A0002046009700F03AFC60B920680068400789
:1054B0000AD52B4600224FF480012046009700F0C9
:1054C0002DFC08B10320F8BD2020C4F88400C4F8E6
:1054D000880044F86C6F00202675F8BD10B5806A0E
:1054E0000021A0F85E10A0F85610FDF79AFF10BD3D
:1054F00001680A6822F490720A6001688A68094BA0
:105500001A408A60C16E012904D101680A6822F03C
:1055100010020A602021C0F888100021C1660167CE
:1055200070470000FEFFFFEF70B5B0F86010D0F8D4
:10553000882004460068222A04D0816941F00801CD
:10554000816170BD406AA26D08401080A06D801C12
:10555000A065B4F85E00401EA4F85E00B4F85E00DA
:105560000028EED12068016821F490710160206864
:10557000816821F0010181602020C4F888000025A5
:105580002567E06E012804D02046FEF723F9E56682
:1055900070BD2068016821F010010160B4F85C1052
:1055A0002046FDF7EEFEF2E72DE9F0470446B0F89D
:1055B00060600068C569D0F800A0D0F80880D4F811
:1055C0008810222905D0816941F008018161BDE878
:1055D000F087B4F868704FF000095BE02068406A1B
:1055E000A16D30400880A06D801CA065B4F85E00FD
:1055F000401EA4F85E002068C569690730D0E9073D
:105600000AD05FEACA5107D501210162D4F88C00A3
:1056100040F00100C4F88C00A8070BD55FEAC87001
:1056200008D0216802200862D4F88C0040F0040001
:10563000C4F88C0068070BD55FEAC87008D02168F1
:1056400004200862D4F88C0040F00200C4F88C00FA
:10565000D4F88C0020B12046FDF7E3FEC4F88C900E
:10566000B4F85E00B0B92068016821F4807101606F
:1056700020688168194A114081602020C4F88800A0
:10568000C4F87090E06E01281CD02046FEF7A2F806
:10569000C4F86C900FB1A806A0D4B4F85E0000283E
:1056A00095D0B4F86810814291D92068816821F0C2
:1056B000805181600A4820672068016841F020011C
:1056C000016084E72068016821F010010160B4F8EE
:1056D0005C102046FDF755FEDAE70000FEFFFFEF05
:1056E0002955000870B5B0F86010D0F8882004463D
:1056F0000068222A04D0816941F00801816170BDEF
:10570000406A0840A16D0870A06D401CA065B4F807
:105710005E00401EA4F85E00B4F85E000028EED1E2
:105720002068016821F4907101602068816821F08F
:10573000010181602020C4F8880000252567E06E03
:10574000012804D02046FEF745F8E56670BD2068C4
:10575000016821F010010160B4F85C102046FDF7EB
:1057600010FEF2E72DE9F0470446B0F860600068EB
:10577000C569D0F800A0D0F80880D4F88810222994
:1057800005D0816941F008018161BDE8F087B4F876
:1057900068704FF000095BE02068406AA16D3040FE
:1057A0000870A06D401CA065B4F85E00401EA4F80F
:1057B0005E002068C569690730D0E9070AD05FEA52
:1057C000CA5107D501210162D4F88C0040F00100D4
:1057D000C4F88C00A8070BD55FEAC87008D0216810
:1057E00002200862D4F88C0040F00400C4F88C0059
:1057F00068070BD55FEAC87008D0216804200862EA
:10580000D4F88C0040F00200C4F88C00D4F88C006E
:1058100020B12046FDF705FEC4F88C90B4F85E0078
:10582000B0B92068016821F4807101602068816846
:10583000194A114081602020C4F88800C4F8709093
:10584000E06E01281CD02046FDF7C4FFC4F86C9020
:105850000FB1A806A0D4B4F85E00002895D0B4F823
:105860006810814291D92068816821F0805181605F
:105870000A4820672068016841F02001016084E740
:105880002068016821F010010160B4F85C10204626
:10589000FDF777FDDAE70000FEFFFFEFE5560008B1
:1058A0002DE9F0410446016880682269E3691043EC
:1058B000626900251A431043DFF82CC20A688B4B3B
:1058C0001A4002430A6020684168E26821F44051AE
:1058D000114341602168A069614501D0226A1043EB
:1058E0008A68834B1A4002438A602068C16A626AF0
:1058F00021F00F011143C1627E4923687E488B422B
:105900000DD1D0F8880010F0030006D0012855D042
:10591000022842D003283FD152E001203DE07749E0
:105920008B420BD1D0F8880010F00C0035D0042841
:1059300033D0082840D00C282ED141E070498B424A
:105940000BD1D0F8880010F0300026D0102835D0C8
:10595000202831D030281FD132E06A498B420BD148
:10596000D0F8880010F0C00017D0402826D080283A
:1059700022D0C02810D123E063450DD1D0F8880093
:1059800010F4406009D0B0F5806F17D0B0F5006F0B
:1059900012D0B0F5406F13D010205B4A5B4F002649
:1059A0004FF40041634539D160B102280DD004287D
:1059B0000DD0082831D10EE00220EEE70420ECE7FC
:1059C0000820EAE7FCF710FC03E0114603E0FCF7CF
:1059D0002FFC01007DD0606A37F810206768B1FBAA
:1059E000F2F007EB470383426CD8B0EB073F69D86E
:1059F000002308461946FAF70BFC090241EA106138
:105A000002027808101871413A460023FAF700FCA8
:105A10003F4AA0F54071914259D953E0E3694FF6EE
:105A2000EF788B422DD109284CD2DFE800F0050831
:105A30000D4B274B4B4B0E00FCF7D6FB01E0FCF760
:105A4000E5FB010001D144E01146606A37F810001F
:105A5000B1FBF0F04100606801EB5001B1FBF0F0E8
:105A600080B2A0F1100141452CD84FF6F0710140F1
:105A7000C0F3420001432068C1602AE0FCF7D8FB74
:105A8000DFE709281ED2DFE800F005080D1D1F1D05
:105A90001D1D0E00FCF7A8FB01E0FCF7B7FB0100A1
:105AA00001D116E01146606A37F81000B1FBF0F141
:105AB000606801EB5001B1FBF0F080B2A0F1100181
:105AC000414504D9012504E0FCF7B2FBE7E7216872
:105AD000C8600120A4F86A0024F8680F2846A66070
