:020000040800F2
:10000000E8050020ED010008C33E00088730000825
:10001000C13E0008990800081D56000800000000B5
:100020000000000000000000000000007D42000809
:100030009B08000800000000C53E0008814200083F
:10004000070200080702000807020008070200086C
:10005000070200080702000807020008070200085C
:10006000070200080702000807020008070200084C
:10007000070200080702000807020008070200083C
:10008000070200080000000007020008070200083D
:10009000070200080702000807020008070200081C
:1000A000070200080702000807020008070200080C
:1000B0005D43000807020008070200080702000865
:1000C00007020008070200080702000807020008EC
:1000D000070200081156000807020008070200087E
:1000E00007020008070200080702000807020008CC
:1000F00007020008070200080702000800000000CD
:1001000000000000070200080000000007020008CD
:1001100007020008000000000702000807020008AC
:10012000070200080702000807020008070200088B
:10013000070200080000000000000000070200089D
:10014000070200080702000800000000000000008D
:10015000000000000000000000000000000000009F
:10016000000000000000000000000000070200087E
:10017000070200080000000000000000000000006E
:10018000000000000702000800000000000000005E
:10019000000000000000000000000000000000005F
:1001A000000000000000000007020008070200082D
:1001B000070200080702000807020008000000000C
:1001C000000000000702000800000000000000001E
:1001D0000702000807020008DFF80CD000F0B2FAAE
:1001E00000480047BD5F0008E8050020064880473A
:1001F00006480047FEE7FEE7FEE7FEE7FEE7FEE70C
:10020000FEE7FEE7FEE7FEE741430008D9010008EC
:100210002DE9F05F0546002092469B46884606463B
:10022000814640241BE0284641464746224600F0CE
:1002300045F953465A46C01A914110D31146184603
:10024000224600F02CF92D1A67EB01084F46224692
:100250000120002100F023F917EB00094E41201E78
:10026000A4F10104DFDC484631462A464346BDE896
:10027000F09FD2B201E000F8012B491EFBD270477B
:100280000022F6E710B513460A4604461946FFF762
:10029000F0FF204610BD2DE9FE4F81EA030404F073
:1002A000004421F0004100944FF0000B23F0004384
:1002B00050EA01045ED052EA03045BD0C3F30A544F
:1002C000C1F30A552C44A4F2F3340194A0FB025468
:1002D000C1F3130141F48011C3F3130343F48013FA
:1002E00001FB024400FB034E840A970A44EA81544E
:1002F00047EA8357A4FB076802958D0A05FB07852B
:100300004FEA932C04FB0C542705029D4FEA065834
:1003100047EA1637B5EB08056EEB070C870E920E11
:1003200047EA811742EA8312A7FB0201B6EB0B01F1
:1003300064EB00042B0D43EA0C335E1844EB1C50B5
:10034000DA465146E7FB0201C5F313044FEA0B33CB
:1003500043EA14534FEA0432019C43EA0603A4F132
:100360000C040294009CCDE900B400F0C6F803B080
:10037000BDE8F08F00200146F9E72DE9F04D81EA54
:10038000030404F0004B21F0004514464FF0000A2E
:1003900023F0004150EA050220D054EA01021DD0AA
:1003A000C5F30A570246C5F31303C1F31300C1F3A3
:1003B0000A5640F4801543F48013A7EB0608101B7F
:1003C000D64608F2FD3873EB050002D308F10108A8
:1003D00001E092185B41B8F1000F03DA00200146FA
:1003E000BDE8F08D00204FF48011064684460EE0F3
:1003F000171B73EB050705D3121B63EB05030643BD
:100400004CEA010C49084FEA300092185B4150EA6F
:100410000107EDD152EA030012D082EA040083EA18
:100420000501084305D0101BAB4106D20122002371
:1004300006E000224FF0004302E06FF0010253108B
:100440001AEB06004CEB085110EB0A0041EB0B01D4
:10045000BDE8F04D00F042B80EB540F233410291D4
:100460000021CDE900110A460B4600F046F803B022
:1004700000BD30B50B46014600202022012409E0D2
:1004800021FA02F59D4205D303FA02F5491B04FA4D
:1004900002F52844151EA2F10102F1DC30BD202A2C
:1004A00004DB203A00FA02F1002070479140C2F1CB
:1004B000200320FA03F3194390407047202A04DBFD
:1004C000203A21FA02F00021704721FA02F3D040CD
:1004D000C2F12002914008431946704710B5141E1E
:1004E00073F1000408DA401C41F1000192185B41ED
:1004F0001A4301D120F0010010BD2DE9F04D9246C4
:100500009B4611B1B1FA81F202E0B0FA80F22032DA
:100510009046FFF7C4FF04460F4640EA0A0041EA4E
:100520000B0153465A46084313D0114653EA0100C3
:1005300019D0C8F140025046FFF7C0FF05460E46ED
:10054000504659464246FFF7AAFF084305D001200E
:1005500004E020463946BDE8F08D0020054346EA18
:10056000E0762C4337430A986305E40AA0EB0800C1
:100570000022FD0A44EA47540A3002D50020014611
:10058000E9E7010510196941DDE9084500196941EC
:10059000BDE8F04DA2E72DE9FE4F804681EA030059
:1005A000C00F0C46009021F0004123F00045B8EB4D
:1005B0000200A94105D24046214690461C460B4602
:1005C000024623F00040104347D0270DC7F30A002E
:1005D000C3F30A510290401A019040286BDAC3F32A
:1005E000130040F4801B0098924620B10023D2EB08
:1005F000030A63EB0B0B01985946C0F140025046C9
:10060000FFF74DFF06460D4650465946019A00F049
:10061000ABF810EB08006141002487EA115284EA2C
:10062000E7731A4340D0009A62B3019A012A4FEA55
:10063000075215DC001B61EB02014FF0004202EA99
:100640000752CDE90042001C41F5801132462B468D
:10065000FFF753FF03B0BDE8F08F40462146F9E7AE
:10066000001B61EB0201001C41F5801300185B4187
:100670002018A2F5001747EB030140EAD570B61920
:100680006D4111E06D084FEA360645EAC0754FEA44
:100690000752001B61EB0201001C41F58011490863
:1006A0004FEA30000019514132462B4603B0BDE8F5
:1006B000F04FFFF713BF0098012240000023D0EB5A
:1006C000020263EBE073009821464FEAE074B8EB56
:1006D000000061EB0401E9E783F000435BE781F090
:1006E000004158E7C1F30A52C1F3130140F2FF334E
:1006F00041F480119A4202DA00200146704740F22C
:1007000033439A42A2F2334202DC5242FFF7D6BE92
:10071000FFF7C5BE30B5041E71F1000404DB4FF0D5
:100720000044404264EB0101141E73F1000405DB38
:100730001C464FF00043524263EB0403994208BF4A
:10074000904230BD064C074D06E0E06840F00103E2
:1007500094E8070098471034AC42F6D3FFF740FD09
:100760006072000880720008202A06DBCB17203A4E
:1007700041FA02F043EAE07306E041FA02F3D040A6
:10078000C2F12002914008431946704710B50C4849
:1007900000F000FD0A210A4800F082FC094C18B95B
:1007A000074800F04FFB20800A21054800F078FC44
:1007B000002803D1024800F045FB608010BD000016
:1007C000580000203800002070B504460068816899
:1007D0008268C1F3400112F0010F24D019BB816877
:1007E00001F00D01012910D18168104A1140891CC6
:1007F000816021680320086000F082FE05460EE05B
:1008000000F07EFE401B022809D9E06D40F0100088
:10081000E065206E40F001002066012070BD206878
:100820008068C007ECD1002070BD0000C0FFFF7FD2
:1008300070B504460068816811F0010F28D1816805
:10084000144A114215D18168D5432940491C816061
:1008500000F056FE064616E0816811F0010F03D144
:1008600081682940491C816000F04AFE801B0228F3
:1008700009D9E06D40F01000E065206E40F0010005
:100880002066012070BD20680168C943C907E3D113
:10089000002070BD3F000080FEE77047002240F658
:1008A000B83306E00021491C89B29942FBD3521C9F
:1008B00092B28242F6D3704770470000F8B5002626
:1008C0000446009690F858000D4601280BD00120F0
:1008D00084F858002046FFF777FF0100E06D04D050
:1008E00040F010002AE00220F8BD20F4885040F0CB
:1008F0000200E06520688268134B1A4005F08043CF
:100900001A4342F000428260104A20680EE0009BC9
:100910005B1C0093934209D3E06D20F0020040F08D
:100920001000E06584F858600120F8BD8368DB0F93
:10093000EDD1E06D20F0020040F00100E06584F8A8
:1009400058600846F8BD0000C0FFFF3F02DE04000B
:100950002DE9F047044690F858009CB00D464FF042
:100960000008012814D0012084F8580020684FF0B6
:10097000A0474FF00009B8420ED1284E00963046ED
:1009800002F00AFF8246206802F006FF60B10EE026
:1009900002201CB0BDE8F087E16D41F02001E16567
:1009A00084F858900120F4E7BAF1000F0AD0E06D06
:1009B00040F02000E0654FF0010800BF84F8589037
:1009C0004046E6E716482A6840F61F71002A82680A
:1009D00022F4604215D094F8383042EA43326B6812
:1009E0001A438260BA68B36802F0010203F001039F
:1009F0001A43E3D1AB682A681A4383688B431A43CE
:100A00000AE08260BA68B36802F0010203F00103F1
:100A10001A43D3D182688A438260CFE70001005035
:100A2000000300502DE9F84F00270446009790F886
:100A30005800DFF8DC930D46B846012811D0012696
:100A400084F85860206802F0A3FE60B1E06D40F0C9
:100A50002000E0655FF0010784F858803846BDE863
:100A6000F88F0220FBE7D5E900210C23206803EA78
:100A700091131844036B01F01F014FF01F0C0CFA87
:100A800001FCC2F3846223EA0C038A40134303632C
:100A9000206802F07DFE8246206802F075FE5AEA68
:100AA00000003CD1AA6829682068B2F1004F37D015
:100AB00002F07EFE2068416921F00041416120681A
:100AC0006969C268C2F3C102520091402A69042ACE
:100AD00031D000EB82002B68026EDFF838C303F0E0
:100AE000F84302EA0C020B431A4342F0004101664C
:100AF00022682869A96902EB8000026E22F08072E8
:100B00000A430266297F20682A69012910D0002142
:100B100000EB8200026E22F000720A4302667DE062
:100B2000002202F045FE2068416941F00041C5E71E
:100B30004FF00071ECE7002102F020FE4003206836
:100B40004FF0000172D002F019FE90FAA0F0B0FA56
:100B500080F1286842036ED090FAA0F0B0FA80F0DD
:100B6000814204D100221146206802F030FE0121AA
:100B7000206802F003FE400320684FF001015DD0C1
:100B800002F0FCFD90FAA0F0B0FA80F12868420370
:100B900059D090FAA0F0B0FA80F0814204D100223E
:100BA0000121206802F013FE0221206802F0E6FD18
:100BB000400320684FF0020148D002F0DFFD90FAB8
:100BC000A0F0B0FA80F12868420344D090FAA0F077
:100BD000B0FA80F0814204D100220221206802F0A4
:100BE000F6FD0321206802F0C9FD400320684FF0A4
:100BF000030133D002F0C2FD90FAA0F0B0FA80F108
:100C0000286842032FD090FAA0F0B0FA80F0814219
:100C100004D100220321206802F0D9FD20688168F8
:100C200011F0010F22D0ACE000E004E002F0A6FDDC
:100C3000C0F384618DE7C0F3846091E702F09EFD0C
:100C4000C0F38461A2E7C0F38460A6E702F096FDDA
:100C5000C0F38461B7E7C0F38460BBE702F08EFDA8
:100C6000C0F38461CCE7C0F38460D0E72A7B2968B5
:100C700050F8B03FC1F3120C23EA0C0302F0180C39
:100C8000654A22FA0CF20A4013430360E9684945B9
:100C900077D1286841031CD090FAA0F1B1FA81F114
:100CA000491C01F01F0109294FEA403132D80029BF
:100CB00012D000BF90FAA0F1B1FA81F101F1010167
:100CC00001F01F0106FA01F609D100BFC0F38461EB
:100CD00009E0C0F38461E3E7C0F38461EEE790FAD2
:100CE000A0F1B1FA81F101F1010101F01F0146EA21
:100CF000816102D1C0F3846003E090FAA0F0B0FA01
:100D000080F000F1010000F01F0000EB400041EA1C
:100D1000005132E000290ED090FAA0F1B1FA81F131
:100D200001F1010101F01F0106FA01F606D100BF31
:100D3000C0F3846106E0C0F38461F1E790FAA0F1AA
:100D4000B1FA81F101F1010101F01F0146EA81616F
:100D500002D1C0F3846003E090FAA0F0B0FA80F012
:100D600000F1010000F01F002C4A00EB400002EBF4
:100D7000005041EA000141F00071AA68206802F0C9
:100D800017FD27482A6802423FF466AE254881686D
:100D9000254B01F0E0719A4202D0244B9A421BD1BC
:100DA0000B0219D42268B2F1A04F7FF455AE8268CD
:100DB00041F4000122F0E0720A4382601C481D49A0
:100DC0000068B0FBF1F000EB4000800000E0401E46
:100DD00000900028FBD13FE6174D184BAA4207D1DF
:100DE000CD0105D422689A42F5D041F0807109E026
:100DF000134DAA42EFD14A02EDD422689A42EAD0BA
:100E000041F48001826822F0E0720A43826023E6A6
:100E100000007F4000F0FF03FFFF0700000020FEFE
:100E20000000088000030050000021C31000C090A3
:100E300054000020400D0300000052C70001005084
:100E4000000084CB0068006C70470000F8B54FF0DC
:100E5000000504002E46009502D0E06D10B107E0B9
:100E60000120F8BD204600F0EDF8266684F85860B1
:100E700020688168C1F3407119B18168694A1140E5
:100E8000816020688168C1F3007179B98168664A20
:100E9000114041F080518160644865490068B0FBB1
:100EA000F1F000E0401E00900028FBD1206881682E
:100EB000C1F3007141B9E16D41F01001E165216EAE
:100EC00041F001012166012502F062FCE16DC906D5
:100ED00000D430B1E06D40F01000E06501252846F7
:100EE000F8BDE06D20F4807040F00200E0652068FD
:100EF000806810F0010F11D14FF0A04080684D497B
:100F000000F00100896801F00101084306D14A4858
:100F10006168826822F47C120A438260E168E06BB7
:100F2000627F0843A16841EA4231084394F82410E3
:100F300040EA0140012904D1218D404A02EB4141A0
:100F40000843E16A29B101F47871226B014342EA56
:100F500001002168CA683A4B1A400243CA602068FF
:100F60000169626B21F0406111430161206802F068
:100F70000FFC0646206802F007FC30432ED1207F8C
:100F800094F83810800340EA41022068C16844F2B6
:100F9000020399431143C160206900282068016958
:100FA0000AD041F480310161206850F8C01F2269E5
:100FB0006FF30D01114307E021F4803101612068D6
:100FC00050F8C01F6FF30D01016094F84000012834
:100FD0000CD02068016921F00101016160690128DC
:100FE0002068016B21F00F0111D013E0D4E9110149
:100FF0000843D4E913121143084321680A6940F2F7
:10100000FC739A43104340F001000861E6E7226A4E
:10101000521E11430163E06D20F0020040F0010018
:10102000E0655CE7C0FFFF5FC0FFFF7F540000206A
:10103000400D030000010050000300500000FEFFBF
:101040000740F0FF10B586B0044614216846FFF74C
:1010500017F92068B0F1A04F1BD10F48C16C41F4C3
:101060000051C164C16C01F400510591C16C41F0A3
:101070000201C164C06C694600F0020005904FF4A3
:10108000A04000900320019000200290034800F04F
:1010900049F906B010BD00000010024000040048ED
:1010A0002DE9F041044639480F46816801F01F05DB
:1010B000A16908290FD085B1052D0ED0092D0CD0BE
:1010C000806800F4604060B1E06D40F02000E065B1
:1010D0000120BDE8F081082604E02068C068C00750
:1010E000F1E7042600F00CFA804608E0781C06D0F0
:1010F00000F006FAA0EB0800B8420FD877B12068DC
:1011000000683042F2D0E06D40F40070E065206885
:1011100002F046FBD0B1607F48B117E0E06D40F0CF
:101120000400E065002084F858000320D1E720681F
:10113000006800070AD5E06D20F48070E065E06D7E
:10114000C00403D4E06D40F00100E065104A20685F
:101150004FF0A041904201D10B4600E0034683428C
:1011600010D07DB1052D0DD0092D0BD0904200D0AF
:101170000146C968082E07D0490401D40C2101603A
:101180000020A6E7C168F5E70821F8E70003005052
:10119000000100502DE9F04104463848806800F015
:1011A0001F05206802F0F4FA18B102210846BDE8D4
:1011B000F08194F8580001280CD0012084F85800E0
:1011C0002046FFF735FB01004FF0000304D084F800
:1011D0005830EBE70220EAE7E06D40F60162904309
:1011E00040F48070E065264A20684FF0A0469042A7
:1011F00001D1374600E00746874200D01DB9E76DB0
:1012000027F48017E765E76DFF0404D5276E27F004
:101210000607276600E023661C27076084F858301D
:101220002068904201D1334600E00346834215D046
:10123000A5B1052D12D0092D10D0E36D43F4801314
:10124000E365904200D13046C0688001AED5E06DC4
:1012500020F4005040F48050E065A7E7C268920196
:1012600005D5E26D22F4005242F48052E2658268B4
:10127000044B1A40121D826098E7000000030050E2
:1012800000010050C0FFFF7F70B590F825200024BA
:1012900001212346022A07D00422C26380F82510C8
:1012A00080F82430012429E00268156825F00E0535
:1012B00015600268156825F001051560826C1568D7
:1012C00025F48075156090F84420056C02F01F022B
:1012D00001FA02F26A60D0E913255560426D32B11D
:1012E000156825F480751560D0E91625556080F8DD
:1012F000251080F82430816B01B18847204670BDED
:1013000070B5044600F0FCF80546601C02D00448A5
:101310004068044400F0F4F8401BA042FAD370BDCA
:10132000480000202DE9FC4FDFF8A0A10023012593
:101330000AF1040B03244FF00F0C0BF1040EBDE077
:1013400005FA03F632406FD04F68012F05D0022F07
:1013500003D0112F01D0122F17D1D0F808905F00C1
:1013600004FA07F829EA08090097D1F80C8008FA6E
:1013700007F848EA0908C0F808804768B7430E79BB
:10138000C6F300169E403E434660C6684FEA4308D7
:1013900004FA08F7BE4301978F6807FA08F7374346
:1013A000C7604E68022E01D0122E13D1DE0800EB6A
:1013B00086060096366A5F07FF0E0CFA07F926EAE2
:1013C0000906D1F8109009FA07F949EA0609009EC2
:1013D000C6F820900668019FBE430F7907F0030707
:1013E00007FA08F7374307604E68F60065D5384EB0
:1013F000376E47F001073766366E23F0030706F0B5
:1014000001060096334E3E44B146B6689F074FEA48
:1014100017780CFA08F7BE43B0F1904F05D02E4F65
:10142000B84204D1012717E047E0002714E02B4F12
:10143000B84201D102270FE0294FB84201D103275A
:101440000AE0284FB84201D1042705E0264FB842F0
:1014500001D1052700E0062707FA08F73743C9F846
:101460000870DAF800605746D1F8048096435FEAC6
:10147000C83800D516433E60DBF800605F46D1F8FF
:10148000048096435FEA883800D516433E60DEF854
:1014900000607746D1F8048096435FEAC82800D5FB
:1014A00016433E60094F0C373E68D1F804809643DE
:1014B0005FEA882800D516433E605B1C0A6832FA52
:1014C00003F67FF43DAFBDE8FC8F0000000401404F
:1014D00000100240000001400004004800080048DD
:1014E000000C004800100048001400480069084043
:1014F00000D0012070470AB1816170478162704756
:101500000148806870470000480000200248816858
:1015100042681144816070474800002010B50024E3
:10152000032000F077F8002000F008F808B101244B
:1015300001E000F025F8204610BD000070B50E4E09
:1015400005460024706898B14FF47A71B1FBF0F051
:101550000A490968B1FBF0F000F060FD40B9102DB8
:1015600006D200222946501E00F034F8356000E013
:101570000124204670BD00004800002054000020D7
:101580000B4808B5016E41F001010166016E01F0E2
:1015900001010091816D41F080518165806D00F005
:1015A000805000900348816841F48041816008BD0B
:1015B0000010024000700040002809DB00F01F020C
:1015C000012191404009800000F1E020C0F80011A5
:1015D00070470000F0B40E4B1B680C46C3F30223A7
:1015E000C3F10705042D00D90425191D072901D2CF
:1015F000002300E0DB1E012606FA05F1491E21400A
:1016000099409E40761E16403143F0BC04F052B81B
:101610000CED00E0064900F0070208684FF6FF03F2
:10162000184040EA0220034A104308607047000057
:101630000CED00E00000FA052B492C4B0A68322122
:101640004A432B4940B1B0F5007F086829D020F407
:10165000C06040F480602CE00868C0F3412002289C
:1016600004D051F8800F20F4807022E0D1F880007F
:1016700020F48070C1F88000086820F4C06040F455
:1016800000700860B2FBF3F0401C00E0401E4A69A5
:10169000520501D50028F9D1486940050AD5032033
:1016A0007047C0F34120022806D051F8800F40F463
:1016B0008070086000207047D1F8800040F480708E
:1016C000C1F88000086820F4C06040F40070086031
:1016D000B2FBF3F0401C00E0401E4A695205DBD526
:1016E0000028F9D1D8E700005400002040420F0044
:1016F000007000402DE9F8430446006800269D4D27
:1017000000035ED5A86D0027C00008D4A86D40F086
:101710008050A865A86D012700F080500090DFF888
:101720005892D9F8001041F48071C9F80010FFF701
:10173000E7FE804606E000BFFFF7E2FEA0EB0800F0
:1017400002282BD8D9F80000C005F5D5D5F89000AF
:1017500010F4407014D0216C814211D0D5F8900063
:10176000D5F8901020F4407041F48031C5F8901005
:10177000D5F8901021F48031C5F89010C5F890008C
:10178000C00711D0FFF7BCFE804641F2883907E060
:10179000FFF7B6FEA0EB0801494501D903260BE08F
:1017A000D5F890008007F3D5D5F89000216C20F48F
:1017B00040700843C5F890001FB1A86D20F080501C
:1017C000A8652078C00707D0D5F88800616820F0A8
:1017D00003000843C5F888002078800707D5D5F8AE
:1017E0008800A16820F00C000843C5F88800207824
:1017F000400707D5D5F88800E16820F0300008439D
:10180000C5F888002078000707D5D5F88800216939
:1018100020F0C0000843C5F888002078800607D56E
:10182000D5F88800616920F440600843C5F8880055
:101830002078400607D5D5F88800A16920F44050EB
:101840000843C5F888002078000607D5D5F8880039
:10185000E16920F440400843C5F888002088C005AD
:1018600007D5D5F88800216A20F440300843C5F830
:1018700088002088800507D5D5F88800616A20F4A3
:1018800040200843C5F88800208840050FD5D5F8CA
:101890008800A16A20F440100843C5F88800A06AB7
:1018A000B0F5801F03D1E86840F48010E86020881C
:1018B00000050FD5D5F88800E16A20F44000084300
:1018C000C5F88800E06AB0F5800F03D1E86840F4FD
:1018D0008010E8602088C0040FD5D5F88800216BFF
:1018E00020F040700843C5F88800206BB0F1807F7D
:1018F00003D1E86840F48010E86020884FF0006170
:1019000080040ED5D5F88800626B20F0406010434B
:10191000C5F88800606B884203D1E86840F4801005
:10192000E860208840040ED5D5F88800A26B20F02E
:1019300040601043C5F88800A06B884203D1E86876
:1019400040F48010E860208800040FD5D5F88800A6
:10195000E16B20F040500843C5F88800E06BB0F11F
:10196000805F03D1E86840F48030E8603046BDE82D
:10197000F883000000100240007000402DE9F0479D
:101980000E4605004FF0000725D0DFF8AC81D8F8EF
:10199000000000F00F00B0420CD2D8F8001021F087
:1019A0000F013143C8F80010D8F8000000F00F0014
:1019B000B04210D12968614CC80741F2883A5AD028
:1019C0006868DFF87C91032808D0022820682DD0B1
:1019D000400500282CDB0120BDE8F087206880014D
:1019E000F9D5E06800F00302E068C0F30310401C82
:1019F000032A19D0534A00BFB2FBF0F0E268C2F3E9
:101A000006225043E268C2F34162521C5200B0FB0E
:101A1000F2F0484517D9A06810F0F00F0CD08807F5
:101A200011D5A86840B10EE0474AE5E78003D0E74A
:101A300000F0B6F8484506D9A06820F0F00040F064
:101A40008000A0608027A068696820F00300084338
:101A5000A060FFF755FD814606E000BFFFF750FD8F
:101A6000A0EB090151453AD8A068696800F00C0064
:101A7000B0EB810FF2D12868810714D5400703D558
:101A8000A06840F4E060A0602878000705D5A06851
:101A900020F4605040F4E060A060A068A96820F0E5
:101AA000F000084304E0802F03D1A06820F0F0008C
:101AB000A060D8F80010404601F00F01B14216D9DD
:101AC000016821F00F0131430160FFF719FD07465E
:101AD00007E000BFFFF714FDC11B514501D90320EA
:101AE0007AE7D8F8000000F00F00B042F2D1287871
:101AF000400705D5A068E96820F4E0600843A060CD
:101B00002878000706D5A068296920F4605040EACB
:101B1000C100A06000F044F8A1680C4AC1F30311B1
:101B2000515C01F01F01C84009490860094800687C
:101B3000BDE8F047FFF702BD002002400010024060
:101B400000B4C4040024F40000366E01487200089A
:101B500054000020480000200548064900688968B4
:101B6000054AC1F30221515C01F01F01C8407047D2
:101B70005400002000100240587200080548064931
:101B800000688968054AC1F3C221515C01F01F0158
:101B9000C8407047540000200010024058720008EE
:101BA000184910B58868C0F381021748012A0BD084
:101BB0008A68164BC2F38102022A06D08A68C2F3F1
:101BC0008102032A03D0002010BD184610BDCA6848
:101BD00002F00304CA68C2F30312521C032C02D0A1
:101BE000B0FBF2F001E0B3FBF2F0CA68C968C2F3DF
:101BF00006225043C1F34161491C4900B0FBF1F09A
:101C000010BD0000001002400024F40000366E01F8
:101C10002DE9F84304007AD02078FA4DC00747D068
:101C2000A868E96800F00C0001F003010C2802D05C
:101C3000082817D001E0032914D06068B0F5803F70
:101C400017D0B0F5A02F286817D020F48030286076
:101C5000286820F4802028606068E0B1FFF750FC1D
:101C6000064614E02868800322D560680028D2D098
:101C70001EE0286840F48030EDE740F480202860C2
:101C8000F7E700BFFFF73CFC801B642870D828688A
:101C90008003F7D50CE0FFF733FC064605E000BFF4
:101CA000FFF72EFC801B6428F0D828688003F7D447
:101CB000207880074CD5A868E96800F00C0001F096
:101CC00003010C2802D004280DD001E002290AD01B
:101CD000E068002828682BD040F480702860FFF767
:101CE0000FFC064619E02868400502D5E068002888
:101CF00091D06868217C20F0FE4040EA0160686075
:101D0000C1480068FFF71AFC002800D120E076E106
:101D1000FFF7F6FB801B0228B8D828684005F7D5E6
:101D20006868217C20F0FE4040EA016068600FE0B6
:101D300020F480702860FFF7E3FB064605E000BF53
:101D4000FFF7DEFB801B0228A0D828684005F7D4E7
:101D50002078000729D560690028D5F8940013D0B1
:101D600040F00100C5F89400FFF7CAFB064606E004
:101D700090E000BFFFF7C4FB801B022886D8D5F88F
:101D800094008007F6D510E020F00100C5F894001B
:101D9000FFF7B6FB064604E0FFF7B2FB801B022804
:101DA00078D8D5F894008007F6D42078400761D51C
:101DB000A86D0026C00008D4A86D40F08050A8652A
:101DC000A86D012600F08050009090480168C90578
:101DD00011D40168804641F480710160FFF790FBE7
:101DE000074604E0FFF78CFBC01B022852D8D8F846
:101DF0000000C005F6D5A068012815D00528D5F843
:101E0000900016D020F00100C5F89000D5F89000A1
:101E100020F00400C5F89000A06841F28838B8B1FD
:101E2000FFF76EFB07460EE0D5F8900040F001008A
:101E3000F0E740F00400C5F89000F5E7FFF760FB1D
:101E4000C11B414526D8D5F890008007F6D50CE097
:101E5000FFF756FB074604E0FFF752FBC11B414565
:101E600018D8D5F890008007F6D41EB1A86D20F0E0
:101E70008050A8652078800629D5A0690028D5F86B
:101E8000980013D040F00100C5F89800FFF738FB28
:101E9000064606E077E000BFFFF732FB801B022812
:101EA00077D8D5F898008007F6D510E020F001002B
:101EB000C5F89800FFF724FB064604E0FFF720FB77
:101EC000801B022865D8D5F898008007F6D4E06911
:101ED000F0B3A968C1F38101032961D00228286801
:101EE00020F0807028600BD0E86820F00300E860E4
:101EF000E86847490840E860FFF702FB04464BE00A
:101F0000FFF7FEFA064604E0FFF7FAFA801B022804
:101F10003FD828688001F7D4F4E908016FF00F0278
:101F200002EB01110843218A5204490802EB415196
:101F3000A26841EA02210843217D4FF07E42490810
:101F400002EB41610843217B40EAC160E96800E09F
:101F500062E0304A11400843E860286840F0807031
:101F60002860E86840F08070E860FFF7C9FA04462E
:101F700005E000BFFFF7C4FA001B022809D8286853
:101F80008001F7D548E004E0FFF7BAFA001B022809
:101F900002D90320BDE8F88328688001F4D43BE02F
:101FA0000128F7D0E868226A00F00301914226D1A7
:101FB000616A00F0F0020901103991421FD1A26A52
:101FC00000F4FE41B1EB022F19D194F82C2000F05F
:101FD0007841B1EBC26F12D1218E00F4C0024908E2
:101FE0004905A1F50011914209D194F8341000F08F
:101FF000C06049084906A1F1007181420CD001205E
:10200000C8E70000001002404800002000700040B7
:10201000FFFFEEFE0C809F010020BBE710B5401EC5
:10202000B0F1807F01D3012010BD4FF0E02460614A
:102030000F21601703F03EFB0020A0610720206104
:10204000002010BD7047704770470000F0B590F851
:102050003C20012A4AD0012280F83C20CA688B68C3
:1020600022F440721A434B6822F480621A430B68D0
:1020700022F400621A430B6922F480521A434B691E
:1020800022F400521A430B6B22F480421A430B8B4A
:1020900022F4702242EA0342154C03680026154DD3
:1020A000A34201D0AB4203D1CF6922F080523A4320
:1020B000A34201D0AB4214D10F8D22F4700242EA48
:1020C00007520F6A22F080723A434F6A22F0007280
:1020D0003A43A34201D0AB4203D1C96A22F0005275
:1020E0000A435A6480F83C600020F0BD0220F0BD35
:1020F000002C0140003401407047704770470000D9
:10210000F0B590F83C20012A3AD0012580F83C50E7
:10211000022280F83D2003685A689C68194E1A4FC5
:10212000B34201D0BB4204D122F4700C4A6842EAA7
:102130000C02DFF858C002EA0C02D1F800C04CEAE9
:10214000020CC3F804C00268B2420DD0B2F1804F55
:102150000AD00F4B9A4207D00E4B9A4204D0BA4293
:1021600002D00D4B9A4204D1896824F080031943B0
:10217000916080F83D50002180F83C100846F0BD89
:102180000220F0BD002C0140003401408FFFFFFD14
:1021900000040040000800400040014010B5044623
:1021A000022249B104290ED0082913D094F847001F
:1021B000012816D0012010BD94F844000128F9D15F
:1021C00084F844200FE094F845000128F2D184F807
:1021D000452008E094F846000128EBD184F8462019
:1021E00001E084F847200422206802F022F92068E8
:1021F000416C41F40041416420688168064A114005
:10220000062906D0B1F5803F03D0016841F00101F5
:102210000160002010BD000007000100704710B5EC
:10222000040003D094F83D0010B107E0012010BD78
:10223000002084F83C00204600F022F8022084F8B8
:102240003D00211D206802F08FF8012084F848002D
:1022500084F83E0084F83F0084F8400084F8410090
:1022600084F8420084F8430084F8440084F8450070
:1022700084F8460084F8470084F83D00002010BD33
:1022800010B586B0044614216846FDF7F9FF2068B2
:10229000B0F1804F27D11548816D41F00101816572
:1022A000816D01F001010591C16C41F00101C16432
:1022B000C06C694600F0010005904FF400400090AA
:1022C00002200190002002900390012004904FF022
:1022D0009040FFF727F8002211461C20FFF77AF9FB
:1022E0001C20FFF769F906B010BD00000010024085
:1022F00070B504460068B0F1804F0FD1207F0128EF
:102300000CD10021204600F09FFB054D401CA86128
:102310000421204600F098FB401CE86170BD0000DD
:10232000080000202DE9F041054690F83C000C46DD
:10233000012836D0012085F83C008AB3042A42D017
:102340002868082A51D0D4E90023E168066A26F4F7
:1023500080560662C669076A26F4407646EA032379
:102360004FF6FF7606EA013123F4704319434FF428
:10237000204627F4204306EA02321A43C161026272
:102380002868C16921F44061C1612868C169A268F7
:1023900041EA0221C161002085F83C00BDE8F081DE
:1023A00001E00220FAE7D4E90012E368286802F0AD
:1023B0004DFA2868816921F00C01816128688169E2
:1023C000A26811430FE0D4E90012E368286802F024
:1023D00085FA2868816921F44061816128688169F2
:1023E000A26841EA02218161D5E7D4E90027267B72
:1023F000016A21F480710162C169036A21F003015D
:10240000394321F0F00731074FF4206647EA1161A4
:1024100023F4206306EA02221A43C161026228689B
:10242000C16921F00C01C1612868C169A26811432A
:10243000B0E710B5040003D094F83D0010B107E0F8
:10244000012010BD002084F83C00204600F022F856
:10245000022084F83D00211D206801F085FF012045
:1024600084F8480084F83E0084F83F0084F8400077
:1024700084F8410084F8420084F8430084F8440062
:1024800084F8450084F8460084F8470084F83D004D
:10249000002010BD7047000010B5044679B1042932
:1024A00012D0082915D00C2918D0102919D094F869
:1024B000430000BF94F84720012817D114E094F896
:1024C0003E0094F84420F7E794F83F0094F8452044
:1024D000F2E794F8400094F84620EDE794F84100C4
:1024E000E8E794F84200E5E7012A01D0012010BD99
:1024F0000220F1B1042921D0082924D00C2927D0A9
:10250000102928D084F8430084F84700012220686D
:1025100001F082FF20688168104A1140062906D028
:10252000B1F5803F03D0016841F001010160002056
:1025300010BD84F83E0084F84400E7E784F83F00CB
:1025400084F84500E2E784F8400084F84600DDE7BF
:1025500084F84100D8E784F84200D5E7070001007D
:1025600010B5044679B1042912D0082915D00C29D8
:1025700018D0102919D094F8430000BF94F84720D0
:10258000012817D114E094F83E0094F84420F7E7AE
:1025900094F83F0094F84520F2E794F8400094F84E
:1025A0004620EDE794F84100E8E794F84200E5E7BB
:1025B000012A01D0012010BD022071B1042915D0DB
:1025C00008291CD00C2936D0102937D084F84300B4
:1025D00084F847000C291BD133E084F83E0084F8CE
:1025E00044002068C26842F0020210E084F83F0014
:1025F00084F845002068C26842F0040207E084F8CD
:10260000400084F846002068C26842F00802C260B8
:102610000122206801F000FF206881680B4A114008
:10262000062906D0B1F5803F03D0016841F00101D1
:102630000160002010BD84F84100C9E784F8420021
:10264000C6E72068C26842F01002E0E70700010018
:1026500070B50446006801694FF00005C943890759
:1026600015D4C168C943890711D4E91E016101204D
:102670002077206880698007204602D0FFF738FE67
:1026800004E000F009F9204600F0DCF92577206825
:102690000169C943490717D4C168C943490713D41D
:1026A0006FF004010161022020772068806910F436
:1026B000407F204602D0FFF71BFE04E000F0ECF85C
:1026C000204600F0BFF9257720680169C943090752
:1026D00016D4C168C943090712D46FF0080101611B
:1026E000042020772068C0698007204602D0FFF7C9
:1026F000FFFD04E000F0D0F8204600F0A3F92577B4
:1027000020680169C943C90617D4C168C943C9060D
:1027100013D46FF010010161082020772068C06990
:1027200010F4407F204602D0FFF7E2FD04E000F005
:10273000B3F8204600F086F9257720680169C9437F
:10274000C90708D1C168C943C90704D1891E0161FD
:10275000204600F078F920680169C943090609D4C8
:10276000C168C943090605D46FF0800101612046A4
:10277000FFF769FC20680169C943C90509D4C1682C
:10278000C943090605D46FF4807101612046FFF743
:1027900059FC20680169C943490609D4C168C94385
:1027A000490605D46FF040010161204600F08CF924
:1027B00020680169C943890609D4C168C9438906EB
:1027C00005D46FF0200101612046FFF73DFC206831
:1027D0000169C943C90209D4C168C943C90205D402
:1027E0006FF4801101612046FFF787FC20680169C2
:1027F000C943890209D4C168C943890205D46FF469
:10280000001101612046FFF777FC20680169C94388
:10281000490209D4C168C943490205D46FF4800153
:1028200001612046FFF76AFC20680169C94309027B
:102830000BD4C168C943090207D46FF400010161D8
:102840002046BDE87040FFF7E9BC70BD10B586B00A
:10285000044614216846FDF713FD0D49206888429F
:1028600014D10C48C16C41F00101C164C06C6946CF
:1028700000F00100059002200090019000200290DD
:10288000039009200490C006FEF74CFD06B010BD71
:102890000040014000100240704770B5044690F8B7
:1028A0003C000D4601280BD0012084F83C000C2A86
:1028B00045D007DC5AB1042A1BD0082A78D12CE075
:1028C000022070BD102A4ED0142A71D15DE020681C
:1028D00001F0C6FD2068816941F00801816120682E
:1028E000816921F004018161206881692A691143AD
:1028F00011E0206801F002FE2068816941F4006166
:1029000081612068816921F4806181612068816929
:102910002A6941EA022181614AE0206801F036FE1D
:102920002068C16941F00801C1612068C16921F0D6
:102930000401C1612068C1692A69114311E020685E
:1029400001F06CFE2068C16941F40061C16120683A
:10295000C16921F48061C1612068C1692A6941EAC5
:102960000221C16124E0206801F0A0FE2068016D11
:1029700041F0080101652068016D21F00401016545
:102980002068016D2A69114311E0206801F0C6FE3C
:102990002068016D41F4006101652068016D21F43A
:1029A000806101652068016D2A6941EA02210165A3
:1029B000002084F83C0070BD10B5040003D094F8EA
:1029C0003D0010B107E0012010BD002084F83C005C
:1029D000204600F023F8022084F83D00211D2068E5
:1029E00001F0C2FC012084F8480084F83E0084F81D
:1029F0003F0084F8400084F8410084F8420084F8E5
:102A0000430084F8440084F8450084F8460084F8C4
:102A1000470084F83D00002010BD000008B50068A4
:102A20000649884208D10648016E41F480310166AA
:102A3000006E00F48030009008BD000000400140AE
:102A400000100240704770470246002041B104293F
:102A500009D008290AD00C2901D11068006C7047F0
:102A60001068406B70471068806B70471068C06BCF
:102A7000704770B5044690F83C00012812D001253B
:102A800084F83C50022084F83D00204601F07EFE90
:102A900001004FF0000007D084F83D5084F83C005E
:102AA000012070BD022070BD2168CA6822F040027A
:102AB000CA602168CA6822F48042CA6084F83D5026
:102AC00084F83C00002070BD704790F87C1001290C
:102AD00018D0012180F87C102421C0F8801050F813
:102AE000601B0A680B6823F001030B6022F00051A1
:102AF0000022426050F8603C196020210162027798
:102B00001046704702207047704770B5044690F831
:102B10007C0001281DD0012084F87C002420C4F80A
:102B2000800020680568026822F0010202602068C7
:102B3000826822F060620A438260204601F0EAFE69
:102B4000206805602020C4F88000002084F87C0004
:102B500070BD022070BD70B5044690F87C0001285D
:102B60001DD0012084F87C002420C4F88000206857
:102B70000568026822F0010202602068826822F083
:102B800060420A438260204601F0C4FE206805606E
:102B90002020C4F88000002084F87C0070BD022052
:102BA00070BD7047704770472DE9F04103680446D7
:102BB000D8691A68996810F00F0F4FF0000569D0B6
:102BC0005E4E02F490770E4037437DD0C70709D0A0
:102BD000D70507D501271F62D4F8883043F00103D9
:102BE000C4F8883083070AD5CB0708D027680223AA
:102BF0003B62D4F8883043F00403C4F888304307BC
:102C00000AD5CB0708D0276804233B62D4F8883064
:102C100043F00203C4F8883003070CD502F0200308
:102C2000334308D0266808233362D4F8883043F051
:102C30000803C4F88830D4F88830002B3CD08006D4
:102C400009D502F0200001F08051084303D0E16E65
:102C500009B120468847D4F8880021688968490668
:102C600001D400072AD5204601F024FF206881689E
:102C700049061ED5816821F040018160A06FC0B176
:102C80002F498163A06FFEF7FFFA002814D0A06FD0
:102C9000816B0AE0860617D502F0200601F0805706
:102CA0003E4311D0E16E24E02046BDE8F0410847E4
:102CB0000AE02046FFF777FFBDE8F0812046FFF7E6
:102CC00072FFC4F88850F7E7C60209D54E0207D54F
:102CD0004FF4801018622046BDE8F041FFF762BF54
:102CE000060609D502F0800601F400010E4303D068
:102CF000216F0029D8D1DFE741060DD551060BD54C
:102D00001968204621F0400119602021C4F8801084
:102D1000256700F0B7F9CFE7010206D5510004D5C9
:102D20002046BDE8F041FFF73CBFC001C4D5002AF2
:102D3000C2DA2046BDE8F041FFF7E6BE0100001010
:102D40009F4A000810B5040003D0D4F8800010B1E9
:102D500007E0012010BD002084F87C00204600F030
:102D600027F82420C4F880002068016821F00101C0
:102D70000160204601F0B0FF0128EBD0A06A10B13D
:102D8000204601F0F9FD2068416821F4904141603E
:102D90002068816821F02A0181602068016841F083
:102DA000010101602046BDE8104001F049BE00006D
:102DB00010B586B0044614216846FDF761FA17493C
:102DC0002068884227D11648016E41F4804101668F
:102DD000016E01F480410591C16C41F00101C164B3
:102DE000C06C694600F0010005904FF4C06000908F
:102DF00002200190002002900390072004904FF0E1
:102E00009040FEF78FFA002211462520FEF7E2FBE4
:102E10002520FEF7D1FB06B010BD000000380140B0
:102E20000010024070B5D0F88430202B6DD1B9B1BC
:102E3000B2B190F87C30012B67D0012380F87C3050
:102E40008165A0F85C20A0F85E200021C16683683F
:102E50004FF48056FF24B34207D1036913B11CE03D
:102E6000012070BD40F2FF131DE07F259BB1B3F13F
:102E7000805F15D0A0F86010C0F888102223C0F839
:102E8000843003689C6844F001049C60436EB3F195
:102E9000005F0ED027E0036943B9A0F86040EBE77C
:102EA00003691BB13F23A0F86030E5E7A0F860504C
:102EB000E2E7B0F86830934215D88268B24201D197
:102EC000026972B1124AC26680F87C1001680A6811
:102ED00042F480720A600068816841F0805181602C
:102EE0000FE00C4AEFE78268B24201D1026952B1A9
:102EF000094AC26680F87C100068016841F490714C
:102F00000160002070BD054AF3E7022070BD00009B
:102F1000394C0008394B0008D94B0008D94A000841
:102F20002A4910B5087800F08AF900284BD0487873
:102F300000F085F9002846D0887800F080F9A8B321
:102F4000C8782D283FD1087900F079F970B3487915
:102F500000F075F950B3887900F071F930B31B4C6B
:102F600008782E3C2278904221D1487862789042AD
:102F70001DD18878A278904219D1087920704879BB
:102F800060708879A070022211A1124800F02CF81C
:102F900003222146002000F0A3FDA078303800EB8A
:102FA00080004006000E00F05FFD05E00BE004220B
:102FB00009A1084800F018F8BDE8104007220349AD
:102FC0000448FFF72FBF042205A1F2E73C000020D0
:102FD0004F4B00005C01002065727232000000005F
:102FE0006572723100000000D0F88030202B3ED195
:102FF00049B342B390F87C30012B38D0012380F8DC
:103000007C300165A0F85420A0F85620002101670B
:10301000C0F888102122C0F88020436E4FF48052FF
:10302000B3F1005F836810D0934201D10269E2B12D
:10303000104A026780F87C100068016841F0800146
:1030400001600020704701207047934201D102695E
:103050004AB1094A026780F87C100068816841F42F
:1030600000018160EDE7054AF4E7054AE1E7022047
:10307000704700001955000859550008C154000850
:103080007F5400087047FEE770B50824002501F062
:10309000BDF813E06806050E002001F09FF814202B
:1030A00002F086FF142002F083FF012001F096F861
:1030B000142002F07DFF01F09DF80543641EE4B288
:1030C000E8D2002001F08AF8142002F071FF01F02C
:1030D000BFF8284670BD10B5002001F0ADF81420EF
:1030E00002F066FF142002F063FF012001F076F881
:1030F000142002F05DFF002001F070F8BDE81040E0
:10310000142002F055BF70B50446082516E001F002
:1031100065F8142002F04CFF04F0800001F08CF8F8
:10312000142002F045FF6006040E142002F040FF58
:10313000012001F053F8142002F03AFF6D1EEDB2A9
:103140004FF00000E3D201F049F8BDE870401420D0
:1031500002F02EBF10B5012001F06EF8142002F02D
:1031600027FF142002F024FF012001F037F814207B
:1031700002F01EFF002001F031F8BDE810401420DD
:1031800002F016BF10B5012001F056F8142002F02D
:103190000FFF012001F022F8142002F009FF0020A7
:1031A00001F04AF8142002F003FF002001F016F8A5
:1031B000BDE81040142002F0FBBE10B5002001F065
:1031C0000DF8142002F0F4FE002001F035F8142070
:1031D00002F0EEFE012001F001F8142002F0E8FEFA
:1031E000012001F029F8BDE81040142002F0E0BEF3
:1031F00010B5052401F00AF8142002F0D9FE0120D0
:1032000000F0ECFF142002F0D3FE05E0641EA4B22F
:10321000142002F0CDFE64B100F0ECFF0028F5D1DF
:1032200000F0DCFF142002F0C3FE01F011F80020D2
:1032300010BD01F00DF8FFF7C0FF012010BD3038C0
:10324000092801D8012070470020704770B51F4D34
:10325000002401212846FEF749F940B90A20FEF76B
:103260004FF801212846FEF741F900B90124022157
:103270002846FEF73BF940B90A20FEF741F8022143
:103280002846FEF733F900B9022404212846FEF748
:103290002DF940B90A20FEF733F804212846FEF73D
:1032A00025F900B903244FF0904501212846FEF787
:1032B0001DF940B90A20FEF723F801212846FEF740
:1032C00015F900B90424204670BD00000004004830
:1032D00070B5FFF7BBFF2F4AD178884256D0D07027
:1032E000116930230A24916202F10901012806D0F4
:1032F000022811D0032819D0042847D123E00878E8
:10330000402807D02F3890FBF4F304FB1300303033
:1033100008703BE00B7039E04878402804D0401C2E
:10332000C0B248703A2831D14B702FE088784028DD
:1033300007D02F3890FBF4F304FB13003030887073
:1033400024E08B7022E013480D78801D4023047820
:10335000AC420ED144784D78AC420AD180788C785A
:10336000A04206D1002090800B704B708B70012022
:1033700070BD9088401C80B290800B704B708B7039
:10338000032803D3012090701069D06210690020D7
:1033900070BD00000800002000B585B0142168460B
:1033A000FCF76EFF4FF6FF70009000200321CDE97F
:1033B0000201019069460248FDF7B4FF05B000BD67
:1033C0000008004800B585B014216846FCF758FF96
:1033D0004FF6FF7000900120019003200390002021
:1033E000029069460248FDF79DFF05B000BD000050
:1033F0000008004870B5002406462146204600F02B
:1034000003F900F041F94FF49635304600F010F919
:10341000641CAC42F9D370BD30B587B01421684646
:10342000FCF72EFF1E48C16C41F00401C164C16C61
:1034300001F004010591C16C41F00101C164C16C4E
:1034400001F001010591C16C41F00201C164C06C41
:10345000012500F0020005904FF44870CDE9000509
:1034600000240394694602940E48FDF75BFF28028E
:1034700003940090CDE901544FF0904469462046F2
:10348000FDF750FFFFF79EFFA06940F48070A06138
:1034900004481830016841F40871016007B030BD7C
:1034A0000010024000040048203AD2B2034B02EB65
:1034B000420203EB021200F019B800007860000825
:1034C000F0B50E460746002540F23F1407E02146BE
:1034D0003846FFF7E9FF103C6D1CA4B2761C327829
:1034E000002A01D0142DF2D3F0BD00002DE9F047E1
:1034F00091468A460026044600F086F8DFF84080B0
:10350000012700BF00F0C0F85FF0000539F8160091
:1035100007FA05F10842404601D1408800E00088E2
:1035200000F086F86D1C102DF0D3641CE4B25146F7
:10353000204600F069F8761C182EE3D3BDE8F0872A
:103540000000002010B5FFF767FF002000F014F81E
:10355000084CA080A088A0F50241303906D000F0C8
:103560003BFD002000F008F8A08010BD00F0ABFC8F
:10357000F7E700000000002070B51D490A6842F41A
:1035800000720A600A6842F480720A60184C103CAB
:10359000226842F020022260164A1060086840F05B
:1035A0002000086000BF00BF00BF206840F020007E
:1035B0002060206840F480702060FFF7EDFE4FF03F
:1035C0009041886A40F48070886200BF00BF00BFED
:1035D0000848001F006885B2886940F480708861DF
:1035E000FFF7F0FE206840F400702060284670BDB0
:1035F000280400481408004801B5BDF8000001493E
:10360000488008BD0000002010B50C46014620206F
:1036100000F068F82146BDE81040212000F062B8B3
:1036200001B5BDF800000149088008BD0000002078
:10363000134A116841F400711160114910390B6887
:1036400043F480730B600B6843F020030B600D4B59
:103650001860106840F02000106000BF00BF00BF7D
:10366000086840F020000860086840F48070086036
:1036700000BF00BF00BF086840F4007008607047DA
:1036800028040048140800481449086840F40070F1
:103690000860086840F480700860104810380268BC
:1036A00042F0200202600E4B22221A600A6842F0A9
:1036B00020020A6000BF00BF00BF016841F0200186
:1036C0000160016841F48071016000BF00BF00BF6C
:1036D000016841F40071016070470000280400484F
:1036E00014080048184B10B51A6842F400721A60AA
:1036F0001A6842F480721A60134A103A146844F04F
:1037000020041460114C2060186840F020001860FC
:1037100000BF00BF00BF106840F0200010601068BC
:1037200040F4807010602160186840F0200018603C
:1037300000BF00BF00BF106840F02000106010689C
:1037400040F48070106010BD280400481408004840
:10375000084910B5C04300020860074C012204214B
:103760002046FDF7C8FE20460022BDE81040042197
:10377000FDF7C1BE14080048000C004800EB8100B2
:10378000006E00F0F84070478068C0F3C0007047DA
:103790008068C0F3800070478068C0F38000704785
:1037A000C06810F4406F01D00020704701207047BE
:1037B000042303EAD15310B518444369C1F30451FB
:1037C00007248C40A3438A401343436110BD00EBA0
:1037D0008100016E21F00041114301667047000035
:1037E000F0B52DED048B89B01C2102A8FCF748FD33
:1037F000594C6078002866D058A11820FFF760FE69
:103800004FF4FA625AA102A801F040FF02A9482031
:10381000FFF756FE0A2259A102A801F037FF02A9BC
:103820005FF06000FFF74CFE4B4F30377888FCF7B5
:1038300013FE9FED559B53EC192BFCF72CFD9FEDD0
:10384000548B53EC182BFCF798FD05460E46388830
:10385000FCF702FE53EC192BFCF71DFD53EC182B63
:10386000FCF78BFD41EC100BCDE9005653EC102B0F
:1038700049A102A801F00AFF02A90020FFF720FEDB
:10388000A06900283FD0A069FCF7E6FD41EC100BD1
:1038900053EC102B9FED460B51EC100BFCF76DFD1C
:1038A00041EC100B44A153EC102B02A801F0EEFEEA
:1038B00002A99020FFF704FEE06964214843A16952
:1038C000B0FBF1F229E040A11820FFF7F9FD224DED
:1038D00042A1093502A82A7801F0D8FE02A94820A1
:1038E000FFF7EEFD6A783FA102A801F0CFFE02A922
:1038F0006020FFF7E5FDAA783CA102A801F0C6FE12
:1039000002A978208EE700223AA102A801F0BEFEAB
:1039100002A99020FFF7D4FD002239A102A801F0EE
:10392000B5FE02A9A820FFF7CBFDE26938A102A8E5
:1039300001F0ACFE02A9C020FFF7C2FDA26937A1C9
:1039400002A801F0A3FE02A9D820FFF7B9FD09B033
:10395000BDEC048BF0BD00000800002020202020DA
:10396000202020535441202020202020202000000F
:103970002020463A253464485A0000002020443A6A
:1039800025326425250000006666666666660A4084
:103990000000000000FEAF404D43503A25342E3168
:1039A00066252C5233383A25342E31662500000026
:1039B0000000000080842E412020467265713A2567
:1039C000342E3266487A000020202020202020203B
:1039D000505344202020202020202000202042314D
:1039E0003A256300202042323A25630020204233EA
:1039F0003A2563002020467265713A2564487A00B2
:103A00002020447574793A25326425250000000091
:103A1000202044757479313A2564000020204361E8
:103A20007074313A256400000E48014682780978A6
:103A3000012A12D10269C36AD21A41F288339A422A
:103A40000BD84369026A9A4204D0426981F00201AC
:103A5000026201700078FFF77BBE0022827021F0C5
:103A60000201F6E70800002010B50446FFF78AFBC4
:103A70005E20FFF748FBFFF7BBFB2046FFF743FB49
:103A8000FFF7B6FBBDE81040FFF797BB70B51546D2
:103A90000C460646FFF776FBA020FFF734FBFFF746
:103AA000A7FB3046FFF72FFBFFF7A2FBFFF76AFBF0
:103AB000A120FFF728FBFFF79BFB09E0FFF7E4FAE3
:103AC00004F8010B15B1FFF706FB01E0FFF742FB1D
:103AD0006D1EEDB2F2D2BDE87040FFF76EBB000084
:103AE00070B515460C460646FFF74CFBA020FFF7C5
:103AF0000AFBFFF77DFB304602E000BF14F8010B24
:103B0000FFF701FBFFF774FB6D1EEDB2F6D2FFF776
:103B100054FBBDE870404FF4FA7002F049BA00005F
:103B2000F0B58BB0002408940994202168460A94CB
:103B3000FCF7A6FB22484FF0A0410125C0E9001484
:103B4000846000F110010426C46081E870000477ED
:103B500044770221016280F82440C462046380F843
:103B60003840C46380F84040FDF770F908B1FCF7B5
:103B7000A3FE08A912480894FCF7EAFE08B1FCF776
:103B80009BFE10480627CDE900077F20CDE90250B3
:103B9000CDE9046469460A48FCF744FF08B1FCF724
:103BA0008BFE094800900C20CDE9010769460448C6
:103BB000FCF738FF002801D0FCF77EFE0BB0F0BD0B
:103BC000580000202000F0140008302E2DE9F047A6
:103BD00086B014216846FCF753FB4548C16C41F0A0
:103BE0000401C164C16C01F004010591C16C41F094
:103BF0002001C164C16C01F020010591C16C41F04C
:103C00000101C164C16C01F001010591C16C41F079
:103C10000201C164C16C01F002010591C16C41F067
:103C20000801C164C06C334F00F008004FF6FF7408
:103C30000590002221463846FDF75DFC4FF4807662
:103C40004FF09048002231464046FDF754FCDFF823
:103C5000A890002204214846FDF74DFCDFF89CA007
:103C600000224FF478715046FDF745FC0125CDE95F
:103C7000004500240294694638460394FDF752FB40
:103C8000CDE90054694640460294FDF74BFB0720FE
:103C9000CDE90004694650460294FDF743FB0096C7
:103CA000CDE90154694640460394FDF73BFB0420EF
:103CB0000090CDE90154694648460394FDF732FB74
:103CC0004FF448700090CDE9015469465046039482
:103CD000FDF728FBC02000901120CDE901046946C2
:103CE00050460394FDF71EFB06B0BDE8F0870000C8
:103CF0000010024000080048000C00480004004882
:103D000010B598B00024149415941C210DA8169495
:103D1000FCF7B6FA34216846FCF7B2FA214820498C
:103D200001604F21C0E9011440F2E731C0E90314FA
:103D300044618461FEF740FE08B1FCF7BDFD1494B8
:103D400014A918481694FEF7DBF908B1FCF7B4FD86
:103D500060200D904FF4FA70CDE90E041094119488
:103D6000129400220DA90F481394FEF796FD08B196
:103D7000FCF7A2FD00944FF40050CDE904400194FB
:103D8000029403940694694606480C94FEF75EF983
:103D900008B1FCF791FD0348FEF758FD18B010BDBF
:103DA000004001401001002010B58CB0142104A87F
:103DB000FCF766FA002427480A940B9409940094AF
:103DC000019402944FF08041039401604F21C0E9B7
:103DD0000114611EC0E903148461FEF720FA08B1E2
:103DE000FCF76AFD1B48FEF724FB08B1FCF764FDF5
:103DF000042004905020CDE9050404A91548089436
:103E0000FEF737FE08B1FCF757FD099409A91148E0
:103E10000B94FEF775F908B1FCF74EFD0120CDE9D2
:103E200000400294002269460A480394FEF77AFA99
:103E300008B1FCF741FD0220009001900422694680
:103E40000448FEF76FFA002801D0FCF735FD0CB0EE
:103E500010BD0000C4000020184810B516490160CC
:103E60004FF416514160002181600C22C160C0E90D
:103E700004128161C161016241628162FEF762FFE9
:103E800008B1FCF719FD00210C48FEF764FE08B1EB
:103E9000FCF712FD00210948FEF737FE08B1FCF7D8
:103EA0000BFD0648FEF711FE002803D0BDE81040C8
:103EB000FCF702BD10BD0000003801405C0100208D
:103EC000FEE77047704730B501210020FFF70AFC7C
:103ED0004FF47A70FCF7E2FC00210120FFF702FCAE
:103EE00041F290711020FFF7FDFB4FF41C51602050
:103EF000FFF7F8FB01216120FFF7F4FB02214620C8
:103F0000FFF7F0FB48F210011320FFF7EBFB48F23C
:103F1000FE011220FFF7E6FB4FF4A0610220FFF73D
:103F2000E1FB41F230010320FFF7DCFB40F20334F8
:103F300021463020FFF7D6FB21463120FFF7D2FB88
:103F400021463220FFF7CEFBE51E29463320FFF73E
:103F5000C9FB03213420FFF7C5FB21463520FFF7BD
:103F6000C1FB14213620FFF7BDFB21463720FFF7A8
:103F7000B9FB21463820FFF7B5FB21463920FFF772
:103F8000B1FB29463A20FFF7ADFB03213B20FFF7A9
:103F9000A9FB21463C20FFF7A5FB4FF4A0513D2093
:103FA000FFF7A0FB4FF400719220FFF79BFB214627
:103FB0009320FFF797FB40F60D019020FFF792FB4F
:103FC00041F218010320FFF78DFBBDE8304040F2BD
:103FD00073110720FFF786BB10B543F20801E320F9
:103FE000FFF780FB1221E720FFF77CFB41F2312134
:103FF000EF20FFF777FB00210120FFF773FB4FF461
:10400000E0610220FFF76EFB41F230010320FFF771
:1040100069FB00210420FFF765FB40F2072108201F
:10402000FFF760FB00210920FFF75CFB00210A205D
:10403000FFF758FB00210C20FFF754FB00210D2057
:10404000FFF750FB00210F20FFF74CFB0021102051
:10405000FFF748FB07211120FFF744FB0021122046
:10406000FFF740FB00211320FFF73CFBC820FDF7C2
:1040700047F941F290611020FFF734FB40F227210D
:104080001120FFF72FFB3220FDF73AF91D211220F6
:10409000FFF728FB3220FDF733F94FF400611320BE
:1040A000FFF720FB14212920FFF71CFB0B212B20FD
:1040B000FFF718FB3220FDF723F900212020FFF73E
:1040C00011FB00212120FFF70DFB07213020FFF716
:1040D00009FB40F207713120FFF704FB0621322073
:1040E000FFF700FB40F204713520FFF7FBFA41F6C1
:1040F00004713620FFF7F6FA04213720FFF7F2FAB1
:1041000000213820FFF7EEFA40F206713920FFF760
:10411000E9FA40F201713C20FFF7E4FA0F213D205B
:10412000FFF7E0FA00215020FFF7DCFAEF215120E1
:10413000FFF7D8FA00215220FFF7D4FA40F23F11DE
:104140005320FFF7CFFA4FF41C516020FFF7CAFA53
:1041500001216120FFF7C6FA00216A20FFF7C2FAA9
:1041600000218020FFF7BEFA00218120FFF7BAFA74
:1041700000218220FFF7B6FA00218320FFF7B2FA70
:1041800000218420FFF7AEFA00218520FFF7AAFA6C
:1041900010219020FFF7A6FA00219220FFF7A2FA43
:1041A00003219320FFF79EFA4FF488719520FFF7C3
:1041B00099FA00219720FFF795FA00219820FFF740
:1041C00091FA41F218010320FFF78CFABDE8104084
:1041D00040F273110720FFF785BA000008B10448C8
:1041E00001E003481030016841F040010160704770
:1041F0001804004810B580210348FDF777F901281D
:1042000000D0002010BD00000004004800B585B0BB
:1042100014216846FCF734F88020009000200190BB
:10422000012002900220039069460248FDF77AF8C7
:1042300005B000BD0004004808B1044801E003488F
:104240001030016841F08001016070471804004897
:1042500000B585B014216846FCF712F88020009064
:10426000112001900020029002200390694602482C
:10427000FDF758F805B000BD000400487047000085
:1042800010B5FDF743F90E480168491C016001684B
:104290006422B1FBF2F302FB131119B909490A6850
:1042A000521C0A6000684FF47A71B0FBF1F201FB16
:1042B0001200002803D104480168491C016010BDA8
:1042C000180000201C0000204400002010B5A4B0FD
:1042D00038216846FBF7D4FF14211FA8FBF7D0FF55
:1042E00044210EA8FBF7CCFF4FF40070FDF7A4F9B2
:1042F000012000900004019002200324CDE907046E
:104300001421CDE90A100C900D9009946846FDF730
:104310007FFC0F20CDE91F04002421942294032167
:104320001FA82394FDF72AFB48F20100CDE90E04F3
:1043300040071D900EA8FDF7DDF924B010BD000068
:104340000548016841F47001016003494FF00060C5
:10435000803908607047000088ED00E00148FEF7F2
:1043600077B90000C40000202DE9F0430268234B18
:10437000234D244E244C4FF08049984207D04845A5
:1043800005D0A84203D0B04201D0A04203D122F010
:1043900070074A683A431D4FDFF874C0DFF8748035
:1043A00098420DD048450BD0A84209D0B04207D062
:1043B000A04205D0B84203D0604501D0404503D1AA
:1043C00022F44075CA682A434D6922F080022A43CC
:1043D00002608A68C2620A688262984207D0A0427C
:1043E00005D0B84203D0604501D0404501D10969EC
:1043F000016301214161BDE8F0830000002C014010
:10440000000400400008004000340140004001402A
:10441000004401400048014010B501F01F03012194
:10442000046A99408C430462016A9A401143016214
:1044300010BD10B501F01F030421046A99408C439C
:104440000462016A9A401143016210BD10B584688C
:1044500042EA032224F47F440A432243826010BDCF
:104460002DE9F043026A22F001020262056A436804
:1044700082691C4C25F0020522400C6822F00302E0
:1044800014438A68194E2A43174D194FDFF864C048
:10449000DFF86490A84207D0B04205D0B84203D0FC
:1044A000604501D0484506D122F00808CA6842EAB2
:1044B000080222F00402A84207D0B04205D0B84258
:1044C00003D0604501D0484505D14D6923F44073C0
:1044D0001D438B692B4343608461496841630262D9
:1044E000BDE8F0838FFFFEFF002C01400034014047
:1044F000004001400044014000480140F0B5026A1C
:1045000022F010020262056A42688369194C1B4E50
:1045100023400C6823F4407343EA042425F020036D
:104520008D6843EA0513144DA84201D0B04206D16C
:10453000CF6823F0800343EA071323F04003A84227
:104540000AD0B04208D00E4DA84205D00D4DA84269
:1045500002D00D4DA84207D14D6922F4406242EAD3
:1045600085028D6942EA85024260846149688163FF
:104570000362F0BDFF8FFFFE002C014000340140BC
:10458000004001400044014000480140F0B5026A8B
:1045900022F480720262056A4368C269194C1B4E9C
:1045A00022400C6822F00302144325F400728D6847
:1045B00042EA0522144DA84201D0B04206D1CF688C
:1045C00022F4006242EA072222F48062A8420AD062
:1045D000B04208D00E4DA84205D00E4DA84202D0E0
:1045E0000D4DA84207D14D6923F4405343EA05130A
:1045F0008D6943EA05134360C4614968C16302627F
:10460000F0BD00008FFFFEFF002C01400034014090
:10461000004001400044014000480140F0B5026AFA
:1046200022F480520262056A4268C369194C1B4E2B
:1046300023400C6823F4407343EA042425F4005318
:104640008D6843EA0533144DA84201D0B04206D12B
:10465000CF6823F4004343EA073323F48043A8429E
:104660000AD0B04208D00E4DA84205D00D4DA84248
:1046700002D00D4DA84207D14D6922F4404242EAD2
:1046800085128D6942EA85124260C46149680164FD
:104690000362F0BDFF8FFFFE002C0140003401409B
:1046A00000400140004401400048014030B5026A2A
:1046B00022F480320262046A4268036D114D2B407D
:1046C0000D681D4324F400330C8943EA04430E4C67
:1046D000A0420BD00D4CA04208D00D4CA04205D0FA
:1046E0000C4CA04202D00C4CA04204D14C6922F4E4
:1046F000803242EA042242600565496881640362AF
:1047000030BD00008FFFFEFF002C0140003401404F
:1047100000400140004401400048014030B5026AB9
:1047200022F480120262046A4268036D114D24F47F
:1047300000142B400D6843EA05230D8944EA055413
:104740000D4DA8420BD00D4DA84208D00C4DA842EB
:1047500005D00C4DA84202D00B4DA84204D14D69A2
:1047600022F4802242EA8522426003654968C164DE
:10477000046230BDFF8FFFFE002C01400034014079
:1047800000400140004401400048014010B5046869
:10479000A268234B1A404B681343224A13400A680D
:1047A0001A43A2604A68702A0DD037DC12F00F0F4E
:1047B00034D14FEA2212072A30D2DFE802F02F2F3D
:1047C0002F2F0B242A000B69D1E902210068FFF783
:1047D0003DFE23E00A68052A13D0B2F1011F10D074
:1047E0000268136A146A24F001041462026894696E
:1047F000096924F0F00444EA011191610068036240
:104800000CE0012010BD0A698968006800F00CF80E
:1048100004E00A698968006800F04EF8002010BDC5
:104820008FFFCFFFF8FFFEFF10B5036A046A24F084
:1048300001040462846924F0F00444EA021423F0C1
:104840000A020A438461026210BD000070B5046A66
:1048500024F0010404628469056A124EB0420ED04D
:10486000B0F1804F0BD0104EB04208D00F4EB04286
:1048700005D00F4EB04202D00E4EB04203D124F00C
:104880000304144301E044F001041A0724F0F00487
:1048900044EA126225F00A0301F00A011943826119
:1048A000016270BD002C014000040040000800407F
:1048B000003401400040014010B5036A23F01003AA
:1048C00003628369046A23F4704343EA023224F0EA
:1048D000A00343EA01118261016210BD30B5046A90
:1048E00024F0100404628469056A24F4407444EAE4
:1048F000022222F470444FF6FF7202EA033222438E
:10490000A02425F0A00304EA011119438261016289
:1049100030BD00003FB514A1D1E90021CDE900214F
:1049200013A2D2E90012CDE90212416EB9B10268B8
:1049300091689268C1F34261520F1DF80240E50090
:1049400002ACA25CB5FBF2F2A0F86A201DF80120CF
:10495000615CD200B2FBF1F1A0F868103FBD01210B
:10496000A0F86A10F8E70000010101030701000048
:10497000080402040801010190F82810C90706D0B4
:1049800001684A68C36A22F400321A434A6090F808
:104990002810890706D501684A68036B22F4803223
:1049A0001A434A6090F82810490706D501684A68FA
:1049B000436B22F480221A434A6090F828100907BA
:1049C00006D501684A68836B22F400421A434A60A4
:1049D00090F82810C90606D501688A68C36B22F4CE
:1049E00080521A438A6090F82810890606D501681B
:1049F0008A68036C22F400521A438A6090F82810E7
:104A0000490611D501684A68436C22F480121A43A2
:104A10004A60416CB1F5801F06D101684A68836C19
:104A200022F4C0021A434A6090F82810090606D5FD
:104A300001684A68C06C22F4002202434A60704751
:104A4000F8B500260446C0F88860FCF759FD054615
:104A5000206800686FF07E47000708D52B460022CB
:104A60004FF400112046009700F0A0FD60B92068C7
:104A7000006840070AD52B4600224FF480012046EB
:104A8000009700F093FD08B10320F8BD2020C4F882
:104A90008000C4F8840084F87C600020F8BD10B564
:104AA000806A0021A0F85E10A0F85610FEF77BF88F
:104AB00010BD000001680A6822F490720A60016863
:104AC0008A68044B1A408A602021C0F884100021B3
:104AD000C1667047FEFFFFEF10B5B0F86020D0F858
:104AE00084300168222B04D0886940F00800886176
:104AF00010BD496A836D11401980816D891C8165E3
:104B0000B0F85E10491EA0F85E10B0F85E100029E3
:104B1000EED101680A6822F490720A6001688A681E
:104B200022F001028A602021C0F884100021C166B1
:104B3000FEF7F6F910BD000070B50446B0F86060ED
:104B4000D0F88400222805D02068816941F008014E
:104B5000816170BDB4F8685023E02068406AA16D9F
:104B600030400880A06D801CA065B4F85E00401E37
:104B7000A4F85E00B4F85E0088B92068016821F4EA
:104B80008071016020688168114A11408160202095
:104B9000C4F884000020E0662046FEF7C1F96D1ECF
:104BA000ADB2002DD9D1B4F85E000028D1D0B4F850
:104BB00068108142CDD92068816821F080518160E0
:104BC0000448E0662068016841F02001016070BD82
:104BD000FEFFFFEFD94A000810B5B0F86020D0F80A
:104BE00084300168222B04D0886940F00800886175
:104BF00010BD496A1140826D1170816D491C81653B
:104C0000B0F85E10491EA0F85E10B0F85E100029E2
:104C1000EED101680A6822F490720A6001688A681D
:104C200022F001028A602021C0F884100021C166B0
:104C3000FEF776F910BD000070B50446B0F860606C
:104C4000D0F88400222805D02068816941F008014D
:104C5000816170BDB4F8685023E02068406AA16D9E
:104C600030400870A06D401CA065B4F85E00401E86
:104C7000A4F85E00B4F85E0088B92068016821F4E9
:104C80008071016020688168114A11408160202094
:104C9000C4F884000020E0662046FEF741F96D1E4E
:104CA000ADB2002DD9D1B4F85E000028D1D0B4F84F
:104CB00068108142CDD92068816821F080518160DF
:104CC0000448E0662068016841F02001016070BD81
:104CD000FEFFFFEFD94B00082DE9F05F04460168A5
:104CE00080682369E5691843636900272B431843EB
:104CF000636EFA4A03430868F94D28401843086078
:104D000020684168E36821F44051194341602168FB
:104D1000A069914201D0236A18438B68F14D2B4062
:104D200003438B602068C16A636A21F00F01194355
:104D3000C162ED4B2068ED4998420DD1D1F8881041
:104D400011F0030106D001295AD0022956D00329B7
:104D50003FD157E001253DE0E54B98420BD1D1F81A
:104D6000881011F00C0147D0042949D0082945D0FA
:104D70000C292ED146E0DF4B98420BD1D1F8881098
:104D800011F0300138D010293AD0202936D03029FE
:104D90001FD137E0D84B98420BD1D1F8881011F0D1
:104DA000C00129D040292BD0802927D0C02910D17B
:104DB00028E090420DD1D1F8881011F440611BD049
:104DC000B1F5806F1CD0B1F5006F17D0B1F5406F11
:104DD00018D01025DFF824A34FF480764FF0000997
:104DE0004FF4004B90426ED175B1022D29D0042DA5
:104DF00059D0082D68D176E00025EBE70225E9E7D8
:104E00000425E7E70825E5E7FCF7A6FE4DE00128C5
:104E100051D0022851D0032851D0042851D0052860
:104E200053D0062853D0072853D0082853D0092838
:104E300053D00A2853D00B2853D03AE0B1FBF0F0FE
:104E40006CE0606AA8B1012817D0022817D00328A7
:104E500017D0042817D0052817D0062817D0072800
:104E600017D0082817D0092817D00A2817D00B28E0
:104E700017D00120BAFBF0F050E00220FAE704203E
:104E8000F8E70620F6E70820F4E70A20F2E70C200E
:104E9000F0E71020EEE72020ECE74020EAE7802052
:104EA000E8E73046E6E7FCF77BFE0146606A00284B
:104EB000ADD10120C2E70220C0E70420BEE70620F2
:104EC000BCE70820BAE761E14AE00A20B6E70C2017
:104ED000B4E71020B2E72020B0E74020AEE7802002
:104EE000ACE73046AAE7606AA8B1012822D00228C0
:104EF00022D0032822D0042822D0052822D0062838
:104F000022D0072822D0082822D0092822D00A2817
:104F100022D00B2822D00120BBFBF0F0002820D0AB
:104F20006168884601EB4101814219D8B0EB083F26
:104F300016D817E00220EFE70420EDE70620EBE7A4
:104F40000820E9E70A20E7E70C20E5E71020E3E77F
:104F50002020E1E74020DFE78020DDE73046DBE787
:104F6000012739E27DB3022D61D0042D7DD0082DBB
:104F7000F6D1606AA8B1012878D0022877D003283A
:104F800076D0042875D0052874D0062873D0072859
:104F900072D0082871D0092870D00A286FD00B2849
:104FA00000D0012632464D46002358460021FBF72B
:104FB0002FF9090241EA106102024FEA5800101865
:104FC0006941424670E0FFE7FCF7C6FD0146606AB2
:104FD000A8B1012817D0022817D0032817D0042819
:104FE00017D0052817D0062817D0072817D008286B
:104FF00017D0092817D00A2817D00B2800D001266F
:1050000032464D468CE00226FAE70426F8E70626EB
:10501000F6E70826F4E70A26F2E70C26F0E7102662
:10502000EEE72026ECE74026EAE78026E8E7606A1C
:10503000A8B1012824D0022824D0032824D0042891
:1050400024D0052824D0062824D0072824D00828D6
:1050500024D0092824D00A2824D00B2800D00126E7
:1050600032464D4600235046A0E726E07AE07BE03A
:105070007CE07DE07EE07FE080E081E082E083E034
:105080000226EDE70426EBE70626E9E70826E7E730
:105090000A26E5E70C26E3E71026E1E72026DFE70E
:1050A0004026DDE78026DBE70023FBF7B1F8144A52
:1050B000A0F54071914271D952E7FCF771FD0146AC
:1050C000606A50B3012839D0022839D0032839D07A
:1050D000042839D0052839D0062813E00080004084
:1050E000F369FFCFFFF4FF110038014000100240C8
:1050F0000044004000480040004C00400024F40000
:10510000FFFC0F0024D0072824D0082824D0092829
:1051100024D00A2824D00B2800D001264D46324640
:10512000002308461946FBF773F80902626841EA52
:1051300010610302500818186941B5E70226EDE72F
:105140000426EBE70626E9E70826E7E70A26E5E76F
:105150000C26E3E71026E1E72026DFE74026DDE71F
:105160008026DBE702261DE704261BE7062619E753
:10517000082617E70A2615E70C2613E7102611E77D
:1051800020260FE740260DE780260BE7E0694FF663
:10519000EF78584570D1092D8ED200E01AE1DFE892
:1051A00005F006093C05800505058300D8E6FCF7F7
:1051B000D3FC01E0FCF7E2FC0146606AA8B10128DB
:1051C00015D0022815D0032815D0042815D005289D
:1051D00015D0062815D0072815D0082815D009287D
:1051E00015D00A2815D00B2814D0012612E002266B
:1051F00010E004260EE006260CE008260AE00A2647
:1052000008E00C2606E0102604E0202602E04026F6
:1052100000E08026B1FBF6F01AE0606AA8B1012830
:105220002BD002282BD003282BD004282BD00528E4
:105230002BD006282BD007282BD008282BD00928C4
:105240002BD00A282BD00B2800D00126BAFBF6F071
:105250004100606801EB5001B1FBF0F080B2A0F1B9
:1052600010014145A2D84FF6F0710140C0F3420051
:1052700001432068C160AFE046E00226E6E704266D
:10528000E4E70626E2E70826E0E70A26DEE70C2642
:10529000DCE71026DAE72026D8E74026D6E7802686
:1052A000D4E7FCF77DFC87E7606AA8B1012817D036
:1052B000022817D0032817D0042817D0052817D0A4
:1052C000062817D0072817D0082817D0092817D084
:1052D0000A2817D00B2800D00126BBFBF6F0B7E751
:1052E0000226FAE70426F8E70626F6E70826F4E79A
:1052F0000A26F2E70C26F0E71026EEE72026ECE778
:105300004026EAE78026E8E7092DBFF4D5AEDFE8BE
:1053100005F006093C0583050505860020E6FCF737
:105320001BFC01E0FCF72AFC0146606AA8B10128D9
:1053300015D0022815D0032815D0042815D005282B
:1053400015D0062815D0072815D0082815D009280B
:1053500015D00A2815D00B2814D0012612E00226F9
:1053600010E004260EE006260CE008260AE00A26D5
:1053700008E00C2606E0102604E0202602E0402685
:1053800000E08026B1FBF6F11AE0606AA8B10128BE
:105390002ED002282ED003282ED004282ED0052867
:1053A0002ED006282ED007282ED008282ED0092847
:1053B0002ED00A282ED00B2800D00126BAFBF6F1F9
:1053C000606801EB5001B1FBF0F080B2A0F1100178
:1053D0004145A3D82168C8600120A4F86A0024F8D8
:1053E000680F3846C4F80490C4F80890BDE8F09FF0
:1053F0000226E3E70426E1E70626DFE70826DDE7E5
:105400000A26DBE70C26D9E71026D7E72026D5E7C2
:105410004026D3E78026D1E7FCF7C2FB84E7606A29
:10542000A8B1012817D0022817D0032817D00428C4
:1054300017D0052817D0062817D0072817D0082816
:1054400017D0092817D00A2817D00B2800D001261A
:10545000BBFBF6F1B4E70226FAE70426F8E70626D6
:10546000F6E70826F4E70A26F2E70C26F0E710260E
:10547000EEE72026ECE74026EAE78026E8E7D0F8CA
:105480008010212910D1B0F8561071B1016D026859
:105490000988C1F308019162016D891C0165B0F8AA
:1054A0005610491EA0F85610704701680A6822F08D
:1054B00080020A600068016841F0400101607047A5
:1054C000D0F8801021291BD1B0F86A1016E000BF77
:1054D000B0F85620AAB10268D3691B060CD5036D3B
:1054E0001B88C3F308039362026D921C0265B0F837
:1054F0005620521EA0F85620491E89B20029E7D135
:10550000704701688A6822F400028A6000680168B6
:1055100041F0400101607047D0F8801021290ED180
:10552000B0F8561061B1016D026809789162016DA1
:10553000491C0165B0F85610491EA0F85610704776
:1055400001680A6822F080020A600068016841F080
:105550004001016070470000D0F88010212919D166
:10556000B0F86A1014E000BFB0F856209AB1026893
:10557000D3691B060AD5036D1B789362026D521C1A
:105580000265B0F85620521EA0F85620491E89B276
:105590000029E9D1704701688A6822F400028A6014
:1055A0000068016841F04001016070472DE9F04159
:1055B000984617460E460446069D08E0681C06D02D
:1055C000FBF79EFFA0EB0800A8420BD855B120685E
:1055D000C06936EA000019D00020B842EED00020A1
:1055E000BDE8F0812068016821F4D0710160206875
:1055F000816821F0010181602020C4F88000C4F896
:105600008400002084F87C000320E9E70120E4E71F
:105610000148FDF7C9BA00005C010020FEE7000068
:1056200070B5184C184D6078B8B12069616A401A9D
:1056300041F2883188420FD300206070FDF7DAFE16
:10564000207820F001002070296840F2E730C8621D
:105650004FF4FA702968486370BDFDF739FE0128E0
:10566000FAD120696062012060700020FDF7C2FE5F
:10567000207840F001002070296840F2F310C862E1
:105680003220E7E708000020100100200FB4084B8B
:1056900010B504A902AA039800F0EEF8044602A986
:1056A000002000F080FC204610BC5DF814FB0000D8
:1056B000A75F00080907090E002804DB00F1E020BD
:1056C00080F80014704700F00F0000F1E02080F82F
:1056D000141D704702E008C8121F08C1002AFAD141
:1056E00070477047002001E001C1121F002AFBD162
:1056F000704700002DE9FF5F82B00021DDE9043032
:10570000020DDDF840B0034318D044F61050A2F269
:10571000FF3242431514119801281FD0A5EB0B004E
:10572000401C5FEA000A4FF000064E4FDFF8389148
:10573000B046504615D5CAF1000413E01198012473
:105740004AA3012801D16FEA0B010298119AC0E91E
:105750000031C0E9024206B0BDE8F09FCBF1000085
:10576000DFE704460021404A491842EB0450CDE9E6
:10577000001012E0E00707D032463B46404649465B
:10578000FAF789FD8046894632463B46104619465F
:10579000FAF781FD06460F466410002CEAD1DDE9D8
:1057A0000401DDE90023BAF1000F06DAFAF773FD10
:1057B00042464B46FAF76FFD05E0FAF7DEFD42463A
:1057C0004B46FAF7DAFD04460E460022284BFAF75C
:1057D000A1FF03D84FF0FF30014607E00022254B20
:1057E00020463146FAF7D7FEFAF77CFF102409E08D
:1057F000002C0ADB0A220023FAF70AFD039B303251
:105800001A55641E50EA0102F2D1641C039AC4F1D5
:1058100011031444119A012A03D0012208430DD127
:105820000AE0084304D000204FF0110B119072E7FA
:10583000A3EB0B056D1E0DE05B4504DD4FF0000290
:1058400005F1010504E003DA4FF00002A5F10105BE
:10585000002AECD002981199C0E90231C0E9004554
:1058600079E70000000014400000F03F3000000025
:105870000000F0430000E03F2DE9FF4F95B09B464C
:105880008946064600250FE2252877D100242746C1
:10589000F84A0121059400E0044316F8013F203B3B
:1058A00001FA03F01042F7D130782A2811D06FF0B6
:1058B0002F033078A0F13002092A16D8059A44F057
:1058C000020402EB820203EB42021044761C0590B4
:1058D000EFE759F8042B0592002A03DA504244F40A
:1058E0000054059044F00204761C30782E2816D11E
:1058F00016F8010F44F004042A280DD06FF02F028F
:105900003078A0F13003092B09D807EB870302EBAD
:105910004303C718761CF3E759F8047B761C3078EC
:105920006C280FD006DC4C2817D068280DD06A28C8
:1059300014D104E0742810D07A280FD10DE044F47B
:1059400000140AE044F4801401E044F44014727836
:10595000824202D104F58014761C761C30786628C9
:105960000BD013DC582877D009DC002875D04528E7
:10597000F6D04628F4D047281AD19DE118E06328D4
:1059800035D0642879D0652812D195E1702873D07C
:1059900008DC6728F1D069286FD06E280DD06F28F9
:1059A00006D1B5E073282CD0752875D0782874D02E
:1059B0005A46179990476D1C75E1C4F302500228AE
:1059C00009D003280DD0D9F8001004280DD00D609F
:1059D00009F1040967E1D9F80010EA17C1E900529A
:1059E000F6E7D9F800100D80F2E70D70F0E719F82E
:1059F000041B8DF8001000208DF80100EA460120FC
:105A000003E059F804AB4FF0FF3061074FF000019D
:105A100002D40DE008F101018846B9420FDA804551
:105A2000F8DB1AF808100029F4D108E008F10101A8
:105A300088468142FADB1AF808100029F6D1059849
:105A40005B46A0EB080721463846179A00F094FA07
:105A5000284400EB080507E04DE029E10DE01AF8C5
:105A6000010B5A4617999047B8F10108F7D25B46E7
:105A700021463846179A13E142E00A220092C4F305
:105A800002524FF0000A022A08D059F804CB032A28
:105A90004FEAEC710AD00DE029E02AE009F1070194
:105AA00021F00702F2E802C1914609E00FFA8CFCEE
:105AB0004FEAEC71042A03D14FFA8CFC4FEAEC71E7
:105AC000002907DA0A460021DCF1000C61EB020133
:105AD0002D2202E0220504D52B228DF8042001227C
